{
  "contractName": "Users",
  "abi": [
    {
      "inputs": [],
      "payable": false,
      "stateMutability": "nonpayable",
      "type": "constructor"
    },
    {
      "anonymous": false,
      "inputs": [
        {
          "indexed": false,
          "internalType": "string",
          "name": "fileReference",
          "type": "string"
        },
        {
          "indexed": false,
          "internalType": "uint256",
          "name": "index",
          "type": "uint256"
        }
      ],
      "name": "AddedFile",
      "type": "event"
    },
    {
      "anonymous": false,
      "inputs": [
        {
          "indexed": true,
          "internalType": "address",
          "name": "userAddress",
          "type": "address"
        },
        {
          "indexed": false,
          "internalType": "uint256",
          "name": "index",
          "type": "uint256"
        },
        {
          "indexed": false,
          "internalType": "bytes32",
          "name": "userEmail",
          "type": "bytes32"
        }
      ],
      "name": "CreatedUser",
      "type": "event"
    },
    {
      "anonymous": false,
      "inputs": [
        {
          "indexed": false,
          "internalType": "address",
          "name": "userAddress",
          "type": "address"
        },
        {
          "indexed": false,
          "internalType": "uint256",
          "name": "index",
          "type": "uint256"
        }
      ],
      "name": "DeletedUser",
      "type": "event"
    },
    {
      "anonymous": false,
      "inputs": [
        {
          "indexed": true,
          "internalType": "bytes32",
          "name": "role",
          "type": "bytes32"
        },
        {
          "indexed": true,
          "internalType": "address",
          "name": "account",
          "type": "address"
        }
      ],
      "name": "GrantRole",
      "type": "event"
    },
    {
      "anonymous": false,
      "inputs": [
        {
          "indexed": true,
          "internalType": "address",
          "name": "userAddress",
          "type": "address"
        },
        {
          "indexed": false,
          "internalType": "uint256",
          "name": "index",
          "type": "uint256"
        },
        {
          "indexed": false,
          "internalType": "uint256",
          "name": "allowedUploads",
          "type": "uint256"
        },
        {
          "indexed": false,
          "internalType": "enum Users.VerificationStatus",
          "name": "verifyStatus",
          "type": "uint8"
        }
      ],
      "name": "LogUpdateUserByAdmin",
      "type": "event"
    },
    {
      "anonymous": false,
      "inputs": [
        {
          "indexed": true,
          "internalType": "bytes32",
          "name": "role",
          "type": "bytes32"
        },
        {
          "indexed": true,
          "internalType": "address",
          "name": "account",
          "type": "address"
        }
      ],
      "name": "RemoveRole",
      "type": "event"
    },
    {
      "anonymous": false,
      "inputs": [
        {
          "indexed": false,
          "internalType": "address",
          "name": "oldOwner",
          "type": "address"
        },
        {
          "indexed": false,
          "internalType": "address",
          "name": "newOwner",
          "type": "address"
        },
        {
          "indexed": false,
          "internalType": "uint256",
          "name": "fileId",
          "type": "uint256"
        }
      ],
      "name": "TransferredFile",
      "type": "event"
    },
    {
      "anonymous": false,
      "inputs": [
        {
          "indexed": true,
          "internalType": "address",
          "name": "userAddress",
          "type": "address"
        },
        {
          "indexed": false,
          "internalType": "uint256",
          "name": "index",
          "type": "uint256"
        },
        {
          "indexed": false,
          "internalType": "bytes32",
          "name": "userEmail",
          "type": "bytes32"
        }
      ],
      "name": "UpdatedUser",
      "type": "event"
    },
    {
      "constant": true,
      "inputs": [],
      "name": "owner",
      "outputs": [
        {
          "internalType": "address",
          "name": "",
          "type": "address"
        }
      ],
      "payable": false,
      "stateMutability": "view",
      "type": "function"
    },
    {
      "constant": true,
      "inputs": [
        {
          "internalType": "bytes32",
          "name": "",
          "type": "bytes32"
        },
        {
          "internalType": "address",
          "name": "",
          "type": "address"
        }
      ],
      "name": "roles",
      "outputs": [
        {
          "internalType": "bool",
          "name": "",
          "type": "bool"
        }
      ],
      "payable": false,
      "stateMutability": "view",
      "type": "function"
    },
    {
      "constant": false,
      "inputs": [
        {
          "internalType": "address",
          "name": "_account",
          "type": "address"
        }
      ],
      "name": "grantAdminRole",
      "outputs": [],
      "payable": false,
      "stateMutability": "nonpayable",
      "type": "function"
    },
    {
      "constant": false,
      "inputs": [
        {
          "internalType": "address",
          "name": "_account",
          "type": "address"
        }
      ],
      "name": "grantWriteRole",
      "outputs": [],
      "payable": false,
      "stateMutability": "nonpayable",
      "type": "function"
    },
    {
      "constant": false,
      "inputs": [
        {
          "internalType": "address",
          "name": "_account",
          "type": "address"
        }
      ],
      "name": "grantReadRole",
      "outputs": [],
      "payable": false,
      "stateMutability": "nonpayable",
      "type": "function"
    },
    {
      "constant": false,
      "inputs": [
        {
          "internalType": "address",
          "name": "_account",
          "type": "address"
        }
      ],
      "name": "deleteAdminRole",
      "outputs": [],
      "payable": false,
      "stateMutability": "nonpayable",
      "type": "function"
    },
    {
      "constant": false,
      "inputs": [
        {
          "internalType": "address",
          "name": "_account",
          "type": "address"
        }
      ],
      "name": "deleteWriteRole",
      "outputs": [],
      "payable": false,
      "stateMutability": "nonpayable",
      "type": "function"
    },
    {
      "constant": false,
      "inputs": [
        {
          "internalType": "address",
          "name": "_account",
          "type": "address"
        }
      ],
      "name": "deleteReadRole",
      "outputs": [],
      "payable": false,
      "stateMutability": "nonpayable",
      "type": "function"
    },
    {
      "constant": true,
      "inputs": [],
      "name": "getRoleForUser",
      "outputs": [
        {
          "internalType": "uint8",
          "name": "role",
          "type": "uint8"
        }
      ],
      "payable": false,
      "stateMutability": "view",
      "type": "function"
    },
    {
      "constant": true,
      "inputs": [
        {
          "internalType": "address",
          "name": "userAddress",
          "type": "address"
        }
      ],
      "name": "isUser",
      "outputs": [
        {
          "internalType": "bool",
          "name": "isRegistered",
          "type": "bool"
        }
      ],
      "payable": false,
      "stateMutability": "view",
      "type": "function"
    },
    {
      "constant": true,
      "inputs": [],
      "name": "getUserCount",
      "outputs": [
        {
          "internalType": "uint256",
          "name": "count",
          "type": "uint256"
        }
      ],
      "payable": false,
      "stateMutability": "view",
      "type": "function"
    },
    {
      "constant": true,
      "inputs": [
        {
          "internalType": "uint256",
          "name": "index",
          "type": "uint256"
        }
      ],
      "name": "getUserAtIndex",
      "outputs": [
        {
          "internalType": "address",
          "name": "userAddress",
          "type": "address"
        }
      ],
      "payable": false,
      "stateMutability": "view",
      "type": "function"
    },
    {
      "constant": false,
      "inputs": [
        {
          "internalType": "address",
          "name": "userAddress",
          "type": "address"
        },
        {
          "internalType": "bytes32",
          "name": "userEmail",
          "type": "bytes32"
        },
        {
          "internalType": "string",
          "name": "firstName",
          "type": "string"
        },
        {
          "internalType": "string",
          "name": "lastName",
          "type": "string"
        },
        {
          "internalType": "bytes32",
          "name": "country",
          "type": "bytes32"
        },
        {
          "internalType": "string",
          "name": "description",
          "type": "string"
        }
      ],
      "name": "insertUser",
      "outputs": [
        {
          "internalType": "uint256",
          "name": "index",
          "type": "uint256"
        }
      ],
      "payable": false,
      "stateMutability": "nonpayable",
      "type": "function"
    },
    {
      "constant": true,
      "inputs": [
        {
          "internalType": "address",
          "name": "userAddress",
          "type": "address"
        }
      ],
      "name": "getUser",
      "outputs": [
        {
          "components": [
            {
              "internalType": "bytes32",
              "name": "userEmail",
              "type": "bytes32"
            },
            {
              "internalType": "uint256",
              "name": "dateOfRegistration",
              "type": "uint256"
            },
            {
              "internalType": "string",
              "name": "firstName",
              "type": "string"
            },
            {
              "internalType": "string",
              "name": "lastName",
              "type": "string"
            },
            {
              "internalType": "bytes32",
              "name": "country",
              "type": "bytes32"
            },
            {
              "internalType": "string",
              "name": "description",
              "type": "string"
            },
            {
              "internalType": "uint256",
              "name": "allowedUploads",
              "type": "uint256"
            },
            {
              "internalType": "uint256",
              "name": "index",
              "type": "uint256"
            },
            {
              "internalType": "enum Users.VerificationStatus",
              "name": "verifyStatus",
              "type": "uint8"
            },
            {
              "internalType": "bool",
              "name": "uploadingInProgess",
              "type": "bool"
            }
          ],
          "internalType": "struct Users.UserModelStruct",
          "name": "",
          "type": "tuple"
        }
      ],
      "payable": false,
      "stateMutability": "view",
      "type": "function"
    },
    {
      "constant": false,
      "inputs": [
        {
          "internalType": "address",
          "name": "userAddress",
          "type": "address"
        }
      ],
      "name": "deleteUser",
      "outputs": [
        {
          "internalType": "uint256",
          "name": "index",
          "type": "uint256"
        }
      ],
      "payable": false,
      "stateMutability": "nonpayable",
      "type": "function"
    },
    {
      "constant": false,
      "inputs": [
        {
          "internalType": "address",
          "name": "userAddress",
          "type": "address"
        },
        {
          "internalType": "uint256",
          "name": "allowedUploads",
          "type": "uint256"
        },
        {
          "internalType": "enum Users.VerificationStatus",
          "name": "verifyStatus",
          "type": "uint8"
        }
      ],
      "name": "updateUserByAdmin",
      "outputs": [
        {
          "internalType": "bool",
          "name": "success",
          "type": "bool"
        }
      ],
      "payable": false,
      "stateMutability": "nonpayable",
      "type": "function"
    },
    {
      "constant": false,
      "inputs": [
        {
          "internalType": "address",
          "name": "userAddress",
          "type": "address"
        },
        {
          "internalType": "bytes32",
          "name": "userEmail",
          "type": "bytes32"
        },
        {
          "internalType": "string",
          "name": "firstName",
          "type": "string"
        },
        {
          "internalType": "string",
          "name": "lastName",
          "type": "string"
        },
        {
          "internalType": "bytes32",
          "name": "country",
          "type": "bytes32"
        },
        {
          "internalType": "string",
          "name": "description",
          "type": "string"
        },
        {
          "internalType": "enum Users.VerificationStatus",
          "name": "verifyStatus",
          "type": "uint8"
        }
      ],
      "name": "updateUser",
      "outputs": [
        {
          "internalType": "bool",
          "name": "success",
          "type": "bool"
        }
      ],
      "payable": false,
      "stateMutability": "nonpayable",
      "type": "function"
    },
    {
      "constant": false,
      "inputs": [
        {
          "internalType": "address",
          "name": "userAddress",
          "type": "address"
        }
      ],
      "name": "setVerified",
      "outputs": [
        {
          "internalType": "bool",
          "name": "isRegistered",
          "type": "bool"
        }
      ],
      "payable": false,
      "stateMutability": "nonpayable",
      "type": "function"
    },
    {
      "constant": true,
      "inputs": [
        {
          "internalType": "address",
          "name": "userAddress",
          "type": "address"
        }
      ],
      "name": "getFilesForAddress",
      "outputs": [
        {
          "internalType": "uint256[]",
          "name": "filesForAddress",
          "type": "uint256[]"
        }
      ],
      "payable": false,
      "stateMutability": "view",
      "type": "function"
    },
    {
      "constant": true,
      "inputs": [
        {
          "internalType": "string",
          "name": "tag",
          "type": "string"
        }
      ],
      "name": "getFilesForTag",
      "outputs": [
        {
          "internalType": "uint256[]",
          "name": "filesForTag",
          "type": "uint256[]"
        }
      ],
      "payable": false,
      "stateMutability": "view",
      "type": "function"
    },
    {
      "constant": false,
      "inputs": [
        {
          "internalType": "uint256",
          "name": "fileId",
          "type": "uint256"
        },
        {
          "internalType": "string[]",
          "name": "newTags",
          "type": "string[]"
        }
      ],
      "name": "addNewTagsToFile",
      "outputs": [
        {
          "internalType": "bool",
          "name": "areTagsAdded",
          "type": "bool"
        }
      ],
      "payable": false,
      "stateMutability": "nonpayable",
      "type": "function"
    },
    {
      "constant": false,
      "inputs": [
        {
          "internalType": "uint256",
          "name": "fileId",
          "type": "uint256"
        },
        {
          "internalType": "string[]",
          "name": "existingTags",
          "type": "string[]"
        }
      ],
      "name": "addTagsToFile",
      "outputs": [
        {
          "internalType": "bool",
          "name": "areTagsAdded",
          "type": "bool"
        }
      ],
      "payable": false,
      "stateMutability": "nonpayable",
      "type": "function"
    },
    {
      "constant": false,
      "inputs": [
        {
          "internalType": "address",
          "name": "userAddress",
          "type": "address"
        },
        {
          "internalType": "string",
          "name": "fileTitle",
          "type": "string"
        },
        {
          "internalType": "string",
          "name": "fileReference",
          "type": "string"
        },
        {
          "internalType": "uint256",
          "name": "fileSize",
          "type": "uint256"
        },
        {
          "internalType": "string",
          "name": "fileType",
          "type": "string"
        },
        {
          "internalType": "string",
          "name": "description",
          "type": "string"
        },
        {
          "internalType": "bytes32",
          "name": "country",
          "type": "bytes32"
        },
        {
          "internalType": "enum Users.RightsCategory",
          "name": "ownershipRights",
          "type": "uint8"
        },
        {
          "internalType": "uint256",
          "name": "priceForTransfer",
          "type": "uint256"
        }
      ],
      "name": "addFile",
      "outputs": [
        {
          "internalType": "uint256",
          "name": "index",
          "type": "uint256"
        }
      ],
      "payable": false,
      "stateMutability": "nonpayable",
      "type": "function"
    },
    {
      "constant": false,
      "inputs": [
        {
          "internalType": "uint256",
          "name": "fileId",
          "type": "uint256"
        },
        {
          "internalType": "string",
          "name": "fileTitle",
          "type": "string"
        },
        {
          "internalType": "string",
          "name": "description",
          "type": "string"
        },
        {
          "internalType": "bytes32",
          "name": "country",
          "type": "bytes32"
        },
        {
          "internalType": "enum Users.RightsCategory",
          "name": "ownershipRights",
          "type": "uint8"
        }
      ],
      "name": "editFilePresentation",
      "outputs": [
        {
          "internalType": "uint256",
          "name": "index",
          "type": "uint256"
        }
      ],
      "payable": false,
      "stateMutability": "nonpayable",
      "type": "function"
    },
    {
      "constant": false,
      "inputs": [
        {
          "internalType": "uint256",
          "name": "fileId",
          "type": "uint256"
        },
        {
          "internalType": "string",
          "name": "fileReference",
          "type": "string"
        },
        {
          "internalType": "uint256",
          "name": "fileSize",
          "type": "uint256"
        },
        {
          "internalType": "string",
          "name": "fileType",
          "type": "string"
        }
      ],
      "name": "editFileTehnical",
      "outputs": [
        {
          "internalType": "uint256",
          "name": "index",
          "type": "uint256"
        }
      ],
      "payable": false,
      "stateMutability": "nonpayable",
      "type": "function"
    },
    {
      "constant": false,
      "inputs": [
        {
          "internalType": "uint256",
          "name": "fileId",
          "type": "uint256"
        },
        {
          "internalType": "uint256",
          "name": "newPrice",
          "type": "uint256"
        }
      ],
      "name": "editPrice",
      "outputs": [
        {
          "internalType": "uint256",
          "name": "index",
          "type": "uint256"
        }
      ],
      "payable": false,
      "stateMutability": "nonpayable",
      "type": "function"
    },
    {
      "constant": false,
      "inputs": [
        {
          "internalType": "uint256",
          "name": "fileId",
          "type": "uint256"
        },
        {
          "internalType": "uint256",
          "name": "increaseByAmount",
          "type": "uint256"
        }
      ],
      "name": "changeLike",
      "outputs": [
        {
          "internalType": "uint256",
          "name": "index",
          "type": "uint256"
        }
      ],
      "payable": false,
      "stateMutability": "nonpayable",
      "type": "function"
    },
    {
      "constant": false,
      "inputs": [
        {
          "internalType": "address",
          "name": "newUserAddress",
          "type": "address"
        },
        {
          "internalType": "uint256",
          "name": "fileId",
          "type": "uint256"
        }
      ],
      "name": "changeOwnerFile",
      "outputs": [
        {
          "internalType": "uint256",
          "name": "index",
          "type": "uint256"
        }
      ],
      "payable": false,
      "stateMutability": "nonpayable",
      "type": "function"
    }
  ],
  "bytecode": "0x60806040523480156200001157600080fd5b50336000806101000a81548173ffffffffffffffffffffffffffffffffffffffff021916908373ffffffffffffffffffffffffffffffffffffffff1602179055506200008a604051602001620000679062000566565b60405160208183030381529060405280519060200120336200009060201b60201c565b62000588565b604051602001620000a19062000566565b604051602081830303815290604052805190602001208214156200026f576001806000604051602001620000d59062000566565b60405160208183030381529060405280519060200120815260200190815260200160002060008373ffffffffffffffffffffffffffffffffffffffff1673ffffffffffffffffffffffffffffffffffffffff16815260200190815260200160002060006101000a81548160ff0219169083151502179055506001806000604051602001620001639062000538565b60405160208183030381529060405280519060200120815260200190815260200160002060008373ffffffffffffffffffffffffffffffffffffffff1673ffffffffffffffffffffffffffffffffffffffff16815260200190815260200160002060006101000a81548160ff0219169083151502179055506001806000604051602001620001f1906200054f565b60405160208183030381529060405280519060200120815260200190815260200160002060008373ffffffffffffffffffffffffffffffffffffffff1673ffffffffffffffffffffffffffffffffffffffff16815260200190815260200160002060006101000a81548160ff0219169083151502179055506200042a565b60405160200162000280906200054f565b60405160208183030381529060405280519060200120821415620003c0576001806000604051602001620002b49062000538565b60405160208183030381529060405280519060200120815260200190815260200160002060008373ffffffffffffffffffffffffffffffffffffffff1673ffffffffffffffffffffffffffffffffffffffff16815260200190815260200160002060006101000a81548160ff021916908315150217905550600180600060405160200162000342906200054f565b60405160208183030381529060405280519060200120815260200190815260200160002060008373ffffffffffffffffffffffffffffffffffffffff1673ffffffffffffffffffffffffffffffffffffffff16815260200190815260200160002060006101000a81548160ff02191690831515021790555062000429565b600180600084815260200190815260200160002060008373ffffffffffffffffffffffffffffffffffffffff1673ffffffffffffffffffffffffffffffffffffffff16815260200190815260200160002060006101000a81548160ff0219169083151502179055505b5b8073ffffffffffffffffffffffffffffffffffffffff16827f5a06360d65acf95e98445dc834f205063424c636e65418d928cdfabc33a9539960405160405180910390a35050565b6000620004816004836200057d565b91507f52656164000000000000000000000000000000000000000000000000000000006000830152600482019050919050565b6000620004c36005836200057d565b91507f57726974650000000000000000000000000000000000000000000000000000006000830152600582019050919050565b6000620005056005836200057d565b91507f41646d696e0000000000000000000000000000000000000000000000000000006000830152600582019050919050565b6000620005458262000472565b9150819050919050565b60006200055c82620004b4565b9150819050919050565b60006200057382620004f6565b9150819050919050565b600081905092915050565b61596580620005986000396000f3fe608060405234801561001057600080fd5b50600436106101c45760003560e01c80639cbf6fbe116100f9578063d5f5260211610097578063ee18839711610071578063ee188397146105af578063f8fc08b9146105cb578063f9434b84146105fb578063ffcc7bbf1461062b576101c4565b8063d5f5260214610533578063d84b6a0b14610563578063e563d3f81461057f576101c4565b8063be575229116100d3578063be5752291461049b578063c634b78e146104b7578063c8c75647146104d3578063d0e7a5cb14610503576101c4565b80639cbf6fbe1461042f578063a2068e041461044d578063b5cb15f71461047d576101c4565b80634209fff111610166578063688b967c11610140578063688b967c146103815780636cf5d66d146103b15780636f77926b146103e15780638da5cb5b14610411576101c4565b80634209fff1146102f157806346efa378146103215780635c60f22614610351576101c4565b80631726f329116101a25780631726f32914610245578063202ba31e14610261578063303762ab1461029157806330a31b24146102c1576101c4565b806308940be9146101c95780630cd08800146101e55780630d7e005214610215575b600080fd5b6101e360048036036101de919081019061464a565b61065b565b005b6101ff60048036036101fa919081019061464a565b6108a5565b60405161020c9190615415565b60405180910390f35b61022f600480360361022a9190810190614a8e565b61093c565b60405161023c9190615437565b60405180910390f35b61025f600480360361025a919081019061464a565b610ac7565b005b61027b60048036036102769190810190614b89565b610c7c565b60405161028891906155e4565b60405180910390f35b6102ab60048036036102a69190810190614a8e565b610e01565b6040516102b89190615437565b60405180910390f35b6102db60048036036102d69190810190614837565b610fde565b6040516102e891906155e4565b60405180910390f35b61030b6004803603610306919081019061464a565b611433565b6040516103189190615437565b60405180910390f35b61033b60048036036103369190810190614673565b6114fb565b6040516103489190615437565b60405180910390f35b61036b6004803603610366919081019061464a565b61186b565b60405161037891906155e4565b60405180910390f35b61039b60048036036103969190810190614ae2565b611af2565b6040516103a891906155e4565b60405180910390f35b6103cb60048036036103c69190810190614766565b611caf565b6040516103d891906155e4565b60405180910390f35b6103fb60048036036103f6919081019061464a565b612162565b60405161040891906155c2565b60405180910390f35b610419612464565b604051610426919061539a565b60405180910390f35b610437612489565b604051610444919061565f565b60405180910390f35b6104676004803603610462919081019061495d565b612643565b60405161047491906155e4565b60405180910390f35b610485612aec565b60405161049291906155e4565b60405180910390f35b6104b560048036036104b0919081019061464a565b612af9565b005b6104d160048036036104cc919081019061464a565b612d1f565b005b6104ed60048036036104e8919081019061464a565b612fda565b6040516104fa9190615437565b60405180910390f35b61051d60048036036105189190810190614c1c565b613153565b60405161052a91906155e4565b60405180910390f35b61054d60048036036105489190810190614c1c565b6132a5565b60405161055a91906155e4565b60405180910390f35b61057d6004803603610578919081019061464a565b6133ea565b005b61059960048036036105949190810190614a24565b61359f565b6040516105a69190615415565b60405180910390f35b6105c960048036036105c4919081019061464a565b613615565b005b6105e560048036036105e091908101906149e8565b61383b565b6040516105f29190615437565b60405180910390f35b61061560048036036106109190810190614999565b61386a565b6040516106229190615437565b60405180910390f35b61064560048036036106409190810190614a65565b613b09565b604051610652919061539a565b60405180910390f35b60405160200161066a90615385565b604051602081830303815290604052805190602001206001600082815260200190815260200160002060003373ffffffffffffffffffffffffffffffffffffffff1673ffffffffffffffffffffffffffffffffffffffff16815260200190815260200160002060009054906101000a900460ff1661071d576040517f08c379a000000000000000000000000000000000000000000000000000000000815260040161071490615502565b60405180910390fd5b6001600060405160200161073090615385565b60405160208183030381529060405280519060200120815260200190815260200160002060008373ffffffffffffffffffffffffffffffffffffffff1673ffffffffffffffffffffffffffffffffffffffff16815260200190815260200160002060009054906101000a900460ff166107de576040517f08c379a00000000000000000000000000000000000000000000000000000000081526004016107d5906154a2565b60405180910390fd5b6000809054906101000a900473ffffffffffffffffffffffffffffffffffffffff1673ffffffffffffffffffffffffffffffffffffffff163373ffffffffffffffffffffffffffffffffffffffff1614156108665761086160405160200161084590615385565b6040516020818303038152906040528051906020012083613b4a565b6108a1565b6040517f08c379a0000000000000000000000000000000000000000000000000000000008152600401610898906154e2565b60405180910390fd5b5050565b6060600660008373ffffffffffffffffffffffffffffffffffffffff1673ffffffffffffffffffffffffffffffffffffffff16815260200190815260200160002080548060200260200160405190810160405280929190818152602001828054801561093057602002820191906000526020600020905b81548152602001906001019080831161091c575b50505050509050919050565b600060405160200161094d90615370565b604051602081830303815290604052805190602001206001600082815260200190815260200160002060003373ffffffffffffffffffffffffffffffffffffffff1673ffffffffffffffffffffffffffffffffffffffff16815260200190815260200160002060009054906101000a900460ff16610a00576040517f08c379a00000000000000000000000000000000000000000000000000000000081526004016109f790615502565b60405180910390fd5b6004548410610a44576040517f08c379a0000000000000000000000000000000000000000000000000000000008152600401610a3b906154c2565b60405180910390fd5b60008090505b8351811015610abb576007848281518110610a6157fe5b6020026020010151604051610a76919061532d565b90815260200160405180910390208590806001815401808255809150509060018203906000526020600020016000909192909190915055508080600101915050610a4a565b50600191505092915050565b604051602001610ad690615385565b604051602081830303815290604052805190602001206001600082815260200190815260200160002060003373ffffffffffffffffffffffffffffffffffffffff1673ffffffffffffffffffffffffffffffffffffffff16815260200190815260200160002060009054906101000a900460ff16610b89576040517f08c379a0000000000000000000000000000000000000000000000000000000008152600401610b8090615502565b60405180910390fd5b60016000604051602001610b9c9061535b565b60405160208183030381529060405280519060200120815260200190815260200160002060008373ffffffffffffffffffffffffffffffffffffffff1673ffffffffffffffffffffffffffffffffffffffff16815260200190815260200160002060009054906101000a900460ff16610c4a576040517f08c379a0000000000000000000000000000000000000000000000000000000008152600401610c41906154a2565b60405180910390fd5b610c78604051602001610c5c9061535b565b6040516020818303038152906040528051906020012083613b4a565b5050565b6000604051602001610c8d90615370565b604051602081830303815290604052805190602001206001600082815260200190815260200160002060003373ffffffffffffffffffffffffffffffffffffffff1673ffffffffffffffffffffffffffffffffffffffff16815260200190815260200160002060009054906101000a900460ff16610d40576040517f08c379a0000000000000000000000000000000000000000000000000000000008152600401610d3790615502565b60405180910390fd5b6004548610610d84576040517f08c379a0000000000000000000000000000000000000000000000000000000008152600401610d7b906154c2565b60405180910390fd5b84600560008881526020019081526020016000206001019080519060200190610dae9291906142f0565b5083600560008881526020019081526020016000206002018190555082600560008881526020019081526020016000206003019080519060200190610df49291906142f0565b5085915050949350505050565b6000604051602001610e1290615370565b604051602081830303815290604052805190602001206001600082815260200190815260200160002060003373ffffffffffffffffffffffffffffffffffffffff1673ffffffffffffffffffffffffffffffffffffffff16815260200190815260200160002060009054906101000a900460ff16610ec5576040517f08c379a0000000000000000000000000000000000000000000000000000000008152600401610ebc90615502565b60405180910390fd5b6004548410610f09576040517f08c379a0000000000000000000000000000000000000000000000000000000008152600401610f00906154c2565b60405180910390fd5b60008090505b8351811015610fd2576008848281518110610f2657fe5b60200260200101519080600181540180825580915050906001820390600052602060002001600090919290919091509080519060200190610f689291906142f0565b50506007848281518110610f7857fe5b6020026020010151604051610f8d919061532d565b90815260200160405180910390208590806001815401808255809150509060018203906000526020600020016000909192909190915055508080600101915050610f0f565b50600191505092915050565b6000604051602001610fef90615370565b604051602081830303815290604052805190602001206001600082815260200190815260200160002060003373ffffffffffffffffffffffffffffffffffffffff1673ffffffffffffffffffffffffffffffffffffffff16815260200190815260200160002060009054906101000a900460ff166110a2576040517f08c379a000000000000000000000000000000000000000000000000000000000815260040161109990615502565b60405180910390fd5b6110ab8b611433565b6110ea576040517f08c379a00000000000000000000000000000000000000000000000000000000081526004016110e190615482565b60405180910390fd5b8960056000600454815260200190815260200160002060000190805190602001906111169291906142f0565b508860056000600454815260200190815260200160002060010190805190602001906111439291906142f0565b50876005600060045481526020019081526020016000206002018190555086600560006004548152602001908152602001600020600301908051906020019061118d9291906142f0565b508560056000600454815260200190815260200160002060040190805190602001906111ba9291906142f0565b5084600560006004548152602001908152602001600020600501819055508360056000600454815260200190815260200160002060060160006101000a81548160ff0219169083600981111561120c57fe5b021790555042600560006004548152602001908152602001600020600701819055506000600560006004548152602001908152602001600020600801819055506005600060045481526020019081526020016000206009018b90806001815401808255809150509060018203906000526020600020016000909192909190916101000a81548173ffffffffffffffffffffffffffffffffffffffff021916908373ffffffffffffffffffffffffffffffffffffffff16021790555050600560006004548152602001908152602001600020600a01839080600181540180825580915050906001820390600052602060002001600090919290919091505550600660008c73ffffffffffffffffffffffffffffffffffffffff1673ffffffffffffffffffffffffffffffffffffffff16815260200190815260200160002060045490806001815401808255809150509060018203906000526020600020016000909192909190915055506000600260008d73ffffffffffffffffffffffffffffffffffffffff1673ffffffffffffffffffffffffffffffffffffffff16815260200190815260200160002060080160016101000a81548160ff0219169083151502179055507f976a94ebaf95003722c58f5107879a458281d47ac85d44d6afd4dd4e31eef5da89600454604051611403929190615452565b60405180910390a16004600081548092919060010191905055506001600454039150509998505050505050505050565b600080600380549050141561144b57600090506114f6565b8173ffffffffffffffffffffffffffffffffffffffff166003600260008573ffffffffffffffffffffffffffffffffffffffff1673ffffffffffffffffffffffffffffffffffffffff16815260200190815260200160002060070154815481106114b157fe5b9060005260206000200160009054906101000a900473ffffffffffffffffffffffffffffffffffffffff1673ffffffffffffffffffffffffffffffffffffffff161490505b919050565b60006115068b611433565b611545576040517f08c379a000000000000000000000000000000000000000000000000000000000815260040161153c90615482565b60405180910390fd5b60028081111561155157fe5b82600281111561155d57fe5b141561159e576040517f08c379a000000000000000000000000000000000000000000000000000000000815260040161159590615582565b60405180910390fd5b89600260008d73ffffffffffffffffffffffffffffffffffffffff1673ffffffffffffffffffffffffffffffffffffffff168152602001908152602001600020600001819055508888600260008e73ffffffffffffffffffffffffffffffffffffffff1673ffffffffffffffffffffffffffffffffffffffff1681526020019081526020016000206002019190611636929190614370565b508686600260008e73ffffffffffffffffffffffffffffffffffffffff1673ffffffffffffffffffffffffffffffffffffffff1681526020019081526020016000206003019190611688929190614370565b5084600260008d73ffffffffffffffffffffffffffffffffffffffff1673ffffffffffffffffffffffffffffffffffffffff168152602001908152602001600020600401819055508383600260008e73ffffffffffffffffffffffffffffffffffffffff1673ffffffffffffffffffffffffffffffffffffffff1681526020019081526020016000206005019190611721929190614370565b5081600260008d73ffffffffffffffffffffffffffffffffffffffff1673ffffffffffffffffffffffffffffffffffffffff16815260200190815260200160002060080160006101000a81548160ff0219169083600281111561178057fe5b02179055508a73ffffffffffffffffffffffffffffffffffffffff167f220bb7a17b01078be2b0499869f8a0656e04dff102602b44d0b552fe52ad33ef600260008e73ffffffffffffffffffffffffffffffffffffffff1673ffffffffffffffffffffffffffffffffffffffff16815260200190815260200160002060070154600260008f73ffffffffffffffffffffffffffffffffffffffff1673ffffffffffffffffffffffffffffffffffffffff168152602001908152602001600020600001546040516118519291906155ff565b60405180910390a2600190509a9950505050505050505050565b600061187682611433565b6118b5576040517f08c379a00000000000000000000000000000000000000000000000000000000081526004016118ac90615482565b60405180910390fd5b6000600260008473ffffffffffffffffffffffffffffffffffffffff1673ffffffffffffffffffffffffffffffffffffffff168152602001908152602001600020600701549050600060036001600380549050038154811061191357fe5b9060005260206000200160009054906101000a900473ffffffffffffffffffffffffffffffffffffffff169050806003838154811061194e57fe5b9060005260206000200160006101000a81548173ffffffffffffffffffffffffffffffffffffffff021916908373ffffffffffffffffffffffffffffffffffffffff16021790555081600260008373ffffffffffffffffffffffffffffffffffffffff1673ffffffffffffffffffffffffffffffffffffffff1681526020019081526020016000206007018190555060038054806119e857fe5b6001900381819060005260206000200160006101000a81549073ffffffffffffffffffffffffffffffffffffffff021916905590557f1a7fe41b9767c0ba9c18dced521efc73b20feb650691659c8609704e103555ca8483604051611a4e9291906153ec565b60405180910390a18073ffffffffffffffffffffffffffffffffffffffff167f220bb7a17b01078be2b0499869f8a0656e04dff102602b44d0b552fe52ad33ef83600260008573ffffffffffffffffffffffffffffffffffffffff1673ffffffffffffffffffffffffffffffffffffffff16815260200190815260200160002060000154604051611ae09291906155ff565b60405180910390a28192505050919050565b6000604051602001611b0390615370565b604051602081830303815290604052805190602001206001600082815260200190815260200160002060003373ffffffffffffffffffffffffffffffffffffffff1673ffffffffffffffffffffffffffffffffffffffff16815260200190815260200160002060009054906101000a900460ff16611bb6576040517f08c379a0000000000000000000000000000000000000000000000000000000008152600401611bad90615502565b60405180910390fd5b6004548710611bfa576040517f08c379a0000000000000000000000000000000000000000000000000000000008152600401611bf1906154c2565b60405180910390fd5b85600560008981526020019081526020016000206000019080519060200190611c249291906142f0565b5084600560008981526020019081526020016000206004019080519060200190611c4f9291906142f0565b50836005600089815260200190815260200160002060050181905550826005600089815260200190815260200160002060060160006101000a81548160ff02191690836009811115611c9d57fe5b02179055508691505095945050505050565b6000611cba87611433565b15611cfa576040517f08c379a0000000000000000000000000000000000000000000000000000000008152600401611cf190615542565b60405180910390fd5b85600260008973ffffffffffffffffffffffffffffffffffffffff1673ffffffffffffffffffffffffffffffffffffffff1681526020019081526020016000206000018190555084600260008973ffffffffffffffffffffffffffffffffffffffff1673ffffffffffffffffffffffffffffffffffffffff1681526020019081526020016000206002019080519060200190611d979291906142f0565b5083600260008973ffffffffffffffffffffffffffffffffffffffff1673ffffffffffffffffffffffffffffffffffffffff1681526020019081526020016000206003019080519060200190611dee9291906142f0565b5082600260008973ffffffffffffffffffffffffffffffffffffffff1673ffffffffffffffffffffffffffffffffffffffff1681526020019081526020016000206004018190555081600260008973ffffffffffffffffffffffffffffffffffffffff1673ffffffffffffffffffffffffffffffffffffffff1681526020019081526020016000206005019080519060200190611e8c9291906142f0565b5042600260008973ffffffffffffffffffffffffffffffffffffffff1673ffffffffffffffffffffffffffffffffffffffff168152602001908152602001600020600101819055506005600260008973ffffffffffffffffffffffffffffffffffffffff1673ffffffffffffffffffffffffffffffffffffffff16815260200190815260200160002060060181905550600380549050600260008973ffffffffffffffffffffffffffffffffffffffff1673ffffffffffffffffffffffffffffffffffffffff168152602001908152602001600020600701819055506000600260008973ffffffffffffffffffffffffffffffffffffffff1673ffffffffffffffffffffffffffffffffffffffff16815260200190815260200160002060080160006101000a81548160ff02191690836002811115611fc757fe5b02179055506000600260008973ffffffffffffffffffffffffffffffffffffffff1673ffffffffffffffffffffffffffffffffffffffff16815260200190815260200160002060080160016101000a81548160ff02191690831515021790555060038790806001815401808255809150509060018203906000526020600020016000909192909190916101000a81548173ffffffffffffffffffffffffffffffffffffffff021916908373ffffffffffffffffffffffffffffffffffffffff160217905550506120bb60405160200161209f90615370565b6040516020818303038152906040528051906020012088613f20565b8673ffffffffffffffffffffffffffffffffffffffff167f4d95910c45b55946e307e5a82f0af42c16742413c0bd4a716e7e3a78e91837ac600260008a73ffffffffffffffffffffffffffffffffffffffff1673ffffffffffffffffffffffffffffffffffffffff16815260200190815260200160002060070154886040516121459291906155ff565b60405180910390a260016003805490500390509695505050505050565b61216a6143f0565b61217382611433565b6121b2576040517f08c379a00000000000000000000000000000000000000000000000000000000081526004016121a990615482565b60405180910390fd5b600260008373ffffffffffffffffffffffffffffffffffffffff1673ffffffffffffffffffffffffffffffffffffffff168152602001908152602001600020604051806101400160405290816000820154815260200160018201548152602001600282018054600181600116156101000203166002900480601f0160208091040260200160405190810160405280929190818152602001828054600181600116156101000203166002900480156122aa5780601f1061227f576101008083540402835291602001916122aa565b820191906000526020600020905b81548152906001019060200180831161228d57829003601f168201915b50505050508152602001600382018054600181600116156101000203166002900480601f01602080910402602001604051908101604052809291908181526020018280546001816001161561010002031660029004801561234c5780601f106123215761010080835404028352916020019161234c565b820191906000526020600020905b81548152906001019060200180831161232f57829003601f168201915b5050505050815260200160048201548152602001600582018054600181600116156101000203166002900480601f0160208091040260200160405190810160405280929190818152602001828054600181600116156101000203166002900480156123f85780601f106123cd576101008083540402835291602001916123f8565b820191906000526020600020905b8154815290600101906020018083116123db57829003601f168201915b5050505050815260200160068201548152602001600782015481526020016008820160009054906101000a900460ff16600281111561243357fe5b600281111561243e57fe5b81526020016008820160019054906101000a900460ff1615151515815250509050919050565b6000809054906101000a900473ffffffffffffffffffffffffffffffffffffffff1681565b60006001600060405160200161249e90615385565b60405160208183030381529060405280519060200120815260200190815260200160002060003373ffffffffffffffffffffffffffffffffffffffff1673ffffffffffffffffffffffffffffffffffffffff16815260200190815260200160002060009054906101000a900460ff161561251b5760039050612640565b6001600060405160200161252e90615370565b60405160208183030381529060405280519060200120815260200190815260200160002060003373ffffffffffffffffffffffffffffffffffffffff1673ffffffffffffffffffffffffffffffffffffffff16815260200190815260200160002060009054906101000a900460ff16156125ab5760029050612640565b600160006040516020016125be9061535b565b60405160208183030381529060405280519060200120815260200190815260200160002060003373ffffffffffffffffffffffffffffffffffffffff1673ffffffffffffffffffffffffffffffffffffffff16815260200190815260200160002060009054906101000a900460ff161561263b5760019050612640565b600090505b90565b600060405160200161265490615370565b604051602081830303815290604052805190602001206001600082815260200190815260200160002060003373ffffffffffffffffffffffffffffffffffffffff1673ffffffffffffffffffffffffffffffffffffffff16815260200190815260200160002060009054906101000a900460ff16612707576040517f08c379a00000000000000000000000000000000000000000000000000000000081526004016126fe90615502565b60405180910390fd5b600454831061274b576040517f08c379a0000000000000000000000000000000000000000000000000000000008152600401612742906154c2565b60405180910390fd5b8373ffffffffffffffffffffffffffffffffffffffff163160056000858152602001908152602001600020600a01600160056000878152602001908152602001600020600a018054905003815481106127a057fe5b9060005260206000200154106127b557600080fd5b60008090505b600660003373ffffffffffffffffffffffffffffffffffffffff1673ffffffffffffffffffffffffffffffffffffffff168152602001908152602001600020805490508110156129c35783600660003373ffffffffffffffffffffffffffffffffffffffff1673ffffffffffffffffffffffffffffffffffffffff168152602001908152602001600020828154811061285057fe5b906000526020600020015414156129b657600660003373ffffffffffffffffffffffffffffffffffffffff1673ffffffffffffffffffffffffffffffffffffffff1681526020019081526020016000206001600660003373ffffffffffffffffffffffffffffffffffffffff1673ffffffffffffffffffffffffffffffffffffffff1681526020019081526020016000208054905003815481106128f057fe5b9060005260206000200154600660003373ffffffffffffffffffffffffffffffffffffffff1673ffffffffffffffffffffffffffffffffffffffff168152602001908152602001600020828154811061294557fe5b9060005260206000200181905550600660003373ffffffffffffffffffffffffffffffffffffffff1673ffffffffffffffffffffffffffffffffffffffff16815260200190815260200160002080548061299b57fe5b600190038181906000526020600020016000905590556129c3565b80806001019150506127bb565b50600560008481526020019081526020016000206009018490806001815401808255809150509060018203906000526020600020016000909192909190916101000a81548173ffffffffffffffffffffffffffffffffffffffff021916908373ffffffffffffffffffffffffffffffffffffffff16021790555050600660008573ffffffffffffffffffffffffffffffffffffffff1673ffffffffffffffffffffffffffffffffffffffff1681526020019081526020016000208390806001815401808255809150509060018203906000526020600020016000909192909190915055507f9a0bb8b75d36ae23bb26068d749bb1180c244c13c75990b0dd08d096f5d18b18338585604051612ada939291906153b5565b60405180910390a18291505092915050565b6000600380549050905090565b604051602001612b0890615385565b604051602081830303815290604052805190602001206001600082815260200190815260200160002060003373ffffffffffffffffffffffffffffffffffffffff1673ffffffffffffffffffffffffffffffffffffffff16815260200190815260200160002060009054906101000a900460ff16612bbb576040517f08c379a0000000000000000000000000000000000000000000000000000000008152600401612bb290615502565b60405180910390fd5b600073ffffffffffffffffffffffffffffffffffffffff168273ffffffffffffffffffffffffffffffffffffffff161415612c2b576040517f08c379a0000000000000000000000000000000000000000000000000000000008152600401612c2290615562565b60405180910390fd5b60016000604051602001612c3e9061535b565b60405160208183030381529060405280519060200120815260200190815260200160002060008373ffffffffffffffffffffffffffffffffffffffff1673ffffffffffffffffffffffffffffffffffffffff16815260200190815260200160002060009054906101000a900460ff1615612ced576040517f08c379a0000000000000000000000000000000000000000000000000000000008152600401612ce490615522565b60405180910390fd5b612d1b604051602001612cff9061535b565b6040516020818303038152906040528051906020012083613f20565b5050565b604051602001612d2e90615385565b604051602081830303815290604052805190602001206001600082815260200190815260200160002060003373ffffffffffffffffffffffffffffffffffffffff1673ffffffffffffffffffffffffffffffffffffffff16815260200190815260200160002060009054906101000a900460ff16612de1576040517f08c379a0000000000000000000000000000000000000000000000000000000008152600401612dd890615502565b60405180910390fd5b600073ffffffffffffffffffffffffffffffffffffffff168273ffffffffffffffffffffffffffffffffffffffff161415612e51576040517f08c379a0000000000000000000000000000000000000000000000000000000008152600401612e4890615562565b60405180910390fd5b60016000604051602001612e6490615385565b60405160208183030381529060405280519060200120815260200190815260200160002060008373ffffffffffffffffffffffffffffffffffffffff1673ffffffffffffffffffffffffffffffffffffffff16815260200190815260200160002060009054906101000a900460ff1615612f13576040517f08c379a0000000000000000000000000000000000000000000000000000000008152600401612f0a90615522565b60405180910390fd5b6000809054906101000a900473ffffffffffffffffffffffffffffffffffffffff1673ffffffffffffffffffffffffffffffffffffffff163373ffffffffffffffffffffffffffffffffffffffff161415612f9b57612f96604051602001612f7a90615385565b6040516020818303038152906040528051906020012083613f20565b612fd6565b6040517f08c379a0000000000000000000000000000000000000000000000000000000008152600401612fcd906155a2565b60405180910390fd5b5050565b6000604051602001612feb90615385565b604051602081830303815290604052805190602001206001600082815260200190815260200160002060003373ffffffffffffffffffffffffffffffffffffffff1673ffffffffffffffffffffffffffffffffffffffff16815260200190815260200160002060009054906101000a900460ff1661309e576040517f08c379a000000000000000000000000000000000000000000000000000000000815260040161309590615502565b60405180910390fd5b6130a783611433565b6130e6576040517f08c379a00000000000000000000000000000000000000000000000000000000081526004016130dd90615482565b60405180910390fd5b60028060008573ffffffffffffffffffffffffffffffffffffffff1673ffffffffffffffffffffffffffffffffffffffff16815260200190815260200160002060080160006101000a81548160ff0219169083600281111561314457fe5b02179055506001915050919050565b600060405160200161316490615370565b604051602081830303815290604052805190602001206001600082815260200190815260200160002060003373ffffffffffffffffffffffffffffffffffffffff1673ffffffffffffffffffffffffffffffffffffffff16815260200190815260200160002060009054906101000a900460ff16613217576040517f08c379a000000000000000000000000000000000000000000000000000000000815260040161320e90615502565b60405180910390fd5b600454841061325b576040517f08c379a0000000000000000000000000000000000000000000000000000000008152600401613252906154c2565b60405180910390fd5b60056000858152602001908152602001600020600a018390806001815401808255809150509060018203906000526020600020016000909192909190915055508391505092915050565b60006040516020016132b690615370565b604051602081830303815290604052805190602001206001600082815260200190815260200160002060003373ffffffffffffffffffffffffffffffffffffffff1673ffffffffffffffffffffffffffffffffffffffff16815260200190815260200160002060009054906101000a900460ff16613369576040517f08c379a000000000000000000000000000000000000000000000000000000000815260040161336090615502565b60405180910390fd5b60045484106133ad576040517f08c379a00000000000000000000000000000000000000000000000000000000081526004016133a4906154c2565b60405180910390fd5b8260056000868152602001908152602001600020600801540160056000868152602001908152602001600020600801819055508391505092915050565b6040516020016133f990615385565b604051602081830303815290604052805190602001206001600082815260200190815260200160002060003373ffffffffffffffffffffffffffffffffffffffff1673ffffffffffffffffffffffffffffffffffffffff16815260200190815260200160002060009054906101000a900460ff166134ac576040517f08c379a00000000000000000000000000000000000000000000000000000000081526004016134a390615502565b60405180910390fd5b600160006040516020016134bf90615370565b60405160208183030381529060405280519060200120815260200190815260200160002060008373ffffffffffffffffffffffffffffffffffffffff1673ffffffffffffffffffffffffffffffffffffffff16815260200190815260200160002060009054906101000a900460ff1661356d576040517f08c379a0000000000000000000000000000000000000000000000000000000008152600401613564906154a2565b60405180910390fd5b61359b60405160200161357f90615370565b6040516020818303038152906040528051906020012083613b4a565b5050565b60606007826040516135b19190615344565b908152602001604051809103902080548060200260200160405190810160405280929190818152602001828054801561360957602002820191906000526020600020905b8154815260200190600101908083116135f5575b50505050509050919050565b60405160200161362490615385565b604051602081830303815290604052805190602001206001600082815260200190815260200160002060003373ffffffffffffffffffffffffffffffffffffffff1673ffffffffffffffffffffffffffffffffffffffff16815260200190815260200160002060009054906101000a900460ff166136d7576040517f08c379a00000000000000000000000000000000000000000000000000000000081526004016136ce90615502565b60405180910390fd5b600073ffffffffffffffffffffffffffffffffffffffff168273ffffffffffffffffffffffffffffffffffffffff161415613747576040517f08c379a000000000000000000000000000000000000000000000000000000000815260040161373e90615562565b60405180910390fd5b6001600060405160200161375a90615370565b60405160208183030381529060405280519060200120815260200190815260200160002060008373ffffffffffffffffffffffffffffffffffffffff1673ffffffffffffffffffffffffffffffffffffffff16815260200190815260200160002060009054906101000a900460ff1615613809576040517f08c379a000000000000000000000000000000000000000000000000000000000815260040161380090615522565b60405180910390fd5b61383760405160200161381b90615370565b6040516020818303038152906040528051906020012083613f20565b5050565b60016020528160005260406000206020528060005260406000206000915091509054906101000a900460ff1681565b600060405160200161387b90615385565b604051602081830303815290604052805190602001206001600082815260200190815260200160002060003373ffffffffffffffffffffffffffffffffffffffff1673ffffffffffffffffffffffffffffffffffffffff16815260200190815260200160002060009054906101000a900460ff1661392e576040517f08c379a000000000000000000000000000000000000000000000000000000000815260040161392590615502565b60405180910390fd5b83600260008773ffffffffffffffffffffffffffffffffffffffff1673ffffffffffffffffffffffffffffffffffffffff1681526020019081526020016000206006018190555082600260008773ffffffffffffffffffffffffffffffffffffffff1673ffffffffffffffffffffffffffffffffffffffff16815260200190815260200160002060080160006101000a81548160ff021916908360028111156139d357fe5b02179055508473ffffffffffffffffffffffffffffffffffffffff167f1c0430843928b357f7d24810221fa7272098d6a01bb685a3a762ce31ed16fa8b600260008873ffffffffffffffffffffffffffffffffffffffff1673ffffffffffffffffffffffffffffffffffffffff16815260200190815260200160002060070154600260008973ffffffffffffffffffffffffffffffffffffffff1673ffffffffffffffffffffffffffffffffffffffff16815260200190815260200160002060060154600260008a73ffffffffffffffffffffffffffffffffffffffff1673ffffffffffffffffffffffffffffffffffffffff16815260200190815260200160002060080160009054906101000a900460ff16604051613af593929190615628565b60405180910390a260019150509392505050565b600060038281548110613b1857fe5b9060005260206000200160009054906101000a900473ffffffffffffffffffffffffffffffffffffffff169050919050565b604051602001613b5990615385565b60405160208183030381529060405280519060200120821415613d2257600060016000604051602001613b8b90615385565b60405160208183030381529060405280519060200120815260200190815260200160002060008373ffffffffffffffffffffffffffffffffffffffff1673ffffffffffffffffffffffffffffffffffffffff16815260200190815260200160002060006101000a81548160ff021916908315150217905550600060016000604051602001613c189061535b565b60405160208183030381529060405280519060200120815260200190815260200160002060008373ffffffffffffffffffffffffffffffffffffffff1673ffffffffffffffffffffffffffffffffffffffff16815260200190815260200160002060006101000a81548160ff021916908315150217905550600060016000604051602001613ca590615370565b60405160208183030381529060405280519060200120815260200190815260200160002060008373ffffffffffffffffffffffffffffffffffffffff1673ffffffffffffffffffffffffffffffffffffffff16815260200190815260200160002060006101000a81548160ff021916908315150217905550613ed8565b604051602001613d3190615370565b60405160208183030381529060405280519060200120821415613e6d57600060016000604051602001613d639061535b565b60405160208183030381529060405280519060200120815260200190815260200160002060008373ffffffffffffffffffffffffffffffffffffffff1673ffffffffffffffffffffffffffffffffffffffff16815260200190815260200160002060006101000a81548160ff021916908315150217905550600060016000604051602001613df090615370565b60405160208183030381529060405280519060200120815260200190815260200160002060008373ffffffffffffffffffffffffffffffffffffffff1673ffffffffffffffffffffffffffffffffffffffff16815260200190815260200160002060006101000a81548160ff021916908315150217905550613ed7565b60006001600084815260200190815260200160002060008373ffffffffffffffffffffffffffffffffffffffff1673ffffffffffffffffffffffffffffffffffffffff16815260200190815260200160002060006101000a81548160ff0219169083151502179055505b5b8073ffffffffffffffffffffffffffffffffffffffff16827f361ed204aa01d4d75ba515bde961d40c21f3791b474bb581df5d00e38b2be7bb60405160405180910390a35050565b604051602001613f2f90615385565b604051602081830303815290604052805190602001208214156140f5576001806000604051602001613f6090615385565b60405160208183030381529060405280519060200120815260200190815260200160002060008373ffffffffffffffffffffffffffffffffffffffff1673ffffffffffffffffffffffffffffffffffffffff16815260200190815260200160002060006101000a81548160ff0219169083151502179055506001806000604051602001613fec9061535b565b60405160208183030381529060405280519060200120815260200190815260200160002060008373ffffffffffffffffffffffffffffffffffffffff1673ffffffffffffffffffffffffffffffffffffffff16815260200190815260200160002060006101000a81548160ff021916908315150217905550600180600060405160200161407890615370565b60405160208183030381529060405280519060200120815260200190815260200160002060008373ffffffffffffffffffffffffffffffffffffffff1673ffffffffffffffffffffffffffffffffffffffff16815260200190815260200160002060006101000a81548160ff0219169083151502179055506142a8565b60405160200161410490615370565b6040516020818303038152906040528051906020012082141561423e5760018060006040516020016141359061535b565b60405160208183030381529060405280519060200120815260200190815260200160002060008373ffffffffffffffffffffffffffffffffffffffff1673ffffffffffffffffffffffffffffffffffffffff16815260200190815260200160002060006101000a81548160ff02191690831515021790555060018060006040516020016141c190615370565b60405160208183030381529060405280519060200120815260200190815260200160002060008373ffffffffffffffffffffffffffffffffffffffff1673ffffffffffffffffffffffffffffffffffffffff16815260200190815260200160002060006101000a81548160ff0219169083151502179055506142a7565b600180600084815260200190815260200160002060008373ffffffffffffffffffffffffffffffffffffffff1673ffffffffffffffffffffffffffffffffffffffff16815260200190815260200160002060006101000a81548160ff0219169083151502179055505b5b8073ffffffffffffffffffffffffffffffffffffffff16827f5a06360d65acf95e98445dc834f205063424c636e65418d928cdfabc33a9539960405160405180910390a35050565b828054600181600116156101000203166002900490600052602060002090601f016020900481019282601f1061433157805160ff191683800117855561435f565b8280016001018555821561435f579182015b8281111561435e578251825591602001919060010190614343565b5b50905061436c9190614456565b5090565b828054600181600116156101000203166002900490600052602060002090601f016020900481019282601f106143b157803560ff19168380011785556143df565b828001600101855582156143df579182015b828111156143de5782358255916020019190600101906143c3565b5b5090506143ec9190614456565b5090565b60405180610140016040528060008019168152602001600081526020016060815260200160608152602001600080191681526020016060815260200160008152602001600081526020016000600281111561444757fe5b81526020016000151581525090565b61447891905b8082111561447457600081600090555060010161445c565b5090565b90565b60008135905061448a816158bd565b92915050565b600082601f8301126144a157600080fd5b81356144b46144af826156a7565b61567a565b9150818183526020840193506020810190508360005b838110156144fa57813586016144e0888261458d565b8452602084019350602083019250506001810190506144ca565b5050505092915050565b600081359050614513816158d4565b92915050565b600081359050614528816158eb565b92915050565b60008135905061453d816158fb565b92915050565b60008083601f84011261455557600080fd5b8235905067ffffffffffffffff81111561456e57600080fd5b60208301915083600182028301111561458657600080fd5b9250929050565b600082601f83011261459e57600080fd5b81356145b16145ac826156cf565b61567a565b915080825260208301602083018583830111156145cd57600080fd5b6145d883828461585d565b50505092915050565b600082601f8301126145f257600080fd5b8135614605614600826156fb565b61567a565b9150808252602083016020830185838301111561462157600080fd5b61462c83828461585d565b50505092915050565b6000813590506146448161590b565b92915050565b60006020828403121561465c57600080fd5b600061466a8482850161447b565b91505092915050565b60008060008060008060008060008060e08b8d03121561469257600080fd5b60006146a08d828e0161447b565b9a505060206146b18d828e01614504565b99505060408b013567ffffffffffffffff8111156146ce57600080fd5b6146da8d828e01614543565b985098505060608b013567ffffffffffffffff8111156146f957600080fd5b6147058d828e01614543565b965096505060806147188d828e01614504565b94505060a08b013567ffffffffffffffff81111561473557600080fd5b6147418d828e01614543565b935093505060c06147548d828e0161452e565b9150509295989b9194979a5092959850565b60008060008060008060c0878903121561477f57600080fd5b600061478d89828a0161447b565b965050602061479e89828a01614504565b955050604087013567ffffffffffffffff8111156147bb57600080fd5b6147c789828a016145e1565b945050606087013567ffffffffffffffff8111156147e457600080fd5b6147f089828a016145e1565b935050608061480189828a01614504565b92505060a087013567ffffffffffffffff81111561481e57600080fd5b61482a89828a016145e1565b9150509295509295509295565b60008060008060008060008060006101208a8c03121561485657600080fd5b60006148648c828d0161447b565b99505060208a013567ffffffffffffffff81111561488157600080fd5b61488d8c828d016145e1565b98505060408a013567ffffffffffffffff8111156148aa57600080fd5b6148b68c828d016145e1565b97505060606148c78c828d01614635565b96505060808a013567ffffffffffffffff8111156148e457600080fd5b6148f08c828d016145e1565b95505060a08a013567ffffffffffffffff81111561490d57600080fd5b6149198c828d016145e1565b94505060c061492a8c828d01614504565b93505060e061493b8c828d01614519565b92505061010061494d8c828d01614635565b9150509295985092959850929598565b6000806040838503121561497057600080fd5b600061497e8582860161447b565b925050602061498f85828601614635565b9150509250929050565b6000806000606084860312156149ae57600080fd5b60006149bc8682870161447b565b93505060206149cd86828701614635565b92505060406149de8682870161452e565b9150509250925092565b600080604083850312156149fb57600080fd5b6000614a0985828601614504565b9250506020614a1a8582860161447b565b9150509250929050565b600060208284031215614a3657600080fd5b600082013567ffffffffffffffff811115614a5057600080fd5b614a5c848285016145e1565b91505092915050565b600060208284031215614a7757600080fd5b6000614a8584828501614635565b91505092915050565b60008060408385031215614aa157600080fd5b6000614aaf85828601614635565b925050602083013567ffffffffffffffff811115614acc57600080fd5b614ad885828601614490565b9150509250929050565b600080600080600060a08688031215614afa57600080fd5b6000614b0888828901614635565b955050602086013567ffffffffffffffff811115614b2557600080fd5b614b31888289016145e1565b945050604086013567ffffffffffffffff811115614b4e57600080fd5b614b5a888289016145e1565b9350506060614b6b88828901614504565b9250506080614b7c88828901614519565b9150509295509295909350565b60008060008060808587031215614b9f57600080fd5b6000614bad87828801614635565b945050602085013567ffffffffffffffff811115614bca57600080fd5b614bd6878288016145e1565b9350506040614be787828801614635565b925050606085013567ffffffffffffffff811115614c0457600080fd5b614c10878288016145e1565b91505092959194509250565b60008060408385031215614c2f57600080fd5b6000614c3d85828601614635565b9250506020614c4e85828601614635565b9150509250929050565b6000614c648383615300565b60208301905092915050565b614c7981615815565b82525050565b614c88816157a3565b82525050565b6000614c9982615737565b614ca38185615765565b9350614cae83615727565b8060005b83811015614cdf578151614cc68882614c58565b9750614cd183615758565b925050600181019050614cb2565b5085935050505092915050565b614cf5816157b5565b82525050565b614d04816157b5565b82525050565b614d13816157c1565b82525050565b614d22816157c1565b82525050565b614d3181615827565b82525050565b614d4081615827565b82525050565b6000614d518261574d565b614d5b8185615787565b9350614d6b81856020860161586c565b614d748161589f565b840191505092915050565b6000614d8a8261574d565b614d948185615798565b9350614da481856020860161586c565b80840191505092915050565b6000614dbb82615742565b614dc58185615776565b9350614dd581856020860161586c565b614dde8161589f565b840191505092915050565b6000614df482615742565b614dfe8185615798565b9350614e0e81856020860161586c565b80840191505092915050565b6000614e27601f83615787565b91507f557365722061646472657373206973206e6f7420696e697469616c697a6564006000830152602082019050919050565b6000614e67603283615787565b91507f54686973206164647265737320646f6573206e6f74206861766520746865207260008301527f6f6c6520746f206265207265766f6b65642e00000000000000000000000000006020830152604082019050919050565b6000614ecd600483615798565b91507f52656164000000000000000000000000000000000000000000000000000000006000830152600482019050919050565b6000614f0d601383615787565b91507f4e6f2066696c65206861732074686973206964000000000000000000000000006000830152602082019050919050565b6000614f4d600583615798565b91507f57726974650000000000000000000000000000000000000000000000000000006000830152600582019050919050565b6000614f8d602483615787565b91507f41646d696e206e6f7420617574686f72697a656420746f2064656c657465206f60008301527f776e6572000000000000000000000000000000000000000000000000000000006020830152604082019050919050565b6000614ff3600583615798565b91507f41646d696e0000000000000000000000000000000000000000000000000000006000830152600582019050919050565b6000615033600f83615787565b91507f4e6f7420617574686f72697a65642100000000000000000000000000000000006000830152602082019050919050565b6000615073602383615787565b91507f54686973206164647265737320616c726561647920686173207468697320726f60008301527f6c652100000000000000000000000000000000000000000000000000000000006020830152604082019050919050565b60006150d9601c83615787565b91507f55736572206164647265737320697320616c72656164792075736564000000006000830152602082019050919050565b6000615119602383615787565b91507f526f6c65733a206163636f756e7420697320746865207a65726f20616464726560008301527f73732100000000000000000000000000000000000000000000000000000000006020830152604082019050919050565b600061517f601e83615787565b91507f4e6f7420616c6c6f77656420746f2073657420746869732073746174757300006000830152602082019050919050565b60006151bf602683615787565b91507f41646d696e20636f756c64206e6f742073657420616e6f746865722061646d6960008301527f6e20726f6c6500000000000000000000000000000000000000000000000000006020830152604082019050919050565b6000610140830160008301516152316000860182614d0a565b5060208301516152446020860182615300565b506040830151848203604086015261525c8282614db0565b915050606083015184820360608601526152768282614db0565b915050608083015161528b6080860182614d0a565b5060a083015184820360a08601526152a38282614db0565b91505060c08301516152b860c0860182615300565b5060e08301516152cb60e0860182615300565b506101008301516152e0610100860182614d28565b506101208301516152f5610120860182614cec565b508091505092915050565b615309816157fe565b82525050565b615318816157fe565b82525050565b61532781615808565b82525050565b60006153398284614de9565b915081905092915050565b60006153508284614d7f565b915081905092915050565b600061536682614ec0565b9150819050919050565b600061537b82614f40565b9150819050919050565b600061539082614fe6565b9150819050919050565b60006020820190506153af6000830184614c7f565b92915050565b60006060820190506153ca6000830186614c70565b6153d76020830185614c7f565b6153e4604083018461530f565b949350505050565b60006040820190506154016000830185614c7f565b61540e602083018461530f565b9392505050565b6000602082019050818103600083015261542f8184614c8e565b905092915050565b600060208201905061544c6000830184614cfb565b92915050565b6000604082019050818103600083015261546c8185614d46565b905061547b602083018461530f565b9392505050565b6000602082019050818103600083015261549b81614e1a565b9050919050565b600060208201905081810360008301526154bb81614e5a565b9050919050565b600060208201905081810360008301526154db81614f00565b9050919050565b600060208201905081810360008301526154fb81614f80565b9050919050565b6000602082019050818103600083015261551b81615026565b9050919050565b6000602082019050818103600083015261553b81615066565b9050919050565b6000602082019050818103600083015261555b816150cc565b9050919050565b6000602082019050818103600083015261557b8161510c565b9050919050565b6000602082019050818103600083015261559b81615172565b9050919050565b600060208201905081810360008301526155bb816151b2565b9050919050565b600060208201905081810360008301526155dc8184615218565b905092915050565b60006020820190506155f9600083018461530f565b92915050565b6000604082019050615614600083018561530f565b6156216020830184614d19565b9392505050565b600060608201905061563d600083018661530f565b61564a602083018561530f565b6156576040830184614d37565b949350505050565b6000602082019050615674600083018461531e565b92915050565b6000604051905081810181811067ffffffffffffffff8211171561569d57600080fd5b8060405250919050565b600067ffffffffffffffff8211156156be57600080fd5b602082029050602081019050919050565b600067ffffffffffffffff8211156156e657600080fd5b601f19601f8301169050602081019050919050565b600067ffffffffffffffff82111561571257600080fd5b601f19601f8301169050602081019050919050565b6000819050602082019050919050565b600081519050919050565b600081519050919050565b600081519050919050565b6000602082019050919050565b600082825260208201905092915050565b600082825260208201905092915050565b600082825260208201905092915050565b600081905092915050565b60006157ae826157de565b9050919050565b60008115159050919050565b6000819050919050565b60008190506157d9826158b0565b919050565b600073ffffffffffffffffffffffffffffffffffffffff82169050919050565b6000819050919050565b600060ff82169050919050565b600061582082615839565b9050919050565b6000615832826157cb565b9050919050565b60006158448261584b565b9050919050565b6000615856826157de565b9050919050565b82818337600083830152505050565b60005b8381101561588a57808201518184015260208101905061586f565b83811115615899576000848401525b50505050565b6000601f19601f8301169050919050565b600381106158ba57fe5b50565b6158c6816157a3565b81146158d157600080fd5b50565b6158dd816157c1565b81146158e857600080fd5b50565b600a81106158f857600080fd5b50565b6003811061590857600080fd5b50565b615914816157fe565b811461591f57600080fd5b5056fea365627a7a7231582075b2eb10be096ed08054929a917b3d97df78ead04bd5686a47fc54ce4fc1803e6c6578706572696d656e74616cf564736f6c63430005110040",
  "source": "// SPDX-License-Identifier: MIT\r\npragma solidity >=0.4.21 <0.9.0;\r\npragma experimental ABIEncoderV2;\r\n\r\ncontract Users {\r\n\r\n    // Data used for roles and security\r\n  address public owner;\r\n  bytes32 private constant Admin = keccak256(abi.encodePacked(\"Admin\"));\r\n  bytes32 private constant Read = keccak256(abi.encodePacked(\"Read\"));\r\n  bytes32 private constant Write = keccak256(abi.encodePacked(\"Write\"));\r\n  mapping(bytes32 => mapping(address => bool)) public roles;\r\n  event GrantRole(bytes32 indexed role, address indexed account);\r\n  event RemoveRole(bytes32 indexed role, address indexed account);\r\n\r\n    // Data used to store information about users and their assets\r\n  enum RightsCategory {\r\n    PersonalUseOnly,\r\n    CommercialUse,\r\n    Attribution,\r\n    DerivativeWorks,\r\n    NonTransferable,\r\n    LimitedEdition,\r\n    EducationalUse,\r\n    ResaleRights,\r\n    Expiration,\r\n    RegionSpecific\r\n  }\r\n  enum VerificationStatus {\r\n    NotVerified,\r\n    InProgress,\r\n    Verified\r\n  }\r\n  struct UploadedFile {\r\n    string fileTitle;\r\n    string fileReference;\r\n    uint fileSize;\r\n    string fileType;\r\n    string description;\r\n    bytes32 country;\r\n    RightsCategory ownershipRights;\r\n    uint uploadDate;\r\n    uint likes;\r\n    address[] pastOwners;\r\n    uint[] priceForTransfer;\r\n  }\r\n  struct UserModelStruct {\r\n    bytes32 userEmail;\r\n    uint dateOfRegistration;\r\n    string firstName;\r\n    string lastName;\r\n    bytes32 country;\r\n    string description;\r\n    uint allowedUploads;\r\n    uint index;\r\n    VerificationStatus verifyStatus;\r\n    bool uploadingInProgess;\r\n  }\r\n  mapping(address => UserModelStruct) private userModels;\r\n  address[] private userPointer;\r\n  event CreatedUser(address indexed userAddress, uint index, bytes32 userEmail);\r\n  event UpdatedUser(address indexed userAddress, uint index, bytes32 userEmail);\r\n  event DeletedUser(address userAddress, uint index);\r\n  event LogUpdateUserByAdmin(address indexed userAddress, uint index, uint allowedUploads, VerificationStatus verifyStatus);\r\n\r\n  uint fileCounter;\r\n  mapping(uint => UploadedFile) files;\r\n  mapping(address => uint[]) personalUserfiles;\r\n  mapping(string => uint[]) tagFiles;\r\n  string[] tags;\r\n\r\n  event AddedFile(string fileReference, uint index);\r\n  event TransferredFile(address oldOwner, address newOwner, uint fileId);\r\n\r\n  constructor() public {\r\n    owner = msg.sender;\r\n    _grantRole(Admin, msg.sender);\r\n  }\r\n///----------------------------------------------------- ROLES LOGIC -----------------------------------------\r\n  modifier onlyRole (bytes32 _role) {\r\n    require(roles[_role][msg.sender], \"Not authorized!\");\r\n    _;\r\n  }\r\n\r\n  function _grantRole(bytes32 _role, address _account) internal {\r\n    if (_role==Admin){\r\n        roles[Admin][_account]=true;\r\n        roles[Read][_account]=true;\r\n        roles[Write][_account]=true;\r\n    } else if (_role==Write){\r\n        roles[Read][_account]=true;\r\n        roles[Write][_account]=true;\r\n    } else {\r\n        roles[_role][_account]=true;\r\n    }\r\n\r\n    emit GrantRole(_role, _account);\r\n  }\r\n\r\n  function grantAdminRole(address _account) external onlyRole(Admin) {\r\n    require(_account != address(0), \"Roles: account is the zero address!\");\r\n    require(!roles[Admin][_account], \"This address already has this role!\");\r\n    if (msg.sender == owner) {\r\n        _grantRole(Admin, _account);\r\n    }\r\n    else {\r\n        revert(\"Admin could not set another admin role\");\r\n    }\r\n  }\r\n\r\n  function grantWriteRole(address _account) external onlyRole(Admin) {\r\n    require(_account != address(0), \"Roles: account is the zero address!\");\r\n    require(!roles[Write][_account], \"This address already has this role!\");\r\n    _grantRole(Write, _account);\r\n  }\r\n\r\n  function grantReadRole(address _account) external onlyRole(Admin) {\r\n    require(_account != address(0), \"Roles: account is the zero address!\");\r\n    require(!roles[Read][_account], \"This address already has this role!\");\r\n    _grantRole(Read, _account);\r\n  }\r\n\r\n  function _deleteRole(bytes32 _role, address _account) internal {\r\n    if (_role==Admin){\r\n        roles[Admin][_account]=false;\r\n        roles[Read][_account]=false;\r\n        roles[Write][_account]=false;\r\n    } else if (_role==Write){\r\n        roles[Read][_account]=false;\r\n        roles[Write][_account]=false;\r\n    } else {\r\n        roles[_role][_account]=false;\r\n    }\r\n\r\n    emit RemoveRole(_role, _account);\r\n  }\r\n\r\n  function deleteAdminRole(address _account) external onlyRole(Admin) {\r\n    require(roles[Admin][_account], \"This address does not have the role to be revoked.\");\r\n    if (msg.sender == owner) {\r\n        _deleteRole(Admin, _account);\r\n    }\r\n    else {\r\n        revert(\"Admin not authorized to delete owner\");\r\n    }\r\n  }\r\n  function deleteWriteRole(address _account) external onlyRole(Admin) {\r\n    require(roles[Write][_account], \"This address does not have the role to be revoked.\");\r\n    _deleteRole(Write, _account);\r\n  }\r\n\r\n  function deleteReadRole(address _account) external onlyRole(Admin) {\r\n    require(roles[Read][_account], \"This address does not have the role to be revoked.\");\r\n    _deleteRole(Read, _account);\r\n  }\r\n\r\n  function getRoleForUser() external view returns(uint8 role){\r\n    if (roles[Admin][msg.sender]){\r\n      return 3;\r\n    } else if (roles[Write][msg.sender]){\r\n      return 2;\r\n    } else if (roles[Read][msg.sender]){\r\n      return 1;\r\n    }\r\n    return 0;\r\n  }\r\n\r\n///----------------------------------------------------- ROLES LOGIC END--------------------------------------\r\n  \r\n////***************************************************** USER LOGIC  ******************************************\r\n  function isUser(address userAddress) public view returns(bool isRegistered) { //view: do not alter the state of the contract or the blockchain in any way.\r\n    if(userPointer.length == 0) return false;\r\n    return (userPointer[userModels[userAddress].index] == userAddress);\r\n  }\r\n\r\n  function getUserCount() public view returns(uint count)\r\n  {\r\n    return userPointer.length;\r\n  }\r\n\r\n  function getUserAtIndex(uint index) public view returns(address userAddress)\r\n  {\r\n    return userPointer[index];\r\n  }\r\n\r\n  function insertUser(address userAddress, \r\n    bytes32 userEmail,\r\n    string memory firstName,\r\n    string memory lastName,\r\n    bytes32 country,\r\n    string memory description) public returns(uint index) {\r\n    require(!isUser(userAddress), \"User address is already used\");\r\n    userModels[userAddress].userEmail = userEmail;\r\n    userModels[userAddress].firstName = firstName;\r\n    userModels[userAddress].lastName = lastName;\r\n    userModels[userAddress].country = country;\r\n    userModels[userAddress].description = description;\r\n\r\n    userModels[userAddress].dateOfRegistration = block.timestamp;\r\n    userModels[userAddress].allowedUploads = 5;\r\n    userModels[userAddress].index = userPointer.length;\r\n    userModels[userAddress].verifyStatus = VerificationStatus.NotVerified;\r\n    userModels[userAddress].uploadingInProgess = false;\r\n\r\n    userPointer.push(userAddress);\r\n\r\n    _grantRole(Write, userAddress);\r\n    emit CreatedUser(userAddress, userModels[userAddress].index, userEmail);\r\n    return userPointer.length-1;\r\n  }\r\n\r\n  function getUser(address userAddress) public view\r\n    returns(UserModelStruct memory)\r\n  {\r\n    require(isUser(userAddress), \"User address is not initialized\");\r\n    return userModels[userAddress];\r\n  }\r\n\r\n  function deleteUser(address userAddress) public returns(uint index){\r\n    require(isUser(userAddress), \"User address is not initialized\"); \r\n    uint rowToDelete = userModels[userAddress].index;\r\n    address keyToMove = userPointer[userPointer.length-1];\r\n    userPointer[rowToDelete] = keyToMove;\r\n    userModels[keyToMove].index = rowToDelete; \r\n    userPointer.pop();\r\n    emit DeletedUser(\r\n        userAddress, \r\n        rowToDelete);\r\n    emit UpdatedUser(\r\n        keyToMove, \r\n        rowToDelete, \r\n        userModels[keyToMove].userEmail);\r\n    return rowToDelete;\r\n  }\r\n\r\n  function updateUserByAdmin(address userAddress, uint allowedUploads, VerificationStatus verifyStatus) external onlyRole(Admin) returns(bool success) \r\n  {\r\n    userModels[userAddress].allowedUploads = allowedUploads;\r\n    userModels[userAddress].verifyStatus = verifyStatus;\r\n    emit LogUpdateUserByAdmin(\r\n      userAddress, \r\n      userModels[userAddress].index,\r\n      userModels[userAddress].allowedUploads,\r\n      userModels[userAddress].verifyStatus);\r\n    return true;\r\n  }\r\n\r\n  function updateUser(address userAddress, \r\n    bytes32 userEmail,\r\n    string calldata firstName,\r\n    string calldata lastName,\r\n    bytes32 country,\r\n    string calldata description,\r\n    VerificationStatus verifyStatus) external returns(bool success) \r\n  {\r\n    require(isUser(userAddress), \"User address is not initialized\");\r\n    require(verifyStatus != VerificationStatus.Verified, \"Not allowed to set this status\");\r\n    userModels[userAddress].userEmail = userEmail;\r\n    userModels[userAddress].firstName = firstName;\r\n    userModels[userAddress].lastName = lastName;\r\n    userModels[userAddress].country = country;\r\n    userModels[userAddress].description = description;\r\n    userModels[userAddress].verifyStatus = verifyStatus;\r\n    emit UpdatedUser(\r\n      userAddress, \r\n      userModels[userAddress].index,\r\n      userModels[userAddress].userEmail);\r\n    return true;\r\n  }\r\n\r\n  function setVerified(address userAddress) external onlyRole(Admin) returns(bool isRegistered) { \r\n    require(isUser(userAddress), \"User address is not initialized\");\r\n    userModels[userAddress].verifyStatus = VerificationStatus.Verified;\r\n    return true;\r\n  }\r\n\r\n////***************************************************** USER LOGIC END ***************************************\r\n\r\n//##################################################### FILES LOGIC  ##########################################\r\n\r\n  function getFilesForAddress(address userAddress) public view returns(uint[] memory filesForAddress){\r\n    return personalUserfiles[userAddress];\r\n  }\r\n\r\n  function getFilesForTag(string memory tag) public view returns(uint[] memory filesForTag){\r\n    return tagFiles[tag];\r\n  }\r\n\r\n  function addNewTagsToFile(uint fileId, string[] memory newTags) public onlyRole(Write) returns(bool areTagsAdded) {\r\n    require(fileId < fileCounter, \"No file has this id\");\r\n    for (uint i = 0; i < newTags.length; i++) {\r\n      tags.push(newTags[i]);\r\n      tagFiles[newTags[i]].push(fileId);\r\n    }\r\n    return true;\r\n  }\r\n\r\n  function addTagsToFile(uint fileId, string[] memory existingTags) public onlyRole(Write) returns(bool areTagsAdded) {\r\n    require(fileId < fileCounter, \"No file has this id\");\r\n    for (uint i = 0; i < existingTags.length; i++) {\r\n      tagFiles[existingTags[i]].push(fileId);\r\n    }\r\n    return true;\r\n  }\r\n\r\n  function addFile(address userAddress, \r\n    string memory fileTitle,\r\n    string memory fileReference,\r\n    uint fileSize,\r\n    string memory fileType,\r\n    string memory description,\r\n    bytes32 country,\r\n    RightsCategory ownershipRights,\r\n    uint priceForTransfer) public onlyRole(Write) returns(uint index) {\r\n\r\n    require(isUser(userAddress), \"User address is not initialized\");\r\n    files[fileCounter].fileTitle = fileTitle;\r\n    files[fileCounter].fileReference = fileReference;\r\n    files[fileCounter].fileSize = fileSize;\r\n    files[fileCounter].fileType = fileType;\r\n    files[fileCounter].description = description;\r\n    files[fileCounter].country = country;\r\n    files[fileCounter].ownershipRights = ownershipRights;\r\n    files[fileCounter].uploadDate = block.timestamp;\r\n    files[fileCounter].likes = 0;\r\n    files[fileCounter].pastOwners.push(userAddress);\r\n    files[fileCounter].priceForTransfer.push(priceForTransfer);\r\n\r\n    personalUserfiles[userAddress].push(fileCounter);\r\n    userModels[userAddress].uploadingInProgess = false;\r\n\r\n    emit AddedFile(fileReference, fileCounter);\r\n    fileCounter++;\r\n    return fileCounter-1;\r\n  }\r\n  \r\n  function editFilePresentation( uint fileId,\r\n    string memory fileTitle,\r\n    string memory description,\r\n    bytes32 country,\r\n    RightsCategory ownershipRights) public onlyRole(Write) returns(uint index) {\r\n    require(fileId < fileCounter, \"No file has this id\");\r\n\r\n    files[fileId].fileTitle = fileTitle;\r\n    files[fileId].description = description;\r\n    files[fileId].country = country;\r\n    files[fileId].ownershipRights = ownershipRights;\r\n\r\n    return fileId;\r\n  }\r\n\r\n  function editFileTehnical( uint fileId,\r\n    string memory fileReference,\r\n    uint fileSize,\r\n    string memory fileType) public onlyRole(Write) returns(uint index) {\r\n    require(fileId < fileCounter, \"No file has this id\");\r\n\r\n    files[fileId].fileReference = fileReference;\r\n    files[fileId].fileSize = fileSize;\r\n    files[fileId].fileType = fileType;\r\n\r\n    return fileId;\r\n  }\r\n\r\n  //edit price for transfer\r\n  function editPrice( uint fileId, uint newPrice) external onlyRole(Write) returns(uint index) {\r\n    require(fileId < fileCounter, \"No file has this id\");\r\n    files[fileId].priceForTransfer.push(newPrice);\r\n    return fileId;\r\n  }\r\n  //add like\r\n    function changeLike ( uint fileId, uint increaseByAmount) external onlyRole(Write) returns(uint index) {\r\n    require(fileId < fileCounter, \"No file has this id\");\r\n    files[fileId].likes = files[fileId].likes + increaseByAmount;\r\n    return fileId;\r\n  }\r\n\r\n  //called by owner ; should this be modified to be called by the buyer?\r\n  function changeOwnerFile(address newUserAddress, uint fileId) public onlyRole(Write) returns(uint index){\r\n    require(fileId < fileCounter, \"No file has this id\");\r\n    //money\r\n    require(files[fileId].priceForTransfer[files[fileId].priceForTransfer.length-1] < newUserAddress.balance);\r\n    //old owner\r\n    for (uint i = 0; i < personalUserfiles[msg.sender].length; i++) {\r\n      if (personalUserfiles[msg.sender][i] == fileId) {\r\n        personalUserfiles[msg.sender][i] = personalUserfiles[msg.sender][personalUserfiles[msg.sender].length - 1];\r\n\r\n        personalUserfiles[msg.sender].pop();\r\n        break;\r\n      }\r\n    }\r\n    //history\r\n    files[fileId].pastOwners.push(newUserAddress);\r\n    //new owner\r\n    personalUserfiles[newUserAddress].push(fileId);\r\n    emit TransferredFile(msg.sender, newUserAddress, fileId);\r\n    return fileId;\r\n  }\r\n\r\n//##################################################### FILES LOGIC END #######################################\r\n}",
  "sourcePath": "C:\\Users\\andre\\Desktop\\Licenta2\\Licenta2\\App\\src\\contracts\\Users.sol",
  "compiler": {
    "name": "solc",
    "version": "0.5.17+commit.d19bba13.Emscripten.clang"
  },
  "schemaVersion": "3.4.13",
  "updatedAt": "2023-08-18T10:22:40.908Z",
  "networkType": "ethereum",
  "devdoc": {
    "methods": {}
  },
  "userdoc": {
    "methods": {
      "getFilesForAddress(address)": {
        "notice": "/***************************************************** USER LOGIC END ***************************************"
      },
      "isUser(address)": {
        "notice": "----------------------------------------------------- ROLES LOGIC END-------------------------------------- /***************************************************** USER LOGIC  ******************************************"
      }
    }
  }
}