{
  "contractName": "Users",
  "abi": [
    {
      "inputs": [],
      "payable": false,
      "stateMutability": "nonpayable",
      "type": "constructor"
    },
    {
      "anonymous": false,
      "inputs": [
        {
          "indexed": false,
          "internalType": "string",
          "name": "fileReference",
          "type": "string"
        },
        {
          "indexed": false,
          "internalType": "uint256",
          "name": "index",
          "type": "uint256"
        }
      ],
      "name": "AddedFile",
      "type": "event"
    },
    {
      "anonymous": false,
      "inputs": [
        {
          "indexed": true,
          "internalType": "address",
          "name": "userAddress",
          "type": "address"
        },
        {
          "indexed": false,
          "internalType": "uint256",
          "name": "index",
          "type": "uint256"
        },
        {
          "indexed": false,
          "internalType": "bytes32",
          "name": "userEmail",
          "type": "bytes32"
        }
      ],
      "name": "CreatedUser",
      "type": "event"
    },
    {
      "anonymous": false,
      "inputs": [
        {
          "indexed": false,
          "internalType": "address",
          "name": "userAddress",
          "type": "address"
        },
        {
          "indexed": false,
          "internalType": "uint256",
          "name": "index",
          "type": "uint256"
        }
      ],
      "name": "DeletedUser",
      "type": "event"
    },
    {
      "anonymous": false,
      "inputs": [
        {
          "indexed": true,
          "internalType": "bytes32",
          "name": "role",
          "type": "bytes32"
        },
        {
          "indexed": true,
          "internalType": "address",
          "name": "account",
          "type": "address"
        }
      ],
      "name": "GrantRole",
      "type": "event"
    },
    {
      "anonymous": false,
      "inputs": [
        {
          "indexed": true,
          "internalType": "address",
          "name": "userAddress",
          "type": "address"
        },
        {
          "indexed": false,
          "internalType": "uint256",
          "name": "index",
          "type": "uint256"
        },
        {
          "indexed": false,
          "internalType": "uint256",
          "name": "allowedUploads",
          "type": "uint256"
        },
        {
          "indexed": false,
          "internalType": "enum Users.VerificationStatus",
          "name": "verifyStatus",
          "type": "uint8"
        }
      ],
      "name": "LogUpdateUserByAdmin",
      "type": "event"
    },
    {
      "anonymous": false,
      "inputs": [
        {
          "indexed": true,
          "internalType": "bytes32",
          "name": "role",
          "type": "bytes32"
        },
        {
          "indexed": true,
          "internalType": "address",
          "name": "account",
          "type": "address"
        }
      ],
      "name": "RemoveRole",
      "type": "event"
    },
    {
      "anonymous": false,
      "inputs": [
        {
          "indexed": false,
          "internalType": "address",
          "name": "oldOwner",
          "type": "address"
        },
        {
          "indexed": false,
          "internalType": "address",
          "name": "newOwner",
          "type": "address"
        },
        {
          "indexed": false,
          "internalType": "uint256",
          "name": "fileId",
          "type": "uint256"
        }
      ],
      "name": "TransferredFile",
      "type": "event"
    },
    {
      "anonymous": false,
      "inputs": [
        {
          "indexed": true,
          "internalType": "address",
          "name": "userAddress",
          "type": "address"
        },
        {
          "indexed": false,
          "internalType": "uint256",
          "name": "index",
          "type": "uint256"
        },
        {
          "indexed": false,
          "internalType": "bytes32",
          "name": "userEmail",
          "type": "bytes32"
        }
      ],
      "name": "UpdatedUser",
      "type": "event"
    },
    {
      "constant": true,
      "inputs": [],
      "name": "owner",
      "outputs": [
        {
          "internalType": "address",
          "name": "",
          "type": "address"
        }
      ],
      "payable": false,
      "stateMutability": "view",
      "type": "function"
    },
    {
      "constant": true,
      "inputs": [
        {
          "internalType": "bytes32",
          "name": "",
          "type": "bytes32"
        },
        {
          "internalType": "address",
          "name": "",
          "type": "address"
        }
      ],
      "name": "roles",
      "outputs": [
        {
          "internalType": "bool",
          "name": "",
          "type": "bool"
        }
      ],
      "payable": false,
      "stateMutability": "view",
      "type": "function"
    },
    {
      "constant": false,
      "inputs": [
        {
          "internalType": "address",
          "name": "_account",
          "type": "address"
        }
      ],
      "name": "grantAdminRole",
      "outputs": [],
      "payable": false,
      "stateMutability": "nonpayable",
      "type": "function"
    },
    {
      "constant": false,
      "inputs": [
        {
          "internalType": "address",
          "name": "_account",
          "type": "address"
        }
      ],
      "name": "grantWriteRole",
      "outputs": [],
      "payable": false,
      "stateMutability": "nonpayable",
      "type": "function"
    },
    {
      "constant": false,
      "inputs": [
        {
          "internalType": "address",
          "name": "_account",
          "type": "address"
        }
      ],
      "name": "grantReadRole",
      "outputs": [],
      "payable": false,
      "stateMutability": "nonpayable",
      "type": "function"
    },
    {
      "constant": false,
      "inputs": [
        {
          "internalType": "address",
          "name": "_account",
          "type": "address"
        }
      ],
      "name": "deleteAdminRole",
      "outputs": [],
      "payable": false,
      "stateMutability": "nonpayable",
      "type": "function"
    },
    {
      "constant": false,
      "inputs": [
        {
          "internalType": "address",
          "name": "_account",
          "type": "address"
        }
      ],
      "name": "deleteWriteRole",
      "outputs": [],
      "payable": false,
      "stateMutability": "nonpayable",
      "type": "function"
    },
    {
      "constant": false,
      "inputs": [
        {
          "internalType": "address",
          "name": "_account",
          "type": "address"
        }
      ],
      "name": "deleteReadRole",
      "outputs": [],
      "payable": false,
      "stateMutability": "nonpayable",
      "type": "function"
    },
    {
      "constant": true,
      "inputs": [],
      "name": "getRoleForUser",
      "outputs": [
        {
          "internalType": "uint8",
          "name": "role",
          "type": "uint8"
        }
      ],
      "payable": false,
      "stateMutability": "view",
      "type": "function"
    },
    {
      "constant": true,
      "inputs": [
        {
          "internalType": "address",
          "name": "userAddress",
          "type": "address"
        }
      ],
      "name": "isUser",
      "outputs": [
        {
          "internalType": "bool",
          "name": "isRegistered",
          "type": "bool"
        }
      ],
      "payable": false,
      "stateMutability": "view",
      "type": "function"
    },
    {
      "constant": true,
      "inputs": [],
      "name": "getUserCount",
      "outputs": [
        {
          "internalType": "uint256",
          "name": "count",
          "type": "uint256"
        }
      ],
      "payable": false,
      "stateMutability": "view",
      "type": "function"
    },
    {
      "constant": true,
      "inputs": [
        {
          "internalType": "uint256",
          "name": "index",
          "type": "uint256"
        }
      ],
      "name": "getUserAtIndex",
      "outputs": [
        {
          "internalType": "address",
          "name": "userAddress",
          "type": "address"
        }
      ],
      "payable": false,
      "stateMutability": "view",
      "type": "function"
    },
    {
      "constant": false,
      "inputs": [
        {
          "internalType": "address",
          "name": "userAddress",
          "type": "address"
        },
        {
          "internalType": "bytes32",
          "name": "userEmail",
          "type": "bytes32"
        },
        {
          "internalType": "string",
          "name": "firstName",
          "type": "string"
        },
        {
          "internalType": "string",
          "name": "lastName",
          "type": "string"
        },
        {
          "internalType": "bytes32",
          "name": "country",
          "type": "bytes32"
        },
        {
          "internalType": "string",
          "name": "description",
          "type": "string"
        }
      ],
      "name": "insertUser",
      "outputs": [
        {
          "internalType": "uint256",
          "name": "index",
          "type": "uint256"
        }
      ],
      "payable": false,
      "stateMutability": "nonpayable",
      "type": "function"
    },
    {
      "constant": true,
      "inputs": [
        {
          "internalType": "address",
          "name": "userAddress",
          "type": "address"
        }
      ],
      "name": "getUser",
      "outputs": [
        {
          "components": [
            {
              "internalType": "bytes32",
              "name": "userEmail",
              "type": "bytes32"
            },
            {
              "internalType": "uint256",
              "name": "dateOfRegistration",
              "type": "uint256"
            },
            {
              "internalType": "string",
              "name": "firstName",
              "type": "string"
            },
            {
              "internalType": "string",
              "name": "lastName",
              "type": "string"
            },
            {
              "internalType": "bytes32",
              "name": "country",
              "type": "bytes32"
            },
            {
              "internalType": "string",
              "name": "description",
              "type": "string"
            },
            {
              "internalType": "uint256",
              "name": "allowedUploads",
              "type": "uint256"
            },
            {
              "internalType": "uint256",
              "name": "index",
              "type": "uint256"
            },
            {
              "internalType": "enum Users.VerificationStatus",
              "name": "verifyStatus",
              "type": "uint8"
            },
            {
              "internalType": "bool",
              "name": "uploadingInProgess",
              "type": "bool"
            }
          ],
          "internalType": "struct Users.UserModelStruct",
          "name": "",
          "type": "tuple"
        }
      ],
      "payable": false,
      "stateMutability": "view",
      "type": "function"
    },
    {
      "constant": false,
      "inputs": [
        {
          "internalType": "address",
          "name": "userAddress",
          "type": "address"
        },
        {
          "internalType": "uint256",
          "name": "allowedUploads",
          "type": "uint256"
        },
        {
          "internalType": "enum Users.VerificationStatus",
          "name": "verifyStatus",
          "type": "uint8"
        }
      ],
      "name": "updateUserByAdmin",
      "outputs": [
        {
          "internalType": "bool",
          "name": "success",
          "type": "bool"
        }
      ],
      "payable": false,
      "stateMutability": "nonpayable",
      "type": "function"
    },
    {
      "constant": false,
      "inputs": [
        {
          "internalType": "address",
          "name": "userAddress",
          "type": "address"
        },
        {
          "internalType": "bytes32",
          "name": "userEmail",
          "type": "bytes32"
        },
        {
          "internalType": "string",
          "name": "firstName",
          "type": "string"
        },
        {
          "internalType": "string",
          "name": "lastName",
          "type": "string"
        },
        {
          "internalType": "bytes32",
          "name": "country",
          "type": "bytes32"
        },
        {
          "internalType": "string",
          "name": "description",
          "type": "string"
        },
        {
          "internalType": "enum Users.VerificationStatus",
          "name": "verifyStatus",
          "type": "uint8"
        }
      ],
      "name": "updateUser",
      "outputs": [
        {
          "internalType": "bool",
          "name": "success",
          "type": "bool"
        }
      ],
      "payable": false,
      "stateMutability": "nonpayable",
      "type": "function"
    },
    {
      "constant": false,
      "inputs": [
        {
          "internalType": "address",
          "name": "userAddress",
          "type": "address"
        }
      ],
      "name": "setVerified",
      "outputs": [
        {
          "internalType": "bool",
          "name": "isRegistered",
          "type": "bool"
        }
      ],
      "payable": false,
      "stateMutability": "nonpayable",
      "type": "function"
    },
    {
      "constant": true,
      "inputs": [
        {
          "internalType": "address",
          "name": "userAddress",
          "type": "address"
        }
      ],
      "name": "getFilesForAddress",
      "outputs": [
        {
          "internalType": "uint256[]",
          "name": "filesForAddress",
          "type": "uint256[]"
        }
      ],
      "payable": false,
      "stateMutability": "view",
      "type": "function"
    },
    {
      "constant": true,
      "inputs": [
        {
          "internalType": "string",
          "name": "tag",
          "type": "string"
        }
      ],
      "name": "getFilesForTag",
      "outputs": [
        {
          "internalType": "uint256[]",
          "name": "filesForTag",
          "type": "uint256[]"
        }
      ],
      "payable": false,
      "stateMutability": "view",
      "type": "function"
    },
    {
      "constant": true,
      "inputs": [
        {
          "internalType": "uint256",
          "name": "fileId",
          "type": "uint256"
        }
      ],
      "name": "getFile",
      "outputs": [
        {
          "components": [
            {
              "internalType": "string",
              "name": "fileTitle",
              "type": "string"
            },
            {
              "internalType": "string",
              "name": "fileReference",
              "type": "string"
            },
            {
              "internalType": "uint256",
              "name": "fileSize",
              "type": "uint256"
            },
            {
              "internalType": "string",
              "name": "fileType",
              "type": "string"
            },
            {
              "internalType": "string",
              "name": "description",
              "type": "string"
            },
            {
              "internalType": "bytes32",
              "name": "country",
              "type": "bytes32"
            },
            {
              "internalType": "enum Users.RightsCategory",
              "name": "ownershipRights",
              "type": "uint8"
            },
            {
              "internalType": "uint256",
              "name": "uploadDate",
              "type": "uint256"
            },
            {
              "internalType": "uint256",
              "name": "likes",
              "type": "uint256"
            },
            {
              "internalType": "address[]",
              "name": "pastOwners",
              "type": "address[]"
            },
            {
              "internalType": "uint256[]",
              "name": "priceForTransfer",
              "type": "uint256[]"
            }
          ],
          "internalType": "struct Users.UploadedFile",
          "name": "",
          "type": "tuple"
        }
      ],
      "payable": false,
      "stateMutability": "view",
      "type": "function"
    },
    {
      "constant": false,
      "inputs": [
        {
          "internalType": "uint256",
          "name": "fileId",
          "type": "uint256"
        },
        {
          "internalType": "string[]",
          "name": "newTags",
          "type": "string[]"
        }
      ],
      "name": "addNewTagsToFile",
      "outputs": [
        {
          "internalType": "bool",
          "name": "areTagsAdded",
          "type": "bool"
        }
      ],
      "payable": false,
      "stateMutability": "nonpayable",
      "type": "function"
    },
    {
      "constant": false,
      "inputs": [
        {
          "internalType": "uint256",
          "name": "fileId",
          "type": "uint256"
        },
        {
          "internalType": "string[]",
          "name": "existingTags",
          "type": "string[]"
        }
      ],
      "name": "addTagsToFile",
      "outputs": [
        {
          "internalType": "bool",
          "name": "areTagsAdded",
          "type": "bool"
        }
      ],
      "payable": false,
      "stateMutability": "nonpayable",
      "type": "function"
    },
    {
      "constant": false,
      "inputs": [
        {
          "internalType": "address",
          "name": "userAddress",
          "type": "address"
        },
        {
          "internalType": "string",
          "name": "fileTitle",
          "type": "string"
        },
        {
          "internalType": "string",
          "name": "fileReference",
          "type": "string"
        },
        {
          "internalType": "uint256",
          "name": "fileSize",
          "type": "uint256"
        },
        {
          "internalType": "string",
          "name": "fileType",
          "type": "string"
        },
        {
          "internalType": "string",
          "name": "description",
          "type": "string"
        },
        {
          "internalType": "bytes32",
          "name": "country",
          "type": "bytes32"
        },
        {
          "internalType": "enum Users.RightsCategory",
          "name": "ownershipRights",
          "type": "uint8"
        },
        {
          "internalType": "uint256",
          "name": "priceForTransfer",
          "type": "uint256"
        }
      ],
      "name": "addFile",
      "outputs": [
        {
          "internalType": "uint256",
          "name": "index",
          "type": "uint256"
        }
      ],
      "payable": false,
      "stateMutability": "nonpayable",
      "type": "function"
    },
    {
      "constant": false,
      "inputs": [
        {
          "internalType": "uint256",
          "name": "fileId",
          "type": "uint256"
        },
        {
          "internalType": "string",
          "name": "fileTitle",
          "type": "string"
        },
        {
          "internalType": "string",
          "name": "description",
          "type": "string"
        },
        {
          "internalType": "bytes32",
          "name": "country",
          "type": "bytes32"
        },
        {
          "internalType": "enum Users.RightsCategory",
          "name": "ownershipRights",
          "type": "uint8"
        }
      ],
      "name": "editFilePresentation",
      "outputs": [
        {
          "internalType": "uint256",
          "name": "index",
          "type": "uint256"
        }
      ],
      "payable": false,
      "stateMutability": "nonpayable",
      "type": "function"
    },
    {
      "constant": false,
      "inputs": [
        {
          "internalType": "uint256",
          "name": "fileId",
          "type": "uint256"
        },
        {
          "internalType": "string",
          "name": "fileReference",
          "type": "string"
        },
        {
          "internalType": "uint256",
          "name": "fileSize",
          "type": "uint256"
        },
        {
          "internalType": "string",
          "name": "fileType",
          "type": "string"
        }
      ],
      "name": "editFileTehnical",
      "outputs": [
        {
          "internalType": "uint256",
          "name": "index",
          "type": "uint256"
        }
      ],
      "payable": false,
      "stateMutability": "nonpayable",
      "type": "function"
    },
    {
      "constant": false,
      "inputs": [
        {
          "internalType": "uint256",
          "name": "fileId",
          "type": "uint256"
        },
        {
          "internalType": "uint256",
          "name": "newPrice",
          "type": "uint256"
        }
      ],
      "name": "editPrice",
      "outputs": [
        {
          "internalType": "uint256",
          "name": "index",
          "type": "uint256"
        }
      ],
      "payable": false,
      "stateMutability": "nonpayable",
      "type": "function"
    },
    {
      "constant": false,
      "inputs": [
        {
          "internalType": "uint256",
          "name": "fileId",
          "type": "uint256"
        },
        {
          "internalType": "uint256",
          "name": "increaseByAmount",
          "type": "uint256"
        }
      ],
      "name": "changeLike",
      "outputs": [
        {
          "internalType": "uint256",
          "name": "index",
          "type": "uint256"
        }
      ],
      "payable": false,
      "stateMutability": "nonpayable",
      "type": "function"
    },
    {
      "constant": false,
      "inputs": [
        {
          "internalType": "address",
          "name": "newUserAddress",
          "type": "address"
        },
        {
          "internalType": "uint256",
          "name": "fileId",
          "type": "uint256"
        }
      ],
      "name": "changeOwnerFile",
      "outputs": [
        {
          "internalType": "uint256",
          "name": "index",
          "type": "uint256"
        }
      ],
      "payable": false,
      "stateMutability": "nonpayable",
      "type": "function"
    }
  ],
  "bytecode": "0x60806040523480156200001157600080fd5b50336000806101000a81548173ffffffffffffffffffffffffffffffffffffffff021916908373ffffffffffffffffffffffffffffffffffffffff1602179055506200008a604051602001620000679062000566565b60405160208183030381529060405280519060200120336200009060201b60201c565b62000588565b604051602001620000a19062000566565b604051602081830303815290604052805190602001208214156200026f576001806000604051602001620000d59062000566565b60405160208183030381529060405280519060200120815260200190815260200160002060008373ffffffffffffffffffffffffffffffffffffffff1673ffffffffffffffffffffffffffffffffffffffff16815260200190815260200160002060006101000a81548160ff0219169083151502179055506001806000604051602001620001639062000538565b60405160208183030381529060405280519060200120815260200190815260200160002060008373ffffffffffffffffffffffffffffffffffffffff1673ffffffffffffffffffffffffffffffffffffffff16815260200190815260200160002060006101000a81548160ff0219169083151502179055506001806000604051602001620001f1906200054f565b60405160208183030381529060405280519060200120815260200190815260200160002060008373ffffffffffffffffffffffffffffffffffffffff1673ffffffffffffffffffffffffffffffffffffffff16815260200190815260200160002060006101000a81548160ff0219169083151502179055506200042a565b60405160200162000280906200054f565b60405160208183030381529060405280519060200120821415620003c0576001806000604051602001620002b49062000538565b60405160208183030381529060405280519060200120815260200190815260200160002060008373ffffffffffffffffffffffffffffffffffffffff1673ffffffffffffffffffffffffffffffffffffffff16815260200190815260200160002060006101000a81548160ff021916908315150217905550600180600060405160200162000342906200054f565b60405160208183030381529060405280519060200120815260200190815260200160002060008373ffffffffffffffffffffffffffffffffffffffff1673ffffffffffffffffffffffffffffffffffffffff16815260200190815260200160002060006101000a81548160ff02191690831515021790555062000429565b600180600084815260200190815260200160002060008373ffffffffffffffffffffffffffffffffffffffff1673ffffffffffffffffffffffffffffffffffffffff16815260200190815260200160002060006101000a81548160ff0219169083151502179055505b5b8073ffffffffffffffffffffffffffffffffffffffff16827f5a06360d65acf95e98445dc834f205063424c636e65418d928cdfabc33a9539960405160405180910390a35050565b6000620004816004836200057d565b91507f52656164000000000000000000000000000000000000000000000000000000006000830152600482019050919050565b6000620004c36005836200057d565b91507f57726974650000000000000000000000000000000000000000000000000000006000830152600582019050919050565b6000620005056005836200057d565b91507f41646d696e0000000000000000000000000000000000000000000000000000006000830152600582019050919050565b6000620005458262000472565b9150819050919050565b60006200055c82620004b4565b9150819050919050565b60006200057382620004f6565b9150819050919050565b600081905092915050565b615dd880620005986000396000f3fe608060405234801561001057600080fd5b50600436106101c45760003560e01c80639cbf6fbe116100f9578063d5f5260211610097578063ee18839711610071578063ee188397146105af578063f8fc08b9146105cb578063f9434b84146105fb578063ffcc7bbf1461062b576101c4565b8063d5f5260214610533578063d84b6a0b14610563578063e563d3f81461057f576101c4565b8063be575229116100d3578063be5752291461049b578063c634b78e146104b7578063c8c75647146104d3578063d0e7a5cb14610503576101c4565b80639cbf6fbe1461042f578063a2068e041461044d578063b5cb15f71461047d576101c4565b806330a31b2411610166578063688b967c11610140578063688b967c146103815780636cf5d66d146103b15780636f77926b146103e15780638da5cb5b14610411576101c4565b806330a31b24146102f15780634209fff11461032157806346efa37814610351576101c4565b80631726f329116101a25780631726f32914610245578063202ba31e146102615780632bfda31314610291578063303762ab146102c1576101c4565b806308940be9146101c95780630cd08800146101e55780630d7e005214610215575b600080fd5b6101e360048036036101de919081019061481c565b61065b565b005b6101ff60048036036101fa919081019061481c565b6108a5565b60405161020c91906157c2565b60405180910390f35b61022f600480360361022a9190810190614c60565b61093c565b60405161023c91906157e4565b60405180910390f35b61025f600480360361025a919081019061481c565b610ac7565b005b61027b60048036036102769190810190614d5b565b610c7c565b60405161028891906159b3565b60405180910390f35b6102ab60048036036102a69190810190614c37565b610e01565b6040516102b8919061596f565b60405180910390f35b6102db60048036036102d69190810190614c60565b6111f2565b6040516102e891906157e4565b60405180910390f35b61030b60048036036103069190810190614a09565b6113cf565b60405161031891906159b3565b60405180910390f35b61033b6004803603610336919081019061481c565b611824565b60405161034891906157e4565b60405180910390f35b61036b60048036036103669190810190614845565b6118ec565b60405161037891906157e4565b60405180910390f35b61039b60048036036103969190810190614cb4565b611c5c565b6040516103a891906159b3565b60405180910390f35b6103cb60048036036103c69190810190614938565b611e19565b6040516103d891906159b3565b60405180910390f35b6103fb60048036036103f6919081019061481c565b6122cc565b6040516104089190615991565b60405180910390f35b6104196125ce565b6040516104269190615770565b60405180910390f35b6104376125f3565b6040516104449190615a2e565b60405180910390f35b61046760048036036104629190810190614b2f565b6127ad565b60405161047491906159b3565b60405180910390f35b610485612c56565b60405161049291906159b3565b60405180910390f35b6104b560048036036104b0919081019061481c565b612c63565b005b6104d160048036036104cc919081019061481c565b612e89565b005b6104ed60048036036104e8919081019061481c565b613144565b6040516104fa91906157e4565b60405180910390f35b61051d60048036036105189190810190614dee565b6132bd565b60405161052a91906159b3565b60405180910390f35b61054d60048036036105489190810190614dee565b61340f565b60405161055a91906159b3565b60405180910390f35b61057d6004803603610578919081019061481c565b613554565b005b61059960048036036105949190810190614bf6565b613709565b6040516105a691906157c2565b60405180910390f35b6105c960048036036105c4919081019061481c565b61377f565b005b6105e560048036036105e09190810190614bba565b6139a5565b6040516105f291906157e4565b60405180910390f35b61061560048036036106109190810190614b6b565b6139d4565b60405161062291906157e4565b60405180910390f35b61064560048036036106409190810190614c37565b613c73565b6040516106529190615770565b60405180910390f35b60405160200161066a9061575b565b604051602081830303815290604052805190602001206001600082815260200190815260200160002060003373ffffffffffffffffffffffffffffffffffffffff1673ffffffffffffffffffffffffffffffffffffffff16815260200190815260200160002060009054906101000a900460ff1661071d576040517f08c379a0000000000000000000000000000000000000000000000000000000008152600401610714906158af565b60405180910390fd5b600160006040516020016107309061575b565b60405160208183030381529060405280519060200120815260200190815260200160002060008373ffffffffffffffffffffffffffffffffffffffff1673ffffffffffffffffffffffffffffffffffffffff16815260200190815260200160002060009054906101000a900460ff166107de576040517f08c379a00000000000000000000000000000000000000000000000000000000081526004016107d59061584f565b60405180910390fd5b6000809054906101000a900473ffffffffffffffffffffffffffffffffffffffff1673ffffffffffffffffffffffffffffffffffffffff163373ffffffffffffffffffffffffffffffffffffffff161415610866576108616040516020016108459061575b565b6040516020818303038152906040528051906020012083613cb4565b6108a1565b6040517f08c379a00000000000000000000000000000000000000000000000000000000081526004016108989061588f565b60405180910390fd5b5050565b6060600660008373ffffffffffffffffffffffffffffffffffffffff1673ffffffffffffffffffffffffffffffffffffffff16815260200190815260200160002080548060200260200160405190810160405280929190818152602001828054801561093057602002820191906000526020600020905b81548152602001906001019080831161091c575b50505050509050919050565b600060405160200161094d90615746565b604051602081830303815290604052805190602001206001600082815260200190815260200160002060003373ffffffffffffffffffffffffffffffffffffffff1673ffffffffffffffffffffffffffffffffffffffff16815260200190815260200160002060009054906101000a900460ff16610a00576040517f08c379a00000000000000000000000000000000000000000000000000000000081526004016109f7906158af565b60405180910390fd5b6004548410610a44576040517f08c379a0000000000000000000000000000000000000000000000000000000008152600401610a3b9061586f565b60405180910390fd5b60008090505b8351811015610abb576007848281518110610a6157fe5b6020026020010151604051610a769190615703565b90815260200160405180910390208590806001815401808255809150509060018203906000526020600020016000909192909190915055508080600101915050610a4a565b50600191505092915050565b604051602001610ad69061575b565b604051602081830303815290604052805190602001206001600082815260200190815260200160002060003373ffffffffffffffffffffffffffffffffffffffff1673ffffffffffffffffffffffffffffffffffffffff16815260200190815260200160002060009054906101000a900460ff16610b89576040517f08c379a0000000000000000000000000000000000000000000000000000000008152600401610b80906158af565b60405180910390fd5b60016000604051602001610b9c90615731565b60405160208183030381529060405280519060200120815260200190815260200160002060008373ffffffffffffffffffffffffffffffffffffffff1673ffffffffffffffffffffffffffffffffffffffff16815260200190815260200160002060009054906101000a900460ff16610c4a576040517f08c379a0000000000000000000000000000000000000000000000000000000008152600401610c419061584f565b60405180910390fd5b610c78604051602001610c5c90615731565b6040516020818303038152906040528051906020012083613cb4565b5050565b6000604051602001610c8d90615746565b604051602081830303815290604052805190602001206001600082815260200190815260200160002060003373ffffffffffffffffffffffffffffffffffffffff1673ffffffffffffffffffffffffffffffffffffffff16815260200190815260200160002060009054906101000a900460ff16610d40576040517f08c379a0000000000000000000000000000000000000000000000000000000008152600401610d37906158af565b60405180910390fd5b6004548610610d84576040517f08c379a0000000000000000000000000000000000000000000000000000000008152600401610d7b9061586f565b60405180910390fd5b84600560008881526020019081526020016000206001019080519060200190610dae92919061445a565b5083600560008881526020019081526020016000206002018190555082600560008881526020019081526020016000206003019080519060200190610df492919061445a565b5085915050949350505050565b610e096144da565b6005600083815260200190815260200160002060405180610160016040529081600082018054600181600116156101000203166002900480601f016020809104026020016040519081016040528092919081815260200182805460018160011615610100020316600290048015610ec15780601f10610e9657610100808354040283529160200191610ec1565b820191906000526020600020905b815481529060010190602001808311610ea457829003601f168201915b50505050508152602001600182018054600181600116156101000203166002900480601f016020809104026020016040519081016040528092919081815260200182805460018160011615610100020316600290048015610f635780601f10610f3857610100808354040283529160200191610f63565b820191906000526020600020905b815481529060010190602001808311610f4657829003601f168201915b5050505050815260200160028201548152602001600382018054600181600116156101000203166002900480601f01602080910402602001604051908101604052809291908181526020018280546001816001161561010002031660029004801561100f5780601f10610fe45761010080835404028352916020019161100f565b820191906000526020600020905b815481529060010190602001808311610ff257829003601f168201915b50505050508152602001600482018054600181600116156101000203166002900480601f0160208091040260200160405190810160405280929190818152602001828054600181600116156101000203166002900480156110b15780601f10611086576101008083540402835291602001916110b1565b820191906000526020600020905b81548152906001019060200180831161109457829003601f168201915b50505050508152602001600582015481526020016006820160009054906101000a900460ff1660098111156110e257fe5b60098111156110ed57fe5b815260200160078201548152602001600882015481526020016009820180548060200260200160405190810160405280929190818152602001828054801561118a57602002820191906000526020600020905b8160009054906101000a900473ffffffffffffffffffffffffffffffffffffffff1673ffffffffffffffffffffffffffffffffffffffff1681526020019060010190808311611140575b50505050508152602001600a82018054806020026020016040519081016040528092919081815260200182805480156111e257602002820191906000526020600020905b8154815260200190600101908083116111ce575b5050505050815250509050919050565b600060405160200161120390615746565b604051602081830303815290604052805190602001206001600082815260200190815260200160002060003373ffffffffffffffffffffffffffffffffffffffff1673ffffffffffffffffffffffffffffffffffffffff16815260200190815260200160002060009054906101000a900460ff166112b6576040517f08c379a00000000000000000000000000000000000000000000000000000000081526004016112ad906158af565b60405180910390fd5b60045484106112fa576040517f08c379a00000000000000000000000000000000000000000000000000000000081526004016112f19061586f565b60405180910390fd5b60008090505b83518110156113c357600884828151811061131757fe5b6020026020010151908060018154018082558091505090600182039060005260206000200160009091929091909150908051906020019061135992919061445a565b5050600784828151811061136957fe5b602002602001015160405161137e9190615703565b90815260200160405180910390208590806001815401808255809150509060018203906000526020600020016000909192909190915055508080600101915050611300565b50600191505092915050565b60006040516020016113e090615746565b604051602081830303815290604052805190602001206001600082815260200190815260200160002060003373ffffffffffffffffffffffffffffffffffffffff1673ffffffffffffffffffffffffffffffffffffffff16815260200190815260200160002060009054906101000a900460ff16611493576040517f08c379a000000000000000000000000000000000000000000000000000000000815260040161148a906158af565b60405180910390fd5b61149c8b611824565b6114db576040517f08c379a00000000000000000000000000000000000000000000000000000000081526004016114d29061582f565b60405180910390fd5b89600560006004548152602001908152602001600020600001908051906020019061150792919061445a565b5088600560006004548152602001908152602001600020600101908051906020019061153492919061445a565b50876005600060045481526020019081526020016000206002018190555086600560006004548152602001908152602001600020600301908051906020019061157e92919061445a565b508560056000600454815260200190815260200160002060040190805190602001906115ab92919061445a565b5084600560006004548152602001908152602001600020600501819055508360056000600454815260200190815260200160002060060160006101000a81548160ff021916908360098111156115fd57fe5b021790555042600560006004548152602001908152602001600020600701819055506000600560006004548152602001908152602001600020600801819055506005600060045481526020019081526020016000206009018b90806001815401808255809150509060018203906000526020600020016000909192909190916101000a81548173ffffffffffffffffffffffffffffffffffffffff021916908373ffffffffffffffffffffffffffffffffffffffff16021790555050600560006004548152602001908152602001600020600a01839080600181540180825580915050906001820390600052602060002001600090919290919091505550600660008c73ffffffffffffffffffffffffffffffffffffffff1673ffffffffffffffffffffffffffffffffffffffff16815260200190815260200160002060045490806001815401808255809150509060018203906000526020600020016000909192909190915055506000600260008d73ffffffffffffffffffffffffffffffffffffffff1673ffffffffffffffffffffffffffffffffffffffff16815260200190815260200160002060080160016101000a81548160ff0219169083151502179055507f976a94ebaf95003722c58f5107879a458281d47ac85d44d6afd4dd4e31eef5da896004546040516117f49291906157ff565b60405180910390a16004600081548092919060010191905055506001600454039150509998505050505050505050565b600080600380549050141561183c57600090506118e7565b8173ffffffffffffffffffffffffffffffffffffffff166003600260008573ffffffffffffffffffffffffffffffffffffffff1673ffffffffffffffffffffffffffffffffffffffff16815260200190815260200160002060070154815481106118a257fe5b9060005260206000200160009054906101000a900473ffffffffffffffffffffffffffffffffffffffff1673ffffffffffffffffffffffffffffffffffffffff161490505b919050565b60006118f78b611824565b611936576040517f08c379a000000000000000000000000000000000000000000000000000000000815260040161192d9061582f565b60405180910390fd5b60028081111561194257fe5b82600281111561194e57fe5b141561198f576040517f08c379a00000000000000000000000000000000000000000000000000000000081526004016119869061592f565b60405180910390fd5b89600260008d73ffffffffffffffffffffffffffffffffffffffff1673ffffffffffffffffffffffffffffffffffffffff168152602001908152602001600020600001819055508888600260008e73ffffffffffffffffffffffffffffffffffffffff1673ffffffffffffffffffffffffffffffffffffffff1681526020019081526020016000206002019190611a27929190614542565b508686600260008e73ffffffffffffffffffffffffffffffffffffffff1673ffffffffffffffffffffffffffffffffffffffff1681526020019081526020016000206003019190611a79929190614542565b5084600260008d73ffffffffffffffffffffffffffffffffffffffff1673ffffffffffffffffffffffffffffffffffffffff168152602001908152602001600020600401819055508383600260008e73ffffffffffffffffffffffffffffffffffffffff1673ffffffffffffffffffffffffffffffffffffffff1681526020019081526020016000206005019190611b12929190614542565b5081600260008d73ffffffffffffffffffffffffffffffffffffffff1673ffffffffffffffffffffffffffffffffffffffff16815260200190815260200160002060080160006101000a81548160ff02191690836002811115611b7157fe5b02179055508a73ffffffffffffffffffffffffffffffffffffffff167f220bb7a17b01078be2b0499869f8a0656e04dff102602b44d0b552fe52ad33ef600260008e73ffffffffffffffffffffffffffffffffffffffff1673ffffffffffffffffffffffffffffffffffffffff16815260200190815260200160002060070154600260008f73ffffffffffffffffffffffffffffffffffffffff1673ffffffffffffffffffffffffffffffffffffffff16815260200190815260200160002060000154604051611c429291906159ce565b60405180910390a2600190509a9950505050505050505050565b6000604051602001611c6d90615746565b604051602081830303815290604052805190602001206001600082815260200190815260200160002060003373ffffffffffffffffffffffffffffffffffffffff1673ffffffffffffffffffffffffffffffffffffffff16815260200190815260200160002060009054906101000a900460ff16611d20576040517f08c379a0000000000000000000000000000000000000000000000000000000008152600401611d17906158af565b60405180910390fd5b6004548710611d64576040517f08c379a0000000000000000000000000000000000000000000000000000000008152600401611d5b9061586f565b60405180910390fd5b85600560008981526020019081526020016000206000019080519060200190611d8e92919061445a565b5084600560008981526020019081526020016000206004019080519060200190611db992919061445a565b50836005600089815260200190815260200160002060050181905550826005600089815260200190815260200160002060060160006101000a81548160ff02191690836009811115611e0757fe5b02179055508691505095945050505050565b6000611e2487611824565b15611e64576040517f08c379a0000000000000000000000000000000000000000000000000000000008152600401611e5b906158ef565b60405180910390fd5b85600260008973ffffffffffffffffffffffffffffffffffffffff1673ffffffffffffffffffffffffffffffffffffffff1681526020019081526020016000206000018190555084600260008973ffffffffffffffffffffffffffffffffffffffff1673ffffffffffffffffffffffffffffffffffffffff1681526020019081526020016000206002019080519060200190611f0192919061445a565b5083600260008973ffffffffffffffffffffffffffffffffffffffff1673ffffffffffffffffffffffffffffffffffffffff1681526020019081526020016000206003019080519060200190611f5892919061445a565b5082600260008973ffffffffffffffffffffffffffffffffffffffff1673ffffffffffffffffffffffffffffffffffffffff1681526020019081526020016000206004018190555081600260008973ffffffffffffffffffffffffffffffffffffffff1673ffffffffffffffffffffffffffffffffffffffff1681526020019081526020016000206005019080519060200190611ff692919061445a565b5042600260008973ffffffffffffffffffffffffffffffffffffffff1673ffffffffffffffffffffffffffffffffffffffff168152602001908152602001600020600101819055506005600260008973ffffffffffffffffffffffffffffffffffffffff1673ffffffffffffffffffffffffffffffffffffffff16815260200190815260200160002060060181905550600380549050600260008973ffffffffffffffffffffffffffffffffffffffff1673ffffffffffffffffffffffffffffffffffffffff168152602001908152602001600020600701819055506000600260008973ffffffffffffffffffffffffffffffffffffffff1673ffffffffffffffffffffffffffffffffffffffff16815260200190815260200160002060080160006101000a81548160ff0219169083600281111561213157fe5b02179055506000600260008973ffffffffffffffffffffffffffffffffffffffff1673ffffffffffffffffffffffffffffffffffffffff16815260200190815260200160002060080160016101000a81548160ff02191690831515021790555060038790806001815401808255809150509060018203906000526020600020016000909192909190916101000a81548173ffffffffffffffffffffffffffffffffffffffff021916908373ffffffffffffffffffffffffffffffffffffffff1602179055505061222560405160200161220990615746565b604051602081830303815290604052805190602001208861408a565b8673ffffffffffffffffffffffffffffffffffffffff167f4d95910c45b55946e307e5a82f0af42c16742413c0bd4a716e7e3a78e91837ac600260008a73ffffffffffffffffffffffffffffffffffffffff1673ffffffffffffffffffffffffffffffffffffffff16815260200190815260200160002060070154886040516122af9291906159ce565b60405180910390a260016003805490500390509695505050505050565b6122d46145c2565b6122dd82611824565b61231c576040517f08c379a00000000000000000000000000000000000000000000000000000000081526004016123139061582f565b60405180910390fd5b600260008373ffffffffffffffffffffffffffffffffffffffff1673ffffffffffffffffffffffffffffffffffffffff168152602001908152602001600020604051806101400160405290816000820154815260200160018201548152602001600282018054600181600116156101000203166002900480601f0160208091040260200160405190810160405280929190818152602001828054600181600116156101000203166002900480156124145780601f106123e957610100808354040283529160200191612414565b820191906000526020600020905b8154815290600101906020018083116123f757829003601f168201915b50505050508152602001600382018054600181600116156101000203166002900480601f0160208091040260200160405190810160405280929190818152602001828054600181600116156101000203166002900480156124b65780601f1061248b576101008083540402835291602001916124b6565b820191906000526020600020905b81548152906001019060200180831161249957829003601f168201915b5050505050815260200160048201548152602001600582018054600181600116156101000203166002900480601f0160208091040260200160405190810160405280929190818152602001828054600181600116156101000203166002900480156125625780601f1061253757610100808354040283529160200191612562565b820191906000526020600020905b81548152906001019060200180831161254557829003601f168201915b5050505050815260200160068201548152602001600782015481526020016008820160009054906101000a900460ff16600281111561259d57fe5b60028111156125a857fe5b81526020016008820160019054906101000a900460ff1615151515815250509050919050565b6000809054906101000a900473ffffffffffffffffffffffffffffffffffffffff1681565b6000600160006040516020016126089061575b565b60405160208183030381529060405280519060200120815260200190815260200160002060003373ffffffffffffffffffffffffffffffffffffffff1673ffffffffffffffffffffffffffffffffffffffff16815260200190815260200160002060009054906101000a900460ff161561268557600390506127aa565b6001600060405160200161269890615746565b60405160208183030381529060405280519060200120815260200190815260200160002060003373ffffffffffffffffffffffffffffffffffffffff1673ffffffffffffffffffffffffffffffffffffffff16815260200190815260200160002060009054906101000a900460ff161561271557600290506127aa565b6001600060405160200161272890615731565b60405160208183030381529060405280519060200120815260200190815260200160002060003373ffffffffffffffffffffffffffffffffffffffff1673ffffffffffffffffffffffffffffffffffffffff16815260200190815260200160002060009054906101000a900460ff16156127a557600190506127aa565b600090505b90565b60006040516020016127be90615746565b604051602081830303815290604052805190602001206001600082815260200190815260200160002060003373ffffffffffffffffffffffffffffffffffffffff1673ffffffffffffffffffffffffffffffffffffffff16815260200190815260200160002060009054906101000a900460ff16612871576040517f08c379a0000000000000000000000000000000000000000000000000000000008152600401612868906158af565b60405180910390fd5b60045483106128b5576040517f08c379a00000000000000000000000000000000000000000000000000000000081526004016128ac9061586f565b60405180910390fd5b8373ffffffffffffffffffffffffffffffffffffffff163160056000858152602001908152602001600020600a01600160056000878152602001908152602001600020600a0180549050038154811061290a57fe5b90600052602060002001541061291f57600080fd5b60008090505b600660003373ffffffffffffffffffffffffffffffffffffffff1673ffffffffffffffffffffffffffffffffffffffff16815260200190815260200160002080549050811015612b2d5783600660003373ffffffffffffffffffffffffffffffffffffffff1673ffffffffffffffffffffffffffffffffffffffff16815260200190815260200160002082815481106129ba57fe5b90600052602060002001541415612b2057600660003373ffffffffffffffffffffffffffffffffffffffff1673ffffffffffffffffffffffffffffffffffffffff1681526020019081526020016000206001600660003373ffffffffffffffffffffffffffffffffffffffff1673ffffffffffffffffffffffffffffffffffffffff168152602001908152602001600020805490500381548110612a5a57fe5b9060005260206000200154600660003373ffffffffffffffffffffffffffffffffffffffff1673ffffffffffffffffffffffffffffffffffffffff1681526020019081526020016000208281548110612aaf57fe5b9060005260206000200181905550600660003373ffffffffffffffffffffffffffffffffffffffff1673ffffffffffffffffffffffffffffffffffffffff168152602001908152602001600020805480612b0557fe5b60019003818190600052602060002001600090559055612b2d565b8080600101915050612925565b50600560008481526020019081526020016000206009018490806001815401808255809150509060018203906000526020600020016000909192909190916101000a81548173ffffffffffffffffffffffffffffffffffffffff021916908373ffffffffffffffffffffffffffffffffffffffff16021790555050600660008573ffffffffffffffffffffffffffffffffffffffff1673ffffffffffffffffffffffffffffffffffffffff1681526020019081526020016000208390806001815401808255809150509060018203906000526020600020016000909192909190915055507f9a0bb8b75d36ae23bb26068d749bb1180c244c13c75990b0dd08d096f5d18b18338585604051612c449392919061578b565b60405180910390a18291505092915050565b6000600380549050905090565b604051602001612c729061575b565b604051602081830303815290604052805190602001206001600082815260200190815260200160002060003373ffffffffffffffffffffffffffffffffffffffff1673ffffffffffffffffffffffffffffffffffffffff16815260200190815260200160002060009054906101000a900460ff16612d25576040517f08c379a0000000000000000000000000000000000000000000000000000000008152600401612d1c906158af565b60405180910390fd5b600073ffffffffffffffffffffffffffffffffffffffff168273ffffffffffffffffffffffffffffffffffffffff161415612d95576040517f08c379a0000000000000000000000000000000000000000000000000000000008152600401612d8c9061590f565b60405180910390fd5b60016000604051602001612da890615731565b60405160208183030381529060405280519060200120815260200190815260200160002060008373ffffffffffffffffffffffffffffffffffffffff1673ffffffffffffffffffffffffffffffffffffffff16815260200190815260200160002060009054906101000a900460ff1615612e57576040517f08c379a0000000000000000000000000000000000000000000000000000000008152600401612e4e906158cf565b60405180910390fd5b612e85604051602001612e6990615731565b604051602081830303815290604052805190602001208361408a565b5050565b604051602001612e989061575b565b604051602081830303815290604052805190602001206001600082815260200190815260200160002060003373ffffffffffffffffffffffffffffffffffffffff1673ffffffffffffffffffffffffffffffffffffffff16815260200190815260200160002060009054906101000a900460ff16612f4b576040517f08c379a0000000000000000000000000000000000000000000000000000000008152600401612f42906158af565b60405180910390fd5b600073ffffffffffffffffffffffffffffffffffffffff168273ffffffffffffffffffffffffffffffffffffffff161415612fbb576040517f08c379a0000000000000000000000000000000000000000000000000000000008152600401612fb29061590f565b60405180910390fd5b60016000604051602001612fce9061575b565b60405160208183030381529060405280519060200120815260200190815260200160002060008373ffffffffffffffffffffffffffffffffffffffff1673ffffffffffffffffffffffffffffffffffffffff16815260200190815260200160002060009054906101000a900460ff161561307d576040517f08c379a0000000000000000000000000000000000000000000000000000000008152600401613074906158cf565b60405180910390fd5b6000809054906101000a900473ffffffffffffffffffffffffffffffffffffffff1673ffffffffffffffffffffffffffffffffffffffff163373ffffffffffffffffffffffffffffffffffffffff161415613105576131006040516020016130e49061575b565b604051602081830303815290604052805190602001208361408a565b613140565b6040517f08c379a00000000000000000000000000000000000000000000000000000000081526004016131379061594f565b60405180910390fd5b5050565b60006040516020016131559061575b565b604051602081830303815290604052805190602001206001600082815260200190815260200160002060003373ffffffffffffffffffffffffffffffffffffffff1673ffffffffffffffffffffffffffffffffffffffff16815260200190815260200160002060009054906101000a900460ff16613208576040517f08c379a00000000000000000000000000000000000000000000000000000000081526004016131ff906158af565b60405180910390fd5b61321183611824565b613250576040517f08c379a00000000000000000000000000000000000000000000000000000000081526004016132479061582f565b60405180910390fd5b60028060008573ffffffffffffffffffffffffffffffffffffffff1673ffffffffffffffffffffffffffffffffffffffff16815260200190815260200160002060080160006101000a81548160ff021916908360028111156132ae57fe5b02179055506001915050919050565b60006040516020016132ce90615746565b604051602081830303815290604052805190602001206001600082815260200190815260200160002060003373ffffffffffffffffffffffffffffffffffffffff1673ffffffffffffffffffffffffffffffffffffffff16815260200190815260200160002060009054906101000a900460ff16613381576040517f08c379a0000000000000000000000000000000000000000000000000000000008152600401613378906158af565b60405180910390fd5b60045484106133c5576040517f08c379a00000000000000000000000000000000000000000000000000000000081526004016133bc9061586f565b60405180910390fd5b60056000858152602001908152602001600020600a018390806001815401808255809150509060018203906000526020600020016000909192909190915055508391505092915050565b600060405160200161342090615746565b604051602081830303815290604052805190602001206001600082815260200190815260200160002060003373ffffffffffffffffffffffffffffffffffffffff1673ffffffffffffffffffffffffffffffffffffffff16815260200190815260200160002060009054906101000a900460ff166134d3576040517f08c379a00000000000000000000000000000000000000000000000000000000081526004016134ca906158af565b60405180910390fd5b6004548410613517576040517f08c379a000000000000000000000000000000000000000000000000000000000815260040161350e9061586f565b60405180910390fd5b8260056000868152602001908152602001600020600801540160056000868152602001908152602001600020600801819055508391505092915050565b6040516020016135639061575b565b604051602081830303815290604052805190602001206001600082815260200190815260200160002060003373ffffffffffffffffffffffffffffffffffffffff1673ffffffffffffffffffffffffffffffffffffffff16815260200190815260200160002060009054906101000a900460ff16613616576040517f08c379a000000000000000000000000000000000000000000000000000000000815260040161360d906158af565b60405180910390fd5b6001600060405160200161362990615746565b60405160208183030381529060405280519060200120815260200190815260200160002060008373ffffffffffffffffffffffffffffffffffffffff1673ffffffffffffffffffffffffffffffffffffffff16815260200190815260200160002060009054906101000a900460ff166136d7576040517f08c379a00000000000000000000000000000000000000000000000000000000081526004016136ce9061584f565b60405180910390fd5b6137056040516020016136e990615746565b6040516020818303038152906040528051906020012083613cb4565b5050565b606060078260405161371b919061571a565b908152602001604051809103902080548060200260200160405190810160405280929190818152602001828054801561377357602002820191906000526020600020905b81548152602001906001019080831161375f575b50505050509050919050565b60405160200161378e9061575b565b604051602081830303815290604052805190602001206001600082815260200190815260200160002060003373ffffffffffffffffffffffffffffffffffffffff1673ffffffffffffffffffffffffffffffffffffffff16815260200190815260200160002060009054906101000a900460ff16613841576040517f08c379a0000000000000000000000000000000000000000000000000000000008152600401613838906158af565b60405180910390fd5b600073ffffffffffffffffffffffffffffffffffffffff168273ffffffffffffffffffffffffffffffffffffffff1614156138b1576040517f08c379a00000000000000000000000000000000000000000000000000000000081526004016138a89061590f565b60405180910390fd5b600160006040516020016138c490615746565b60405160208183030381529060405280519060200120815260200190815260200160002060008373ffffffffffffffffffffffffffffffffffffffff1673ffffffffffffffffffffffffffffffffffffffff16815260200190815260200160002060009054906101000a900460ff1615613973576040517f08c379a000000000000000000000000000000000000000000000000000000000815260040161396a906158cf565b60405180910390fd5b6139a160405160200161398590615746565b604051602081830303815290604052805190602001208361408a565b5050565b60016020528160005260406000206020528060005260406000206000915091509054906101000a900460ff1681565b60006040516020016139e59061575b565b604051602081830303815290604052805190602001206001600082815260200190815260200160002060003373ffffffffffffffffffffffffffffffffffffffff1673ffffffffffffffffffffffffffffffffffffffff16815260200190815260200160002060009054906101000a900460ff16613a98576040517f08c379a0000000000000000000000000000000000000000000000000000000008152600401613a8f906158af565b60405180910390fd5b83600260008773ffffffffffffffffffffffffffffffffffffffff1673ffffffffffffffffffffffffffffffffffffffff1681526020019081526020016000206006018190555082600260008773ffffffffffffffffffffffffffffffffffffffff1673ffffffffffffffffffffffffffffffffffffffff16815260200190815260200160002060080160006101000a81548160ff02191690836002811115613b3d57fe5b02179055508473ffffffffffffffffffffffffffffffffffffffff167f1c0430843928b357f7d24810221fa7272098d6a01bb685a3a762ce31ed16fa8b600260008873ffffffffffffffffffffffffffffffffffffffff1673ffffffffffffffffffffffffffffffffffffffff16815260200190815260200160002060070154600260008973ffffffffffffffffffffffffffffffffffffffff1673ffffffffffffffffffffffffffffffffffffffff16815260200190815260200160002060060154600260008a73ffffffffffffffffffffffffffffffffffffffff1673ffffffffffffffffffffffffffffffffffffffff16815260200190815260200160002060080160009054906101000a900460ff16604051613c5f939291906159f7565b60405180910390a260019150509392505050565b600060038281548110613c8257fe5b9060005260206000200160009054906101000a900473ffffffffffffffffffffffffffffffffffffffff169050919050565b604051602001613cc39061575b565b60405160208183030381529060405280519060200120821415613e8c57600060016000604051602001613cf59061575b565b60405160208183030381529060405280519060200120815260200190815260200160002060008373ffffffffffffffffffffffffffffffffffffffff1673ffffffffffffffffffffffffffffffffffffffff16815260200190815260200160002060006101000a81548160ff021916908315150217905550600060016000604051602001613d8290615731565b60405160208183030381529060405280519060200120815260200190815260200160002060008373ffffffffffffffffffffffffffffffffffffffff1673ffffffffffffffffffffffffffffffffffffffff16815260200190815260200160002060006101000a81548160ff021916908315150217905550600060016000604051602001613e0f90615746565b60405160208183030381529060405280519060200120815260200190815260200160002060008373ffffffffffffffffffffffffffffffffffffffff1673ffffffffffffffffffffffffffffffffffffffff16815260200190815260200160002060006101000a81548160ff021916908315150217905550614042565b604051602001613e9b90615746565b60405160208183030381529060405280519060200120821415613fd757600060016000604051602001613ecd90615731565b60405160208183030381529060405280519060200120815260200190815260200160002060008373ffffffffffffffffffffffffffffffffffffffff1673ffffffffffffffffffffffffffffffffffffffff16815260200190815260200160002060006101000a81548160ff021916908315150217905550600060016000604051602001613f5a90615746565b60405160208183030381529060405280519060200120815260200190815260200160002060008373ffffffffffffffffffffffffffffffffffffffff1673ffffffffffffffffffffffffffffffffffffffff16815260200190815260200160002060006101000a81548160ff021916908315150217905550614041565b60006001600084815260200190815260200160002060008373ffffffffffffffffffffffffffffffffffffffff1673ffffffffffffffffffffffffffffffffffffffff16815260200190815260200160002060006101000a81548160ff0219169083151502179055505b5b8073ffffffffffffffffffffffffffffffffffffffff16827f361ed204aa01d4d75ba515bde961d40c21f3791b474bb581df5d00e38b2be7bb60405160405180910390a35050565b6040516020016140999061575b565b6040516020818303038152906040528051906020012082141561425f5760018060006040516020016140ca9061575b565b60405160208183030381529060405280519060200120815260200190815260200160002060008373ffffffffffffffffffffffffffffffffffffffff1673ffffffffffffffffffffffffffffffffffffffff16815260200190815260200160002060006101000a81548160ff021916908315150217905550600180600060405160200161415690615731565b60405160208183030381529060405280519060200120815260200190815260200160002060008373ffffffffffffffffffffffffffffffffffffffff1673ffffffffffffffffffffffffffffffffffffffff16815260200190815260200160002060006101000a81548160ff02191690831515021790555060018060006040516020016141e290615746565b60405160208183030381529060405280519060200120815260200190815260200160002060008373ffffffffffffffffffffffffffffffffffffffff1673ffffffffffffffffffffffffffffffffffffffff16815260200190815260200160002060006101000a81548160ff021916908315150217905550614412565b60405160200161426e90615746565b604051602081830303815290604052805190602001208214156143a857600180600060405160200161429f90615731565b60405160208183030381529060405280519060200120815260200190815260200160002060008373ffffffffffffffffffffffffffffffffffffffff1673ffffffffffffffffffffffffffffffffffffffff16815260200190815260200160002060006101000a81548160ff021916908315150217905550600180600060405160200161432b90615746565b60405160208183030381529060405280519060200120815260200190815260200160002060008373ffffffffffffffffffffffffffffffffffffffff1673ffffffffffffffffffffffffffffffffffffffff16815260200190815260200160002060006101000a81548160ff021916908315150217905550614411565b600180600084815260200190815260200160002060008373ffffffffffffffffffffffffffffffffffffffff1673ffffffffffffffffffffffffffffffffffffffff16815260200190815260200160002060006101000a81548160ff0219169083151502179055505b5b8073ffffffffffffffffffffffffffffffffffffffff16827f5a06360d65acf95e98445dc834f205063424c636e65418d928cdfabc33a9539960405160405180910390a35050565b828054600181600116156101000203166002900490600052602060002090601f016020900481019282601f1061449b57805160ff19168380011785556144c9565b828001600101855582156144c9579182015b828111156144c85782518255916020019190600101906144ad565b5b5090506144d69190614628565b5090565b6040518061016001604052806060815260200160608152602001600081526020016060815260200160608152602001600080191681526020016000600981111561452057fe5b8152602001600081526020016000815260200160608152602001606081525090565b828054600181600116156101000203166002900490600052602060002090601f016020900481019282601f1061458357803560ff19168380011785556145b1565b828001600101855582156145b1579182015b828111156145b0578235825591602001919060010190614595565b5b5090506145be9190614628565b5090565b60405180610140016040528060008019168152602001600081526020016060815260200160608152602001600080191681526020016060815260200160008152602001600081526020016000600281111561461957fe5b81526020016000151581525090565b61464a91905b8082111561464657600081600090555060010161462e565b5090565b90565b60008135905061465c81615d30565b92915050565b600082601f83011261467357600080fd5b813561468661468182615a76565b615a49565b9150818183526020840193506020810190508360005b838110156146cc57813586016146b2888261475f565b84526020840193506020830192505060018101905061469c565b5050505092915050565b6000813590506146e581615d47565b92915050565b6000813590506146fa81615d5e565b92915050565b60008135905061470f81615d6e565b92915050565b60008083601f84011261472757600080fd5b8235905067ffffffffffffffff81111561474057600080fd5b60208301915083600182028301111561475857600080fd5b9250929050565b600082601f83011261477057600080fd5b813561478361477e82615a9e565b615a49565b9150808252602083016020830185838301111561479f57600080fd5b6147aa838284615cc3565b50505092915050565b600082601f8301126147c457600080fd5b81356147d76147d282615aca565b615a49565b915080825260208301602083018583830111156147f357600080fd5b6147fe838284615cc3565b50505092915050565b60008135905061481681615d7e565b92915050565b60006020828403121561482e57600080fd5b600061483c8482850161464d565b91505092915050565b60008060008060008060008060008060e08b8d03121561486457600080fd5b60006148728d828e0161464d565b9a505060206148838d828e016146d6565b99505060408b013567ffffffffffffffff8111156148a057600080fd5b6148ac8d828e01614715565b985098505060608b013567ffffffffffffffff8111156148cb57600080fd5b6148d78d828e01614715565b965096505060806148ea8d828e016146d6565b94505060a08b013567ffffffffffffffff81111561490757600080fd5b6149138d828e01614715565b935093505060c06149268d828e01614700565b9150509295989b9194979a5092959850565b60008060008060008060c0878903121561495157600080fd5b600061495f89828a0161464d565b965050602061497089828a016146d6565b955050604087013567ffffffffffffffff81111561498d57600080fd5b61499989828a016147b3565b945050606087013567ffffffffffffffff8111156149b657600080fd5b6149c289828a016147b3565b93505060806149d389828a016146d6565b92505060a087013567ffffffffffffffff8111156149f057600080fd5b6149fc89828a016147b3565b9150509295509295509295565b60008060008060008060008060006101208a8c031215614a2857600080fd5b6000614a368c828d0161464d565b99505060208a013567ffffffffffffffff811115614a5357600080fd5b614a5f8c828d016147b3565b98505060408a013567ffffffffffffffff811115614a7c57600080fd5b614a888c828d016147b3565b9750506060614a998c828d01614807565b96505060808a013567ffffffffffffffff811115614ab657600080fd5b614ac28c828d016147b3565b95505060a08a013567ffffffffffffffff811115614adf57600080fd5b614aeb8c828d016147b3565b94505060c0614afc8c828d016146d6565b93505060e0614b0d8c828d016146eb565b925050610100614b1f8c828d01614807565b9150509295985092959850929598565b60008060408385031215614b4257600080fd5b6000614b508582860161464d565b9250506020614b6185828601614807565b9150509250929050565b600080600060608486031215614b8057600080fd5b6000614b8e8682870161464d565b9350506020614b9f86828701614807565b9250506040614bb086828701614700565b9150509250925092565b60008060408385031215614bcd57600080fd5b6000614bdb858286016146d6565b9250506020614bec8582860161464d565b9150509250929050565b600060208284031215614c0857600080fd5b600082013567ffffffffffffffff811115614c2257600080fd5b614c2e848285016147b3565b91505092915050565b600060208284031215614c4957600080fd5b6000614c5784828501614807565b91505092915050565b60008060408385031215614c7357600080fd5b6000614c8185828601614807565b925050602083013567ffffffffffffffff811115614c9e57600080fd5b614caa85828601614662565b9150509250929050565b600080600080600060a08688031215614ccc57600080fd5b6000614cda88828901614807565b955050602086013567ffffffffffffffff811115614cf757600080fd5b614d03888289016147b3565b945050604086013567ffffffffffffffff811115614d2057600080fd5b614d2c888289016147b3565b9350506060614d3d888289016146d6565b9250506080614d4e888289016146eb565b9150509295509295909350565b60008060008060808587031215614d7157600080fd5b6000614d7f87828801614807565b945050602085013567ffffffffffffffff811115614d9c57600080fd5b614da8878288016147b3565b9350506040614db987828801614807565b925050606085013567ffffffffffffffff811115614dd657600080fd5b614de2878288016147b3565b91505092959194509250565b60008060408385031215614e0157600080fd5b6000614e0f85828601614807565b9250506020614e2085828601614807565b9150509250929050565b6000614e368383614e69565b60208301905092915050565b6000614e4e83836156d6565b60208301905092915050565b614e6381615c69565b82525050565b614e7281615be4565b82525050565b614e8181615be4565b82525050565b6000614e9282615b26565b614e9c8185615b84565b9350614ea783615af6565b8060005b83811015614ed8578151614ebf8882614e2a565b9750614eca83615b5d565b925050600181019050614eab565b5085935050505092915050565b6000614ef082615b3c565b614efa8185615ba6565b9350614f0583615b16565b8060005b83811015614f36578151614f1d8882614e42565b9750614f2883615b77565b925050600181019050614f09565b5085935050505092915050565b6000614f4e82615b31565b614f588185615b95565b9350614f6383615b06565b8060005b83811015614f94578151614f7b8882614e42565b9750614f8683615b6a565b925050600181019050614f67565b5085935050505092915050565b614faa81615bf6565b82525050565b614fb981615bf6565b82525050565b614fc881615c02565b82525050565b614fd781615c02565b82525050565b614fe681615c7b565b82525050565b614ff581615c8d565b82525050565b61500481615c8d565b82525050565b600061501582615b52565b61501f8185615bc8565b935061502f818560208601615cd2565b61503881615d05565b840191505092915050565b600061504e82615b52565b6150588185615bd9565b9350615068818560208601615cd2565b80840191505092915050565b600061507f82615b47565b6150898185615bb7565b9350615099818560208601615cd2565b6150a281615d05565b840191505092915050565b60006150b882615b47565b6150c28185615bd9565b93506150d2818560208601615cd2565b80840191505092915050565b60006150eb601f83615bc8565b91507f557365722061646472657373206973206e6f7420696e697469616c697a6564006000830152602082019050919050565b600061512b603283615bc8565b91507f54686973206164647265737320646f6573206e6f74206861766520746865207260008301527f6f6c6520746f206265207265766f6b65642e00000000000000000000000000006020830152604082019050919050565b6000615191600483615bd9565b91507f52656164000000000000000000000000000000000000000000000000000000006000830152600482019050919050565b60006151d1601383615bc8565b91507f4e6f2066696c65206861732074686973206964000000000000000000000000006000830152602082019050919050565b6000615211600583615bd9565b91507f57726974650000000000000000000000000000000000000000000000000000006000830152600582019050919050565b6000615251602483615bc8565b91507f41646d696e206e6f7420617574686f72697a656420746f2064656c657465206f60008301527f776e6572000000000000000000000000000000000000000000000000000000006020830152604082019050919050565b60006152b7600583615bd9565b91507f41646d696e0000000000000000000000000000000000000000000000000000006000830152600582019050919050565b60006152f7600f83615bc8565b91507f4e6f7420617574686f72697a65642100000000000000000000000000000000006000830152602082019050919050565b6000615337602383615bc8565b91507f54686973206164647265737320616c726561647920686173207468697320726f60008301527f6c652100000000000000000000000000000000000000000000000000000000006020830152604082019050919050565b600061539d601c83615bc8565b91507f55736572206164647265737320697320616c72656164792075736564000000006000830152602082019050919050565b60006153dd602383615bc8565b91507f526f6c65733a206163636f756e7420697320746865207a65726f20616464726560008301527f73732100000000000000000000000000000000000000000000000000000000006020830152604082019050919050565b6000615443601e83615bc8565b91507f4e6f7420616c6c6f77656420746f2073657420746869732073746174757300006000830152602082019050919050565b6000615483602683615bc8565b91507f41646d696e20636f756c64206e6f742073657420616e6f746865722061646d6960008301527f6e20726f6c6500000000000000000000000000000000000000000000000000006020830152604082019050919050565b60006101608301600083015184820360008601526154fa8282615074565b915050602083015184820360208601526155148282615074565b915050604083015161552960408601826156d6565b50606083015184820360608601526155418282615074565b9150506080830151848203608086015261555b8282615074565b91505060a083015161557060a0860182614fbf565b5060c083015161558360c0860182614fdd565b5060e083015161559660e08601826156d6565b506101008301516155ab6101008601826156d6565b506101208301518482036101208601526155c58282614e87565b9150506101408301518482036101408601526155e18282614f43565b9150508091505092915050565b6000610140830160008301516156076000860182614fbf565b50602083015161561a60208601826156d6565b50604083015184820360408601526156328282615074565b9150506060830151848203606086015261564c8282615074565b91505060808301516156616080860182614fbf565b5060a083015184820360a08601526156798282615074565b91505060c083015161568e60c08601826156d6565b5060e08301516156a160e08601826156d6565b506101008301516156b6610100860182614fec565b506101208301516156cb610120860182614fa1565b508091505092915050565b6156df81615c52565b82525050565b6156ee81615c52565b82525050565b6156fd81615c5c565b82525050565b600061570f82846150ad565b915081905092915050565b60006157268284615043565b915081905092915050565b600061573c82615184565b9150819050919050565b600061575182615204565b9150819050919050565b6000615766826152aa565b9150819050919050565b60006020820190506157856000830184614e78565b92915050565b60006060820190506157a06000830186614e5a565b6157ad6020830185614e78565b6157ba60408301846156e5565b949350505050565b600060208201905081810360008301526157dc8184614ee5565b905092915050565b60006020820190506157f96000830184614fb0565b92915050565b60006040820190508181036000830152615819818561500a565b905061582860208301846156e5565b9392505050565b60006020820190508181036000830152615848816150de565b9050919050565b600060208201905081810360008301526158688161511e565b9050919050565b60006020820190508181036000830152615888816151c4565b9050919050565b600060208201905081810360008301526158a881615244565b9050919050565b600060208201905081810360008301526158c8816152ea565b9050919050565b600060208201905081810360008301526158e88161532a565b9050919050565b6000602082019050818103600083015261590881615390565b9050919050565b60006020820190508181036000830152615928816153d0565b9050919050565b6000602082019050818103600083015261594881615436565b9050919050565b6000602082019050818103600083015261596881615476565b9050919050565b6000602082019050818103600083015261598981846154dc565b905092915050565b600060208201905081810360008301526159ab81846155ee565b905092915050565b60006020820190506159c860008301846156e5565b92915050565b60006040820190506159e360008301856156e5565b6159f06020830184614fce565b9392505050565b6000606082019050615a0c60008301866156e5565b615a1960208301856156e5565b615a266040830184614ffb565b949350505050565b6000602082019050615a4360008301846156f4565b92915050565b6000604051905081810181811067ffffffffffffffff82111715615a6c57600080fd5b8060405250919050565b600067ffffffffffffffff821115615a8d57600080fd5b602082029050602081019050919050565b600067ffffffffffffffff821115615ab557600080fd5b601f19601f8301169050602081019050919050565b600067ffffffffffffffff821115615ae157600080fd5b601f19601f8301169050602081019050919050565b6000819050602082019050919050565b6000819050602082019050919050565b6000819050602082019050919050565b600081519050919050565b600081519050919050565b600081519050919050565b600081519050919050565b600081519050919050565b6000602082019050919050565b6000602082019050919050565b6000602082019050919050565b600082825260208201905092915050565b600082825260208201905092915050565b600082825260208201905092915050565b600082825260208201905092915050565b600082825260208201905092915050565b600081905092915050565b6000615bef82615c32565b9050919050565b60008115159050919050565b6000819050919050565b6000819050615c1a82615d16565b919050565b6000819050615c2d82615d23565b919050565b600073ffffffffffffffffffffffffffffffffffffffff82169050919050565b6000819050919050565b600060ff82169050919050565b6000615c7482615c9f565b9050919050565b6000615c8682615c0c565b9050919050565b6000615c9882615c1f565b9050919050565b6000615caa82615cb1565b9050919050565b6000615cbc82615c32565b9050919050565b82818337600083830152505050565b60005b83811015615cf0578082015181840152602081019050615cd5565b83811115615cff576000848401525b50505050565b6000601f19601f8301169050919050565b600a8110615d2057fe5b50565b60038110615d2d57fe5b50565b615d3981615be4565b8114615d4457600080fd5b50565b615d5081615c02565b8114615d5b57600080fd5b50565b600a8110615d6b57600080fd5b50565b60038110615d7b57600080fd5b50565b615d8781615c52565b8114615d9257600080fd5b5056fea365627a7a7231582054c3159f6a4c6a12dfa0ab5939d974984934086a2c544be6b1b9881637a6f07a6c6578706572696d656e74616cf564736f6c63430005110040",
  "source": "// SPDX-License-Identifier: MIT\r\npragma solidity >=0.4.21 <0.9.0;\r\npragma experimental ABIEncoderV2;\r\n\r\ncontract Users {\r\n    // Data used for roles and security\r\n  address public owner;\r\n  bytes32 private constant Admin = keccak256(abi.encodePacked(\"Admin\"));\r\n  bytes32 private constant Read = keccak256(abi.encodePacked(\"Read\"));\r\n  bytes32 private constant Write = keccak256(abi.encodePacked(\"Write\"));\r\n  mapping(bytes32 => mapping(address => bool)) public roles;\r\n  event GrantRole(bytes32 indexed role, address indexed account);\r\n  event RemoveRole(bytes32 indexed role, address indexed account);\r\n\r\n    // Data used to store information about users and their assets\r\n  enum RightsCategory {\r\n    PersonalUseOnly,\r\n    CommercialUse,\r\n    Attribution,\r\n    DerivativeWorks,\r\n    NonTransferable,\r\n    LimitedEdition,\r\n    EducationalUse,\r\n    ResaleRights,\r\n    Expiration,\r\n    RegionSpecific\r\n  }\r\n  enum VerificationStatus {\r\n    NotVerified,\r\n    InProgress,\r\n    Verified\r\n  }\r\n  struct UploadedFile {\r\n    string fileTitle;\r\n    string fileReference;\r\n    uint fileSize;\r\n    string fileType;\r\n    string description;\r\n    bytes32 country;\r\n    RightsCategory ownershipRights;\r\n    uint uploadDate;\r\n    uint likes;\r\n    address[] pastOwners;\r\n    uint[] priceForTransfer;\r\n  }\r\n  struct UserModelStruct {\r\n    bytes32 userEmail;\r\n    uint dateOfRegistration;\r\n    string firstName;\r\n    string lastName;\r\n    bytes32 country;\r\n    string description;\r\n    uint allowedUploads;\r\n    uint index;\r\n    VerificationStatus verifyStatus;\r\n    bool uploadingInProgess;\r\n  }\r\n  mapping(address => UserModelStruct) private userModels;\r\n  address[] private userPointer;\r\n  event CreatedUser(address indexed userAddress, uint index, bytes32 userEmail);\r\n  event UpdatedUser(address indexed userAddress, uint index, bytes32 userEmail);\r\n  event DeletedUser(address userAddress, uint index);\r\n  event LogUpdateUserByAdmin(address indexed userAddress, uint index, uint allowedUploads, VerificationStatus verifyStatus);\r\n\r\n  uint fileCounter;\r\n  mapping(uint => UploadedFile) files;\r\n  mapping(address => uint[]) personalUserfiles;\r\n  mapping(string => uint[]) tagFiles;\r\n  string[] tags;\r\n\r\n  event AddedFile(string fileReference, uint index);\r\n  event TransferredFile(address oldOwner, address newOwner, uint fileId);\r\n\r\n  constructor() public {\r\n    owner = msg.sender;\r\n    _grantRole(Admin, msg.sender);\r\n  }\r\n///----------------------------------------------------- ROLES LOGIC -----------------------------------------\r\n  modifier onlyRole (bytes32 _role) {\r\n    require(roles[_role][msg.sender], \"Not authorized!\");\r\n    _;\r\n  }\r\n  function _grantRole(bytes32 _role, address _account) internal {\r\n    if (_role==Admin){\r\n        roles[Admin][_account]=true;\r\n        roles[Read][_account]=true;\r\n        roles[Write][_account]=true;\r\n    } else if (_role==Write){\r\n        roles[Read][_account]=true;\r\n        roles[Write][_account]=true;\r\n    } else {\r\n        roles[_role][_account]=true;\r\n    }\r\n\r\n    emit GrantRole(_role, _account);\r\n  }\r\n\r\n  function grantAdminRole(address _account) external onlyRole(Admin) {\r\n    require(_account != address(0), \"Roles: account is the zero address!\");\r\n    require(!roles[Admin][_account], \"This address already has this role!\");\r\n    if (msg.sender == owner) {\r\n        _grantRole(Admin, _account);\r\n    }\r\n    else {\r\n        revert(\"Admin could not set another admin role\");\r\n    }\r\n  }\r\n\r\n  function grantWriteRole(address _account) external onlyRole(Admin) {\r\n    require(_account != address(0), \"Roles: account is the zero address!\");\r\n    require(!roles[Write][_account], \"This address already has this role!\");\r\n    _grantRole(Write, _account);\r\n  }\r\n\r\n  function grantReadRole(address _account) external onlyRole(Admin) {\r\n    require(_account != address(0), \"Roles: account is the zero address!\");\r\n    require(!roles[Read][_account], \"This address already has this role!\");\r\n    _grantRole(Read, _account);\r\n  }\r\n\r\n  function _deleteRole(bytes32 _role, address _account) internal {\r\n    if (_role==Admin){\r\n        roles[Admin][_account]=false;\r\n        roles[Read][_account]=false;\r\n        roles[Write][_account]=false;\r\n    } else if (_role==Write){\r\n        roles[Read][_account]=false;\r\n        roles[Write][_account]=false;\r\n    } else {\r\n        roles[_role][_account]=false;\r\n    }\r\n\r\n    emit RemoveRole(_role, _account);\r\n  }\r\n\r\n  function deleteAdminRole(address _account) external onlyRole(Admin) {\r\n    require(roles[Admin][_account], \"This address does not have the role to be revoked.\");\r\n    if (msg.sender == owner) {\r\n        _deleteRole(Admin, _account);\r\n    }\r\n    else {\r\n        revert(\"Admin not authorized to delete owner\");\r\n    }\r\n  }\r\n  function deleteWriteRole(address _account) external onlyRole(Admin) {\r\n    require(roles[Write][_account], \"This address does not have the role to be revoked.\");\r\n    _deleteRole(Write, _account);\r\n  }\r\n\r\n  function deleteReadRole(address _account) external onlyRole(Admin) {\r\n    require(roles[Read][_account], \"This address does not have the role to be revoked.\");\r\n    _deleteRole(Read, _account);\r\n  }\r\n\r\n  function getRoleForUser() external view returns(uint8 role){\r\n    if (roles[Admin][msg.sender]){\r\n      return 3;\r\n    } else if (roles[Write][msg.sender]){\r\n      return 2;\r\n    } else if (roles[Read][msg.sender]){\r\n      return 1;\r\n    }\r\n    return 0;\r\n  }\r\n\r\n///----------------------------------------------------- ROLES LOGIC END--------------------------------------\r\n////***************************************************** USER LOGIC  ******************************************\r\n  function isUser(address userAddress) public view returns(bool isRegistered) { //view: do not alter the state of the contract or the blockchain in any way.\r\n    if(userPointer.length == 0) return false;\r\n    return (userPointer[userModels[userAddress].index] == userAddress);\r\n  }\r\n\r\n  function getUserCount() public view returns(uint count)\r\n  {\r\n    return userPointer.length;\r\n  }\r\n\r\n  function getUserAtIndex(uint index) public view returns(address userAddress)\r\n  {\r\n    return userPointer[index];\r\n  }\r\n\r\n  function insertUser(address userAddress, \r\n    bytes32 userEmail,\r\n    string memory firstName,\r\n    string memory lastName,\r\n    bytes32 country,\r\n    string memory description) public returns(uint index) {\r\n    require(!isUser(userAddress), \"User address is already used\");\r\n    userModels[userAddress].userEmail = userEmail;\r\n    userModels[userAddress].firstName = firstName;\r\n    userModels[userAddress].lastName = lastName;\r\n    userModels[userAddress].country = country;\r\n    userModels[userAddress].description = description;\r\n\r\n    userModels[userAddress].dateOfRegistration = block.timestamp;\r\n    userModels[userAddress].allowedUploads = 5;\r\n    userModels[userAddress].index = userPointer.length;\r\n    userModels[userAddress].verifyStatus = VerificationStatus.NotVerified;\r\n    userModels[userAddress].uploadingInProgess = false;\r\n\r\n    userPointer.push(userAddress);\r\n    _grantRole(Write, userAddress);\r\n    emit CreatedUser(userAddress, userModels[userAddress].index, userEmail);\r\n    return userPointer.length-1;\r\n  }\r\n\r\n  function getUser(address userAddress) public view\r\n    returns(UserModelStruct memory)\r\n  {\r\n    require(isUser(userAddress), \"User address is not initialized\");\r\n    return userModels[userAddress];\r\n  }\r\n\r\n  function updateUserByAdmin(address userAddress, uint allowedUploads, VerificationStatus verifyStatus) external onlyRole(Admin) returns(bool success) \r\n  {\r\n    userModels[userAddress].allowedUploads = allowedUploads;\r\n    userModels[userAddress].verifyStatus = verifyStatus;\r\n    emit LogUpdateUserByAdmin(\r\n      userAddress, \r\n      userModels[userAddress].index,\r\n      userModels[userAddress].allowedUploads,\r\n      userModels[userAddress].verifyStatus);\r\n    return true;\r\n  }\r\n\r\n  function updateUser(address userAddress, \r\n    bytes32 userEmail,\r\n    string calldata firstName,\r\n    string calldata lastName,\r\n    bytes32 country,\r\n    string calldata description,\r\n    VerificationStatus verifyStatus) external returns(bool success) \r\n  {\r\n    require(isUser(userAddress), \"User address is not initialized\");\r\n    require(verifyStatus != VerificationStatus.Verified, \"Not allowed to set this status\");\r\n    userModels[userAddress].userEmail = userEmail;\r\n    userModels[userAddress].firstName = firstName;\r\n    userModels[userAddress].lastName = lastName;\r\n    userModels[userAddress].country = country;\r\n    userModels[userAddress].description = description;\r\n    userModels[userAddress].verifyStatus = verifyStatus;\r\n    emit UpdatedUser(\r\n      userAddress, \r\n      userModels[userAddress].index,\r\n      userModels[userAddress].userEmail);\r\n    return true;\r\n  }\r\n\r\n  function setVerified(address userAddress) external onlyRole(Admin) returns(bool isRegistered) { \r\n    require(isUser(userAddress), \"User address is not initialized\");\r\n    userModels[userAddress].verifyStatus = VerificationStatus.Verified;\r\n    return true;\r\n  }\r\n\r\n////***************************************************** USER LOGIC END ***************************************\r\n\r\n  function getFilesForAddress(address userAddress) public view returns(uint[] memory filesForAddress){\r\n    return personalUserfiles[userAddress];\r\n  }\r\n\r\n  function getFilesForTag(string memory tag) public view returns(uint[] memory filesForTag){\r\n    return tagFiles[tag];\r\n  }\r\n    function getFile(uint fileId) public view returns (UploadedFile memory) {\r\n        return files[fileId];\r\n    }\r\n\r\n  function addNewTagsToFile(uint fileId, string[] memory newTags) public onlyRole(Write) returns(bool areTagsAdded) {\r\n    require(fileId < fileCounter, \"No file has this id\");\r\n    for (uint i = 0; i < newTags.length; i++) {\r\n      tags.push(newTags[i]);\r\n      tagFiles[newTags[i]].push(fileId);\r\n    }\r\n    return true;\r\n  }\r\n\r\n  function addTagsToFile(uint fileId, string[] memory existingTags) public onlyRole(Write) returns(bool areTagsAdded) {\r\n    require(fileId < fileCounter, \"No file has this id\");\r\n    for (uint i = 0; i < existingTags.length; i++) {\r\n      tagFiles[existingTags[i]].push(fileId);\r\n    }\r\n    return true;\r\n  }\r\n\r\n  function addFile(address userAddress, \r\n    string memory fileTitle,\r\n    string memory fileReference,\r\n    uint fileSize,\r\n    string memory fileType,\r\n    string memory description,\r\n    bytes32 country,\r\n    RightsCategory ownershipRights,\r\n    uint priceForTransfer) public onlyRole(Write) returns(uint index) {\r\n\r\n    require(isUser(userAddress), \"User address is not initialized\");\r\n    files[fileCounter].fileTitle = fileTitle;\r\n    files[fileCounter].fileReference = fileReference;\r\n    files[fileCounter].fileSize = fileSize;\r\n    files[fileCounter].fileType = fileType;\r\n    files[fileCounter].description = description;\r\n    files[fileCounter].country = country;\r\n    files[fileCounter].ownershipRights = ownershipRights;\r\n    files[fileCounter].uploadDate = block.timestamp;\r\n    files[fileCounter].likes = 0;\r\n    files[fileCounter].pastOwners.push(userAddress);\r\n    files[fileCounter].priceForTransfer.push(priceForTransfer);\r\n\r\n    personalUserfiles[userAddress].push(fileCounter);\r\n    userModels[userAddress].uploadingInProgess = false;\r\n\r\n    emit AddedFile(fileReference, fileCounter);\r\n    fileCounter++;\r\n    return fileCounter-1;\r\n  }\r\n  \r\n  function editFilePresentation( uint fileId,\r\n    string memory fileTitle,\r\n    string memory description,\r\n    bytes32 country,\r\n    RightsCategory ownershipRights) public onlyRole(Write) returns(uint index) {\r\n    require(fileId < fileCounter, \"No file has this id\");\r\n\r\n    files[fileId].fileTitle = fileTitle;\r\n    files[fileId].description = description;\r\n    files[fileId].country = country;\r\n    files[fileId].ownershipRights = ownershipRights;\r\n\r\n    return fileId;\r\n  }\r\n\r\n  function editFileTehnical( uint fileId,\r\n    string memory fileReference,\r\n    uint fileSize,\r\n    string memory fileType) public onlyRole(Write) returns(uint index) {\r\n    require(fileId < fileCounter, \"No file has this id\");\r\n\r\n    files[fileId].fileReference = fileReference;\r\n    files[fileId].fileSize = fileSize;\r\n    files[fileId].fileType = fileType;\r\n\r\n    return fileId;\r\n  }\r\n  //edit price for transfer\r\n  function editPrice( uint fileId, uint newPrice) external onlyRole(Write) returns(uint index) {\r\n    require(fileId < fileCounter, \"No file has this id\");\r\n    files[fileId].priceForTransfer.push(newPrice);\r\n    return fileId;\r\n  }\r\n  //add like\r\n    function changeLike ( uint fileId, uint increaseByAmount) external onlyRole(Write) returns(uint index) {\r\n    require(fileId < fileCounter, \"No file has this id\");\r\n    files[fileId].likes = files[fileId].likes + increaseByAmount;\r\n    return fileId;\r\n  }\r\n\r\n  //called by owner ; should this be modified to be called by the buyer?\r\n  function changeOwnerFile(address newUserAddress, uint fileId) public onlyRole(Write) returns(uint index){\r\n    require(fileId < fileCounter, \"No file has this id\");\r\n    //money\r\n    require(files[fileId].priceForTransfer[files[fileId].priceForTransfer.length-1] < newUserAddress.balance);\r\n    //old owner\r\n    for (uint i = 0; i < personalUserfiles[msg.sender].length; i++) {\r\n      if (personalUserfiles[msg.sender][i] == fileId) {\r\n        personalUserfiles[msg.sender][i] = personalUserfiles[msg.sender][personalUserfiles[msg.sender].length - 1];\r\n\r\n        personalUserfiles[msg.sender].pop();\r\n        break;\r\n      }\r\n    }\r\n    //history\r\n    files[fileId].pastOwners.push(newUserAddress);\r\n    //new owner\r\n    personalUserfiles[newUserAddress].push(fileId);\r\n    emit TransferredFile(msg.sender, newUserAddress, fileId);\r\n    return fileId;\r\n  }\r\n\r\n}",
  "sourcePath": "C:\\Users\\andre\\Desktop\\Licenta2\\Licenta2\\App\\src\\contracts\\Users.sol",
  "compiler": {
    "name": "solc",
    "version": "0.5.17+commit.d19bba13.Emscripten.clang"
  },
  "schemaVersion": "3.4.13",
  "updatedAt": "2023-08-18T15:23:32.376Z",
  "devdoc": {
    "methods": {}
  },
  "userdoc": {
    "methods": {
      "getFilesForAddress(address)": {
        "notice": "/***************************************************** USER LOGIC END ***************************************"
      },
      "isUser(address)": {
        "notice": "----------------------------------------------------- ROLES LOGIC END-------------------------------------- /***************************************************** USER LOGIC  ******************************************"
      }
    }
  }
}