{
  "contractName": "Users",
  "abi": [
    {
      "inputs": [],
      "payable": false,
      "stateMutability": "nonpayable",
      "type": "constructor"
    },
    {
      "anonymous": false,
      "inputs": [
        {
          "indexed": false,
          "internalType": "string",
          "name": "fileReference",
          "type": "string"
        },
        {
          "indexed": false,
          "internalType": "uint256",
          "name": "index",
          "type": "uint256"
        }
      ],
      "name": "AddedFile",
      "type": "event"
    },
    {
      "anonymous": false,
      "inputs": [
        {
          "indexed": true,
          "internalType": "address",
          "name": "userAddress",
          "type": "address"
        },
        {
          "indexed": false,
          "internalType": "uint256",
          "name": "index",
          "type": "uint256"
        },
        {
          "indexed": false,
          "internalType": "bytes32",
          "name": "userEmail",
          "type": "bytes32"
        }
      ],
      "name": "CreatedUser",
      "type": "event"
    },
    {
      "anonymous": false,
      "inputs": [
        {
          "indexed": false,
          "internalType": "address",
          "name": "userAddress",
          "type": "address"
        },
        {
          "indexed": false,
          "internalType": "uint256",
          "name": "index",
          "type": "uint256"
        }
      ],
      "name": "DeletedUser",
      "type": "event"
    },
    {
      "anonymous": false,
      "inputs": [
        {
          "indexed": true,
          "internalType": "bytes32",
          "name": "role",
          "type": "bytes32"
        },
        {
          "indexed": true,
          "internalType": "address",
          "name": "account",
          "type": "address"
        }
      ],
      "name": "GrantRole",
      "type": "event"
    },
    {
      "anonymous": false,
      "inputs": [
        {
          "indexed": true,
          "internalType": "address",
          "name": "userAddress",
          "type": "address"
        },
        {
          "indexed": false,
          "internalType": "uint256",
          "name": "index",
          "type": "uint256"
        },
        {
          "indexed": false,
          "internalType": "uint256",
          "name": "allowedUploads",
          "type": "uint256"
        },
        {
          "indexed": false,
          "internalType": "enum Users.VerificationStatus",
          "name": "verifyStatus",
          "type": "uint8"
        }
      ],
      "name": "LogUpdateUserByAdmin",
      "type": "event"
    },
    {
      "anonymous": false,
      "inputs": [
        {
          "indexed": true,
          "internalType": "bytes32",
          "name": "role",
          "type": "bytes32"
        },
        {
          "indexed": true,
          "internalType": "address",
          "name": "account",
          "type": "address"
        }
      ],
      "name": "RemoveRole",
      "type": "event"
    },
    {
      "anonymous": false,
      "inputs": [
        {
          "indexed": false,
          "internalType": "address",
          "name": "oldOwner",
          "type": "address"
        },
        {
          "indexed": false,
          "internalType": "address",
          "name": "newOwner",
          "type": "address"
        },
        {
          "indexed": false,
          "internalType": "uint256",
          "name": "fileId",
          "type": "uint256"
        }
      ],
      "name": "TransferredFile",
      "type": "event"
    },
    {
      "anonymous": false,
      "inputs": [
        {
          "indexed": true,
          "internalType": "address",
          "name": "userAddress",
          "type": "address"
        },
        {
          "indexed": false,
          "internalType": "uint256",
          "name": "index",
          "type": "uint256"
        },
        {
          "indexed": false,
          "internalType": "bytes32",
          "name": "userEmail",
          "type": "bytes32"
        }
      ],
      "name": "UpdatedUser",
      "type": "event"
    },
    {
      "constant": true,
      "inputs": [],
      "name": "owner",
      "outputs": [
        {
          "internalType": "address",
          "name": "",
          "type": "address"
        }
      ],
      "payable": false,
      "stateMutability": "view",
      "type": "function"
    },
    {
      "constant": true,
      "inputs": [
        {
          "internalType": "bytes32",
          "name": "",
          "type": "bytes32"
        },
        {
          "internalType": "address",
          "name": "",
          "type": "address"
        }
      ],
      "name": "roles",
      "outputs": [
        {
          "internalType": "bool",
          "name": "",
          "type": "bool"
        }
      ],
      "payable": false,
      "stateMutability": "view",
      "type": "function"
    },
    {
      "constant": false,
      "inputs": [
        {
          "internalType": "address",
          "name": "_account",
          "type": "address"
        }
      ],
      "name": "grantAdminRole",
      "outputs": [],
      "payable": false,
      "stateMutability": "nonpayable",
      "type": "function"
    },
    {
      "constant": false,
      "inputs": [
        {
          "internalType": "address",
          "name": "_account",
          "type": "address"
        }
      ],
      "name": "grantWriteRole",
      "outputs": [],
      "payable": false,
      "stateMutability": "nonpayable",
      "type": "function"
    },
    {
      "constant": false,
      "inputs": [
        {
          "internalType": "address",
          "name": "_account",
          "type": "address"
        }
      ],
      "name": "grantReadRole",
      "outputs": [],
      "payable": false,
      "stateMutability": "nonpayable",
      "type": "function"
    },
    {
      "constant": false,
      "inputs": [
        {
          "internalType": "address",
          "name": "_account",
          "type": "address"
        }
      ],
      "name": "deleteAdminRole",
      "outputs": [],
      "payable": false,
      "stateMutability": "nonpayable",
      "type": "function"
    },
    {
      "constant": false,
      "inputs": [
        {
          "internalType": "address",
          "name": "_account",
          "type": "address"
        }
      ],
      "name": "deleteWriteRole",
      "outputs": [],
      "payable": false,
      "stateMutability": "nonpayable",
      "type": "function"
    },
    {
      "constant": false,
      "inputs": [
        {
          "internalType": "address",
          "name": "_account",
          "type": "address"
        }
      ],
      "name": "deleteReadRole",
      "outputs": [],
      "payable": false,
      "stateMutability": "nonpayable",
      "type": "function"
    },
    {
      "constant": true,
      "inputs": [
        {
          "internalType": "address",
          "name": "userAccount",
          "type": "address"
        }
      ],
      "name": "getRoleForUser",
      "outputs": [
        {
          "internalType": "uint8",
          "name": "role",
          "type": "uint8"
        }
      ],
      "payable": false,
      "stateMutability": "view",
      "type": "function"
    },
    {
      "constant": true,
      "inputs": [
        {
          "internalType": "address",
          "name": "userAddress",
          "type": "address"
        }
      ],
      "name": "isUser",
      "outputs": [
        {
          "internalType": "bool",
          "name": "isRegistered",
          "type": "bool"
        }
      ],
      "payable": false,
      "stateMutability": "view",
      "type": "function"
    },
    {
      "constant": true,
      "inputs": [],
      "name": "getUserCount",
      "outputs": [
        {
          "internalType": "uint256",
          "name": "count",
          "type": "uint256"
        }
      ],
      "payable": false,
      "stateMutability": "view",
      "type": "function"
    },
    {
      "constant": true,
      "inputs": [
        {
          "internalType": "uint256",
          "name": "index",
          "type": "uint256"
        }
      ],
      "name": "getUserAtIndex",
      "outputs": [
        {
          "internalType": "address",
          "name": "userAddress",
          "type": "address"
        }
      ],
      "payable": false,
      "stateMutability": "view",
      "type": "function"
    },
    {
      "constant": false,
      "inputs": [
        {
          "internalType": "address",
          "name": "userAddress",
          "type": "address"
        },
        {
          "internalType": "bytes32",
          "name": "userEmail",
          "type": "bytes32"
        },
        {
          "internalType": "string",
          "name": "firstName",
          "type": "string"
        },
        {
          "internalType": "string",
          "name": "lastName",
          "type": "string"
        },
        {
          "internalType": "bytes32",
          "name": "country",
          "type": "bytes32"
        },
        {
          "internalType": "string",
          "name": "description",
          "type": "string"
        }
      ],
      "name": "insertUser",
      "outputs": [
        {
          "internalType": "uint256",
          "name": "index",
          "type": "uint256"
        }
      ],
      "payable": false,
      "stateMutability": "nonpayable",
      "type": "function"
    },
    {
      "constant": true,
      "inputs": [
        {
          "internalType": "address",
          "name": "userAddress",
          "type": "address"
        }
      ],
      "name": "getUser",
      "outputs": [
        {
          "components": [
            {
              "internalType": "bytes32",
              "name": "userEmail",
              "type": "bytes32"
            },
            {
              "internalType": "uint256",
              "name": "dateOfRegistration",
              "type": "uint256"
            },
            {
              "internalType": "string",
              "name": "firstName",
              "type": "string"
            },
            {
              "internalType": "string",
              "name": "lastName",
              "type": "string"
            },
            {
              "internalType": "bytes32",
              "name": "country",
              "type": "bytes32"
            },
            {
              "internalType": "string",
              "name": "description",
              "type": "string"
            },
            {
              "internalType": "uint256",
              "name": "allowedUploads",
              "type": "uint256"
            },
            {
              "internalType": "uint256",
              "name": "index",
              "type": "uint256"
            },
            {
              "internalType": "enum Users.VerificationStatus",
              "name": "verifyStatus",
              "type": "uint8"
            },
            {
              "internalType": "bool",
              "name": "uploadingInProgess",
              "type": "bool"
            }
          ],
          "internalType": "struct Users.UserModelStruct",
          "name": "",
          "type": "tuple"
        }
      ],
      "payable": false,
      "stateMutability": "view",
      "type": "function"
    },
    {
      "constant": false,
      "inputs": [
        {
          "internalType": "address",
          "name": "userAddress",
          "type": "address"
        },
        {
          "internalType": "uint256",
          "name": "allowedUploads",
          "type": "uint256"
        },
        {
          "internalType": "enum Users.VerificationStatus",
          "name": "verifyStatus",
          "type": "uint8"
        }
      ],
      "name": "updateUserByAdmin",
      "outputs": [
        {
          "internalType": "bool",
          "name": "success",
          "type": "bool"
        }
      ],
      "payable": false,
      "stateMutability": "nonpayable",
      "type": "function"
    },
    {
      "constant": false,
      "inputs": [
        {
          "internalType": "address",
          "name": "userAddress",
          "type": "address"
        },
        {
          "internalType": "bytes32",
          "name": "userEmail",
          "type": "bytes32"
        },
        {
          "internalType": "string",
          "name": "firstName",
          "type": "string"
        },
        {
          "internalType": "string",
          "name": "lastName",
          "type": "string"
        },
        {
          "internalType": "bytes32",
          "name": "country",
          "type": "bytes32"
        },
        {
          "internalType": "string",
          "name": "description",
          "type": "string"
        },
        {
          "internalType": "enum Users.VerificationStatus",
          "name": "verifyStatus",
          "type": "uint8"
        }
      ],
      "name": "updateUser",
      "outputs": [
        {
          "internalType": "bool",
          "name": "success",
          "type": "bool"
        }
      ],
      "payable": false,
      "stateMutability": "nonpayable",
      "type": "function"
    },
    {
      "constant": false,
      "inputs": [
        {
          "internalType": "address",
          "name": "userAddress",
          "type": "address"
        }
      ],
      "name": "setVerified",
      "outputs": [
        {
          "internalType": "bool",
          "name": "isRegistered",
          "type": "bool"
        }
      ],
      "payable": false,
      "stateMutability": "nonpayable",
      "type": "function"
    },
    {
      "constant": true,
      "inputs": [
        {
          "internalType": "address",
          "name": "userAddress",
          "type": "address"
        }
      ],
      "name": "getFilesForAddress",
      "outputs": [
        {
          "internalType": "uint256[]",
          "name": "filesForAddress",
          "type": "uint256[]"
        }
      ],
      "payable": false,
      "stateMutability": "view",
      "type": "function"
    },
    {
      "constant": true,
      "inputs": [
        {
          "internalType": "bytes32",
          "name": "tag",
          "type": "bytes32"
        }
      ],
      "name": "getFilesForTag",
      "outputs": [
        {
          "internalType": "uint256[]",
          "name": "filesForTag",
          "type": "uint256[]"
        }
      ],
      "payable": false,
      "stateMutability": "view",
      "type": "function"
    },
    {
      "constant": true,
      "inputs": [
        {
          "internalType": "uint256",
          "name": "fileId",
          "type": "uint256"
        }
      ],
      "name": "getFile",
      "outputs": [
        {
          "components": [
            {
              "internalType": "string",
              "name": "fileTitle",
              "type": "string"
            },
            {
              "internalType": "string",
              "name": "fileReference",
              "type": "string"
            },
            {
              "internalType": "uint256",
              "name": "fileSize",
              "type": "uint256"
            },
            {
              "internalType": "string",
              "name": "fileType",
              "type": "string"
            },
            {
              "internalType": "string",
              "name": "description",
              "type": "string"
            },
            {
              "internalType": "bytes32",
              "name": "country",
              "type": "bytes32"
            },
            {
              "internalType": "enum Users.RightsCategory",
              "name": "ownershipRights",
              "type": "uint8"
            },
            {
              "internalType": "uint256",
              "name": "uploadDate",
              "type": "uint256"
            },
            {
              "internalType": "uint256",
              "name": "likes",
              "type": "uint256"
            },
            {
              "internalType": "address[]",
              "name": "pastOwners",
              "type": "address[]"
            },
            {
              "internalType": "uint256[]",
              "name": "priceForTransfer",
              "type": "uint256[]"
            },
            {
              "internalType": "bytes32[]",
              "name": "conenctedTags",
              "type": "bytes32[]"
            }
          ],
          "internalType": "struct Users.UploadedFile",
          "name": "",
          "type": "tuple"
        }
      ],
      "payable": false,
      "stateMutability": "view",
      "type": "function"
    },
    {
      "constant": true,
      "inputs": [],
      "name": "getAllTags",
      "outputs": [
        {
          "internalType": "bytes32[]",
          "name": "",
          "type": "bytes32[]"
        }
      ],
      "payable": false,
      "stateMutability": "view",
      "type": "function"
    },
    {
      "constant": false,
      "inputs": [
        {
          "internalType": "uint256",
          "name": "fileId",
          "type": "uint256"
        },
        {
          "internalType": "bytes32[]",
          "name": "newTags",
          "type": "bytes32[]"
        }
      ],
      "name": "addNewTagsToFile",
      "outputs": [
        {
          "internalType": "bool",
          "name": "areTagsAdded",
          "type": "bool"
        }
      ],
      "payable": false,
      "stateMutability": "nonpayable",
      "type": "function"
    },
    {
      "constant": false,
      "inputs": [
        {
          "internalType": "uint256",
          "name": "fileId",
          "type": "uint256"
        },
        {
          "internalType": "bytes32[]",
          "name": "existingTags",
          "type": "bytes32[]"
        }
      ],
      "name": "addTagsToFile",
      "outputs": [
        {
          "internalType": "bool",
          "name": "areTagsAdded",
          "type": "bool"
        }
      ],
      "payable": false,
      "stateMutability": "nonpayable",
      "type": "function"
    },
    {
      "constant": false,
      "inputs": [
        {
          "internalType": "address",
          "name": "userAddress",
          "type": "address"
        },
        {
          "internalType": "string",
          "name": "fileTitle",
          "type": "string"
        },
        {
          "internalType": "string",
          "name": "fileReference",
          "type": "string"
        },
        {
          "internalType": "uint256",
          "name": "fileSize",
          "type": "uint256"
        },
        {
          "internalType": "string",
          "name": "fileType",
          "type": "string"
        },
        {
          "internalType": "string",
          "name": "description",
          "type": "string"
        },
        {
          "internalType": "bytes32",
          "name": "country",
          "type": "bytes32"
        },
        {
          "internalType": "enum Users.RightsCategory",
          "name": "ownershipRights",
          "type": "uint8"
        },
        {
          "internalType": "uint256",
          "name": "priceForTransfer",
          "type": "uint256"
        }
      ],
      "name": "addFile",
      "outputs": [
        {
          "internalType": "uint256",
          "name": "index",
          "type": "uint256"
        }
      ],
      "payable": false,
      "stateMutability": "nonpayable",
      "type": "function"
    },
    {
      "constant": false,
      "inputs": [
        {
          "internalType": "uint256",
          "name": "fileId",
          "type": "uint256"
        },
        {
          "internalType": "string",
          "name": "fileTitle",
          "type": "string"
        },
        {
          "internalType": "string",
          "name": "description",
          "type": "string"
        },
        {
          "internalType": "bytes32",
          "name": "country",
          "type": "bytes32"
        },
        {
          "internalType": "enum Users.RightsCategory",
          "name": "ownershipRights",
          "type": "uint8"
        }
      ],
      "name": "editFilePresentation",
      "outputs": [
        {
          "internalType": "uint256",
          "name": "index",
          "type": "uint256"
        }
      ],
      "payable": false,
      "stateMutability": "nonpayable",
      "type": "function"
    },
    {
      "constant": false,
      "inputs": [
        {
          "internalType": "uint256",
          "name": "fileId",
          "type": "uint256"
        },
        {
          "internalType": "uint256",
          "name": "newPrice",
          "type": "uint256"
        }
      ],
      "name": "editPrice",
      "outputs": [
        {
          "internalType": "uint256",
          "name": "index",
          "type": "uint256"
        }
      ],
      "payable": false,
      "stateMutability": "nonpayable",
      "type": "function"
    },
    {
      "constant": false,
      "inputs": [
        {
          "internalType": "uint256",
          "name": "fileId",
          "type": "uint256"
        },
        {
          "internalType": "uint256",
          "name": "increaseByAmount",
          "type": "uint256"
        }
      ],
      "name": "changeLike",
      "outputs": [
        {
          "internalType": "uint256",
          "name": "index",
          "type": "uint256"
        }
      ],
      "payable": false,
      "stateMutability": "nonpayable",
      "type": "function"
    },
    {
      "constant": false,
      "inputs": [
        {
          "internalType": "address",
          "name": "newUserAddress",
          "type": "address"
        },
        {
          "internalType": "uint256",
          "name": "fileId",
          "type": "uint256"
        }
      ],
      "name": "changeOwnerFile",
      "outputs": [
        {
          "internalType": "uint256",
          "name": "index",
          "type": "uint256"
        }
      ],
      "payable": false,
      "stateMutability": "nonpayable",
      "type": "function"
    }
  ],
  "bytecode": "0x60806040523480156200001157600080fd5b50336000806101000a81548173ffffffffffffffffffffffffffffffffffffffff021916908373ffffffffffffffffffffffffffffffffffffffff1602179055506200008a604051602001620000679062000566565b60405160208183030381529060405280519060200120336200009060201b60201c565b62000588565b604051602001620000a19062000566565b604051602081830303815290604052805190602001208214156200026f576001806000604051602001620000d59062000566565b60405160208183030381529060405280519060200120815260200190815260200160002060008373ffffffffffffffffffffffffffffffffffffffff1673ffffffffffffffffffffffffffffffffffffffff16815260200190815260200160002060006101000a81548160ff0219169083151502179055506001806000604051602001620001639062000538565b60405160208183030381529060405280519060200120815260200190815260200160002060008373ffffffffffffffffffffffffffffffffffffffff1673ffffffffffffffffffffffffffffffffffffffff16815260200190815260200160002060006101000a81548160ff0219169083151502179055506001806000604051602001620001f1906200054f565b60405160208183030381529060405280519060200120815260200190815260200160002060008373ffffffffffffffffffffffffffffffffffffffff1673ffffffffffffffffffffffffffffffffffffffff16815260200190815260200160002060006101000a81548160ff0219169083151502179055506200042a565b60405160200162000280906200054f565b60405160208183030381529060405280519060200120821415620003c0576001806000604051602001620002b49062000538565b60405160208183030381529060405280519060200120815260200190815260200160002060008373ffffffffffffffffffffffffffffffffffffffff1673ffffffffffffffffffffffffffffffffffffffff16815260200190815260200160002060006101000a81548160ff021916908315150217905550600180600060405160200162000342906200054f565b60405160208183030381529060405280519060200120815260200190815260200160002060008373ffffffffffffffffffffffffffffffffffffffff1673ffffffffffffffffffffffffffffffffffffffff16815260200190815260200160002060006101000a81548160ff02191690831515021790555062000429565b600180600084815260200190815260200160002060008373ffffffffffffffffffffffffffffffffffffffff1673ffffffffffffffffffffffffffffffffffffffff16815260200190815260200160002060006101000a81548160ff0219169083151502179055505b5b8073ffffffffffffffffffffffffffffffffffffffff16827f5a06360d65acf95e98445dc834f205063424c636e65418d928cdfabc33a9539960405160405180910390a35050565b6000620004816004836200057d565b91507f52656164000000000000000000000000000000000000000000000000000000006000830152600482019050919050565b6000620004c36005836200057d565b91507f57726974650000000000000000000000000000000000000000000000000000006000830152600582019050919050565b6000620005056005836200057d565b91507f41646d696e0000000000000000000000000000000000000000000000000000006000830152600582019050919050565b6000620005458262000472565b9150819050919050565b60006200055c82620004b4565b9150819050919050565b60006200057382620004f6565b9150819050919050565b600081905092915050565b615f9f80620005986000396000f3fe608060405234801561001057600080fd5b50600436106101c45760003560e01c8063a2068e04116100f9578063d5f5260211610097578063ee18839711610071578063ee188397146105af578063f8fc08b9146105cb578063f9434b84146105fb578063ffcc7bbf1461062b576101c4565b8063d5f5260214610533578063d6e7b3f014610563578063d84b6a0b14610593576101c4565b8063be575229116100d3578063be5752291461049b578063c634b78e146104b7578063c8c75647146104d3578063d0e7a5cb14610503576101c4565b8063a2068e041461041d578063a21d847c1461044d578063b5cb15f71461047d576101c4565b806346efa378116101665780636cf5d66d116101405780636cf5d66d146103815780636f77926b146103b15780637038f157146103e15780638da5cb5b146103ff576101c4565b806346efa378146102f15780634bd9a2df14610321578063688b967c14610351576101c4565b80631726f329116101a25780631726f329146102455780632bfda3131461026157806330a31b24146102915780634209fff1146102c1576101c4565b806308940be9146101c95780630b5267e4146101e55780630cd0880014610215575b600080fd5b6101e360048036036101de91908101906149c6565b61065b565b005b6101ff60048036036101fa9190810190614df2565b6108a5565b60405161020c9190615965565b60405180910390f35b61022f600480360361022a91908101906149c6565b610ab7565b60405161023c9190615943565b60405180910390f35b61025f600480360361025a91908101906149c6565b610c11565b005b61027b60048036036102769190810190614dc9565b610dc6565b6040516102889190615af0565b60405180910390f35b6102ab60048036036102a69190810190614bb3565b6112d2565b6040516102b89190615b34565b60405180910390f35b6102db60048036036102d691908101906149c6565b611727565b6040516102e89190615965565b60405180910390f35b61030b600480360361030691908101906149ef565b6117ef565b6040516103189190615965565b60405180910390f35b61033b60048036036103369190810190614df2565b611b5f565b6040516103489190615965565b60405180910390f35b61036b60048036036103669190810190614e46565b611d32565b6040516103789190615b34565b60405180910390f35b61039b60048036036103969190810190614ae2565b611eef565b6040516103a89190615b34565b60405180910390f35b6103cb60048036036103c691908101906149c6565b6123a2565b6040516103d89190615b12565b60405180910390f35b6103e96126a4565b6040516103f69190615921565b60405180910390f35b6104076126fc565b60405161041491906158cf565b60405180910390f35b61043760048036036104329190810190614cd9565b612721565b6040516104449190615b34565b60405180910390f35b61046760048036036104629190810190614d64565b612bca565b6040516104749190615943565b60405180910390f35b610485612cf8565b6040516104929190615b34565b60405180910390f35b6104b560048036036104b091908101906149c6565b612d05565b005b6104d160048036036104cc91908101906149c6565b612f2b565b005b6104ed60048036036104e891908101906149c6565b6131e6565b6040516104fa9190615965565b60405180910390f35b61051d60048036036105189190810190614eed565b61335f565b60405161052a9190615b34565b60405180910390f35b61054d60048036036105489190810190614eed565b6134b1565b60405161055a9190615b34565b60405180910390f35b61057d600480360361057891908101906149c6565b6135f6565b60405161058a9190615baf565b60405180910390f35b6105ad60048036036105a891908101906149c6565b6137b2565b005b6105c960048036036105c491908101906149c6565b613967565b005b6105e560048036036105e09190810190614d8d565b613b8d565b6040516105f29190615965565b60405180910390f35b61061560048036036106109190810190614d15565b613bbc565b6040516106229190615965565b60405180910390f35b61064560048036036106409190810190614dc9565b613e5b565b60405161065291906158cf565b60405180910390f35b60405160200161066a906158ba565b604051602081830303815290604052805190602001206001600082815260200190815260200160002060003373ffffffffffffffffffffffffffffffffffffffff1673ffffffffffffffffffffffffffffffffffffffff16815260200190815260200160002060009054906101000a900460ff1661071d576040517f08c379a000000000000000000000000000000000000000000000000000000000815260040161071490615a30565b60405180910390fd5b60016000604051602001610730906158ba565b60405160208183030381529060405280519060200120815260200190815260200160002060008373ffffffffffffffffffffffffffffffffffffffff1673ffffffffffffffffffffffffffffffffffffffff16815260200190815260200160002060009054906101000a900460ff166107de576040517f08c379a00000000000000000000000000000000000000000000000000000000081526004016107d5906159d0565b60405180910390fd5b6000809054906101000a900473ffffffffffffffffffffffffffffffffffffffff1673ffffffffffffffffffffffffffffffffffffffff163373ffffffffffffffffffffffffffffffffffffffff16141561086657610861604051602001610845906158ba565b6040516020818303038152906040528051906020012083613e9c565b6108a1565b6040517f08c379a000000000000000000000000000000000000000000000000000000000815260040161089890615a10565b60405180910390fd5b5050565b60006040516020016108b6906158a5565b604051602081830303815290604052805190602001206001600082815260200190815260200160002060003373ffffffffffffffffffffffffffffffffffffffff1673ffffffffffffffffffffffffffffffffffffffff16815260200190815260200160002060009054906101000a900460ff16610969576040517f08c379a000000000000000000000000000000000000000000000000000000000815260040161096090615a30565b60405180910390fd5b60045484106109ad576040517f08c379a00000000000000000000000000000000000000000000000000000000081526004016109a4906159f0565b60405180910390fd5b60008090505b8351811015610aab5760088482815181106109ca57fe5b6020026020010151908060018154018082558091505090600182039060005260206000200160009091929091909150555060076000858381518110610a0b57fe5b6020026020010151815260200190815260200160002085908060018154018082558091505090600182039060005260206000200160009091929091909150555060056000868152602001908152602001600020600b01848281518110610a6d57fe5b6020026020010151908060018154018082558091505090600182039060005260206000200160009091929091909150555080806001019150506109b3565b50600191505092915050565b6060604051602001610ac890615890565b604051602081830303815290604052805190602001206001600082815260200190815260200160002060003373ffffffffffffffffffffffffffffffffffffffff1673ffffffffffffffffffffffffffffffffffffffff16815260200190815260200160002060009054906101000a900460ff16610b7b576040517f08c379a0000000000000000000000000000000000000000000000000000000008152600401610b7290615a30565b60405180910390fd5b600660008473ffffffffffffffffffffffffffffffffffffffff1673ffffffffffffffffffffffffffffffffffffffff168152602001908152602001600020805480602002602001604051908101604052809291908181526020018280548015610c0457602002820191906000526020600020905b815481526020019060010190808311610bf0575b5050505050915050919050565b604051602001610c20906158ba565b604051602081830303815290604052805190602001206001600082815260200190815260200160002060003373ffffffffffffffffffffffffffffffffffffffff1673ffffffffffffffffffffffffffffffffffffffff16815260200190815260200160002060009054906101000a900460ff16610cd3576040517f08c379a0000000000000000000000000000000000000000000000000000000008152600401610cca90615a30565b60405180910390fd5b60016000604051602001610ce690615890565b60405160208183030381529060405280519060200120815260200190815260200160002060008373ffffffffffffffffffffffffffffffffffffffff1673ffffffffffffffffffffffffffffffffffffffff16815260200190815260200160002060009054906101000a900460ff16610d94576040517f08c379a0000000000000000000000000000000000000000000000000000000008152600401610d8b906159d0565b60405180910390fd5b610dc2604051602001610da690615890565b6040516020818303038152906040528051906020012083613e9c565b5050565b610dce614642565b604051602001610ddd90615890565b604051602081830303815290604052805190602001206001600082815260200190815260200160002060003373ffffffffffffffffffffffffffffffffffffffff1673ffffffffffffffffffffffffffffffffffffffff16815260200190815260200160002060009054906101000a900460ff16610e90576040517f08c379a0000000000000000000000000000000000000000000000000000000008152600401610e8790615a30565b60405180910390fd5b6005600084815260200190815260200160002060405180610180016040529081600082018054600181600116156101000203166002900480601f016020809104026020016040519081016040528092919081815260200182805460018160011615610100020316600290048015610f485780601f10610f1d57610100808354040283529160200191610f48565b820191906000526020600020905b815481529060010190602001808311610f2b57829003601f168201915b50505050508152602001600182018054600181600116156101000203166002900480601f016020809104026020016040519081016040528092919081815260200182805460018160011615610100020316600290048015610fea5780601f10610fbf57610100808354040283529160200191610fea565b820191906000526020600020905b815481529060010190602001808311610fcd57829003601f168201915b5050505050815260200160028201548152602001600382018054600181600116156101000203166002900480601f0160208091040260200160405190810160405280929190818152602001828054600181600116156101000203166002900480156110965780601f1061106b57610100808354040283529160200191611096565b820191906000526020600020905b81548152906001019060200180831161107957829003601f168201915b50505050508152602001600482018054600181600116156101000203166002900480601f0160208091040260200160405190810160405280929190818152602001828054600181600116156101000203166002900480156111385780601f1061110d57610100808354040283529160200191611138565b820191906000526020600020905b81548152906001019060200180831161111b57829003601f168201915b50505050508152602001600582015481526020016006820160009054906101000a900460ff16600981111561116957fe5b600981111561117457fe5b815260200160078201548152602001600882015481526020016009820180548060200260200160405190810160405280929190818152602001828054801561121157602002820191906000526020600020905b8160009054906101000a900473ffffffffffffffffffffffffffffffffffffffff1673ffffffffffffffffffffffffffffffffffffffff16815260200190600101908083116111c7575b50505050508152602001600a820180548060200260200160405190810160405280929190818152602001828054801561126957602002820191906000526020600020905b815481526020019060010190808311611255575b50505050508152602001600b82018054806020026020016040519081016040528092919081815260200182805480156112c157602002820191906000526020600020905b8154815260200190600101908083116112ad575b505050505081525050915050919050565b60006040516020016112e3906158a5565b604051602081830303815290604052805190602001206001600082815260200190815260200160002060003373ffffffffffffffffffffffffffffffffffffffff1673ffffffffffffffffffffffffffffffffffffffff16815260200190815260200160002060009054906101000a900460ff16611396576040517f08c379a000000000000000000000000000000000000000000000000000000000815260040161138d90615a30565b60405180910390fd5b61139f8b611727565b6113de576040517f08c379a00000000000000000000000000000000000000000000000000000000081526004016113d5906159b0565b60405180910390fd5b89600560006004548152602001908152602001600020600001908051906020019061140a9291906146b1565b508860056000600454815260200190815260200160002060010190805190602001906114379291906146b1565b5087600560006004548152602001908152602001600020600201819055508660056000600454815260200190815260200160002060030190805190602001906114819291906146b1565b508560056000600454815260200190815260200160002060040190805190602001906114ae9291906146b1565b5084600560006004548152602001908152602001600020600501819055508360056000600454815260200190815260200160002060060160006101000a81548160ff0219169083600981111561150057fe5b021790555042600560006004548152602001908152602001600020600701819055506000600560006004548152602001908152602001600020600801819055506005600060045481526020019081526020016000206009018b90806001815401808255809150509060018203906000526020600020016000909192909190916101000a81548173ffffffffffffffffffffffffffffffffffffffff021916908373ffffffffffffffffffffffffffffffffffffffff16021790555050600560006004548152602001908152602001600020600a01839080600181540180825580915050906001820390600052602060002001600090919290919091505550600660008c73ffffffffffffffffffffffffffffffffffffffff1673ffffffffffffffffffffffffffffffffffffffff16815260200190815260200160002060045490806001815401808255809150509060018203906000526020600020016000909192909190915055506000600260008d73ffffffffffffffffffffffffffffffffffffffff1673ffffffffffffffffffffffffffffffffffffffff16815260200190815260200160002060080160016101000a81548160ff0219169083151502179055507f976a94ebaf95003722c58f5107879a458281d47ac85d44d6afd4dd4e31eef5da896004546040516116f7929190615980565b60405180910390a16004600081548092919060010191905055506001600454039150509998505050505050505050565b600080600380549050141561173f57600090506117ea565b8173ffffffffffffffffffffffffffffffffffffffff166003600260008573ffffffffffffffffffffffffffffffffffffffff1673ffffffffffffffffffffffffffffffffffffffff16815260200190815260200160002060070154815481106117a557fe5b9060005260206000200160009054906101000a900473ffffffffffffffffffffffffffffffffffffffff1673ffffffffffffffffffffffffffffffffffffffff161490505b919050565b60006117fa8b611727565b611839576040517f08c379a0000000000000000000000000000000000000000000000000000000008152600401611830906159b0565b60405180910390fd5b60028081111561184557fe5b82600281111561185157fe5b1415611892576040517f08c379a000000000000000000000000000000000000000000000000000000000815260040161188990615ab0565b60405180910390fd5b89600260008d73ffffffffffffffffffffffffffffffffffffffff1673ffffffffffffffffffffffffffffffffffffffff168152602001908152602001600020600001819055508888600260008e73ffffffffffffffffffffffffffffffffffffffff1673ffffffffffffffffffffffffffffffffffffffff168152602001908152602001600020600201919061192a929190614731565b508686600260008e73ffffffffffffffffffffffffffffffffffffffff1673ffffffffffffffffffffffffffffffffffffffff168152602001908152602001600020600301919061197c929190614731565b5084600260008d73ffffffffffffffffffffffffffffffffffffffff1673ffffffffffffffffffffffffffffffffffffffff168152602001908152602001600020600401819055508383600260008e73ffffffffffffffffffffffffffffffffffffffff1673ffffffffffffffffffffffffffffffffffffffff1681526020019081526020016000206005019190611a15929190614731565b5081600260008d73ffffffffffffffffffffffffffffffffffffffff1673ffffffffffffffffffffffffffffffffffffffff16815260200190815260200160002060080160006101000a81548160ff02191690836002811115611a7457fe5b02179055508a73ffffffffffffffffffffffffffffffffffffffff167f220bb7a17b01078be2b0499869f8a0656e04dff102602b44d0b552fe52ad33ef600260008e73ffffffffffffffffffffffffffffffffffffffff1673ffffffffffffffffffffffffffffffffffffffff16815260200190815260200160002060070154600260008f73ffffffffffffffffffffffffffffffffffffffff1673ffffffffffffffffffffffffffffffffffffffff16815260200190815260200160002060000154604051611b45929190615b4f565b60405180910390a2600190509a9950505050505050505050565b6000604051602001611b70906158a5565b604051602081830303815290604052805190602001206001600082815260200190815260200160002060003373ffffffffffffffffffffffffffffffffffffffff1673ffffffffffffffffffffffffffffffffffffffff16815260200190815260200160002060009054906101000a900460ff16611c23576040517f08c379a0000000000000000000000000000000000000000000000000000000008152600401611c1a90615a30565b60405180910390fd5b6004548410611c67576040517f08c379a0000000000000000000000000000000000000000000000000000000008152600401611c5e906159f0565b60405180910390fd5b60008090505b8351811015611d265760076000858381518110611c8657fe5b6020026020010151815260200190815260200160002085908060018154018082558091505090600182039060005260206000200160009091929091909150555060056000868152602001908152602001600020600b01848281518110611ce857fe5b602002602001015190806001815401808255809150509060018203906000526020600020016000909192909190915055508080600101915050611c6d565b50600191505092915050565b6000604051602001611d43906158a5565b604051602081830303815290604052805190602001206001600082815260200190815260200160002060003373ffffffffffffffffffffffffffffffffffffffff1673ffffffffffffffffffffffffffffffffffffffff16815260200190815260200160002060009054906101000a900460ff16611df6576040517f08c379a0000000000000000000000000000000000000000000000000000000008152600401611ded90615a30565b60405180910390fd5b6004548710611e3a576040517f08c379a0000000000000000000000000000000000000000000000000000000008152600401611e31906159f0565b60405180910390fd5b85600560008981526020019081526020016000206000019080519060200190611e649291906146b1565b5084600560008981526020019081526020016000206004019080519060200190611e8f9291906146b1565b50836005600089815260200190815260200160002060050181905550826005600089815260200190815260200160002060060160006101000a81548160ff02191690836009811115611edd57fe5b02179055508691505095945050505050565b6000611efa87611727565b15611f3a576040517f08c379a0000000000000000000000000000000000000000000000000000000008152600401611f3190615a70565b60405180910390fd5b85600260008973ffffffffffffffffffffffffffffffffffffffff1673ffffffffffffffffffffffffffffffffffffffff1681526020019081526020016000206000018190555084600260008973ffffffffffffffffffffffffffffffffffffffff1673ffffffffffffffffffffffffffffffffffffffff1681526020019081526020016000206002019080519060200190611fd79291906146b1565b5083600260008973ffffffffffffffffffffffffffffffffffffffff1673ffffffffffffffffffffffffffffffffffffffff168152602001908152602001600020600301908051906020019061202e9291906146b1565b5082600260008973ffffffffffffffffffffffffffffffffffffffff1673ffffffffffffffffffffffffffffffffffffffff1681526020019081526020016000206004018190555081600260008973ffffffffffffffffffffffffffffffffffffffff1673ffffffffffffffffffffffffffffffffffffffff16815260200190815260200160002060050190805190602001906120cc9291906146b1565b5042600260008973ffffffffffffffffffffffffffffffffffffffff1673ffffffffffffffffffffffffffffffffffffffff168152602001908152602001600020600101819055506005600260008973ffffffffffffffffffffffffffffffffffffffff1673ffffffffffffffffffffffffffffffffffffffff16815260200190815260200160002060060181905550600380549050600260008973ffffffffffffffffffffffffffffffffffffffff1673ffffffffffffffffffffffffffffffffffffffff168152602001908152602001600020600701819055506000600260008973ffffffffffffffffffffffffffffffffffffffff1673ffffffffffffffffffffffffffffffffffffffff16815260200190815260200160002060080160006101000a81548160ff0219169083600281111561220757fe5b02179055506000600260008973ffffffffffffffffffffffffffffffffffffffff1673ffffffffffffffffffffffffffffffffffffffff16815260200190815260200160002060080160016101000a81548160ff02191690831515021790555060038790806001815401808255809150509060018203906000526020600020016000909192909190916101000a81548173ffffffffffffffffffffffffffffffffffffffff021916908373ffffffffffffffffffffffffffffffffffffffff160217905550506122fb6040516020016122df906158a5565b6040516020818303038152906040528051906020012088614272565b8673ffffffffffffffffffffffffffffffffffffffff167f4d95910c45b55946e307e5a82f0af42c16742413c0bd4a716e7e3a78e91837ac600260008a73ffffffffffffffffffffffffffffffffffffffff1673ffffffffffffffffffffffffffffffffffffffff1681526020019081526020016000206007015488604051612385929190615b4f565b60405180910390a260016003805490500390509695505050505050565b6123aa6147b1565b6123b382611727565b6123f2576040517f08c379a00000000000000000000000000000000000000000000000000000000081526004016123e9906159b0565b60405180910390fd5b600260008373ffffffffffffffffffffffffffffffffffffffff1673ffffffffffffffffffffffffffffffffffffffff168152602001908152602001600020604051806101400160405290816000820154815260200160018201548152602001600282018054600181600116156101000203166002900480601f0160208091040260200160405190810160405280929190818152602001828054600181600116156101000203166002900480156124ea5780601f106124bf576101008083540402835291602001916124ea565b820191906000526020600020905b8154815290600101906020018083116124cd57829003601f168201915b50505050508152602001600382018054600181600116156101000203166002900480601f01602080910402602001604051908101604052809291908181526020018280546001816001161561010002031660029004801561258c5780601f106125615761010080835404028352916020019161258c565b820191906000526020600020905b81548152906001019060200180831161256f57829003601f168201915b5050505050815260200160048201548152602001600582018054600181600116156101000203166002900480601f0160208091040260200160405190810160405280929190818152602001828054600181600116156101000203166002900480156126385780601f1061260d57610100808354040283529160200191612638565b820191906000526020600020905b81548152906001019060200180831161261b57829003601f168201915b5050505050815260200160068201548152602001600782015481526020016008820160009054906101000a900460ff16600281111561267357fe5b600281111561267e57fe5b81526020016008820160019054906101000a900460ff1615151515815250509050919050565b606060088054806020026020016040519081016040528092919081815260200182805480156126f257602002820191906000526020600020905b8154815260200190600101908083116126de575b5050505050905090565b6000809054906101000a900473ffffffffffffffffffffffffffffffffffffffff1681565b6000604051602001612732906158a5565b604051602081830303815290604052805190602001206001600082815260200190815260200160002060003373ffffffffffffffffffffffffffffffffffffffff1673ffffffffffffffffffffffffffffffffffffffff16815260200190815260200160002060009054906101000a900460ff166127e5576040517f08c379a00000000000000000000000000000000000000000000000000000000081526004016127dc90615a30565b60405180910390fd5b6004548310612829576040517f08c379a0000000000000000000000000000000000000000000000000000000008152600401612820906159f0565b60405180910390fd5b8373ffffffffffffffffffffffffffffffffffffffff163160056000858152602001908152602001600020600a01600160056000878152602001908152602001600020600a0180549050038154811061287e57fe5b90600052602060002001541061289357600080fd5b60008090505b600660003373ffffffffffffffffffffffffffffffffffffffff1673ffffffffffffffffffffffffffffffffffffffff16815260200190815260200160002080549050811015612aa15783600660003373ffffffffffffffffffffffffffffffffffffffff1673ffffffffffffffffffffffffffffffffffffffff168152602001908152602001600020828154811061292e57fe5b90600052602060002001541415612a9457600660003373ffffffffffffffffffffffffffffffffffffffff1673ffffffffffffffffffffffffffffffffffffffff1681526020019081526020016000206001600660003373ffffffffffffffffffffffffffffffffffffffff1673ffffffffffffffffffffffffffffffffffffffff1681526020019081526020016000208054905003815481106129ce57fe5b9060005260206000200154600660003373ffffffffffffffffffffffffffffffffffffffff1673ffffffffffffffffffffffffffffffffffffffff1681526020019081526020016000208281548110612a2357fe5b9060005260206000200181905550600660003373ffffffffffffffffffffffffffffffffffffffff1673ffffffffffffffffffffffffffffffffffffffff168152602001908152602001600020805480612a7957fe5b60019003818190600052602060002001600090559055612aa1565b8080600101915050612899565b50600560008481526020019081526020016000206009018490806001815401808255809150509060018203906000526020600020016000909192909190916101000a81548173ffffffffffffffffffffffffffffffffffffffff021916908373ffffffffffffffffffffffffffffffffffffffff16021790555050600660008573ffffffffffffffffffffffffffffffffffffffff1673ffffffffffffffffffffffffffffffffffffffff1681526020019081526020016000208390806001815401808255809150509060018203906000526020600020016000909192909190915055507f9a0bb8b75d36ae23bb26068d749bb1180c244c13c75990b0dd08d096f5d18b18338585604051612bb8939291906158ea565b60405180910390a18291505092915050565b6060604051602001612bdb90615890565b604051602081830303815290604052805190602001206001600082815260200190815260200160002060003373ffffffffffffffffffffffffffffffffffffffff1673ffffffffffffffffffffffffffffffffffffffff16815260200190815260200160002060009054906101000a900460ff16612c8e576040517f08c379a0000000000000000000000000000000000000000000000000000000008152600401612c8590615a30565b60405180910390fd5b60076000848152602001908152602001600020805480602002602001604051908101604052809291908181526020018280548015612ceb57602002820191906000526020600020905b815481526020019060010190808311612cd7575b5050505050915050919050565b6000600380549050905090565b604051602001612d14906158ba565b604051602081830303815290604052805190602001206001600082815260200190815260200160002060003373ffffffffffffffffffffffffffffffffffffffff1673ffffffffffffffffffffffffffffffffffffffff16815260200190815260200160002060009054906101000a900460ff16612dc7576040517f08c379a0000000000000000000000000000000000000000000000000000000008152600401612dbe90615a30565b60405180910390fd5b600073ffffffffffffffffffffffffffffffffffffffff168273ffffffffffffffffffffffffffffffffffffffff161415612e37576040517f08c379a0000000000000000000000000000000000000000000000000000000008152600401612e2e90615a90565b60405180910390fd5b60016000604051602001612e4a90615890565b60405160208183030381529060405280519060200120815260200190815260200160002060008373ffffffffffffffffffffffffffffffffffffffff1673ffffffffffffffffffffffffffffffffffffffff16815260200190815260200160002060009054906101000a900460ff1615612ef9576040517f08c379a0000000000000000000000000000000000000000000000000000000008152600401612ef090615a50565b60405180910390fd5b612f27604051602001612f0b90615890565b6040516020818303038152906040528051906020012083614272565b5050565b604051602001612f3a906158ba565b604051602081830303815290604052805190602001206001600082815260200190815260200160002060003373ffffffffffffffffffffffffffffffffffffffff1673ffffffffffffffffffffffffffffffffffffffff16815260200190815260200160002060009054906101000a900460ff16612fed576040517f08c379a0000000000000000000000000000000000000000000000000000000008152600401612fe490615a30565b60405180910390fd5b600073ffffffffffffffffffffffffffffffffffffffff168273ffffffffffffffffffffffffffffffffffffffff16141561305d576040517f08c379a000000000000000000000000000000000000000000000000000000000815260040161305490615a90565b60405180910390fd5b60016000604051602001613070906158ba565b60405160208183030381529060405280519060200120815260200190815260200160002060008373ffffffffffffffffffffffffffffffffffffffff1673ffffffffffffffffffffffffffffffffffffffff16815260200190815260200160002060009054906101000a900460ff161561311f576040517f08c379a000000000000000000000000000000000000000000000000000000000815260040161311690615a50565b60405180910390fd5b6000809054906101000a900473ffffffffffffffffffffffffffffffffffffffff1673ffffffffffffffffffffffffffffffffffffffff163373ffffffffffffffffffffffffffffffffffffffff1614156131a7576131a2604051602001613186906158ba565b6040516020818303038152906040528051906020012083614272565b6131e2565b6040517f08c379a00000000000000000000000000000000000000000000000000000000081526004016131d990615ad0565b60405180910390fd5b5050565b60006040516020016131f7906158ba565b604051602081830303815290604052805190602001206001600082815260200190815260200160002060003373ffffffffffffffffffffffffffffffffffffffff1673ffffffffffffffffffffffffffffffffffffffff16815260200190815260200160002060009054906101000a900460ff166132aa576040517f08c379a00000000000000000000000000000000000000000000000000000000081526004016132a190615a30565b60405180910390fd5b6132b383611727565b6132f2576040517f08c379a00000000000000000000000000000000000000000000000000000000081526004016132e9906159b0565b60405180910390fd5b60028060008573ffffffffffffffffffffffffffffffffffffffff1673ffffffffffffffffffffffffffffffffffffffff16815260200190815260200160002060080160006101000a81548160ff0219169083600281111561335057fe5b02179055506001915050919050565b6000604051602001613370906158a5565b604051602081830303815290604052805190602001206001600082815260200190815260200160002060003373ffffffffffffffffffffffffffffffffffffffff1673ffffffffffffffffffffffffffffffffffffffff16815260200190815260200160002060009054906101000a900460ff16613423576040517f08c379a000000000000000000000000000000000000000000000000000000000815260040161341a90615a30565b60405180910390fd5b6004548410613467576040517f08c379a000000000000000000000000000000000000000000000000000000000815260040161345e906159f0565b60405180910390fd5b60056000858152602001908152602001600020600a018390806001815401808255809150509060018203906000526020600020016000909192909190915055508391505092915050565b60006040516020016134c2906158a5565b604051602081830303815290604052805190602001206001600082815260200190815260200160002060003373ffffffffffffffffffffffffffffffffffffffff1673ffffffffffffffffffffffffffffffffffffffff16815260200190815260200160002060009054906101000a900460ff16613575576040517f08c379a000000000000000000000000000000000000000000000000000000000815260040161356c90615a30565b60405180910390fd5b60045484106135b9576040517f08c379a00000000000000000000000000000000000000000000000000000000081526004016135b0906159f0565b60405180910390fd5b8260056000868152602001908152602001600020600801540160056000868152602001908152602001600020600801819055508391505092915050565b60006001600060405160200161360b906158ba565b60405160208183030381529060405280519060200120815260200190815260200160002060008373ffffffffffffffffffffffffffffffffffffffff1673ffffffffffffffffffffffffffffffffffffffff16815260200190815260200160002060009054906101000a900460ff161561368857600390506137ad565b6001600060405160200161369b906158a5565b60405160208183030381529060405280519060200120815260200190815260200160002060008373ffffffffffffffffffffffffffffffffffffffff1673ffffffffffffffffffffffffffffffffffffffff16815260200190815260200160002060009054906101000a900460ff161561371857600290506137ad565b6001600060405160200161372b90615890565b60405160208183030381529060405280519060200120815260200190815260200160002060008373ffffffffffffffffffffffffffffffffffffffff1673ffffffffffffffffffffffffffffffffffffffff16815260200190815260200160002060009054906101000a900460ff16156137a857600190506137ad565b600090505b919050565b6040516020016137c1906158ba565b604051602081830303815290604052805190602001206001600082815260200190815260200160002060003373ffffffffffffffffffffffffffffffffffffffff1673ffffffffffffffffffffffffffffffffffffffff16815260200190815260200160002060009054906101000a900460ff16613874576040517f08c379a000000000000000000000000000000000000000000000000000000000815260040161386b90615a30565b60405180910390fd5b60016000604051602001613887906158a5565b60405160208183030381529060405280519060200120815260200190815260200160002060008373ffffffffffffffffffffffffffffffffffffffff1673ffffffffffffffffffffffffffffffffffffffff16815260200190815260200160002060009054906101000a900460ff16613935576040517f08c379a000000000000000000000000000000000000000000000000000000000815260040161392c906159d0565b60405180910390fd5b613963604051602001613947906158a5565b6040516020818303038152906040528051906020012083613e9c565b5050565b604051602001613976906158ba565b604051602081830303815290604052805190602001206001600082815260200190815260200160002060003373ffffffffffffffffffffffffffffffffffffffff1673ffffffffffffffffffffffffffffffffffffffff16815260200190815260200160002060009054906101000a900460ff16613a29576040517f08c379a0000000000000000000000000000000000000000000000000000000008152600401613a2090615a30565b60405180910390fd5b600073ffffffffffffffffffffffffffffffffffffffff168273ffffffffffffffffffffffffffffffffffffffff161415613a99576040517f08c379a0000000000000000000000000000000000000000000000000000000008152600401613a9090615a90565b60405180910390fd5b60016000604051602001613aac906158a5565b60405160208183030381529060405280519060200120815260200190815260200160002060008373ffffffffffffffffffffffffffffffffffffffff1673ffffffffffffffffffffffffffffffffffffffff16815260200190815260200160002060009054906101000a900460ff1615613b5b576040517f08c379a0000000000000000000000000000000000000000000000000000000008152600401613b5290615a50565b60405180910390fd5b613b89604051602001613b6d906158a5565b6040516020818303038152906040528051906020012083614272565b5050565b60016020528160005260406000206020528060005260406000206000915091509054906101000a900460ff1681565b6000604051602001613bcd906158ba565b604051602081830303815290604052805190602001206001600082815260200190815260200160002060003373ffffffffffffffffffffffffffffffffffffffff1673ffffffffffffffffffffffffffffffffffffffff16815260200190815260200160002060009054906101000a900460ff16613c80576040517f08c379a0000000000000000000000000000000000000000000000000000000008152600401613c7790615a30565b60405180910390fd5b83600260008773ffffffffffffffffffffffffffffffffffffffff1673ffffffffffffffffffffffffffffffffffffffff1681526020019081526020016000206006018190555082600260008773ffffffffffffffffffffffffffffffffffffffff1673ffffffffffffffffffffffffffffffffffffffff16815260200190815260200160002060080160006101000a81548160ff02191690836002811115613d2557fe5b02179055508473ffffffffffffffffffffffffffffffffffffffff167f1c0430843928b357f7d24810221fa7272098d6a01bb685a3a762ce31ed16fa8b600260008873ffffffffffffffffffffffffffffffffffffffff1673ffffffffffffffffffffffffffffffffffffffff16815260200190815260200160002060070154600260008973ffffffffffffffffffffffffffffffffffffffff1673ffffffffffffffffffffffffffffffffffffffff16815260200190815260200160002060060154600260008a73ffffffffffffffffffffffffffffffffffffffff1673ffffffffffffffffffffffffffffffffffffffff16815260200190815260200160002060080160009054906101000a900460ff16604051613e4793929190615b78565b60405180910390a260019150509392505050565b600060038281548110613e6a57fe5b9060005260206000200160009054906101000a900473ffffffffffffffffffffffffffffffffffffffff169050919050565b604051602001613eab906158ba565b6040516020818303038152906040528051906020012082141561407457600060016000604051602001613edd906158ba565b60405160208183030381529060405280519060200120815260200190815260200160002060008373ffffffffffffffffffffffffffffffffffffffff1673ffffffffffffffffffffffffffffffffffffffff16815260200190815260200160002060006101000a81548160ff021916908315150217905550600060016000604051602001613f6a90615890565b60405160208183030381529060405280519060200120815260200190815260200160002060008373ffffffffffffffffffffffffffffffffffffffff1673ffffffffffffffffffffffffffffffffffffffff16815260200190815260200160002060006101000a81548160ff021916908315150217905550600060016000604051602001613ff7906158a5565b60405160208183030381529060405280519060200120815260200190815260200160002060008373ffffffffffffffffffffffffffffffffffffffff1673ffffffffffffffffffffffffffffffffffffffff16815260200190815260200160002060006101000a81548160ff02191690831515021790555061422a565b604051602001614083906158a5565b604051602081830303815290604052805190602001208214156141bf576000600160006040516020016140b590615890565b60405160208183030381529060405280519060200120815260200190815260200160002060008373ffffffffffffffffffffffffffffffffffffffff1673ffffffffffffffffffffffffffffffffffffffff16815260200190815260200160002060006101000a81548160ff021916908315150217905550600060016000604051602001614142906158a5565b60405160208183030381529060405280519060200120815260200190815260200160002060008373ffffffffffffffffffffffffffffffffffffffff1673ffffffffffffffffffffffffffffffffffffffff16815260200190815260200160002060006101000a81548160ff021916908315150217905550614229565b60006001600084815260200190815260200160002060008373ffffffffffffffffffffffffffffffffffffffff1673ffffffffffffffffffffffffffffffffffffffff16815260200190815260200160002060006101000a81548160ff0219169083151502179055505b5b8073ffffffffffffffffffffffffffffffffffffffff16827f361ed204aa01d4d75ba515bde961d40c21f3791b474bb581df5d00e38b2be7bb60405160405180910390a35050565b604051602001614281906158ba565b604051602081830303815290604052805190602001208214156144475760018060006040516020016142b2906158ba565b60405160208183030381529060405280519060200120815260200190815260200160002060008373ffffffffffffffffffffffffffffffffffffffff1673ffffffffffffffffffffffffffffffffffffffff16815260200190815260200160002060006101000a81548160ff021916908315150217905550600180600060405160200161433e90615890565b60405160208183030381529060405280519060200120815260200190815260200160002060008373ffffffffffffffffffffffffffffffffffffffff1673ffffffffffffffffffffffffffffffffffffffff16815260200190815260200160002060006101000a81548160ff02191690831515021790555060018060006040516020016143ca906158a5565b60405160208183030381529060405280519060200120815260200190815260200160002060008373ffffffffffffffffffffffffffffffffffffffff1673ffffffffffffffffffffffffffffffffffffffff16815260200190815260200160002060006101000a81548160ff0219169083151502179055506145fa565b604051602001614456906158a5565b6040516020818303038152906040528051906020012082141561459057600180600060405160200161448790615890565b60405160208183030381529060405280519060200120815260200190815260200160002060008373ffffffffffffffffffffffffffffffffffffffff1673ffffffffffffffffffffffffffffffffffffffff16815260200190815260200160002060006101000a81548160ff0219169083151502179055506001806000604051602001614513906158a5565b60405160208183030381529060405280519060200120815260200190815260200160002060008373ffffffffffffffffffffffffffffffffffffffff1673ffffffffffffffffffffffffffffffffffffffff16815260200190815260200160002060006101000a81548160ff0219169083151502179055506145f9565b600180600084815260200190815260200160002060008373ffffffffffffffffffffffffffffffffffffffff1673ffffffffffffffffffffffffffffffffffffffff16815260200190815260200160002060006101000a81548160ff0219169083151502179055505b5b8073ffffffffffffffffffffffffffffffffffffffff16827f5a06360d65acf95e98445dc834f205063424c636e65418d928cdfabc33a9539960405160405180910390a35050565b6040518061018001604052806060815260200160608152602001600081526020016060815260200160608152602001600080191681526020016000600981111561468857fe5b815260200160008152602001600081526020016060815260200160608152602001606081525090565b828054600181600116156101000203166002900490600052602060002090601f016020900481019282601f106146f257805160ff1916838001178555614720565b82800160010185558215614720579182015b8281111561471f578251825591602001919060010190614704565b5b50905061472d9190614817565b5090565b828054600181600116156101000203166002900490600052602060002090601f016020900481019282601f1061477257803560ff19168380011785556147a0565b828001600101855582156147a0579182015b8281111561479f578235825591602001919060010190614784565b5b5090506147ad9190614817565b5090565b60405180610140016040528060008019168152602001600081526020016060815260200160608152602001600080191681526020016060815260200160008152602001600081526020016000600281111561480857fe5b81526020016000151581525090565b61483991905b8082111561483557600081600090555060010161481d565b5090565b90565b60008135905061484b81615ef7565b92915050565b600082601f83011261486257600080fd5b813561487561487082615bf7565b615bca565b9150818183526020840193506020810190508385602084028201111561489a57600080fd5b60005b838110156148ca57816148b088826148d4565b84526020840193506020830192505060018101905061489d565b5050505092915050565b6000813590506148e381615f0e565b92915050565b6000813590506148f881615f25565b92915050565b60008135905061490d81615f35565b92915050565b60008083601f84011261492557600080fd5b8235905067ffffffffffffffff81111561493e57600080fd5b60208301915083600182028301111561495657600080fd5b9250929050565b600082601f83011261496e57600080fd5b813561498161497c82615c1f565b615bca565b9150808252602083016020830185838301111561499d57600080fd5b6149a8838284615e8a565b50505092915050565b6000813590506149c081615f45565b92915050565b6000602082840312156149d857600080fd5b60006149e68482850161483c565b91505092915050565b60008060008060008060008060008060e08b8d031215614a0e57600080fd5b6000614a1c8d828e0161483c565b9a50506020614a2d8d828e016148d4565b99505060408b013567ffffffffffffffff811115614a4a57600080fd5b614a568d828e01614913565b985098505060608b013567ffffffffffffffff811115614a7557600080fd5b614a818d828e01614913565b96509650506080614a948d828e016148d4565b94505060a08b013567ffffffffffffffff811115614ab157600080fd5b614abd8d828e01614913565b935093505060c0614ad08d828e016148fe565b9150509295989b9194979a5092959850565b60008060008060008060c08789031215614afb57600080fd5b6000614b0989828a0161483c565b9650506020614b1a89828a016148d4565b955050604087013567ffffffffffffffff811115614b3757600080fd5b614b4389828a0161495d565b945050606087013567ffffffffffffffff811115614b6057600080fd5b614b6c89828a0161495d565b9350506080614b7d89828a016148d4565b92505060a087013567ffffffffffffffff811115614b9a57600080fd5b614ba689828a0161495d565b9150509295509295509295565b60008060008060008060008060006101208a8c031215614bd257600080fd5b6000614be08c828d0161483c565b99505060208a013567ffffffffffffffff811115614bfd57600080fd5b614c098c828d0161495d565b98505060408a013567ffffffffffffffff811115614c2657600080fd5b614c328c828d0161495d565b9750506060614c438c828d016149b1565b96505060808a013567ffffffffffffffff811115614c6057600080fd5b614c6c8c828d0161495d565b95505060a08a013567ffffffffffffffff811115614c8957600080fd5b614c958c828d0161495d565b94505060c0614ca68c828d016148d4565b93505060e0614cb78c828d016148e9565b925050610100614cc98c828d016149b1565b9150509295985092959850929598565b60008060408385031215614cec57600080fd5b6000614cfa8582860161483c565b9250506020614d0b858286016149b1565b9150509250929050565b600080600060608486031215614d2a57600080fd5b6000614d388682870161483c565b9350506020614d49868287016149b1565b9250506040614d5a868287016148fe565b9150509250925092565b600060208284031215614d7657600080fd5b6000614d84848285016148d4565b91505092915050565b60008060408385031215614da057600080fd5b6000614dae858286016148d4565b9250506020614dbf8582860161483c565b9150509250929050565b600060208284031215614ddb57600080fd5b6000614de9848285016149b1565b91505092915050565b60008060408385031215614e0557600080fd5b6000614e13858286016149b1565b925050602083013567ffffffffffffffff811115614e3057600080fd5b614e3c85828601614851565b9150509250929050565b600080600080600060a08688031215614e5e57600080fd5b6000614e6c888289016149b1565b955050602086013567ffffffffffffffff811115614e8957600080fd5b614e958882890161495d565b945050604086013567ffffffffffffffff811115614eb257600080fd5b614ebe8882890161495d565b9350506060614ecf888289016148d4565b9250506080614ee0888289016148e9565b9150509295509295909350565b60008060408385031215614f0057600080fd5b6000614f0e858286016149b1565b9250506020614f1f858286016149b1565b9150509250929050565b6000614f358383614f80565b60208301905092915050565b6000614f4d8383615192565b60208301905092915050565b6000614f658383615863565b60208301905092915050565b614f7a81615e30565b82525050565b614f8981615dab565b82525050565b614f9881615dab565b82525050565b6000614fa982615c9b565b614fb38185615d29565b9350614fbe83615c4b565b8060005b83811015614fef578151614fd68882614f29565b9750614fe183615ce8565b925050600181019050614fc2565b5085935050505092915050565b600061500782615cb1565b6150118185615d4b565b935061501c83615c6b565b8060005b8381101561504d5781516150348882614f41565b975061503f83615d02565b925050600181019050615020565b5085935050505092915050565b600061506582615ca6565b61506f8185615d3a565b935061507a83615c5b565b8060005b838110156150ab5781516150928882614f41565b975061509d83615cf5565b92505060018101905061507e565b5085935050505092915050565b60006150c382615cc7565b6150cd8185615d6d565b93506150d883615c8b565b8060005b838110156151095781516150f08882614f59565b97506150fb83615d1c565b9250506001810190506150dc565b5085935050505092915050565b600061512182615cbc565b61512b8185615d5c565b935061513683615c7b565b8060005b8381101561516757815161514e8882614f59565b975061515983615d0f565b92505060018101905061513a565b5085935050505092915050565b61517d81615dbd565b82525050565b61518c81615dbd565b82525050565b61519b81615dc9565b82525050565b6151aa81615dc9565b82525050565b6151b981615e42565b82525050565b6151c881615e54565b82525050565b6151d781615e54565b82525050565b60006151e882615cdd565b6151f28185615d8f565b9350615202818560208601615e99565b61520b81615ecc565b840191505092915050565b600061522182615cd2565b61522b8185615d7e565b935061523b818560208601615e99565b61524481615ecc565b840191505092915050565b600061525c601f83615d8f565b91507f557365722061646472657373206973206e6f7420696e697469616c697a6564006000830152602082019050919050565b600061529c603283615d8f565b91507f54686973206164647265737320646f6573206e6f74206861766520746865207260008301527f6f6c6520746f206265207265766f6b65642e00000000000000000000000000006020830152604082019050919050565b6000615302600483615da0565b91507f52656164000000000000000000000000000000000000000000000000000000006000830152600482019050919050565b6000615342601383615d8f565b91507f4e6f2066696c65206861732074686973206964000000000000000000000000006000830152602082019050919050565b6000615382600583615da0565b91507f57726974650000000000000000000000000000000000000000000000000000006000830152600582019050919050565b60006153c2600583615da0565b91507f41646d696e0000000000000000000000000000000000000000000000000000006000830152600582019050919050565b6000615402602583615d8f565b91507f41646d696e206e6f7420617574686f72697a656420746f2064656c657465206f60008301527f776e3265720000000000000000000000000000000000000000000000000000006020830152604082019050919050565b6000615468600f83615d8f565b91507f4e6f7420617574686f72697a65642100000000000000000000000000000000006000830152602082019050919050565b60006154a8602383615d8f565b91507f54686973206164647265737320616c726561647920686173207468697320726f60008301527f6c652100000000000000000000000000000000000000000000000000000000006020830152604082019050919050565b600061550e601c83615d8f565b91507f55736572206164647265737320697320616c72656164792075736564000000006000830152602082019050919050565b600061554e602383615d8f565b91507f526f6c65733a206163636f756e7420697320746865207a65726f20616464726560008301527f73732100000000000000000000000000000000000000000000000000000000006020830152604082019050919050565b60006155b4601e83615d8f565b91507f4e6f7420616c6c6f77656420746f2073657420746869732073746174757300006000830152602082019050919050565b60006155f4602683615d8f565b91507f41646d696e20636f756c64206e6f742073657420616e6f746865722061646d6960008301527f6e20726f6c6500000000000000000000000000000000000000000000000000006020830152604082019050919050565b600061018083016000830151848203600086015261566b8282615216565b915050602083015184820360208601526156858282615216565b915050604083015161569a6040860182615863565b50606083015184820360608601526156b28282615216565b915050608083015184820360808601526156cc8282615216565b91505060a08301516156e160a0860182615192565b5060c08301516156f460c08601826151b0565b5060e083015161570760e0860182615863565b5061010083015161571c610100860182615863565b506101208301518482036101208601526157368282614f9e565b9150506101408301518482036101408601526157528282615116565b91505061016083015184820361016086015261576e828261505a565b9150508091505092915050565b6000610140830160008301516157946000860182615192565b5060208301516157a76020860182615863565b50604083015184820360408601526157bf8282615216565b915050606083015184820360608601526157d98282615216565b91505060808301516157ee6080860182615192565b5060a083015184820360a08601526158068282615216565b91505060c083015161581b60c0860182615863565b5060e083015161582e60e0860182615863565b506101008301516158436101008601826151bf565b50610120830151615858610120860182615174565b508091505092915050565b61586c81615e19565b82525050565b61587b81615e19565b82525050565b61588a81615e23565b82525050565b600061589b826152f5565b9150819050919050565b60006158b082615375565b9150819050919050565b60006158c5826153b5565b9150819050919050565b60006020820190506158e46000830184614f8f565b92915050565b60006060820190506158ff6000830186614f71565b61590c6020830185614f8f565b6159196040830184615872565b949350505050565b6000602082019050818103600083015261593b8184614ffc565b905092915050565b6000602082019050818103600083015261595d81846150b8565b905092915050565b600060208201905061597a6000830184615183565b92915050565b6000604082019050818103600083015261599a81856151dd565b90506159a96020830184615872565b9392505050565b600060208201905081810360008301526159c98161524f565b9050919050565b600060208201905081810360008301526159e98161528f565b9050919050565b60006020820190508181036000830152615a0981615335565b9050919050565b60006020820190508181036000830152615a29816153f5565b9050919050565b60006020820190508181036000830152615a498161545b565b9050919050565b60006020820190508181036000830152615a698161549b565b9050919050565b60006020820190508181036000830152615a8981615501565b9050919050565b60006020820190508181036000830152615aa981615541565b9050919050565b60006020820190508181036000830152615ac9816155a7565b9050919050565b60006020820190508181036000830152615ae9816155e7565b9050919050565b60006020820190508181036000830152615b0a818461564d565b905092915050565b60006020820190508181036000830152615b2c818461577b565b905092915050565b6000602082019050615b496000830184615872565b92915050565b6000604082019050615b646000830185615872565b615b7160208301846151a1565b9392505050565b6000606082019050615b8d6000830186615872565b615b9a6020830185615872565b615ba760408301846151ce565b949350505050565b6000602082019050615bc46000830184615881565b92915050565b6000604051905081810181811067ffffffffffffffff82111715615bed57600080fd5b8060405250919050565b600067ffffffffffffffff821115615c0e57600080fd5b602082029050602081019050919050565b600067ffffffffffffffff821115615c3657600080fd5b601f19601f8301169050602081019050919050565b6000819050602082019050919050565b6000819050602082019050919050565b6000819050602082019050919050565b6000819050602082019050919050565b6000819050602082019050919050565b600081519050919050565b600081519050919050565b600081519050919050565b600081519050919050565b600081519050919050565b600081519050919050565b600081519050919050565b6000602082019050919050565b6000602082019050919050565b6000602082019050919050565b6000602082019050919050565b6000602082019050919050565b600082825260208201905092915050565b600082825260208201905092915050565b600082825260208201905092915050565b600082825260208201905092915050565b600082825260208201905092915050565b600082825260208201905092915050565b600082825260208201905092915050565b600081905092915050565b6000615db682615df9565b9050919050565b60008115159050919050565b6000819050919050565b6000819050615de182615edd565b919050565b6000819050615df482615eea565b919050565b600073ffffffffffffffffffffffffffffffffffffffff82169050919050565b6000819050919050565b600060ff82169050919050565b6000615e3b82615e66565b9050919050565b6000615e4d82615dd3565b9050919050565b6000615e5f82615de6565b9050919050565b6000615e7182615e78565b9050919050565b6000615e8382615df9565b9050919050565b82818337600083830152505050565b60005b83811015615eb7578082015181840152602081019050615e9c565b83811115615ec6576000848401525b50505050565b6000601f19601f8301169050919050565b600a8110615ee757fe5b50565b60038110615ef457fe5b50565b615f0081615dab565b8114615f0b57600080fd5b50565b615f1781615dc9565b8114615f2257600080fd5b50565b600a8110615f3257600080fd5b50565b60038110615f4257600080fd5b50565b615f4e81615e19565b8114615f5957600080fd5b5056fea365627a7a72315820de3fccd79aa0ebd9a50423bb67260eeb78be5e550dcb8ac767c68bef990649a16c6578706572696d656e74616cf564736f6c63430005110040",
  "source": "// SPDX-License-Identifier: MIT\r\npragma solidity >=0.4.21 <0.9.0;\r\npragma experimental ABIEncoderV2;\r\n\r\ncontract Users {\r\n    // Data used for roles and security\r\n  address public owner;\r\n  bytes32 private constant Admin = keccak256(abi.encodePacked(\"Admin\"));\r\n  bytes32 private constant Read = keccak256(abi.encodePacked(\"Read\"));\r\n  bytes32 private constant Write = keccak256(abi.encodePacked(\"Write\"));\r\n  mapping(bytes32 => mapping(address => bool)) public roles;\r\n  event GrantRole(bytes32 indexed role, address indexed account);\r\n  event RemoveRole(bytes32 indexed role, address indexed account);\r\n\r\n    // Data used to store information about users and their assets\r\n  enum RightsCategory {\r\n    PersonalUseOnly,\r\n    CommercialUse,\r\n    Attribution,\r\n    DerivativeWorks,\r\n    NonTransferable,\r\n    LimitedEdition,\r\n    EducationalUse,\r\n    ResaleRights,\r\n    Expiration,\r\n    RegionSpecific\r\n  }\r\n  enum VerificationStatus {\r\n    NotVerified,\r\n    InProgress,\r\n    Verified\r\n  }\r\n  struct UploadedFile {\r\n    string fileTitle;\r\n    string fileReference;\r\n    uint fileSize;\r\n    string fileType;\r\n    string description;\r\n    bytes32 country;\r\n    RightsCategory ownershipRights;\r\n    uint uploadDate;\r\n    uint likes;\r\n    address[] pastOwners;\r\n    uint[] priceForTransfer;\r\n    bytes32[] conenctedTags;\r\n  }\r\n  struct UserModelStruct {\r\n    bytes32 userEmail;\r\n    uint dateOfRegistration;\r\n    string firstName;\r\n    string lastName;\r\n    bytes32 country;\r\n    string description;\r\n    uint allowedUploads;\r\n    uint index;\r\n    VerificationStatus verifyStatus;\r\n    bool uploadingInProgess;\r\n  }\r\n  mapping(address => UserModelStruct) private userModels;\r\n  address[] private userPointer;\r\n  event CreatedUser(address indexed userAddress, uint index, bytes32 userEmail);\r\n  event UpdatedUser(address indexed userAddress, uint index, bytes32 userEmail);\r\n  event DeletedUser(address userAddress, uint index);\r\n  event LogUpdateUserByAdmin(address indexed userAddress, uint index, uint allowedUploads, VerificationStatus verifyStatus);\r\n\r\n  uint fileCounter;\r\n  mapping(uint => UploadedFile) files;\r\n  mapping(address => uint[]) personalUserfiles;\r\n  mapping(bytes32 => uint[]) tagFiles;\r\n  bytes32[] tags;\r\n\r\n  event AddedFile(string fileReference, uint index);\r\n  event TransferredFile(address oldOwner, address newOwner, uint fileId);\r\n\r\n  constructor() public {\r\n    owner = msg.sender;\r\n    _grantRole(Admin, msg.sender);\r\n  }\r\n///----------------------------------------------------- ROLES LOGIC -----------------------------------------\r\n  modifier onlyRole (bytes32 _role) {\r\n    require(roles[_role][msg.sender], \"Not authorized!\");\r\n    _;\r\n  }\r\n  function _grantRole(bytes32 _role, address _account) internal {\r\n    if (_role==Admin){\r\n        roles[Admin][_account]=true;\r\n        roles[Read][_account]=true;\r\n        roles[Write][_account]=true;\r\n    } else if (_role==Write){\r\n        roles[Read][_account]=true;\r\n        roles[Write][_account]=true;\r\n    } else {\r\n        roles[_role][_account]=true;\r\n    }\r\n\r\n    emit GrantRole(_role, _account);\r\n  }\r\n\r\n  function grantAdminRole(address _account) external onlyRole(Admin) {\r\n    require(_account != address(0), \"Roles: account is the zero address!\");\r\n    require(!roles[Admin][_account], \"This address already has this role!\");\r\n    if (msg.sender == owner) {\r\n        _grantRole(Admin, _account);\r\n    }\r\n    else {\r\n        revert(\"Admin could not set another admin role\");\r\n    }\r\n  }\r\n\r\n  function grantWriteRole(address _account) external onlyRole(Admin) {\r\n    require(_account != address(0), \"Roles: account is the zero address!\");\r\n    require(!roles[Write][_account], \"This address already has this role!\");\r\n    _grantRole(Write, _account);\r\n  }\r\n\r\n  function grantReadRole(address _account) external onlyRole(Admin) {\r\n    require(_account != address(0), \"Roles: account is the zero address!\");\r\n    require(!roles[Read][_account], \"This address already has this role!\");\r\n    _grantRole(Read, _account);\r\n  }\r\n\r\n  function _deleteRole(bytes32 _role, address _account) internal {\r\n    if (_role==Admin){\r\n        roles[Admin][_account]=false;\r\n        roles[Read][_account]=false;\r\n        roles[Write][_account]=false;\r\n    } else if (_role==Write){\r\n        roles[Read][_account]=false;\r\n        roles[Write][_account]=false;\r\n    } else {\r\n        roles[_role][_account]=false;\r\n    }\r\n\r\n    emit RemoveRole(_role, _account);\r\n  }\r\n\r\n  function deleteAdminRole(address _account) external onlyRole(Admin) {\r\n    require(roles[Admin][_account], \"This address does not have the role to be revoked.\");\r\n    if (msg.sender == owner) {\r\n        _deleteRole(Admin, _account);\r\n    }\r\n    else {\r\n        revert(\"Admin not authorized to delete own2er\");\r\n    }\r\n  }\r\n  function deleteWriteRole(address _account) external onlyRole(Admin) {\r\n    require(roles[Write][_account], \"This address does not have the role to be revoked.\");\r\n    _deleteRole(Write, _account);\r\n  }\r\n\r\n  function deleteReadRole(address _account) external onlyRole(Admin) {\r\n    require(roles[Read][_account], \"This address does not have the role to be revoked.\");\r\n    _deleteRole(Read, _account);\r\n  }\r\n\r\n  function getRoleForUser(address userAccount) external view returns(uint8 role){\r\n    if (roles[Admin][userAccount]){\r\n      return 3;\r\n    } else if (roles[Write][userAccount]){\r\n      return 2;\r\n    } else if (roles[Read][userAccount]){\r\n      return 1;\r\n    }\r\n    return 0;\r\n  }\r\n\r\n///----------------------------------------------------- ROLES LOGIC END--------------------------------------\r\n////***************************************************** USER LOGIC  ******************************************\r\n  function isUser(address userAddress) public view returns(bool isRegistered) { \r\n    if(userPointer.length == 0) return false;\r\n    return (userPointer[userModels[userAddress].index] == userAddress);\r\n  }\r\n\r\n  function getUserCount() public view returns(uint count)\r\n  {\r\n    return userPointer.length;\r\n  }\r\n\r\n  function getUserAtIndex(uint index) public view returns(address userAddress)\r\n  {\r\n    return userPointer[index];\r\n  }\r\n\r\n  function insertUser(address userAddress, \r\n    bytes32 userEmail,\r\n    string memory firstName,\r\n    string memory lastName,\r\n    bytes32 country,\r\n    string memory description) public returns(uint index) {\r\n    require(!isUser(userAddress), \"User address is already used\");\r\n    userModels[userAddress].userEmail = userEmail;\r\n    userModels[userAddress].firstName = firstName;\r\n    userModels[userAddress].lastName = lastName;\r\n    userModels[userAddress].country = country;\r\n    userModels[userAddress].description = description;\r\n\r\n    userModels[userAddress].dateOfRegistration = block.timestamp;\r\n    userModels[userAddress].allowedUploads = 5;\r\n    userModels[userAddress].index = userPointer.length;\r\n    userModels[userAddress].verifyStatus = VerificationStatus.NotVerified;\r\n    userModels[userAddress].uploadingInProgess = false;\r\n\r\n    userPointer.push(userAddress);\r\n    _grantRole(Write, userAddress);\r\n    emit CreatedUser(userAddress, userModels[userAddress].index, userEmail);\r\n    return userPointer.length-1;\r\n  }\r\n\r\n  function getUser(address userAddress) public view\r\n    returns(UserModelStruct memory)\r\n  {\r\n    require(isUser(userAddress), \"User address is not initialized\");\r\n    return userModels[userAddress];\r\n  }\r\n\r\n  function updateUserByAdmin(address userAddress, uint allowedUploads, VerificationStatus verifyStatus) external onlyRole(Admin) returns(bool success) \r\n  {\r\n    userModels[userAddress].allowedUploads = allowedUploads;\r\n    userModels[userAddress].verifyStatus = verifyStatus;\r\n    emit LogUpdateUserByAdmin(\r\n      userAddress, \r\n      userModels[userAddress].index,\r\n      userModels[userAddress].allowedUploads,\r\n      userModels[userAddress].verifyStatus);\r\n    return true;\r\n  }\r\n\r\n  function updateUser(address userAddress, \r\n    bytes32 userEmail,\r\n    string calldata firstName,\r\n    string calldata lastName,\r\n    bytes32 country,\r\n    string calldata description,\r\n    VerificationStatus verifyStatus) external returns(bool success) \r\n  {\r\n    require(isUser(userAddress), \"User address is not initialized\");\r\n    require(verifyStatus != VerificationStatus.Verified, \"Not allowed to set this status\");\r\n    userModels[userAddress].userEmail = userEmail;\r\n    userModels[userAddress].firstName = firstName;\r\n    userModels[userAddress].lastName = lastName;\r\n    userModels[userAddress].country = country;\r\n    userModels[userAddress].description = description;\r\n    userModels[userAddress].verifyStatus = verifyStatus;\r\n    emit UpdatedUser(\r\n      userAddress, \r\n      userModels[userAddress].index,\r\n      userModels[userAddress].userEmail);\r\n    return true;\r\n  }\r\n\r\n  function setVerified(address userAddress) external onlyRole(Admin) returns(bool isRegistered) { \r\n    require(isUser(userAddress), \"User address is not initialized\");\r\n    userModels[userAddress].verifyStatus = VerificationStatus.Verified;\r\n    return true;\r\n  }\r\n\r\n////***************************************************** USER LOGIC END ***************************************\r\n\r\n  function getFilesForAddress(address userAddress) public onlyRole(Read) view returns(uint[] memory filesForAddress){\r\n    return personalUserfiles[userAddress];\r\n  }\r\n\r\n  function getFilesForTag(bytes32 tag) public onlyRole(Read) view returns(uint[] memory filesForTag){\r\n    return tagFiles[tag];\r\n  }\r\n  function getFile(uint fileId) public onlyRole(Read) view returns (UploadedFile memory) {\r\n    return files[fileId];\r\n  }\r\n\r\n  function getAllTags() public view returns (bytes32[] memory) {\r\n    return tags;\r\n  }\r\n\r\n  function addNewTagsToFile(uint fileId, bytes32[] memory newTags) public onlyRole(Write) returns(bool areTagsAdded) {\r\n    require(fileId < fileCounter, \"No file has this id\");\r\n    for (uint i = 0; i < newTags.length; i++) {\r\n      tags.push(newTags[i]);\r\n      tagFiles[newTags[i]].push(fileId);\r\n      files[fileId].conenctedTags.push(newTags[i]);\r\n    }\r\n    return true;\r\n  }\r\n\r\n  function addTagsToFile(uint fileId, bytes32[] memory existingTags) public onlyRole(Write) returns(bool areTagsAdded) {\r\n    require(fileId < fileCounter, \"No file has this id\");\r\n    for (uint i = 0; i < existingTags.length; i++) {\r\n      tagFiles[existingTags[i]].push(fileId);\r\n      files[fileId].conenctedTags.push(existingTags[i]);\r\n    }\r\n    return true;\r\n  }\r\n\r\n  function addFile(address userAddress, \r\n    string memory fileTitle,\r\n    string memory fileReference,\r\n    uint fileSize,\r\n    string memory fileType,\r\n    string memory description,\r\n    bytes32 country,\r\n    RightsCategory ownershipRights,\r\n    uint priceForTransfer) public onlyRole(Write) returns(uint index) {\r\n\r\n    require(isUser(userAddress), \"User address is not initialized\");\r\n    files[fileCounter].fileTitle = fileTitle;\r\n    files[fileCounter].fileReference = fileReference;\r\n    files[fileCounter].fileSize = fileSize;\r\n    files[fileCounter].fileType = fileType;\r\n    files[fileCounter].description = description;\r\n    files[fileCounter].country = country;\r\n    files[fileCounter].ownershipRights = ownershipRights;\r\n    files[fileCounter].uploadDate = block.timestamp;\r\n    files[fileCounter].likes = 0;\r\n    files[fileCounter].pastOwners.push(userAddress);\r\n    files[fileCounter].priceForTransfer.push(priceForTransfer);\r\n\r\n    personalUserfiles[userAddress].push(fileCounter);\r\n    userModels[userAddress].uploadingInProgess = false;\r\n\r\n    emit AddedFile(fileReference, fileCounter);\r\n    fileCounter++;\r\n    return fileCounter-1;\r\n  }\r\n  \r\n  function editFilePresentation( uint fileId,\r\n    string memory fileTitle,\r\n    string memory description,\r\n    bytes32 country,\r\n    RightsCategory ownershipRights) public onlyRole(Write) returns(uint index) {\r\n    require(fileId < fileCounter, \"No file has this id\");\r\n\r\n    files[fileId].fileTitle = fileTitle;\r\n    files[fileId].description = description;\r\n    files[fileId].country = country;\r\n    files[fileId].ownershipRights = ownershipRights;\r\n\r\n    return fileId;\r\n  }\r\n\r\n  // function editFileTehnical( uint fileId,\r\n  //   string memory fileReference,\r\n  //   uint fileSize,\r\n  //   string memory fileType) public onlyRole(Write) returns(uint index) {\r\n  //   require(fileId < fileCounter, \"No file has this id\");\r\n\r\n  //   files[fileId].fileReference = fileReference;\r\n  //   files[fileId].fileSize = fileSize;\r\n  //   files[fileId].fileType = fileType;\r\n\r\n  //   return fileId;\r\n  // }\r\n  //edit price for transfer\r\n  function editPrice( uint fileId, uint newPrice) external onlyRole(Write) returns(uint index) {\r\n    require(fileId < fileCounter, \"No file has this id\");\r\n    files[fileId].priceForTransfer.push(newPrice);\r\n    return fileId;\r\n  }\r\n  //add like\r\n    function changeLike ( uint fileId, uint increaseByAmount) external onlyRole(Write) returns(uint index) {\r\n    require(fileId < fileCounter, \"No file has this id\");\r\n    files[fileId].likes = files[fileId].likes + increaseByAmount;\r\n    return fileId;\r\n  }\r\n\r\n  //called by owner ; should this be modified to be called by the buyer?\r\n  function changeOwnerFile(address newUserAddress, uint fileId) public onlyRole(Write) returns(uint index){\r\n    require(fileId < fileCounter, \"No file has this id\");\r\n    //money\r\n    require(files[fileId].priceForTransfer[files[fileId].priceForTransfer.length-1] < newUserAddress.balance);\r\n    //old owner\r\n    for (uint i = 0; i < personalUserfiles[msg.sender].length; i++) {\r\n      if (personalUserfiles[msg.sender][i] == fileId) {\r\n        personalUserfiles[msg.sender][i] = personalUserfiles[msg.sender][personalUserfiles[msg.sender].length - 1];\r\n\r\n        personalUserfiles[msg.sender].pop();\r\n        break;\r\n      }\r\n    }\r\n    //history\r\n    files[fileId].pastOwners.push(newUserAddress);\r\n    //new owner\r\n    personalUserfiles[newUserAddress].push(fileId);\r\n    emit TransferredFile(msg.sender, newUserAddress, fileId);\r\n    return fileId;\r\n  }\r\n\r\n}",
  "sourcePath": "C:\\Users\\andre\\Desktop\\Licenta2\\Licenta2\\App\\src\\contracts\\Users.sol",
  "compiler": {
    "name": "solc",
    "version": "0.5.17+commit.d19bba13.Emscripten.clang"
  },
  "schemaVersion": "3.4.13",
  "updatedAt": "2023-08-28T18:34:01.383Z",
  "networkType": "ethereum",
  "devdoc": {
    "methods": {}
  },
  "userdoc": {
    "methods": {
      "getFilesForAddress(address)": {
        "notice": "/***************************************************** USER LOGIC END ***************************************"
      },
      "isUser(address)": {
        "notice": "----------------------------------------------------- ROLES LOGIC END-------------------------------------- /***************************************************** USER LOGIC  ******************************************"
      }
    }
  }
}