{
  "contractName": "Users",
  "abi": [
    {
      "inputs": [],
      "payable": false,
      "stateMutability": "nonpayable",
      "type": "constructor"
    },
    {
      "anonymous": false,
      "inputs": [
        {
          "indexed": false,
          "internalType": "string",
          "name": "fileReference",
          "type": "string"
        },
        {
          "indexed": false,
          "internalType": "uint256",
          "name": "index",
          "type": "uint256"
        }
      ],
      "name": "AddedFile",
      "type": "event"
    },
    {
      "anonymous": false,
      "inputs": [
        {
          "indexed": true,
          "internalType": "address",
          "name": "userAddress",
          "type": "address"
        },
        {
          "indexed": false,
          "internalType": "uint256",
          "name": "index",
          "type": "uint256"
        },
        {
          "indexed": false,
          "internalType": "bytes32",
          "name": "userEmail",
          "type": "bytes32"
        }
      ],
      "name": "CreatedUser",
      "type": "event"
    },
    {
      "anonymous": false,
      "inputs": [
        {
          "indexed": false,
          "internalType": "address",
          "name": "userAddress",
          "type": "address"
        },
        {
          "indexed": false,
          "internalType": "uint256",
          "name": "index",
          "type": "uint256"
        }
      ],
      "name": "DeletedUser",
      "type": "event"
    },
    {
      "anonymous": false,
      "inputs": [
        {
          "indexed": true,
          "internalType": "bytes32",
          "name": "role",
          "type": "bytes32"
        },
        {
          "indexed": true,
          "internalType": "address",
          "name": "account",
          "type": "address"
        }
      ],
      "name": "GrantRole",
      "type": "event"
    },
    {
      "anonymous": false,
      "inputs": [
        {
          "indexed": true,
          "internalType": "address",
          "name": "userAddress",
          "type": "address"
        },
        {
          "indexed": false,
          "internalType": "uint256",
          "name": "index",
          "type": "uint256"
        },
        {
          "indexed": false,
          "internalType": "uint256",
          "name": "allowedUploads",
          "type": "uint256"
        },
        {
          "indexed": false,
          "internalType": "enum Users.VerificationStatus",
          "name": "verifyStatus",
          "type": "uint8"
        }
      ],
      "name": "LogUpdateUserByAdmin",
      "type": "event"
    },
    {
      "anonymous": false,
      "inputs": [
        {
          "indexed": true,
          "internalType": "bytes32",
          "name": "role",
          "type": "bytes32"
        },
        {
          "indexed": true,
          "internalType": "address",
          "name": "account",
          "type": "address"
        }
      ],
      "name": "RemoveRole",
      "type": "event"
    },
    {
      "anonymous": false,
      "inputs": [
        {
          "indexed": false,
          "internalType": "address",
          "name": "oldOwner",
          "type": "address"
        },
        {
          "indexed": false,
          "internalType": "address",
          "name": "newOwner",
          "type": "address"
        },
        {
          "indexed": false,
          "internalType": "uint256",
          "name": "fileId",
          "type": "uint256"
        }
      ],
      "name": "TransferredFile",
      "type": "event"
    },
    {
      "anonymous": false,
      "inputs": [
        {
          "indexed": true,
          "internalType": "address",
          "name": "userAddress",
          "type": "address"
        },
        {
          "indexed": false,
          "internalType": "uint256",
          "name": "index",
          "type": "uint256"
        },
        {
          "indexed": false,
          "internalType": "bytes32",
          "name": "userEmail",
          "type": "bytes32"
        }
      ],
      "name": "UpdatedUser",
      "type": "event"
    },
    {
      "constant": true,
      "inputs": [],
      "name": "owner",
      "outputs": [
        {
          "internalType": "address",
          "name": "",
          "type": "address"
        }
      ],
      "payable": false,
      "stateMutability": "view",
      "type": "function"
    },
    {
      "constant": true,
      "inputs": [
        {
          "internalType": "bytes32",
          "name": "",
          "type": "bytes32"
        },
        {
          "internalType": "address",
          "name": "",
          "type": "address"
        }
      ],
      "name": "roles",
      "outputs": [
        {
          "internalType": "bool",
          "name": "",
          "type": "bool"
        }
      ],
      "payable": false,
      "stateMutability": "view",
      "type": "function"
    },
    {
      "constant": false,
      "inputs": [
        {
          "internalType": "address",
          "name": "_account",
          "type": "address"
        }
      ],
      "name": "grantAdminRole",
      "outputs": [],
      "payable": false,
      "stateMutability": "nonpayable",
      "type": "function"
    },
    {
      "constant": false,
      "inputs": [
        {
          "internalType": "address",
          "name": "_account",
          "type": "address"
        }
      ],
      "name": "grantWriteRole",
      "outputs": [],
      "payable": false,
      "stateMutability": "nonpayable",
      "type": "function"
    },
    {
      "constant": false,
      "inputs": [
        {
          "internalType": "address",
          "name": "_account",
          "type": "address"
        }
      ],
      "name": "grantReadRole",
      "outputs": [],
      "payable": false,
      "stateMutability": "nonpayable",
      "type": "function"
    },
    {
      "constant": false,
      "inputs": [
        {
          "internalType": "address",
          "name": "_account",
          "type": "address"
        }
      ],
      "name": "deleteAdminRole",
      "outputs": [],
      "payable": false,
      "stateMutability": "nonpayable",
      "type": "function"
    },
    {
      "constant": false,
      "inputs": [
        {
          "internalType": "address",
          "name": "_account",
          "type": "address"
        }
      ],
      "name": "deleteWriteRole",
      "outputs": [],
      "payable": false,
      "stateMutability": "nonpayable",
      "type": "function"
    },
    {
      "constant": false,
      "inputs": [
        {
          "internalType": "address",
          "name": "_account",
          "type": "address"
        }
      ],
      "name": "deleteReadRole",
      "outputs": [],
      "payable": false,
      "stateMutability": "nonpayable",
      "type": "function"
    },
    {
      "constant": true,
      "inputs": [],
      "name": "getRoleForUser",
      "outputs": [
        {
          "internalType": "uint8",
          "name": "role",
          "type": "uint8"
        }
      ],
      "payable": false,
      "stateMutability": "view",
      "type": "function"
    },
    {
      "constant": true,
      "inputs": [
        {
          "internalType": "address",
          "name": "userAddress",
          "type": "address"
        }
      ],
      "name": "isUser",
      "outputs": [
        {
          "internalType": "bool",
          "name": "isRegistered",
          "type": "bool"
        }
      ],
      "payable": false,
      "stateMutability": "view",
      "type": "function"
    },
    {
      "constant": true,
      "inputs": [],
      "name": "getUserCount",
      "outputs": [
        {
          "internalType": "uint256",
          "name": "count",
          "type": "uint256"
        }
      ],
      "payable": false,
      "stateMutability": "view",
      "type": "function"
    },
    {
      "constant": true,
      "inputs": [
        {
          "internalType": "uint256",
          "name": "index",
          "type": "uint256"
        }
      ],
      "name": "getUserAtIndex",
      "outputs": [
        {
          "internalType": "address",
          "name": "userAddress",
          "type": "address"
        }
      ],
      "payable": false,
      "stateMutability": "view",
      "type": "function"
    },
    {
      "constant": false,
      "inputs": [
        {
          "internalType": "address",
          "name": "userAddress",
          "type": "address"
        },
        {
          "internalType": "bytes32",
          "name": "userEmail",
          "type": "bytes32"
        },
        {
          "internalType": "string",
          "name": "firstName",
          "type": "string"
        },
        {
          "internalType": "string",
          "name": "lastName",
          "type": "string"
        },
        {
          "internalType": "bytes32",
          "name": "country",
          "type": "bytes32"
        },
        {
          "internalType": "string",
          "name": "description",
          "type": "string"
        }
      ],
      "name": "insertUser",
      "outputs": [
        {
          "internalType": "uint256",
          "name": "index",
          "type": "uint256"
        }
      ],
      "payable": false,
      "stateMutability": "nonpayable",
      "type": "function"
    },
    {
      "constant": true,
      "inputs": [
        {
          "internalType": "address",
          "name": "userAddress",
          "type": "address"
        }
      ],
      "name": "getUser",
      "outputs": [
        {
          "components": [
            {
              "internalType": "bytes32",
              "name": "userEmail",
              "type": "bytes32"
            },
            {
              "internalType": "uint256",
              "name": "dateOfRegistration",
              "type": "uint256"
            },
            {
              "internalType": "string",
              "name": "firstName",
              "type": "string"
            },
            {
              "internalType": "string",
              "name": "lastName",
              "type": "string"
            },
            {
              "internalType": "bytes32",
              "name": "country",
              "type": "bytes32"
            },
            {
              "internalType": "string",
              "name": "description",
              "type": "string"
            },
            {
              "internalType": "uint256",
              "name": "allowedUploads",
              "type": "uint256"
            },
            {
              "internalType": "uint256",
              "name": "index",
              "type": "uint256"
            },
            {
              "internalType": "enum Users.VerificationStatus",
              "name": "verifyStatus",
              "type": "uint8"
            },
            {
              "internalType": "bool",
              "name": "uploadingInProgess",
              "type": "bool"
            }
          ],
          "internalType": "struct Users.UserModelStruct",
          "name": "",
          "type": "tuple"
        }
      ],
      "payable": false,
      "stateMutability": "view",
      "type": "function"
    },
    {
      "constant": false,
      "inputs": [
        {
          "internalType": "address",
          "name": "userAddress",
          "type": "address"
        },
        {
          "internalType": "uint256",
          "name": "allowedUploads",
          "type": "uint256"
        },
        {
          "internalType": "enum Users.VerificationStatus",
          "name": "verifyStatus",
          "type": "uint8"
        }
      ],
      "name": "updateUserByAdmin",
      "outputs": [
        {
          "internalType": "bool",
          "name": "success",
          "type": "bool"
        }
      ],
      "payable": false,
      "stateMutability": "nonpayable",
      "type": "function"
    },
    {
      "constant": false,
      "inputs": [
        {
          "internalType": "address",
          "name": "userAddress",
          "type": "address"
        },
        {
          "internalType": "bytes32",
          "name": "userEmail",
          "type": "bytes32"
        },
        {
          "internalType": "string",
          "name": "firstName",
          "type": "string"
        },
        {
          "internalType": "string",
          "name": "lastName",
          "type": "string"
        },
        {
          "internalType": "bytes32",
          "name": "country",
          "type": "bytes32"
        },
        {
          "internalType": "string",
          "name": "description",
          "type": "string"
        },
        {
          "internalType": "enum Users.VerificationStatus",
          "name": "verifyStatus",
          "type": "uint8"
        }
      ],
      "name": "updateUser",
      "outputs": [
        {
          "internalType": "bool",
          "name": "success",
          "type": "bool"
        }
      ],
      "payable": false,
      "stateMutability": "nonpayable",
      "type": "function"
    },
    {
      "constant": false,
      "inputs": [
        {
          "internalType": "address",
          "name": "userAddress",
          "type": "address"
        }
      ],
      "name": "setVerified",
      "outputs": [
        {
          "internalType": "bool",
          "name": "isRegistered",
          "type": "bool"
        }
      ],
      "payable": false,
      "stateMutability": "nonpayable",
      "type": "function"
    },
    {
      "constant": true,
      "inputs": [
        {
          "internalType": "address",
          "name": "userAddress",
          "type": "address"
        }
      ],
      "name": "getFilesForAddress",
      "outputs": [
        {
          "internalType": "uint256[]",
          "name": "filesForAddress",
          "type": "uint256[]"
        }
      ],
      "payable": false,
      "stateMutability": "view",
      "type": "function"
    },
    {
      "constant": true,
      "inputs": [
        {
          "internalType": "bytes32",
          "name": "tag",
          "type": "bytes32"
        }
      ],
      "name": "getFilesForTag",
      "outputs": [
        {
          "internalType": "uint256[]",
          "name": "filesForTag",
          "type": "uint256[]"
        }
      ],
      "payable": false,
      "stateMutability": "view",
      "type": "function"
    },
    {
      "constant": true,
      "inputs": [
        {
          "internalType": "uint256",
          "name": "fileId",
          "type": "uint256"
        }
      ],
      "name": "getFile",
      "outputs": [
        {
          "components": [
            {
              "internalType": "string",
              "name": "fileTitle",
              "type": "string"
            },
            {
              "internalType": "string",
              "name": "fileReference",
              "type": "string"
            },
            {
              "internalType": "uint256",
              "name": "fileSize",
              "type": "uint256"
            },
            {
              "internalType": "string",
              "name": "fileType",
              "type": "string"
            },
            {
              "internalType": "string",
              "name": "description",
              "type": "string"
            },
            {
              "internalType": "bytes32",
              "name": "country",
              "type": "bytes32"
            },
            {
              "internalType": "enum Users.RightsCategory",
              "name": "ownershipRights",
              "type": "uint8"
            },
            {
              "internalType": "uint256",
              "name": "uploadDate",
              "type": "uint256"
            },
            {
              "internalType": "uint256",
              "name": "likes",
              "type": "uint256"
            },
            {
              "internalType": "address[]",
              "name": "pastOwners",
              "type": "address[]"
            },
            {
              "internalType": "uint256[]",
              "name": "priceForTransfer",
              "type": "uint256[]"
            },
            {
              "internalType": "bytes32[]",
              "name": "conenctedTags",
              "type": "bytes32[]"
            }
          ],
          "internalType": "struct Users.UploadedFile",
          "name": "",
          "type": "tuple"
        }
      ],
      "payable": false,
      "stateMutability": "view",
      "type": "function"
    },
    {
      "constant": true,
      "inputs": [],
      "name": "getAllTags",
      "outputs": [
        {
          "internalType": "bytes32[]",
          "name": "",
          "type": "bytes32[]"
        }
      ],
      "payable": false,
      "stateMutability": "view",
      "type": "function"
    },
    {
      "constant": false,
      "inputs": [
        {
          "internalType": "uint256",
          "name": "fileId",
          "type": "uint256"
        },
        {
          "internalType": "bytes32[]",
          "name": "newTags",
          "type": "bytes32[]"
        }
      ],
      "name": "addNewTagsToFile",
      "outputs": [
        {
          "internalType": "bool",
          "name": "areTagsAdded",
          "type": "bool"
        }
      ],
      "payable": false,
      "stateMutability": "nonpayable",
      "type": "function"
    },
    {
      "constant": false,
      "inputs": [
        {
          "internalType": "uint256",
          "name": "fileId",
          "type": "uint256"
        },
        {
          "internalType": "bytes32[]",
          "name": "existingTags",
          "type": "bytes32[]"
        }
      ],
      "name": "addTagsToFile",
      "outputs": [
        {
          "internalType": "bool",
          "name": "areTagsAdded",
          "type": "bool"
        }
      ],
      "payable": false,
      "stateMutability": "nonpayable",
      "type": "function"
    },
    {
      "constant": false,
      "inputs": [
        {
          "internalType": "address",
          "name": "userAddress",
          "type": "address"
        },
        {
          "internalType": "string",
          "name": "fileTitle",
          "type": "string"
        },
        {
          "internalType": "string",
          "name": "fileReference",
          "type": "string"
        },
        {
          "internalType": "uint256",
          "name": "fileSize",
          "type": "uint256"
        },
        {
          "internalType": "string",
          "name": "fileType",
          "type": "string"
        },
        {
          "internalType": "string",
          "name": "description",
          "type": "string"
        },
        {
          "internalType": "bytes32",
          "name": "country",
          "type": "bytes32"
        },
        {
          "internalType": "enum Users.RightsCategory",
          "name": "ownershipRights",
          "type": "uint8"
        },
        {
          "internalType": "uint256",
          "name": "priceForTransfer",
          "type": "uint256"
        }
      ],
      "name": "addFile",
      "outputs": [
        {
          "internalType": "uint256",
          "name": "index",
          "type": "uint256"
        }
      ],
      "payable": false,
      "stateMutability": "nonpayable",
      "type": "function"
    },
    {
      "constant": false,
      "inputs": [
        {
          "internalType": "uint256",
          "name": "fileId",
          "type": "uint256"
        },
        {
          "internalType": "string",
          "name": "fileTitle",
          "type": "string"
        },
        {
          "internalType": "string",
          "name": "description",
          "type": "string"
        },
        {
          "internalType": "bytes32",
          "name": "country",
          "type": "bytes32"
        },
        {
          "internalType": "enum Users.RightsCategory",
          "name": "ownershipRights",
          "type": "uint8"
        }
      ],
      "name": "editFilePresentation",
      "outputs": [
        {
          "internalType": "uint256",
          "name": "index",
          "type": "uint256"
        }
      ],
      "payable": false,
      "stateMutability": "nonpayable",
      "type": "function"
    },
    {
      "constant": false,
      "inputs": [
        {
          "internalType": "uint256",
          "name": "fileId",
          "type": "uint256"
        },
        {
          "internalType": "string",
          "name": "fileReference",
          "type": "string"
        },
        {
          "internalType": "uint256",
          "name": "fileSize",
          "type": "uint256"
        },
        {
          "internalType": "string",
          "name": "fileType",
          "type": "string"
        }
      ],
      "name": "editFileTehnical",
      "outputs": [
        {
          "internalType": "uint256",
          "name": "index",
          "type": "uint256"
        }
      ],
      "payable": false,
      "stateMutability": "nonpayable",
      "type": "function"
    },
    {
      "constant": false,
      "inputs": [
        {
          "internalType": "uint256",
          "name": "fileId",
          "type": "uint256"
        },
        {
          "internalType": "uint256",
          "name": "newPrice",
          "type": "uint256"
        }
      ],
      "name": "editPrice",
      "outputs": [
        {
          "internalType": "uint256",
          "name": "index",
          "type": "uint256"
        }
      ],
      "payable": false,
      "stateMutability": "nonpayable",
      "type": "function"
    },
    {
      "constant": false,
      "inputs": [
        {
          "internalType": "uint256",
          "name": "fileId",
          "type": "uint256"
        },
        {
          "internalType": "uint256",
          "name": "increaseByAmount",
          "type": "uint256"
        }
      ],
      "name": "changeLike",
      "outputs": [
        {
          "internalType": "uint256",
          "name": "index",
          "type": "uint256"
        }
      ],
      "payable": false,
      "stateMutability": "nonpayable",
      "type": "function"
    },
    {
      "constant": false,
      "inputs": [
        {
          "internalType": "address",
          "name": "newUserAddress",
          "type": "address"
        },
        {
          "internalType": "uint256",
          "name": "fileId",
          "type": "uint256"
        }
      ],
      "name": "changeOwnerFile",
      "outputs": [
        {
          "internalType": "uint256",
          "name": "index",
          "type": "uint256"
        }
      ],
      "payable": false,
      "stateMutability": "nonpayable",
      "type": "function"
    }
  ],
  "bytecode": "0x60806040523480156200001157600080fd5b50336000806101000a81548173ffffffffffffffffffffffffffffffffffffffff021916908373ffffffffffffffffffffffffffffffffffffffff1602179055506200008a604051602001620000679062000566565b60405160208183030381529060405280519060200120336200009060201b60201c565b62000588565b604051602001620000a19062000566565b604051602081830303815290604052805190602001208214156200026f576001806000604051602001620000d59062000566565b60405160208183030381529060405280519060200120815260200190815260200160002060008373ffffffffffffffffffffffffffffffffffffffff1673ffffffffffffffffffffffffffffffffffffffff16815260200190815260200160002060006101000a81548160ff0219169083151502179055506001806000604051602001620001639062000538565b60405160208183030381529060405280519060200120815260200190815260200160002060008373ffffffffffffffffffffffffffffffffffffffff1673ffffffffffffffffffffffffffffffffffffffff16815260200190815260200160002060006101000a81548160ff0219169083151502179055506001806000604051602001620001f1906200054f565b60405160208183030381529060405280519060200120815260200190815260200160002060008373ffffffffffffffffffffffffffffffffffffffff1673ffffffffffffffffffffffffffffffffffffffff16815260200190815260200160002060006101000a81548160ff0219169083151502179055506200042a565b60405160200162000280906200054f565b60405160208183030381529060405280519060200120821415620003c0576001806000604051602001620002b49062000538565b60405160208183030381529060405280519060200120815260200190815260200160002060008373ffffffffffffffffffffffffffffffffffffffff1673ffffffffffffffffffffffffffffffffffffffff16815260200190815260200160002060006101000a81548160ff021916908315150217905550600180600060405160200162000342906200054f565b60405160208183030381529060405280519060200120815260200190815260200160002060008373ffffffffffffffffffffffffffffffffffffffff1673ffffffffffffffffffffffffffffffffffffffff16815260200190815260200160002060006101000a81548160ff02191690831515021790555062000429565b600180600084815260200190815260200160002060008373ffffffffffffffffffffffffffffffffffffffff1673ffffffffffffffffffffffffffffffffffffffff16815260200190815260200160002060006101000a81548160ff0219169083151502179055505b5b8073ffffffffffffffffffffffffffffffffffffffff16827f5a06360d65acf95e98445dc834f205063424c636e65418d928cdfabc33a9539960405160405180910390a35050565b6000620004816004836200057d565b91507f52656164000000000000000000000000000000000000000000000000000000006000830152600482019050919050565b6000620004c36005836200057d565b91507f57726974650000000000000000000000000000000000000000000000000000006000830152600582019050919050565b6000620005056005836200057d565b91507f41646d696e0000000000000000000000000000000000000000000000000000006000830152600582019050919050565b6000620005458262000472565b9150819050919050565b60006200055c82620004b4565b9150819050919050565b60006200057382620004f6565b9150819050919050565b600081905092915050565b615f9580620005986000396000f3fe608060405234801561001057600080fd5b50600436106101cf5760003560e01c80638da5cb5b11610104578063c8c75647116100a2578063ee18839711610071578063ee188397146105d8578063f8fc08b9146105f4578063f9434b8414610624578063ffcc7bbf14610654576101cf565b8063c8c756471461052c578063d0e7a5cb1461055c578063d5f526021461058c578063d84b6a0b146105bc576101cf565b8063a21d847c116100de578063a21d847c146104a6578063b5cb15f7146104d6578063be575229146104f4578063c634b78e14610510576101cf565b80638da5cb5b1461043a5780639cbf6fbe14610458578063a2068e0414610476576101cf565b80634209fff111610171578063688b967c1161014b578063688b967c1461038c5780636cf5d66d146103bc5780636f77926b146103ec5780637038f1571461041c576101cf565b80634209fff1146102fc57806346efa3781461032c5780634bd9a2df1461035c576101cf565b80631726f329116101ad5780631726f32914610250578063202ba31e1461026c5780632bfda3131461029c57806330a31b24146102cc576101cf565b806308940be9146101d45780630b5267e4146101f05780630cd0880014610220575b600080fd5b6101ee60048036036101e99190810190614929565b610684565b005b61020a60048036036102059190810190614d55565b6108ce565b604051610217919061595b565b60405180910390f35b61023a60048036036102359190810190614929565b610ae0565b6040516102479190615939565b60405180910390f35b61026a60048036036102659190810190614929565b610b77565b005b61028660048036036102819190810190614e50565b610d2c565b6040516102939190615b2a565b60405180910390f35b6102b660048036036102b19190810190614d2c565b610eb1565b6040516102c39190615ae6565b60405180910390f35b6102e660048036036102e19190810190614b16565b6112fa565b6040516102f39190615b2a565b60405180910390f35b61031660048036036103119190810190614929565b61174f565b604051610323919061595b565b60405180910390f35b61034660048036036103419190810190614952565b611817565b604051610353919061595b565b60405180910390f35b61037660048036036103719190810190614d55565b611b87565b604051610383919061595b565b60405180910390f35b6103a660048036036103a19190810190614da9565b611d5a565b6040516103b39190615b2a565b60405180910390f35b6103d660048036036103d19190810190614a45565b611f17565b6040516103e39190615b2a565b60405180910390f35b61040660048036036104019190810190614929565b6123ca565b6040516104139190615b08565b60405180910390f35b6104246126cc565b6040516104319190615917565b60405180910390f35b610442612724565b60405161044f91906158c5565b60405180910390f35b610460612749565b60405161046d9190615ba5565b60405180910390f35b610490600480360361048b9190810190614c3c565b612903565b60405161049d9190615b2a565b60405180910390f35b6104c060048036036104bb9190810190614cc7565b612dac565b6040516104cd9190615939565b60405180910390f35b6104de612e17565b6040516104eb9190615b2a565b60405180910390f35b61050e60048036036105099190810190614929565b612e24565b005b61052a60048036036105259190810190614929565b61304a565b005b61054660048036036105419190810190614929565b613305565b604051610553919061595b565b60405180910390f35b61057660048036036105719190810190614ee3565b61347e565b6040516105839190615b2a565b60405180910390f35b6105a660048036036105a19190810190614ee3565b6135d0565b6040516105b39190615b2a565b60405180910390f35b6105d660048036036105d19190810190614929565b613715565b005b6105f260048036036105ed9190810190614929565b6138ca565b005b61060e60048036036106099190810190614cf0565b613af0565b60405161061b919061595b565b60405180910390f35b61063e60048036036106399190810190614c78565b613b1f565b60405161064b919061595b565b60405180910390f35b61066e60048036036106699190810190614d2c565b613dbe565b60405161067b91906158c5565b60405180910390f35b604051602001610693906158b0565b604051602081830303815290604052805190602001206001600082815260200190815260200160002060003373ffffffffffffffffffffffffffffffffffffffff1673ffffffffffffffffffffffffffffffffffffffff16815260200190815260200160002060009054906101000a900460ff16610746576040517f08c379a000000000000000000000000000000000000000000000000000000000815260040161073d90615a26565b60405180910390fd5b60016000604051602001610759906158b0565b60405160208183030381529060405280519060200120815260200190815260200160002060008373ffffffffffffffffffffffffffffffffffffffff1673ffffffffffffffffffffffffffffffffffffffff16815260200190815260200160002060009054906101000a900460ff16610807576040517f08c379a00000000000000000000000000000000000000000000000000000000081526004016107fe906159c6565b60405180910390fd5b6000809054906101000a900473ffffffffffffffffffffffffffffffffffffffff1673ffffffffffffffffffffffffffffffffffffffff163373ffffffffffffffffffffffffffffffffffffffff16141561088f5761088a60405160200161086e906158b0565b6040516020818303038152906040528051906020012083613dff565b6108ca565b6040517f08c379a00000000000000000000000000000000000000000000000000000000081526004016108c190615a06565b60405180910390fd5b5050565b60006040516020016108df9061589b565b604051602081830303815290604052805190602001206001600082815260200190815260200160002060003373ffffffffffffffffffffffffffffffffffffffff1673ffffffffffffffffffffffffffffffffffffffff16815260200190815260200160002060009054906101000a900460ff16610992576040517f08c379a000000000000000000000000000000000000000000000000000000000815260040161098990615a26565b60405180910390fd5b60045484106109d6576040517f08c379a00000000000000000000000000000000000000000000000000000000081526004016109cd906159e6565b60405180910390fd5b60008090505b8351811015610ad45760088482815181106109f357fe5b6020026020010151908060018154018082558091505090600182039060005260206000200160009091929091909150555060076000858381518110610a3457fe5b6020026020010151815260200190815260200160002085908060018154018082558091505090600182039060005260206000200160009091929091909150555060056000868152602001908152602001600020600b01848281518110610a9657fe5b6020026020010151908060018154018082558091505090600182039060005260206000200160009091929091909150555080806001019150506109dc565b50600191505092915050565b6060600660008373ffffffffffffffffffffffffffffffffffffffff1673ffffffffffffffffffffffffffffffffffffffff168152602001908152602001600020805480602002602001604051908101604052809291908181526020018280548015610b6b57602002820191906000526020600020905b815481526020019060010190808311610b57575b50505050509050919050565b604051602001610b86906158b0565b604051602081830303815290604052805190602001206001600082815260200190815260200160002060003373ffffffffffffffffffffffffffffffffffffffff1673ffffffffffffffffffffffffffffffffffffffff16815260200190815260200160002060009054906101000a900460ff16610c39576040517f08c379a0000000000000000000000000000000000000000000000000000000008152600401610c3090615a26565b60405180910390fd5b60016000604051602001610c4c90615886565b60405160208183030381529060405280519060200120815260200190815260200160002060008373ffffffffffffffffffffffffffffffffffffffff1673ffffffffffffffffffffffffffffffffffffffff16815260200190815260200160002060009054906101000a900460ff16610cfa576040517f08c379a0000000000000000000000000000000000000000000000000000000008152600401610cf1906159c6565b60405180910390fd5b610d28604051602001610d0c90615886565b6040516020818303038152906040528051906020012083613dff565b5050565b6000604051602001610d3d9061589b565b604051602081830303815290604052805190602001206001600082815260200190815260200160002060003373ffffffffffffffffffffffffffffffffffffffff1673ffffffffffffffffffffffffffffffffffffffff16815260200190815260200160002060009054906101000a900460ff16610df0576040517f08c379a0000000000000000000000000000000000000000000000000000000008152600401610de790615a26565b60405180910390fd5b6004548610610e34576040517f08c379a0000000000000000000000000000000000000000000000000000000008152600401610e2b906159e6565b60405180910390fd5b84600560008881526020019081526020016000206001019080519060200190610e5e9291906145a5565b5083600560008881526020019081526020016000206002018190555082600560008881526020019081526020016000206003019080519060200190610ea49291906145a5565b5085915050949350505050565b610eb9614625565b6005600083815260200190815260200160002060405180610180016040529081600082018054600181600116156101000203166002900480601f016020809104026020016040519081016040528092919081815260200182805460018160011615610100020316600290048015610f715780601f10610f4657610100808354040283529160200191610f71565b820191906000526020600020905b815481529060010190602001808311610f5457829003601f168201915b50505050508152602001600182018054600181600116156101000203166002900480601f0160208091040260200160405190810160405280929190818152602001828054600181600116156101000203166002900480156110135780601f10610fe857610100808354040283529160200191611013565b820191906000526020600020905b815481529060010190602001808311610ff657829003601f168201915b5050505050815260200160028201548152602001600382018054600181600116156101000203166002900480601f0160208091040260200160405190810160405280929190818152602001828054600181600116156101000203166002900480156110bf5780601f10611094576101008083540402835291602001916110bf565b820191906000526020600020905b8154815290600101906020018083116110a257829003601f168201915b50505050508152602001600482018054600181600116156101000203166002900480601f0160208091040260200160405190810160405280929190818152602001828054600181600116156101000203166002900480156111615780601f1061113657610100808354040283529160200191611161565b820191906000526020600020905b81548152906001019060200180831161114457829003601f168201915b50505050508152602001600582015481526020016006820160009054906101000a900460ff16600981111561119257fe5b600981111561119d57fe5b815260200160078201548152602001600882015481526020016009820180548060200260200160405190810160405280929190818152602001828054801561123a57602002820191906000526020600020905b8160009054906101000a900473ffffffffffffffffffffffffffffffffffffffff1673ffffffffffffffffffffffffffffffffffffffff16815260200190600101908083116111f0575b50505050508152602001600a820180548060200260200160405190810160405280929190818152602001828054801561129257602002820191906000526020600020905b81548152602001906001019080831161127e575b50505050508152602001600b82018054806020026020016040519081016040528092919081815260200182805480156112ea57602002820191906000526020600020905b8154815260200190600101908083116112d6575b5050505050815250509050919050565b600060405160200161130b9061589b565b604051602081830303815290604052805190602001206001600082815260200190815260200160002060003373ffffffffffffffffffffffffffffffffffffffff1673ffffffffffffffffffffffffffffffffffffffff16815260200190815260200160002060009054906101000a900460ff166113be576040517f08c379a00000000000000000000000000000000000000000000000000000000081526004016113b590615a26565b60405180910390fd5b6113c78b61174f565b611406576040517f08c379a00000000000000000000000000000000000000000000000000000000081526004016113fd906159a6565b60405180910390fd5b8960056000600454815260200190815260200160002060000190805190602001906114329291906145a5565b5088600560006004548152602001908152602001600020600101908051906020019061145f9291906145a5565b5087600560006004548152602001908152602001600020600201819055508660056000600454815260200190815260200160002060030190805190602001906114a99291906145a5565b508560056000600454815260200190815260200160002060040190805190602001906114d69291906145a5565b5084600560006004548152602001908152602001600020600501819055508360056000600454815260200190815260200160002060060160006101000a81548160ff0219169083600981111561152857fe5b021790555042600560006004548152602001908152602001600020600701819055506000600560006004548152602001908152602001600020600801819055506005600060045481526020019081526020016000206009018b90806001815401808255809150509060018203906000526020600020016000909192909190916101000a81548173ffffffffffffffffffffffffffffffffffffffff021916908373ffffffffffffffffffffffffffffffffffffffff16021790555050600560006004548152602001908152602001600020600a01839080600181540180825580915050906001820390600052602060002001600090919290919091505550600660008c73ffffffffffffffffffffffffffffffffffffffff1673ffffffffffffffffffffffffffffffffffffffff16815260200190815260200160002060045490806001815401808255809150509060018203906000526020600020016000909192909190915055506000600260008d73ffffffffffffffffffffffffffffffffffffffff1673ffffffffffffffffffffffffffffffffffffffff16815260200190815260200160002060080160016101000a81548160ff0219169083151502179055507f976a94ebaf95003722c58f5107879a458281d47ac85d44d6afd4dd4e31eef5da8960045460405161171f929190615976565b60405180910390a16004600081548092919060010191905055506001600454039150509998505050505050505050565b60008060038054905014156117675760009050611812565b8173ffffffffffffffffffffffffffffffffffffffff166003600260008573ffffffffffffffffffffffffffffffffffffffff1673ffffffffffffffffffffffffffffffffffffffff16815260200190815260200160002060070154815481106117cd57fe5b9060005260206000200160009054906101000a900473ffffffffffffffffffffffffffffffffffffffff1673ffffffffffffffffffffffffffffffffffffffff161490505b919050565b60006118228b61174f565b611861576040517f08c379a0000000000000000000000000000000000000000000000000000000008152600401611858906159a6565b60405180910390fd5b60028081111561186d57fe5b82600281111561187957fe5b14156118ba576040517f08c379a00000000000000000000000000000000000000000000000000000000081526004016118b190615aa6565b60405180910390fd5b89600260008d73ffffffffffffffffffffffffffffffffffffffff1673ffffffffffffffffffffffffffffffffffffffff168152602001908152602001600020600001819055508888600260008e73ffffffffffffffffffffffffffffffffffffffff1673ffffffffffffffffffffffffffffffffffffffff1681526020019081526020016000206002019190611952929190614694565b508686600260008e73ffffffffffffffffffffffffffffffffffffffff1673ffffffffffffffffffffffffffffffffffffffff16815260200190815260200160002060030191906119a4929190614694565b5084600260008d73ffffffffffffffffffffffffffffffffffffffff1673ffffffffffffffffffffffffffffffffffffffff168152602001908152602001600020600401819055508383600260008e73ffffffffffffffffffffffffffffffffffffffff1673ffffffffffffffffffffffffffffffffffffffff1681526020019081526020016000206005019190611a3d929190614694565b5081600260008d73ffffffffffffffffffffffffffffffffffffffff1673ffffffffffffffffffffffffffffffffffffffff16815260200190815260200160002060080160006101000a81548160ff02191690836002811115611a9c57fe5b02179055508a73ffffffffffffffffffffffffffffffffffffffff167f220bb7a17b01078be2b0499869f8a0656e04dff102602b44d0b552fe52ad33ef600260008e73ffffffffffffffffffffffffffffffffffffffff1673ffffffffffffffffffffffffffffffffffffffff16815260200190815260200160002060070154600260008f73ffffffffffffffffffffffffffffffffffffffff1673ffffffffffffffffffffffffffffffffffffffff16815260200190815260200160002060000154604051611b6d929190615b45565b60405180910390a2600190509a9950505050505050505050565b6000604051602001611b989061589b565b604051602081830303815290604052805190602001206001600082815260200190815260200160002060003373ffffffffffffffffffffffffffffffffffffffff1673ffffffffffffffffffffffffffffffffffffffff16815260200190815260200160002060009054906101000a900460ff16611c4b576040517f08c379a0000000000000000000000000000000000000000000000000000000008152600401611c4290615a26565b60405180910390fd5b6004548410611c8f576040517f08c379a0000000000000000000000000000000000000000000000000000000008152600401611c86906159e6565b60405180910390fd5b60008090505b8351811015611d4e5760076000858381518110611cae57fe5b6020026020010151815260200190815260200160002085908060018154018082558091505090600182039060005260206000200160009091929091909150555060056000868152602001908152602001600020600b01848281518110611d1057fe5b602002602001015190806001815401808255809150509060018203906000526020600020016000909192909190915055508080600101915050611c95565b50600191505092915050565b6000604051602001611d6b9061589b565b604051602081830303815290604052805190602001206001600082815260200190815260200160002060003373ffffffffffffffffffffffffffffffffffffffff1673ffffffffffffffffffffffffffffffffffffffff16815260200190815260200160002060009054906101000a900460ff16611e1e576040517f08c379a0000000000000000000000000000000000000000000000000000000008152600401611e1590615a26565b60405180910390fd5b6004548710611e62576040517f08c379a0000000000000000000000000000000000000000000000000000000008152600401611e59906159e6565b60405180910390fd5b85600560008981526020019081526020016000206000019080519060200190611e8c9291906145a5565b5084600560008981526020019081526020016000206004019080519060200190611eb79291906145a5565b50836005600089815260200190815260200160002060050181905550826005600089815260200190815260200160002060060160006101000a81548160ff02191690836009811115611f0557fe5b02179055508691505095945050505050565b6000611f228761174f565b15611f62576040517f08c379a0000000000000000000000000000000000000000000000000000000008152600401611f5990615a66565b60405180910390fd5b85600260008973ffffffffffffffffffffffffffffffffffffffff1673ffffffffffffffffffffffffffffffffffffffff1681526020019081526020016000206000018190555084600260008973ffffffffffffffffffffffffffffffffffffffff1673ffffffffffffffffffffffffffffffffffffffff1681526020019081526020016000206002019080519060200190611fff9291906145a5565b5083600260008973ffffffffffffffffffffffffffffffffffffffff1673ffffffffffffffffffffffffffffffffffffffff16815260200190815260200160002060030190805190602001906120569291906145a5565b5082600260008973ffffffffffffffffffffffffffffffffffffffff1673ffffffffffffffffffffffffffffffffffffffff1681526020019081526020016000206004018190555081600260008973ffffffffffffffffffffffffffffffffffffffff1673ffffffffffffffffffffffffffffffffffffffff16815260200190815260200160002060050190805190602001906120f49291906145a5565b5042600260008973ffffffffffffffffffffffffffffffffffffffff1673ffffffffffffffffffffffffffffffffffffffff168152602001908152602001600020600101819055506005600260008973ffffffffffffffffffffffffffffffffffffffff1673ffffffffffffffffffffffffffffffffffffffff16815260200190815260200160002060060181905550600380549050600260008973ffffffffffffffffffffffffffffffffffffffff1673ffffffffffffffffffffffffffffffffffffffff168152602001908152602001600020600701819055506000600260008973ffffffffffffffffffffffffffffffffffffffff1673ffffffffffffffffffffffffffffffffffffffff16815260200190815260200160002060080160006101000a81548160ff0219169083600281111561222f57fe5b02179055506000600260008973ffffffffffffffffffffffffffffffffffffffff1673ffffffffffffffffffffffffffffffffffffffff16815260200190815260200160002060080160016101000a81548160ff02191690831515021790555060038790806001815401808255809150509060018203906000526020600020016000909192909190916101000a81548173ffffffffffffffffffffffffffffffffffffffff021916908373ffffffffffffffffffffffffffffffffffffffff160217905550506123236040516020016123079061589b565b60405160208183030381529060405280519060200120886141d5565b8673ffffffffffffffffffffffffffffffffffffffff167f4d95910c45b55946e307e5a82f0af42c16742413c0bd4a716e7e3a78e91837ac600260008a73ffffffffffffffffffffffffffffffffffffffff1673ffffffffffffffffffffffffffffffffffffffff16815260200190815260200160002060070154886040516123ad929190615b45565b60405180910390a260016003805490500390509695505050505050565b6123d2614714565b6123db8261174f565b61241a576040517f08c379a0000000000000000000000000000000000000000000000000000000008152600401612411906159a6565b60405180910390fd5b600260008373ffffffffffffffffffffffffffffffffffffffff1673ffffffffffffffffffffffffffffffffffffffff168152602001908152602001600020604051806101400160405290816000820154815260200160018201548152602001600282018054600181600116156101000203166002900480601f0160208091040260200160405190810160405280929190818152602001828054600181600116156101000203166002900480156125125780601f106124e757610100808354040283529160200191612512565b820191906000526020600020905b8154815290600101906020018083116124f557829003601f168201915b50505050508152602001600382018054600181600116156101000203166002900480601f0160208091040260200160405190810160405280929190818152602001828054600181600116156101000203166002900480156125b45780601f10612589576101008083540402835291602001916125b4565b820191906000526020600020905b81548152906001019060200180831161259757829003601f168201915b5050505050815260200160048201548152602001600582018054600181600116156101000203166002900480601f0160208091040260200160405190810160405280929190818152602001828054600181600116156101000203166002900480156126605780601f1061263557610100808354040283529160200191612660565b820191906000526020600020905b81548152906001019060200180831161264357829003601f168201915b5050505050815260200160068201548152602001600782015481526020016008820160009054906101000a900460ff16600281111561269b57fe5b60028111156126a657fe5b81526020016008820160019054906101000a900460ff1615151515815250509050919050565b6060600880548060200260200160405190810160405280929190818152602001828054801561271a57602002820191906000526020600020905b815481526020019060010190808311612706575b5050505050905090565b6000809054906101000a900473ffffffffffffffffffffffffffffffffffffffff1681565b60006001600060405160200161275e906158b0565b60405160208183030381529060405280519060200120815260200190815260200160002060003373ffffffffffffffffffffffffffffffffffffffff1673ffffffffffffffffffffffffffffffffffffffff16815260200190815260200160002060009054906101000a900460ff16156127db5760039050612900565b600160006040516020016127ee9061589b565b60405160208183030381529060405280519060200120815260200190815260200160002060003373ffffffffffffffffffffffffffffffffffffffff1673ffffffffffffffffffffffffffffffffffffffff16815260200190815260200160002060009054906101000a900460ff161561286b5760029050612900565b6001600060405160200161287e90615886565b60405160208183030381529060405280519060200120815260200190815260200160002060003373ffffffffffffffffffffffffffffffffffffffff1673ffffffffffffffffffffffffffffffffffffffff16815260200190815260200160002060009054906101000a900460ff16156128fb5760019050612900565b600090505b90565b60006040516020016129149061589b565b604051602081830303815290604052805190602001206001600082815260200190815260200160002060003373ffffffffffffffffffffffffffffffffffffffff1673ffffffffffffffffffffffffffffffffffffffff16815260200190815260200160002060009054906101000a900460ff166129c7576040517f08c379a00000000000000000000000000000000000000000000000000000000081526004016129be90615a26565b60405180910390fd5b6004548310612a0b576040517f08c379a0000000000000000000000000000000000000000000000000000000008152600401612a02906159e6565b60405180910390fd5b8373ffffffffffffffffffffffffffffffffffffffff163160056000858152602001908152602001600020600a01600160056000878152602001908152602001600020600a01805490500381548110612a6057fe5b906000526020600020015410612a7557600080fd5b60008090505b600660003373ffffffffffffffffffffffffffffffffffffffff1673ffffffffffffffffffffffffffffffffffffffff16815260200190815260200160002080549050811015612c835783600660003373ffffffffffffffffffffffffffffffffffffffff1673ffffffffffffffffffffffffffffffffffffffff1681526020019081526020016000208281548110612b1057fe5b90600052602060002001541415612c7657600660003373ffffffffffffffffffffffffffffffffffffffff1673ffffffffffffffffffffffffffffffffffffffff1681526020019081526020016000206001600660003373ffffffffffffffffffffffffffffffffffffffff1673ffffffffffffffffffffffffffffffffffffffff168152602001908152602001600020805490500381548110612bb057fe5b9060005260206000200154600660003373ffffffffffffffffffffffffffffffffffffffff1673ffffffffffffffffffffffffffffffffffffffff1681526020019081526020016000208281548110612c0557fe5b9060005260206000200181905550600660003373ffffffffffffffffffffffffffffffffffffffff1673ffffffffffffffffffffffffffffffffffffffff168152602001908152602001600020805480612c5b57fe5b60019003818190600052602060002001600090559055612c83565b8080600101915050612a7b565b50600560008481526020019081526020016000206009018490806001815401808255809150509060018203906000526020600020016000909192909190916101000a81548173ffffffffffffffffffffffffffffffffffffffff021916908373ffffffffffffffffffffffffffffffffffffffff16021790555050600660008573ffffffffffffffffffffffffffffffffffffffff1673ffffffffffffffffffffffffffffffffffffffff1681526020019081526020016000208390806001815401808255809150509060018203906000526020600020016000909192909190915055507f9a0bb8b75d36ae23bb26068d749bb1180c244c13c75990b0dd08d096f5d18b18338585604051612d9a939291906158e0565b60405180910390a18291505092915050565b606060076000838152602001908152602001600020805480602002602001604051908101604052809291908181526020018280548015612e0b57602002820191906000526020600020905b815481526020019060010190808311612df7575b50505050509050919050565b6000600380549050905090565b604051602001612e33906158b0565b604051602081830303815290604052805190602001206001600082815260200190815260200160002060003373ffffffffffffffffffffffffffffffffffffffff1673ffffffffffffffffffffffffffffffffffffffff16815260200190815260200160002060009054906101000a900460ff16612ee6576040517f08c379a0000000000000000000000000000000000000000000000000000000008152600401612edd90615a26565b60405180910390fd5b600073ffffffffffffffffffffffffffffffffffffffff168273ffffffffffffffffffffffffffffffffffffffff161415612f56576040517f08c379a0000000000000000000000000000000000000000000000000000000008152600401612f4d90615a86565b60405180910390fd5b60016000604051602001612f6990615886565b60405160208183030381529060405280519060200120815260200190815260200160002060008373ffffffffffffffffffffffffffffffffffffffff1673ffffffffffffffffffffffffffffffffffffffff16815260200190815260200160002060009054906101000a900460ff1615613018576040517f08c379a000000000000000000000000000000000000000000000000000000000815260040161300f90615a46565b60405180910390fd5b61304660405160200161302a90615886565b60405160208183030381529060405280519060200120836141d5565b5050565b604051602001613059906158b0565b604051602081830303815290604052805190602001206001600082815260200190815260200160002060003373ffffffffffffffffffffffffffffffffffffffff1673ffffffffffffffffffffffffffffffffffffffff16815260200190815260200160002060009054906101000a900460ff1661310c576040517f08c379a000000000000000000000000000000000000000000000000000000000815260040161310390615a26565b60405180910390fd5b600073ffffffffffffffffffffffffffffffffffffffff168273ffffffffffffffffffffffffffffffffffffffff16141561317c576040517f08c379a000000000000000000000000000000000000000000000000000000000815260040161317390615a86565b60405180910390fd5b6001600060405160200161318f906158b0565b60405160208183030381529060405280519060200120815260200190815260200160002060008373ffffffffffffffffffffffffffffffffffffffff1673ffffffffffffffffffffffffffffffffffffffff16815260200190815260200160002060009054906101000a900460ff161561323e576040517f08c379a000000000000000000000000000000000000000000000000000000000815260040161323590615a46565b60405180910390fd5b6000809054906101000a900473ffffffffffffffffffffffffffffffffffffffff1673ffffffffffffffffffffffffffffffffffffffff163373ffffffffffffffffffffffffffffffffffffffff1614156132c6576132c16040516020016132a5906158b0565b60405160208183030381529060405280519060200120836141d5565b613301565b6040517f08c379a00000000000000000000000000000000000000000000000000000000081526004016132f890615ac6565b60405180910390fd5b5050565b6000604051602001613316906158b0565b604051602081830303815290604052805190602001206001600082815260200190815260200160002060003373ffffffffffffffffffffffffffffffffffffffff1673ffffffffffffffffffffffffffffffffffffffff16815260200190815260200160002060009054906101000a900460ff166133c9576040517f08c379a00000000000000000000000000000000000000000000000000000000081526004016133c090615a26565b60405180910390fd5b6133d28361174f565b613411576040517f08c379a0000000000000000000000000000000000000000000000000000000008152600401613408906159a6565b60405180910390fd5b60028060008573ffffffffffffffffffffffffffffffffffffffff1673ffffffffffffffffffffffffffffffffffffffff16815260200190815260200160002060080160006101000a81548160ff0219169083600281111561346f57fe5b02179055506001915050919050565b600060405160200161348f9061589b565b604051602081830303815290604052805190602001206001600082815260200190815260200160002060003373ffffffffffffffffffffffffffffffffffffffff1673ffffffffffffffffffffffffffffffffffffffff16815260200190815260200160002060009054906101000a900460ff16613542576040517f08c379a000000000000000000000000000000000000000000000000000000000815260040161353990615a26565b60405180910390fd5b6004548410613586576040517f08c379a000000000000000000000000000000000000000000000000000000000815260040161357d906159e6565b60405180910390fd5b60056000858152602001908152602001600020600a018390806001815401808255809150509060018203906000526020600020016000909192909190915055508391505092915050565b60006040516020016135e19061589b565b604051602081830303815290604052805190602001206001600082815260200190815260200160002060003373ffffffffffffffffffffffffffffffffffffffff1673ffffffffffffffffffffffffffffffffffffffff16815260200190815260200160002060009054906101000a900460ff16613694576040517f08c379a000000000000000000000000000000000000000000000000000000000815260040161368b90615a26565b60405180910390fd5b60045484106136d8576040517f08c379a00000000000000000000000000000000000000000000000000000000081526004016136cf906159e6565b60405180910390fd5b8260056000868152602001908152602001600020600801540160056000868152602001908152602001600020600801819055508391505092915050565b604051602001613724906158b0565b604051602081830303815290604052805190602001206001600082815260200190815260200160002060003373ffffffffffffffffffffffffffffffffffffffff1673ffffffffffffffffffffffffffffffffffffffff16815260200190815260200160002060009054906101000a900460ff166137d7576040517f08c379a00000000000000000000000000000000000000000000000000000000081526004016137ce90615a26565b60405180910390fd5b600160006040516020016137ea9061589b565b60405160208183030381529060405280519060200120815260200190815260200160002060008373ffffffffffffffffffffffffffffffffffffffff1673ffffffffffffffffffffffffffffffffffffffff16815260200190815260200160002060009054906101000a900460ff16613898576040517f08c379a000000000000000000000000000000000000000000000000000000000815260040161388f906159c6565b60405180910390fd5b6138c66040516020016138aa9061589b565b6040516020818303038152906040528051906020012083613dff565b5050565b6040516020016138d9906158b0565b604051602081830303815290604052805190602001206001600082815260200190815260200160002060003373ffffffffffffffffffffffffffffffffffffffff1673ffffffffffffffffffffffffffffffffffffffff16815260200190815260200160002060009054906101000a900460ff1661398c576040517f08c379a000000000000000000000000000000000000000000000000000000000815260040161398390615a26565b60405180910390fd5b600073ffffffffffffffffffffffffffffffffffffffff168273ffffffffffffffffffffffffffffffffffffffff1614156139fc576040517f08c379a00000000000000000000000000000000000000000000000000000000081526004016139f390615a86565b60405180910390fd5b60016000604051602001613a0f9061589b565b60405160208183030381529060405280519060200120815260200190815260200160002060008373ffffffffffffffffffffffffffffffffffffffff1673ffffffffffffffffffffffffffffffffffffffff16815260200190815260200160002060009054906101000a900460ff1615613abe576040517f08c379a0000000000000000000000000000000000000000000000000000000008152600401613ab590615a46565b60405180910390fd5b613aec604051602001613ad09061589b565b60405160208183030381529060405280519060200120836141d5565b5050565b60016020528160005260406000206020528060005260406000206000915091509054906101000a900460ff1681565b6000604051602001613b30906158b0565b604051602081830303815290604052805190602001206001600082815260200190815260200160002060003373ffffffffffffffffffffffffffffffffffffffff1673ffffffffffffffffffffffffffffffffffffffff16815260200190815260200160002060009054906101000a900460ff16613be3576040517f08c379a0000000000000000000000000000000000000000000000000000000008152600401613bda90615a26565b60405180910390fd5b83600260008773ffffffffffffffffffffffffffffffffffffffff1673ffffffffffffffffffffffffffffffffffffffff1681526020019081526020016000206006018190555082600260008773ffffffffffffffffffffffffffffffffffffffff1673ffffffffffffffffffffffffffffffffffffffff16815260200190815260200160002060080160006101000a81548160ff02191690836002811115613c8857fe5b02179055508473ffffffffffffffffffffffffffffffffffffffff167f1c0430843928b357f7d24810221fa7272098d6a01bb685a3a762ce31ed16fa8b600260008873ffffffffffffffffffffffffffffffffffffffff1673ffffffffffffffffffffffffffffffffffffffff16815260200190815260200160002060070154600260008973ffffffffffffffffffffffffffffffffffffffff1673ffffffffffffffffffffffffffffffffffffffff16815260200190815260200160002060060154600260008a73ffffffffffffffffffffffffffffffffffffffff1673ffffffffffffffffffffffffffffffffffffffff16815260200190815260200160002060080160009054906101000a900460ff16604051613daa93929190615b6e565b60405180910390a260019150509392505050565b600060038281548110613dcd57fe5b9060005260206000200160009054906101000a900473ffffffffffffffffffffffffffffffffffffffff169050919050565b604051602001613e0e906158b0565b60405160208183030381529060405280519060200120821415613fd757600060016000604051602001613e40906158b0565b60405160208183030381529060405280519060200120815260200190815260200160002060008373ffffffffffffffffffffffffffffffffffffffff1673ffffffffffffffffffffffffffffffffffffffff16815260200190815260200160002060006101000a81548160ff021916908315150217905550600060016000604051602001613ecd90615886565b60405160208183030381529060405280519060200120815260200190815260200160002060008373ffffffffffffffffffffffffffffffffffffffff1673ffffffffffffffffffffffffffffffffffffffff16815260200190815260200160002060006101000a81548160ff021916908315150217905550600060016000604051602001613f5a9061589b565b60405160208183030381529060405280519060200120815260200190815260200160002060008373ffffffffffffffffffffffffffffffffffffffff1673ffffffffffffffffffffffffffffffffffffffff16815260200190815260200160002060006101000a81548160ff02191690831515021790555061418d565b604051602001613fe69061589b565b604051602081830303815290604052805190602001208214156141225760006001600060405160200161401890615886565b60405160208183030381529060405280519060200120815260200190815260200160002060008373ffffffffffffffffffffffffffffffffffffffff1673ffffffffffffffffffffffffffffffffffffffff16815260200190815260200160002060006101000a81548160ff0219169083151502179055506000600160006040516020016140a59061589b565b60405160208183030381529060405280519060200120815260200190815260200160002060008373ffffffffffffffffffffffffffffffffffffffff1673ffffffffffffffffffffffffffffffffffffffff16815260200190815260200160002060006101000a81548160ff02191690831515021790555061418c565b60006001600084815260200190815260200160002060008373ffffffffffffffffffffffffffffffffffffffff1673ffffffffffffffffffffffffffffffffffffffff16815260200190815260200160002060006101000a81548160ff0219169083151502179055505b5b8073ffffffffffffffffffffffffffffffffffffffff16827f361ed204aa01d4d75ba515bde961d40c21f3791b474bb581df5d00e38b2be7bb60405160405180910390a35050565b6040516020016141e4906158b0565b604051602081830303815290604052805190602001208214156143aa576001806000604051602001614215906158b0565b60405160208183030381529060405280519060200120815260200190815260200160002060008373ffffffffffffffffffffffffffffffffffffffff1673ffffffffffffffffffffffffffffffffffffffff16815260200190815260200160002060006101000a81548160ff02191690831515021790555060018060006040516020016142a190615886565b60405160208183030381529060405280519060200120815260200190815260200160002060008373ffffffffffffffffffffffffffffffffffffffff1673ffffffffffffffffffffffffffffffffffffffff16815260200190815260200160002060006101000a81548160ff021916908315150217905550600180600060405160200161432d9061589b565b60405160208183030381529060405280519060200120815260200190815260200160002060008373ffffffffffffffffffffffffffffffffffffffff1673ffffffffffffffffffffffffffffffffffffffff16815260200190815260200160002060006101000a81548160ff02191690831515021790555061455d565b6040516020016143b99061589b565b604051602081830303815290604052805190602001208214156144f35760018060006040516020016143ea90615886565b60405160208183030381529060405280519060200120815260200190815260200160002060008373ffffffffffffffffffffffffffffffffffffffff1673ffffffffffffffffffffffffffffffffffffffff16815260200190815260200160002060006101000a81548160ff02191690831515021790555060018060006040516020016144769061589b565b60405160208183030381529060405280519060200120815260200190815260200160002060008373ffffffffffffffffffffffffffffffffffffffff1673ffffffffffffffffffffffffffffffffffffffff16815260200190815260200160002060006101000a81548160ff02191690831515021790555061455c565b600180600084815260200190815260200160002060008373ffffffffffffffffffffffffffffffffffffffff1673ffffffffffffffffffffffffffffffffffffffff16815260200190815260200160002060006101000a81548160ff0219169083151502179055505b5b8073ffffffffffffffffffffffffffffffffffffffff16827f5a06360d65acf95e98445dc834f205063424c636e65418d928cdfabc33a9539960405160405180910390a35050565b828054600181600116156101000203166002900490600052602060002090601f016020900481019282601f106145e657805160ff1916838001178555614614565b82800160010185558215614614579182015b828111156146135782518255916020019190600101906145f8565b5b509050614621919061477a565b5090565b6040518061018001604052806060815260200160608152602001600081526020016060815260200160608152602001600080191681526020016000600981111561466b57fe5b815260200160008152602001600081526020016060815260200160608152602001606081525090565b828054600181600116156101000203166002900490600052602060002090601f016020900481019282601f106146d557803560ff1916838001178555614703565b82800160010185558215614703579182015b828111156147025782358255916020019190600101906146e7565b5b509050614710919061477a565b5090565b60405180610140016040528060008019168152602001600081526020016060815260200160608152602001600080191681526020016060815260200160008152602001600081526020016000600281111561476b57fe5b81526020016000151581525090565b61479c91905b80821115614798576000816000905550600101614780565b5090565b90565b6000813590506147ae81615eed565b92915050565b600082601f8301126147c557600080fd5b81356147d86147d382615bed565b615bc0565b915081818352602084019350602081019050838560208402820111156147fd57600080fd5b60005b8381101561482d57816148138882614837565b845260208401935060208301925050600181019050614800565b5050505092915050565b60008135905061484681615f04565b92915050565b60008135905061485b81615f1b565b92915050565b60008135905061487081615f2b565b92915050565b60008083601f84011261488857600080fd5b8235905067ffffffffffffffff8111156148a157600080fd5b6020830191508360018202830111156148b957600080fd5b9250929050565b600082601f8301126148d157600080fd5b81356148e46148df82615c15565b615bc0565b9150808252602083016020830185838301111561490057600080fd5b61490b838284615e80565b50505092915050565b60008135905061492381615f3b565b92915050565b60006020828403121561493b57600080fd5b60006149498482850161479f565b91505092915050565b60008060008060008060008060008060e08b8d03121561497157600080fd5b600061497f8d828e0161479f565b9a505060206149908d828e01614837565b99505060408b013567ffffffffffffffff8111156149ad57600080fd5b6149b98d828e01614876565b985098505060608b013567ffffffffffffffff8111156149d857600080fd5b6149e48d828e01614876565b965096505060806149f78d828e01614837565b94505060a08b013567ffffffffffffffff811115614a1457600080fd5b614a208d828e01614876565b935093505060c0614a338d828e01614861565b9150509295989b9194979a5092959850565b60008060008060008060c08789031215614a5e57600080fd5b6000614a6c89828a0161479f565b9650506020614a7d89828a01614837565b955050604087013567ffffffffffffffff811115614a9a57600080fd5b614aa689828a016148c0565b945050606087013567ffffffffffffffff811115614ac357600080fd5b614acf89828a016148c0565b9350506080614ae089828a01614837565b92505060a087013567ffffffffffffffff811115614afd57600080fd5b614b0989828a016148c0565b9150509295509295509295565b60008060008060008060008060006101208a8c031215614b3557600080fd5b6000614b438c828d0161479f565b99505060208a013567ffffffffffffffff811115614b6057600080fd5b614b6c8c828d016148c0565b98505060408a013567ffffffffffffffff811115614b8957600080fd5b614b958c828d016148c0565b9750506060614ba68c828d01614914565b96505060808a013567ffffffffffffffff811115614bc357600080fd5b614bcf8c828d016148c0565b95505060a08a013567ffffffffffffffff811115614bec57600080fd5b614bf88c828d016148c0565b94505060c0614c098c828d01614837565b93505060e0614c1a8c828d0161484c565b925050610100614c2c8c828d01614914565b9150509295985092959850929598565b60008060408385031215614c4f57600080fd5b6000614c5d8582860161479f565b9250506020614c6e85828601614914565b9150509250929050565b600080600060608486031215614c8d57600080fd5b6000614c9b8682870161479f565b9350506020614cac86828701614914565b9250506040614cbd86828701614861565b9150509250925092565b600060208284031215614cd957600080fd5b6000614ce784828501614837565b91505092915050565b60008060408385031215614d0357600080fd5b6000614d1185828601614837565b9250506020614d228582860161479f565b9150509250929050565b600060208284031215614d3e57600080fd5b6000614d4c84828501614914565b91505092915050565b60008060408385031215614d6857600080fd5b6000614d7685828601614914565b925050602083013567ffffffffffffffff811115614d9357600080fd5b614d9f858286016147b4565b9150509250929050565b600080600080600060a08688031215614dc157600080fd5b6000614dcf88828901614914565b955050602086013567ffffffffffffffff811115614dec57600080fd5b614df8888289016148c0565b945050604086013567ffffffffffffffff811115614e1557600080fd5b614e21888289016148c0565b9350506060614e3288828901614837565b9250506080614e438882890161484c565b9150509295509295909350565b60008060008060808587031215614e6657600080fd5b6000614e7487828801614914565b945050602085013567ffffffffffffffff811115614e9157600080fd5b614e9d878288016148c0565b9350506040614eae87828801614914565b925050606085013567ffffffffffffffff811115614ecb57600080fd5b614ed7878288016148c0565b91505092959194509250565b60008060408385031215614ef657600080fd5b6000614f0485828601614914565b9250506020614f1585828601614914565b9150509250929050565b6000614f2b8383614f76565b60208301905092915050565b6000614f438383615188565b60208301905092915050565b6000614f5b8383615859565b60208301905092915050565b614f7081615e26565b82525050565b614f7f81615da1565b82525050565b614f8e81615da1565b82525050565b6000614f9f82615c91565b614fa98185615d1f565b9350614fb483615c41565b8060005b83811015614fe5578151614fcc8882614f1f565b9750614fd783615cde565b925050600181019050614fb8565b5085935050505092915050565b6000614ffd82615ca7565b6150078185615d41565b935061501283615c61565b8060005b8381101561504357815161502a8882614f37565b975061503583615cf8565b925050600181019050615016565b5085935050505092915050565b600061505b82615c9c565b6150658185615d30565b935061507083615c51565b8060005b838110156150a15781516150888882614f37565b975061509383615ceb565b925050600181019050615074565b5085935050505092915050565b60006150b982615cbd565b6150c38185615d63565b93506150ce83615c81565b8060005b838110156150ff5781516150e68882614f4f565b97506150f183615d12565b9250506001810190506150d2565b5085935050505092915050565b600061511782615cb2565b6151218185615d52565b935061512c83615c71565b8060005b8381101561515d5781516151448882614f4f565b975061514f83615d05565b925050600181019050615130565b5085935050505092915050565b61517381615db3565b82525050565b61518281615db3565b82525050565b61519181615dbf565b82525050565b6151a081615dbf565b82525050565b6151af81615e38565b82525050565b6151be81615e4a565b82525050565b6151cd81615e4a565b82525050565b60006151de82615cd3565b6151e88185615d85565b93506151f8818560208601615e8f565b61520181615ec2565b840191505092915050565b600061521782615cc8565b6152218185615d74565b9350615231818560208601615e8f565b61523a81615ec2565b840191505092915050565b6000615252601f83615d85565b91507f557365722061646472657373206973206e6f7420696e697469616c697a6564006000830152602082019050919050565b6000615292603283615d85565b91507f54686973206164647265737320646f6573206e6f74206861766520746865207260008301527f6f6c6520746f206265207265766f6b65642e00000000000000000000000000006020830152604082019050919050565b60006152f8600483615d96565b91507f52656164000000000000000000000000000000000000000000000000000000006000830152600482019050919050565b6000615338601383615d85565b91507f4e6f2066696c65206861732074686973206964000000000000000000000000006000830152602082019050919050565b6000615378600583615d96565b91507f57726974650000000000000000000000000000000000000000000000000000006000830152600582019050919050565b60006153b8602483615d85565b91507f41646d696e206e6f7420617574686f72697a656420746f2064656c657465206f60008301527f776e6572000000000000000000000000000000000000000000000000000000006020830152604082019050919050565b600061541e600583615d96565b91507f41646d696e0000000000000000000000000000000000000000000000000000006000830152600582019050919050565b600061545e600f83615d85565b91507f4e6f7420617574686f72697a65642100000000000000000000000000000000006000830152602082019050919050565b600061549e602383615d85565b91507f54686973206164647265737320616c726561647920686173207468697320726f60008301527f6c652100000000000000000000000000000000000000000000000000000000006020830152604082019050919050565b6000615504601c83615d85565b91507f55736572206164647265737320697320616c72656164792075736564000000006000830152602082019050919050565b6000615544602383615d85565b91507f526f6c65733a206163636f756e7420697320746865207a65726f20616464726560008301527f73732100000000000000000000000000000000000000000000000000000000006020830152604082019050919050565b60006155aa601e83615d85565b91507f4e6f7420616c6c6f77656420746f2073657420746869732073746174757300006000830152602082019050919050565b60006155ea602683615d85565b91507f41646d696e20636f756c64206e6f742073657420616e6f746865722061646d6960008301527f6e20726f6c6500000000000000000000000000000000000000000000000000006020830152604082019050919050565b6000610180830160008301518482036000860152615661828261520c565b9150506020830151848203602086015261567b828261520c565b91505060408301516156906040860182615859565b50606083015184820360608601526156a8828261520c565b915050608083015184820360808601526156c2828261520c565b91505060a08301516156d760a0860182615188565b5060c08301516156ea60c08601826151a6565b5060e08301516156fd60e0860182615859565b50610100830151615712610100860182615859565b5061012083015184820361012086015261572c8282614f94565b915050610140830151848203610140860152615748828261510c565b9150506101608301518482036101608601526157648282615050565b9150508091505092915050565b60006101408301600083015161578a6000860182615188565b50602083015161579d6020860182615859565b50604083015184820360408601526157b5828261520c565b915050606083015184820360608601526157cf828261520c565b91505060808301516157e46080860182615188565b5060a083015184820360a08601526157fc828261520c565b91505060c083015161581160c0860182615859565b5060e083015161582460e0860182615859565b506101008301516158396101008601826151b5565b5061012083015161584e61012086018261516a565b508091505092915050565b61586281615e0f565b82525050565b61587181615e0f565b82525050565b61588081615e19565b82525050565b6000615891826152eb565b9150819050919050565b60006158a68261536b565b9150819050919050565b60006158bb82615411565b9150819050919050565b60006020820190506158da6000830184614f85565b92915050565b60006060820190506158f56000830186614f67565b6159026020830185614f85565b61590f6040830184615868565b949350505050565b600060208201905081810360008301526159318184614ff2565b905092915050565b6000602082019050818103600083015261595381846150ae565b905092915050565b60006020820190506159706000830184615179565b92915050565b6000604082019050818103600083015261599081856151d3565b905061599f6020830184615868565b9392505050565b600060208201905081810360008301526159bf81615245565b9050919050565b600060208201905081810360008301526159df81615285565b9050919050565b600060208201905081810360008301526159ff8161532b565b9050919050565b60006020820190508181036000830152615a1f816153ab565b9050919050565b60006020820190508181036000830152615a3f81615451565b9050919050565b60006020820190508181036000830152615a5f81615491565b9050919050565b60006020820190508181036000830152615a7f816154f7565b9050919050565b60006020820190508181036000830152615a9f81615537565b9050919050565b60006020820190508181036000830152615abf8161559d565b9050919050565b60006020820190508181036000830152615adf816155dd565b9050919050565b60006020820190508181036000830152615b008184615643565b905092915050565b60006020820190508181036000830152615b228184615771565b905092915050565b6000602082019050615b3f6000830184615868565b92915050565b6000604082019050615b5a6000830185615868565b615b676020830184615197565b9392505050565b6000606082019050615b836000830186615868565b615b906020830185615868565b615b9d60408301846151c4565b949350505050565b6000602082019050615bba6000830184615877565b92915050565b6000604051905081810181811067ffffffffffffffff82111715615be357600080fd5b8060405250919050565b600067ffffffffffffffff821115615c0457600080fd5b602082029050602081019050919050565b600067ffffffffffffffff821115615c2c57600080fd5b601f19601f8301169050602081019050919050565b6000819050602082019050919050565b6000819050602082019050919050565b6000819050602082019050919050565b6000819050602082019050919050565b6000819050602082019050919050565b600081519050919050565b600081519050919050565b600081519050919050565b600081519050919050565b600081519050919050565b600081519050919050565b600081519050919050565b6000602082019050919050565b6000602082019050919050565b6000602082019050919050565b6000602082019050919050565b6000602082019050919050565b600082825260208201905092915050565b600082825260208201905092915050565b600082825260208201905092915050565b600082825260208201905092915050565b600082825260208201905092915050565b600082825260208201905092915050565b600082825260208201905092915050565b600081905092915050565b6000615dac82615def565b9050919050565b60008115159050919050565b6000819050919050565b6000819050615dd782615ed3565b919050565b6000819050615dea82615ee0565b919050565b600073ffffffffffffffffffffffffffffffffffffffff82169050919050565b6000819050919050565b600060ff82169050919050565b6000615e3182615e5c565b9050919050565b6000615e4382615dc9565b9050919050565b6000615e5582615ddc565b9050919050565b6000615e6782615e6e565b9050919050565b6000615e7982615def565b9050919050565b82818337600083830152505050565b60005b83811015615ead578082015181840152602081019050615e92565b83811115615ebc576000848401525b50505050565b6000601f19601f8301169050919050565b600a8110615edd57fe5b50565b60038110615eea57fe5b50565b615ef681615da1565b8114615f0157600080fd5b50565b615f0d81615dbf565b8114615f1857600080fd5b50565b600a8110615f2857600080fd5b50565b60038110615f3857600080fd5b50565b615f4481615e0f565b8114615f4f57600080fd5b5056fea365627a7a723158206d6a1749c7fd9f315cc882211caed68c9823af563fa45b8138bf2b6d67e943536c6578706572696d656e74616cf564736f6c63430005110040",
  "source": "// SPDX-License-Identifier: MIT\r\npragma solidity >=0.4.21 <0.9.0;\r\npragma experimental ABIEncoderV2;\r\n\r\ncontract Users {\r\n    // Data used for roles and security\r\n  address public owner;\r\n  bytes32 private constant Admin = keccak256(abi.encodePacked(\"Admin\"));\r\n  bytes32 private constant Read = keccak256(abi.encodePacked(\"Read\"));\r\n  bytes32 private constant Write = keccak256(abi.encodePacked(\"Write\"));\r\n  mapping(bytes32 => mapping(address => bool)) public roles;\r\n  event GrantRole(bytes32 indexed role, address indexed account);\r\n  event RemoveRole(bytes32 indexed role, address indexed account);\r\n\r\n    // Data used to store information about users and their assets\r\n  enum RightsCategory {\r\n    PersonalUseOnly,\r\n    CommercialUse,\r\n    Attribution,\r\n    DerivativeWorks,\r\n    NonTransferable,\r\n    LimitedEdition,\r\n    EducationalUse,\r\n    ResaleRights,\r\n    Expiration,\r\n    RegionSpecific\r\n  }\r\n  enum VerificationStatus {\r\n    NotVerified,\r\n    InProgress,\r\n    Verified\r\n  }\r\n  struct UploadedFile {\r\n    string fileTitle;\r\n    string fileReference;\r\n    uint fileSize;\r\n    string fileType;\r\n    string description;\r\n    bytes32 country;\r\n    RightsCategory ownershipRights;\r\n    uint uploadDate;\r\n    uint likes;\r\n    address[] pastOwners;\r\n    uint[] priceForTransfer;\r\n    bytes32[] conenctedTags;\r\n  }\r\n  struct UserModelStruct {\r\n    bytes32 userEmail;\r\n    uint dateOfRegistration;\r\n    string firstName;\r\n    string lastName;\r\n    bytes32 country;\r\n    string description;\r\n    uint allowedUploads;\r\n    uint index;\r\n    VerificationStatus verifyStatus;\r\n    bool uploadingInProgess;\r\n  }\r\n  mapping(address => UserModelStruct) private userModels;\r\n  address[] private userPointer;\r\n  event CreatedUser(address indexed userAddress, uint index, bytes32 userEmail);\r\n  event UpdatedUser(address indexed userAddress, uint index, bytes32 userEmail);\r\n  event DeletedUser(address userAddress, uint index);\r\n  event LogUpdateUserByAdmin(address indexed userAddress, uint index, uint allowedUploads, VerificationStatus verifyStatus);\r\n\r\n  uint fileCounter;\r\n  mapping(uint => UploadedFile) files;\r\n  mapping(address => uint[]) personalUserfiles;\r\n  mapping(bytes32 => uint[]) tagFiles;\r\n  bytes32[] tags;\r\n\r\n  event AddedFile(string fileReference, uint index);\r\n  event TransferredFile(address oldOwner, address newOwner, uint fileId);\r\n\r\n  constructor() public {\r\n    owner = msg.sender;\r\n    _grantRole(Admin, msg.sender);\r\n  }\r\n///----------------------------------------------------- ROLES LOGIC -----------------------------------------\r\n  modifier onlyRole (bytes32 _role) {\r\n    require(roles[_role][msg.sender], \"Not authorized!\");\r\n    _;\r\n  }\r\n  function _grantRole(bytes32 _role, address _account) internal {\r\n    if (_role==Admin){\r\n        roles[Admin][_account]=true;\r\n        roles[Read][_account]=true;\r\n        roles[Write][_account]=true;\r\n    } else if (_role==Write){\r\n        roles[Read][_account]=true;\r\n        roles[Write][_account]=true;\r\n    } else {\r\n        roles[_role][_account]=true;\r\n    }\r\n\r\n    emit GrantRole(_role, _account);\r\n  }\r\n\r\n  function grantAdminRole(address _account) external onlyRole(Admin) {\r\n    require(_account != address(0), \"Roles: account is the zero address!\");\r\n    require(!roles[Admin][_account], \"This address already has this role!\");\r\n    if (msg.sender == owner) {\r\n        _grantRole(Admin, _account);\r\n    }\r\n    else {\r\n        revert(\"Admin could not set another admin role\");\r\n    }\r\n  }\r\n\r\n  function grantWriteRole(address _account) external onlyRole(Admin) {\r\n    require(_account != address(0), \"Roles: account is the zero address!\");\r\n    require(!roles[Write][_account], \"This address already has this role!\");\r\n    _grantRole(Write, _account);\r\n  }\r\n\r\n  function grantReadRole(address _account) external onlyRole(Admin) {\r\n    require(_account != address(0), \"Roles: account is the zero address!\");\r\n    require(!roles[Read][_account], \"This address already has this role!\");\r\n    _grantRole(Read, _account);\r\n  }\r\n\r\n  function _deleteRole(bytes32 _role, address _account) internal {\r\n    if (_role==Admin){\r\n        roles[Admin][_account]=false;\r\n        roles[Read][_account]=false;\r\n        roles[Write][_account]=false;\r\n    } else if (_role==Write){\r\n        roles[Read][_account]=false;\r\n        roles[Write][_account]=false;\r\n    } else {\r\n        roles[_role][_account]=false;\r\n    }\r\n\r\n    emit RemoveRole(_role, _account);\r\n  }\r\n\r\n  function deleteAdminRole(address _account) external onlyRole(Admin) {\r\n    require(roles[Admin][_account], \"This address does not have the role to be revoked.\");\r\n    if (msg.sender == owner) {\r\n        _deleteRole(Admin, _account);\r\n    }\r\n    else {\r\n        revert(\"Admin not authorized to delete owner\");\r\n    }\r\n  }\r\n  function deleteWriteRole(address _account) external onlyRole(Admin) {\r\n    require(roles[Write][_account], \"This address does not have the role to be revoked.\");\r\n    _deleteRole(Write, _account);\r\n  }\r\n\r\n  function deleteReadRole(address _account) external onlyRole(Admin) {\r\n    require(roles[Read][_account], \"This address does not have the role to be revoked.\");\r\n    _deleteRole(Read, _account);\r\n  }\r\n\r\n  function getRoleForUser() external view returns(uint8 role){\r\n    if (roles[Admin][msg.sender]){\r\n      return 3;\r\n    } else if (roles[Write][msg.sender]){\r\n      return 2;\r\n    } else if (roles[Read][msg.sender]){\r\n      return 1;\r\n    }\r\n    return 0;\r\n  }\r\n\r\n///----------------------------------------------------- ROLES LOGIC END--------------------------------------\r\n////***************************************************** USER LOGIC  ******************************************\r\n  function isUser(address userAddress) public view returns(bool isRegistered) { //view: do not alter the state of the contract or the blockchain in any way.\r\n    if(userPointer.length == 0) return false;\r\n    return (userPointer[userModels[userAddress].index] == userAddress);\r\n  }\r\n\r\n  function getUserCount() public view returns(uint count)\r\n  {\r\n    return userPointer.length;\r\n  }\r\n\r\n  function getUserAtIndex(uint index) public view returns(address userAddress)\r\n  {\r\n    return userPointer[index];\r\n  }\r\n\r\n  function insertUser(address userAddress, \r\n    bytes32 userEmail,\r\n    string memory firstName,\r\n    string memory lastName,\r\n    bytes32 country,\r\n    string memory description) public returns(uint index) {\r\n    require(!isUser(userAddress), \"User address is already used\");\r\n    userModels[userAddress].userEmail = userEmail;\r\n    userModels[userAddress].firstName = firstName;\r\n    userModels[userAddress].lastName = lastName;\r\n    userModels[userAddress].country = country;\r\n    userModels[userAddress].description = description;\r\n\r\n    userModels[userAddress].dateOfRegistration = block.timestamp;\r\n    userModels[userAddress].allowedUploads = 5;\r\n    userModels[userAddress].index = userPointer.length;\r\n    userModels[userAddress].verifyStatus = VerificationStatus.NotVerified;\r\n    userModels[userAddress].uploadingInProgess = false;\r\n\r\n    userPointer.push(userAddress);\r\n    _grantRole(Write, userAddress);\r\n    emit CreatedUser(userAddress, userModels[userAddress].index, userEmail);\r\n    return userPointer.length-1;\r\n  }\r\n\r\n  function getUser(address userAddress) public view\r\n    returns(UserModelStruct memory)\r\n  {\r\n    require(isUser(userAddress), \"User address is not initialized\");\r\n    return userModels[userAddress];\r\n  }\r\n\r\n  function updateUserByAdmin(address userAddress, uint allowedUploads, VerificationStatus verifyStatus) external onlyRole(Admin) returns(bool success) \r\n  {\r\n    userModels[userAddress].allowedUploads = allowedUploads;\r\n    userModels[userAddress].verifyStatus = verifyStatus;\r\n    emit LogUpdateUserByAdmin(\r\n      userAddress, \r\n      userModels[userAddress].index,\r\n      userModels[userAddress].allowedUploads,\r\n      userModels[userAddress].verifyStatus);\r\n    return true;\r\n  }\r\n\r\n  function updateUser(address userAddress, \r\n    bytes32 userEmail,\r\n    string calldata firstName,\r\n    string calldata lastName,\r\n    bytes32 country,\r\n    string calldata description,\r\n    VerificationStatus verifyStatus) external returns(bool success) \r\n  {\r\n    require(isUser(userAddress), \"User address is not initialized\");\r\n    require(verifyStatus != VerificationStatus.Verified, \"Not allowed to set this status\");\r\n    userModels[userAddress].userEmail = userEmail;\r\n    userModels[userAddress].firstName = firstName;\r\n    userModels[userAddress].lastName = lastName;\r\n    userModels[userAddress].country = country;\r\n    userModels[userAddress].description = description;\r\n    userModels[userAddress].verifyStatus = verifyStatus;\r\n    emit UpdatedUser(\r\n      userAddress, \r\n      userModels[userAddress].index,\r\n      userModels[userAddress].userEmail);\r\n    return true;\r\n  }\r\n\r\n  function setVerified(address userAddress) external onlyRole(Admin) returns(bool isRegistered) { \r\n    require(isUser(userAddress), \"User address is not initialized\");\r\n    userModels[userAddress].verifyStatus = VerificationStatus.Verified;\r\n    return true;\r\n  }\r\n\r\n////***************************************************** USER LOGIC END ***************************************\r\n\r\n  function getFilesForAddress(address userAddress) public view returns(uint[] memory filesForAddress){\r\n    return personalUserfiles[userAddress];\r\n  }\r\n\r\n  function getFilesForTag(bytes32 tag) public view returns(uint[] memory filesForTag){\r\n    return tagFiles[tag];\r\n  }\r\n  function getFile(uint fileId) public view returns (UploadedFile memory) {\r\n    return files[fileId];\r\n  }\r\n\r\n  function getAllTags() public view returns (bytes32[] memory) {\r\n    return tags;\r\n  }\r\n\r\n  function addNewTagsToFile(uint fileId, bytes32[] memory newTags) public onlyRole(Write) returns(bool areTagsAdded) {\r\n    require(fileId < fileCounter, \"No file has this id\");\r\n    for (uint i = 0; i < newTags.length; i++) {\r\n      tags.push(newTags[i]);\r\n      tagFiles[newTags[i]].push(fileId);\r\n      files[fileId].conenctedTags.push(newTags[i]);\r\n    }\r\n    return true;\r\n  }\r\n\r\n  function addTagsToFile(uint fileId, bytes32[] memory existingTags) public onlyRole(Write) returns(bool areTagsAdded) {\r\n    require(fileId < fileCounter, \"No file has this id\");\r\n    for (uint i = 0; i < existingTags.length; i++) {\r\n      tagFiles[existingTags[i]].push(fileId);\r\n      files[fileId].conenctedTags.push(existingTags[i]);\r\n    }\r\n    return true;\r\n  }\r\n\r\n  function addFile(address userAddress, \r\n    string memory fileTitle,\r\n    string memory fileReference,\r\n    uint fileSize,\r\n    string memory fileType,\r\n    string memory description,\r\n    bytes32 country,\r\n    RightsCategory ownershipRights,\r\n    uint priceForTransfer) public onlyRole(Write) returns(uint index) {\r\n\r\n    require(isUser(userAddress), \"User address is not initialized\");\r\n    files[fileCounter].fileTitle = fileTitle;\r\n    files[fileCounter].fileReference = fileReference;\r\n    files[fileCounter].fileSize = fileSize;\r\n    files[fileCounter].fileType = fileType;\r\n    files[fileCounter].description = description;\r\n    files[fileCounter].country = country;\r\n    files[fileCounter].ownershipRights = ownershipRights;\r\n    files[fileCounter].uploadDate = block.timestamp;\r\n    files[fileCounter].likes = 0;\r\n    files[fileCounter].pastOwners.push(userAddress);\r\n    files[fileCounter].priceForTransfer.push(priceForTransfer);\r\n\r\n    personalUserfiles[userAddress].push(fileCounter);\r\n    userModels[userAddress].uploadingInProgess = false;\r\n\r\n    emit AddedFile(fileReference, fileCounter);\r\n    fileCounter++;\r\n    return fileCounter-1;\r\n  }\r\n  \r\n  function editFilePresentation( uint fileId,\r\n    string memory fileTitle,\r\n    string memory description,\r\n    bytes32 country,\r\n    RightsCategory ownershipRights) public onlyRole(Write) returns(uint index) {\r\n    require(fileId < fileCounter, \"No file has this id\");\r\n\r\n    files[fileId].fileTitle = fileTitle;\r\n    files[fileId].description = description;\r\n    files[fileId].country = country;\r\n    files[fileId].ownershipRights = ownershipRights;\r\n\r\n    return fileId;\r\n  }\r\n\r\n  function editFileTehnical( uint fileId,\r\n    string memory fileReference,\r\n    uint fileSize,\r\n    string memory fileType) public onlyRole(Write) returns(uint index) {\r\n    require(fileId < fileCounter, \"No file has this id\");\r\n\r\n    files[fileId].fileReference = fileReference;\r\n    files[fileId].fileSize = fileSize;\r\n    files[fileId].fileType = fileType;\r\n\r\n    return fileId;\r\n  }\r\n  //edit price for transfer\r\n  function editPrice( uint fileId, uint newPrice) external onlyRole(Write) returns(uint index) {\r\n    require(fileId < fileCounter, \"No file has this id\");\r\n    files[fileId].priceForTransfer.push(newPrice);\r\n    return fileId;\r\n  }\r\n  //add like\r\n    function changeLike ( uint fileId, uint increaseByAmount) external onlyRole(Write) returns(uint index) {\r\n    require(fileId < fileCounter, \"No file has this id\");\r\n    files[fileId].likes = files[fileId].likes + increaseByAmount;\r\n    return fileId;\r\n  }\r\n\r\n  //called by owner ; should this be modified to be called by the buyer?\r\n  function changeOwnerFile(address newUserAddress, uint fileId) public onlyRole(Write) returns(uint index){\r\n    require(fileId < fileCounter, \"No file has this id\");\r\n    //money\r\n    require(files[fileId].priceForTransfer[files[fileId].priceForTransfer.length-1] < newUserAddress.balance);\r\n    //old owner\r\n    for (uint i = 0; i < personalUserfiles[msg.sender].length; i++) {\r\n      if (personalUserfiles[msg.sender][i] == fileId) {\r\n        personalUserfiles[msg.sender][i] = personalUserfiles[msg.sender][personalUserfiles[msg.sender].length - 1];\r\n\r\n        personalUserfiles[msg.sender].pop();\r\n        break;\r\n      }\r\n    }\r\n    //history\r\n    files[fileId].pastOwners.push(newUserAddress);\r\n    //new owner\r\n    personalUserfiles[newUserAddress].push(fileId);\r\n    emit TransferredFile(msg.sender, newUserAddress, fileId);\r\n    return fileId;\r\n  }\r\n\r\n}",
  "sourcePath": "C:\\Users\\andre\\Desktop\\Licenta2\\Licenta2\\App\\src\\contracts\\Users.sol",
  "compiler": {
    "name": "solc",
    "version": "0.5.17+commit.d19bba13.Emscripten.clang"
  },
  "schemaVersion": "3.4.13",
  "updatedAt": "2023-08-19T14:45:12.745Z",
  "networkType": "ethereum",
  "devdoc": {
    "methods": {}
  },
  "userdoc": {
    "methods": {
      "getFilesForAddress(address)": {
        "notice": "/***************************************************** USER LOGIC END ***************************************"
      },
      "isUser(address)": {
        "notice": "----------------------------------------------------- ROLES LOGIC END-------------------------------------- /***************************************************** USER LOGIC  ******************************************"
      }
    }
  }
}