{
  "contractName": "Users",
  "abi": [
    {
      "inputs": [],
      "payable": false,
      "stateMutability": "nonpayable",
      "type": "constructor"
    },
    {
      "anonymous": false,
      "inputs": [
        {
          "indexed": false,
          "internalType": "string",
          "name": "fileReference",
          "type": "string"
        },
        {
          "indexed": false,
          "internalType": "uint256",
          "name": "index",
          "type": "uint256"
        }
      ],
      "name": "AddedFile",
      "type": "event"
    },
    {
      "anonymous": false,
      "inputs": [
        {
          "indexed": true,
          "internalType": "address",
          "name": "userAddress",
          "type": "address"
        },
        {
          "indexed": false,
          "internalType": "uint256",
          "name": "index",
          "type": "uint256"
        },
        {
          "indexed": false,
          "internalType": "bytes32",
          "name": "userEmail",
          "type": "bytes32"
        }
      ],
      "name": "CreatedUser",
      "type": "event"
    },
    {
      "anonymous": false,
      "inputs": [
        {
          "indexed": false,
          "internalType": "address",
          "name": "userAddress",
          "type": "address"
        },
        {
          "indexed": false,
          "internalType": "uint256",
          "name": "index",
          "type": "uint256"
        }
      ],
      "name": "DeletedUser",
      "type": "event"
    },
    {
      "anonymous": false,
      "inputs": [
        {
          "indexed": true,
          "internalType": "bytes32",
          "name": "role",
          "type": "bytes32"
        },
        {
          "indexed": true,
          "internalType": "address",
          "name": "account",
          "type": "address"
        }
      ],
      "name": "GrantRole",
      "type": "event"
    },
    {
      "anonymous": false,
      "inputs": [
        {
          "indexed": true,
          "internalType": "address",
          "name": "userAddress",
          "type": "address"
        },
        {
          "indexed": false,
          "internalType": "uint256",
          "name": "index",
          "type": "uint256"
        },
        {
          "indexed": false,
          "internalType": "uint256",
          "name": "allowedUploads",
          "type": "uint256"
        },
        {
          "indexed": false,
          "internalType": "enum Users.VerificationStatus",
          "name": "verifyStatus",
          "type": "uint8"
        }
      ],
      "name": "LogUpdateUserByAdmin",
      "type": "event"
    },
    {
      "anonymous": false,
      "inputs": [
        {
          "indexed": true,
          "internalType": "bytes32",
          "name": "role",
          "type": "bytes32"
        },
        {
          "indexed": true,
          "internalType": "address",
          "name": "account",
          "type": "address"
        }
      ],
      "name": "RemoveRole",
      "type": "event"
    },
    {
      "anonymous": false,
      "inputs": [
        {
          "indexed": false,
          "internalType": "address",
          "name": "oldOwner",
          "type": "address"
        },
        {
          "indexed": false,
          "internalType": "address",
          "name": "newOwner",
          "type": "address"
        },
        {
          "indexed": false,
          "internalType": "uint256",
          "name": "fileId",
          "type": "uint256"
        }
      ],
      "name": "TransferredFile",
      "type": "event"
    },
    {
      "anonymous": false,
      "inputs": [
        {
          "indexed": true,
          "internalType": "address",
          "name": "userAddress",
          "type": "address"
        },
        {
          "indexed": false,
          "internalType": "uint256",
          "name": "index",
          "type": "uint256"
        },
        {
          "indexed": false,
          "internalType": "bytes32",
          "name": "userEmail",
          "type": "bytes32"
        }
      ],
      "name": "UpdatedUser",
      "type": "event"
    },
    {
      "constant": true,
      "inputs": [],
      "name": "owner",
      "outputs": [
        {
          "internalType": "address",
          "name": "",
          "type": "address"
        }
      ],
      "payable": false,
      "stateMutability": "view",
      "type": "function"
    },
    {
      "constant": true,
      "inputs": [
        {
          "internalType": "bytes32",
          "name": "",
          "type": "bytes32"
        },
        {
          "internalType": "address",
          "name": "",
          "type": "address"
        }
      ],
      "name": "roles",
      "outputs": [
        {
          "internalType": "bool",
          "name": "",
          "type": "bool"
        }
      ],
      "payable": false,
      "stateMutability": "view",
      "type": "function"
    },
    {
      "constant": false,
      "inputs": [
        {
          "internalType": "address",
          "name": "_account",
          "type": "address"
        }
      ],
      "name": "grantAdminRole",
      "outputs": [],
      "payable": false,
      "stateMutability": "nonpayable",
      "type": "function"
    },
    {
      "constant": false,
      "inputs": [
        {
          "internalType": "address",
          "name": "_account",
          "type": "address"
        }
      ],
      "name": "grantWriteRole",
      "outputs": [],
      "payable": false,
      "stateMutability": "nonpayable",
      "type": "function"
    },
    {
      "constant": false,
      "inputs": [
        {
          "internalType": "address",
          "name": "_account",
          "type": "address"
        }
      ],
      "name": "grantReadRole",
      "outputs": [],
      "payable": false,
      "stateMutability": "nonpayable",
      "type": "function"
    },
    {
      "constant": false,
      "inputs": [
        {
          "internalType": "address",
          "name": "_account",
          "type": "address"
        }
      ],
      "name": "deleteAdminRole",
      "outputs": [],
      "payable": false,
      "stateMutability": "nonpayable",
      "type": "function"
    },
    {
      "constant": false,
      "inputs": [
        {
          "internalType": "address",
          "name": "_account",
          "type": "address"
        }
      ],
      "name": "deleteWriteRole",
      "outputs": [],
      "payable": false,
      "stateMutability": "nonpayable",
      "type": "function"
    },
    {
      "constant": false,
      "inputs": [
        {
          "internalType": "address",
          "name": "_account",
          "type": "address"
        }
      ],
      "name": "deleteReadRole",
      "outputs": [],
      "payable": false,
      "stateMutability": "nonpayable",
      "type": "function"
    },
    {
      "constant": true,
      "inputs": [
        {
          "internalType": "address",
          "name": "userAccount",
          "type": "address"
        }
      ],
      "name": "getRoleForUser",
      "outputs": [
        {
          "internalType": "uint8",
          "name": "role",
          "type": "uint8"
        }
      ],
      "payable": false,
      "stateMutability": "view",
      "type": "function"
    },
    {
      "constant": true,
      "inputs": [
        {
          "internalType": "address",
          "name": "userAddress",
          "type": "address"
        }
      ],
      "name": "isUser",
      "outputs": [
        {
          "internalType": "bool",
          "name": "isRegistered",
          "type": "bool"
        }
      ],
      "payable": false,
      "stateMutability": "view",
      "type": "function"
    },
    {
      "constant": true,
      "inputs": [],
      "name": "getUserCount",
      "outputs": [
        {
          "internalType": "uint256",
          "name": "count",
          "type": "uint256"
        }
      ],
      "payable": false,
      "stateMutability": "view",
      "type": "function"
    },
    {
      "constant": true,
      "inputs": [
        {
          "internalType": "uint256",
          "name": "index",
          "type": "uint256"
        }
      ],
      "name": "getUserAtIndex",
      "outputs": [
        {
          "internalType": "address",
          "name": "userAddress",
          "type": "address"
        }
      ],
      "payable": false,
      "stateMutability": "view",
      "type": "function"
    },
    {
      "constant": false,
      "inputs": [
        {
          "internalType": "address",
          "name": "userAddress",
          "type": "address"
        },
        {
          "internalType": "bytes32",
          "name": "userEmail",
          "type": "bytes32"
        },
        {
          "internalType": "string",
          "name": "firstName",
          "type": "string"
        },
        {
          "internalType": "string",
          "name": "lastName",
          "type": "string"
        },
        {
          "internalType": "bytes32",
          "name": "country",
          "type": "bytes32"
        },
        {
          "internalType": "string",
          "name": "description",
          "type": "string"
        }
      ],
      "name": "insertUser",
      "outputs": [
        {
          "internalType": "uint256",
          "name": "index",
          "type": "uint256"
        }
      ],
      "payable": false,
      "stateMutability": "nonpayable",
      "type": "function"
    },
    {
      "constant": true,
      "inputs": [
        {
          "internalType": "address",
          "name": "userAddress",
          "type": "address"
        }
      ],
      "name": "getUser",
      "outputs": [
        {
          "components": [
            {
              "internalType": "bytes32",
              "name": "userEmail",
              "type": "bytes32"
            },
            {
              "internalType": "uint256",
              "name": "dateOfRegistration",
              "type": "uint256"
            },
            {
              "internalType": "string",
              "name": "firstName",
              "type": "string"
            },
            {
              "internalType": "string",
              "name": "lastName",
              "type": "string"
            },
            {
              "internalType": "bytes32",
              "name": "country",
              "type": "bytes32"
            },
            {
              "internalType": "string",
              "name": "description",
              "type": "string"
            },
            {
              "internalType": "uint256",
              "name": "allowedUploads",
              "type": "uint256"
            },
            {
              "internalType": "uint256",
              "name": "index",
              "type": "uint256"
            },
            {
              "internalType": "enum Users.VerificationStatus",
              "name": "verifyStatus",
              "type": "uint8"
            },
            {
              "internalType": "bool",
              "name": "uploadingInProgess",
              "type": "bool"
            }
          ],
          "internalType": "struct Users.UserModelStruct",
          "name": "",
          "type": "tuple"
        }
      ],
      "payable": false,
      "stateMutability": "view",
      "type": "function"
    },
    {
      "constant": false,
      "inputs": [
        {
          "internalType": "address",
          "name": "userAddress",
          "type": "address"
        },
        {
          "internalType": "uint256",
          "name": "allowedUploads",
          "type": "uint256"
        },
        {
          "internalType": "enum Users.VerificationStatus",
          "name": "verifyStatus",
          "type": "uint8"
        }
      ],
      "name": "updateUserByAdmin",
      "outputs": [
        {
          "internalType": "bool",
          "name": "success",
          "type": "bool"
        }
      ],
      "payable": false,
      "stateMutability": "nonpayable",
      "type": "function"
    },
    {
      "constant": false,
      "inputs": [
        {
          "internalType": "address",
          "name": "userAddress",
          "type": "address"
        },
        {
          "internalType": "bytes32",
          "name": "userEmail",
          "type": "bytes32"
        },
        {
          "internalType": "string",
          "name": "firstName",
          "type": "string"
        },
        {
          "internalType": "string",
          "name": "lastName",
          "type": "string"
        },
        {
          "internalType": "bytes32",
          "name": "country",
          "type": "bytes32"
        },
        {
          "internalType": "string",
          "name": "description",
          "type": "string"
        },
        {
          "internalType": "enum Users.VerificationStatus",
          "name": "verifyStatus",
          "type": "uint8"
        }
      ],
      "name": "updateUser",
      "outputs": [
        {
          "internalType": "bool",
          "name": "success",
          "type": "bool"
        }
      ],
      "payable": false,
      "stateMutability": "nonpayable",
      "type": "function"
    },
    {
      "constant": false,
      "inputs": [
        {
          "internalType": "address",
          "name": "userAddress",
          "type": "address"
        }
      ],
      "name": "setVerified",
      "outputs": [
        {
          "internalType": "bool",
          "name": "isRegistered",
          "type": "bool"
        }
      ],
      "payable": false,
      "stateMutability": "nonpayable",
      "type": "function"
    },
    {
      "constant": true,
      "inputs": [
        {
          "internalType": "address",
          "name": "userAddress",
          "type": "address"
        }
      ],
      "name": "getFilesForAddress",
      "outputs": [
        {
          "internalType": "uint256[]",
          "name": "filesForAddress",
          "type": "uint256[]"
        }
      ],
      "payable": false,
      "stateMutability": "view",
      "type": "function"
    },
    {
      "constant": true,
      "inputs": [
        {
          "internalType": "bytes32",
          "name": "tag",
          "type": "bytes32"
        }
      ],
      "name": "getFilesForTag",
      "outputs": [
        {
          "internalType": "uint256[]",
          "name": "filesForTag",
          "type": "uint256[]"
        }
      ],
      "payable": false,
      "stateMutability": "view",
      "type": "function"
    },
    {
      "constant": true,
      "inputs": [
        {
          "internalType": "uint256",
          "name": "fileId",
          "type": "uint256"
        }
      ],
      "name": "getFile",
      "outputs": [
        {
          "components": [
            {
              "internalType": "string",
              "name": "fileTitle",
              "type": "string"
            },
            {
              "internalType": "string",
              "name": "fileReference",
              "type": "string"
            },
            {
              "internalType": "uint256",
              "name": "fileSize",
              "type": "uint256"
            },
            {
              "internalType": "string",
              "name": "fileType",
              "type": "string"
            },
            {
              "internalType": "string",
              "name": "description",
              "type": "string"
            },
            {
              "internalType": "bytes32",
              "name": "country",
              "type": "bytes32"
            },
            {
              "internalType": "enum Users.RightsCategory",
              "name": "ownershipRights",
              "type": "uint8"
            },
            {
              "internalType": "uint256",
              "name": "uploadDate",
              "type": "uint256"
            },
            {
              "internalType": "uint256",
              "name": "likes",
              "type": "uint256"
            },
            {
              "internalType": "address[]",
              "name": "pastOwners",
              "type": "address[]"
            },
            {
              "internalType": "uint256[]",
              "name": "priceForTransfer",
              "type": "uint256[]"
            },
            {
              "internalType": "bytes32[]",
              "name": "conenctedTags",
              "type": "bytes32[]"
            }
          ],
          "internalType": "struct Users.UploadedFile",
          "name": "",
          "type": "tuple"
        }
      ],
      "payable": false,
      "stateMutability": "view",
      "type": "function"
    },
    {
      "constant": true,
      "inputs": [],
      "name": "getAllTags",
      "outputs": [
        {
          "internalType": "bytes32[]",
          "name": "",
          "type": "bytes32[]"
        }
      ],
      "payable": false,
      "stateMutability": "view",
      "type": "function"
    },
    {
      "constant": false,
      "inputs": [
        {
          "internalType": "uint256",
          "name": "fileId",
          "type": "uint256"
        },
        {
          "internalType": "bytes32[]",
          "name": "newTags",
          "type": "bytes32[]"
        }
      ],
      "name": "addNewTagsToFile",
      "outputs": [
        {
          "internalType": "bool",
          "name": "areTagsAdded",
          "type": "bool"
        }
      ],
      "payable": false,
      "stateMutability": "nonpayable",
      "type": "function"
    },
    {
      "constant": false,
      "inputs": [
        {
          "internalType": "uint256",
          "name": "fileId",
          "type": "uint256"
        },
        {
          "internalType": "bytes32[]",
          "name": "existingTags",
          "type": "bytes32[]"
        }
      ],
      "name": "addTagsToFile",
      "outputs": [
        {
          "internalType": "bool",
          "name": "areTagsAdded",
          "type": "bool"
        }
      ],
      "payable": false,
      "stateMutability": "nonpayable",
      "type": "function"
    },
    {
      "constant": false,
      "inputs": [
        {
          "internalType": "address",
          "name": "userAddress",
          "type": "address"
        },
        {
          "internalType": "string",
          "name": "fileTitle",
          "type": "string"
        },
        {
          "internalType": "string",
          "name": "fileReference",
          "type": "string"
        },
        {
          "internalType": "uint256",
          "name": "fileSize",
          "type": "uint256"
        },
        {
          "internalType": "string",
          "name": "fileType",
          "type": "string"
        },
        {
          "internalType": "string",
          "name": "description",
          "type": "string"
        },
        {
          "internalType": "bytes32",
          "name": "country",
          "type": "bytes32"
        },
        {
          "internalType": "enum Users.RightsCategory",
          "name": "ownershipRights",
          "type": "uint8"
        },
        {
          "internalType": "uint256",
          "name": "priceForTransfer",
          "type": "uint256"
        }
      ],
      "name": "addFile",
      "outputs": [
        {
          "internalType": "uint256",
          "name": "index",
          "type": "uint256"
        }
      ],
      "payable": false,
      "stateMutability": "nonpayable",
      "type": "function"
    },
    {
      "constant": false,
      "inputs": [
        {
          "internalType": "uint256",
          "name": "fileId",
          "type": "uint256"
        },
        {
          "internalType": "string",
          "name": "fileTitle",
          "type": "string"
        },
        {
          "internalType": "string",
          "name": "description",
          "type": "string"
        },
        {
          "internalType": "bytes32",
          "name": "country",
          "type": "bytes32"
        },
        {
          "internalType": "enum Users.RightsCategory",
          "name": "ownershipRights",
          "type": "uint8"
        }
      ],
      "name": "editFilePresentation",
      "outputs": [
        {
          "internalType": "uint256",
          "name": "index",
          "type": "uint256"
        }
      ],
      "payable": false,
      "stateMutability": "nonpayable",
      "type": "function"
    },
    {
      "constant": false,
      "inputs": [
        {
          "internalType": "uint256",
          "name": "fileId",
          "type": "uint256"
        },
        {
          "internalType": "uint256",
          "name": "newPrice",
          "type": "uint256"
        }
      ],
      "name": "editPrice",
      "outputs": [
        {
          "internalType": "uint256",
          "name": "index",
          "type": "uint256"
        }
      ],
      "payable": false,
      "stateMutability": "nonpayable",
      "type": "function"
    },
    {
      "constant": false,
      "inputs": [
        {
          "internalType": "uint256",
          "name": "fileId",
          "type": "uint256"
        },
        {
          "internalType": "uint256",
          "name": "increaseByAmount",
          "type": "uint256"
        }
      ],
      "name": "changeLike",
      "outputs": [
        {
          "internalType": "uint256",
          "name": "index",
          "type": "uint256"
        }
      ],
      "payable": false,
      "stateMutability": "nonpayable",
      "type": "function"
    },
    {
      "constant": false,
      "inputs": [
        {
          "internalType": "address",
          "name": "newUserAddress",
          "type": "address"
        },
        {
          "internalType": "uint256",
          "name": "fileId",
          "type": "uint256"
        }
      ],
      "name": "changeOwnerFile",
      "outputs": [
        {
          "internalType": "uint256",
          "name": "index",
          "type": "uint256"
        }
      ],
      "payable": false,
      "stateMutability": "nonpayable",
      "type": "function"
    }
  ],
  "bytecode": "0x60806040523480156200001157600080fd5b50336000806101000a81548173ffffffffffffffffffffffffffffffffffffffff021916908373ffffffffffffffffffffffffffffffffffffffff1602179055506200008a604051602001620000679062000566565b60405160208183030381529060405280519060200120336200009060201b60201c565b62000588565b604051602001620000a19062000566565b604051602081830303815290604052805190602001208214156200026f576001806000604051602001620000d59062000566565b60405160208183030381529060405280519060200120815260200190815260200160002060008373ffffffffffffffffffffffffffffffffffffffff1673ffffffffffffffffffffffffffffffffffffffff16815260200190815260200160002060006101000a81548160ff0219169083151502179055506001806000604051602001620001639062000538565b60405160208183030381529060405280519060200120815260200190815260200160002060008373ffffffffffffffffffffffffffffffffffffffff1673ffffffffffffffffffffffffffffffffffffffff16815260200190815260200160002060006101000a81548160ff0219169083151502179055506001806000604051602001620001f1906200054f565b60405160208183030381529060405280519060200120815260200190815260200160002060008373ffffffffffffffffffffffffffffffffffffffff1673ffffffffffffffffffffffffffffffffffffffff16815260200190815260200160002060006101000a81548160ff0219169083151502179055506200042a565b60405160200162000280906200054f565b60405160208183030381529060405280519060200120821415620003c0576001806000604051602001620002b49062000538565b60405160208183030381529060405280519060200120815260200190815260200160002060008373ffffffffffffffffffffffffffffffffffffffff1673ffffffffffffffffffffffffffffffffffffffff16815260200190815260200160002060006101000a81548160ff021916908315150217905550600180600060405160200162000342906200054f565b60405160208183030381529060405280519060200120815260200190815260200160002060008373ffffffffffffffffffffffffffffffffffffffff1673ffffffffffffffffffffffffffffffffffffffff16815260200190815260200160002060006101000a81548160ff02191690831515021790555062000429565b600180600084815260200190815260200160002060008373ffffffffffffffffffffffffffffffffffffffff1673ffffffffffffffffffffffffffffffffffffffff16815260200190815260200160002060006101000a81548160ff0219169083151502179055505b5b8073ffffffffffffffffffffffffffffffffffffffff16827f5a06360d65acf95e98445dc834f205063424c636e65418d928cdfabc33a9539960405160405180910390a35050565b6000620004816004836200057d565b91507f52656164000000000000000000000000000000000000000000000000000000006000830152600482019050919050565b6000620004c36005836200057d565b91507f57726974650000000000000000000000000000000000000000000000000000006000830152600582019050919050565b6000620005056005836200057d565b91507f41646d696e0000000000000000000000000000000000000000000000000000006000830152600582019050919050565b6000620005458262000472565b9150819050919050565b60006200055c82620004b4565b9150819050919050565b60006200057382620004f6565b9150819050919050565b600081905092915050565b615d5680620005986000396000f3fe608060405234801561001057600080fd5b50600436106101c45760003560e01c8063a2068e04116100f9578063d5f5260211610097578063ee18839711610071578063ee188397146105af578063f8fc08b9146105cb578063f9434b84146105fb578063ffcc7bbf1461062b576101c4565b8063d5f5260214610533578063d6e7b3f014610563578063d84b6a0b14610593576101c4565b8063be575229116100d3578063be5752291461049b578063c634b78e146104b7578063c8c75647146104d3578063d0e7a5cb14610503576101c4565b8063a2068e041461041d578063a21d847c1461044d578063b5cb15f71461047d576101c4565b806346efa378116101665780636cf5d66d116101405780636cf5d66d146103815780636f77926b146103b15780637038f157146103e15780638da5cb5b146103ff576101c4565b806346efa378146102f15780634bd9a2df14610321578063688b967c14610351576101c4565b80631726f329116101a25780631726f329146102455780632bfda3131461026157806330a31b24146102915780634209fff1146102c1576101c4565b806308940be9146101c95780630b5267e4146101e55780630cd0880014610215575b600080fd5b6101e360048036036101de919081019061477d565b61065b565b005b6101ff60048036036101fa9190810190614ba9565b6108a5565b60405161020c919061571c565b60405180910390f35b61022f600480360361022a919081019061477d565b610ab7565b60405161023c91906156fa565b60405180910390f35b61025f600480360361025a919081019061477d565b610b4e565b005b61027b60048036036102769190810190614b80565b610d03565b60405161028891906158a7565b60405180910390f35b6102ab60048036036102a6919081019061496a565b61114c565b6040516102b891906158eb565b60405180910390f35b6102db60048036036102d6919081019061477d565b6115a1565b6040516102e8919061571c565b60405180910390f35b61030b600480360361030691908101906147a6565b611669565b604051610318919061571c565b60405180910390f35b61033b60048036036103369190810190614ba9565b6119d9565b604051610348919061571c565b60405180910390f35b61036b60048036036103669190810190614bfd565b611bac565b60405161037891906158eb565b60405180910390f35b61039b60048036036103969190810190614899565b611d69565b6040516103a891906158eb565b60405180910390f35b6103cb60048036036103c6919081019061477d565b61221c565b6040516103d891906158c9565b60405180910390f35b6103e961251e565b6040516103f691906156d8565b60405180910390f35b610407612576565b6040516104149190615686565b60405180910390f35b61043760048036036104329190810190614a90565b61259b565b60405161044491906158eb565b60405180910390f35b61046760048036036104629190810190614b1b565b612a44565b60405161047491906156fa565b60405180910390f35b610485612aaf565b60405161049291906158eb565b60405180910390f35b6104b560048036036104b0919081019061477d565b612abc565b005b6104d160048036036104cc919081019061477d565b612ce2565b005b6104ed60048036036104e8919081019061477d565b612f9d565b6040516104fa919061571c565b60405180910390f35b61051d60048036036105189190810190614ca4565b613116565b60405161052a91906158eb565b60405180910390f35b61054d60048036036105489190810190614ca4565b613268565b60405161055a91906158eb565b60405180910390f35b61057d6004803603610578919081019061477d565b6133ad565b60405161058a9190615966565b60405180910390f35b6105ad60048036036105a8919081019061477d565b613569565b005b6105c960048036036105c4919081019061477d565b61371e565b005b6105e560048036036105e09190810190614b44565b613944565b6040516105f2919061571c565b60405180910390f35b61061560048036036106109190810190614acc565b613973565b604051610622919061571c565b60405180910390f35b61064560048036036106409190810190614b80565b613c12565b6040516106529190615686565b60405180910390f35b60405160200161066a90615671565b604051602081830303815290604052805190602001206001600082815260200190815260200160002060003373ffffffffffffffffffffffffffffffffffffffff1673ffffffffffffffffffffffffffffffffffffffff16815260200190815260200160002060009054906101000a900460ff1661071d576040517f08c379a0000000000000000000000000000000000000000000000000000000008152600401610714906157e7565b60405180910390fd5b6001600060405160200161073090615671565b60405160208183030381529060405280519060200120815260200190815260200160002060008373ffffffffffffffffffffffffffffffffffffffff1673ffffffffffffffffffffffffffffffffffffffff16815260200190815260200160002060009054906101000a900460ff166107de576040517f08c379a00000000000000000000000000000000000000000000000000000000081526004016107d590615787565b60405180910390fd5b6000809054906101000a900473ffffffffffffffffffffffffffffffffffffffff1673ffffffffffffffffffffffffffffffffffffffff163373ffffffffffffffffffffffffffffffffffffffff1614156108665761086160405160200161084590615671565b6040516020818303038152906040528051906020012083613c53565b6108a1565b6040517f08c379a0000000000000000000000000000000000000000000000000000000008152600401610898906157c7565b60405180910390fd5b5050565b60006040516020016108b69061565c565b604051602081830303815290604052805190602001206001600082815260200190815260200160002060003373ffffffffffffffffffffffffffffffffffffffff1673ffffffffffffffffffffffffffffffffffffffff16815260200190815260200160002060009054906101000a900460ff16610969576040517f08c379a0000000000000000000000000000000000000000000000000000000008152600401610960906157e7565b60405180910390fd5b60045484106109ad576040517f08c379a00000000000000000000000000000000000000000000000000000000081526004016109a4906157a7565b60405180910390fd5b60008090505b8351811015610aab5760088482815181106109ca57fe5b6020026020010151908060018154018082558091505090600182039060005260206000200160009091929091909150555060076000858381518110610a0b57fe5b6020026020010151815260200190815260200160002085908060018154018082558091505090600182039060005260206000200160009091929091909150555060056000868152602001908152602001600020600b01848281518110610a6d57fe5b6020026020010151908060018154018082558091505090600182039060005260206000200160009091929091909150555080806001019150506109b3565b50600191505092915050565b6060600660008373ffffffffffffffffffffffffffffffffffffffff1673ffffffffffffffffffffffffffffffffffffffff168152602001908152602001600020805480602002602001604051908101604052809291908181526020018280548015610b4257602002820191906000526020600020905b815481526020019060010190808311610b2e575b50505050509050919050565b604051602001610b5d90615671565b604051602081830303815290604052805190602001206001600082815260200190815260200160002060003373ffffffffffffffffffffffffffffffffffffffff1673ffffffffffffffffffffffffffffffffffffffff16815260200190815260200160002060009054906101000a900460ff16610c10576040517f08c379a0000000000000000000000000000000000000000000000000000000008152600401610c07906157e7565b60405180910390fd5b60016000604051602001610c2390615647565b60405160208183030381529060405280519060200120815260200190815260200160002060008373ffffffffffffffffffffffffffffffffffffffff1673ffffffffffffffffffffffffffffffffffffffff16815260200190815260200160002060009054906101000a900460ff16610cd1576040517f08c379a0000000000000000000000000000000000000000000000000000000008152600401610cc890615787565b60405180910390fd5b610cff604051602001610ce390615647565b6040516020818303038152906040528051906020012083613c53565b5050565b610d0b6143f9565b6005600083815260200190815260200160002060405180610180016040529081600082018054600181600116156101000203166002900480601f016020809104026020016040519081016040528092919081815260200182805460018160011615610100020316600290048015610dc35780601f10610d9857610100808354040283529160200191610dc3565b820191906000526020600020905b815481529060010190602001808311610da657829003601f168201915b50505050508152602001600182018054600181600116156101000203166002900480601f016020809104026020016040519081016040528092919081815260200182805460018160011615610100020316600290048015610e655780601f10610e3a57610100808354040283529160200191610e65565b820191906000526020600020905b815481529060010190602001808311610e4857829003601f168201915b5050505050815260200160028201548152602001600382018054600181600116156101000203166002900480601f016020809104026020016040519081016040528092919081815260200182805460018160011615610100020316600290048015610f115780601f10610ee657610100808354040283529160200191610f11565b820191906000526020600020905b815481529060010190602001808311610ef457829003601f168201915b50505050508152602001600482018054600181600116156101000203166002900480601f016020809104026020016040519081016040528092919081815260200182805460018160011615610100020316600290048015610fb35780601f10610f8857610100808354040283529160200191610fb3565b820191906000526020600020905b815481529060010190602001808311610f9657829003601f168201915b50505050508152602001600582015481526020016006820160009054906101000a900460ff166009811115610fe457fe5b6009811115610fef57fe5b815260200160078201548152602001600882015481526020016009820180548060200260200160405190810160405280929190818152602001828054801561108c57602002820191906000526020600020905b8160009054906101000a900473ffffffffffffffffffffffffffffffffffffffff1673ffffffffffffffffffffffffffffffffffffffff1681526020019060010190808311611042575b50505050508152602001600a82018054806020026020016040519081016040528092919081815260200182805480156110e457602002820191906000526020600020905b8154815260200190600101908083116110d0575b50505050508152602001600b820180548060200260200160405190810160405280929190818152602001828054801561113c57602002820191906000526020600020905b815481526020019060010190808311611128575b5050505050815250509050919050565b600060405160200161115d9061565c565b604051602081830303815290604052805190602001206001600082815260200190815260200160002060003373ffffffffffffffffffffffffffffffffffffffff1673ffffffffffffffffffffffffffffffffffffffff16815260200190815260200160002060009054906101000a900460ff16611210576040517f08c379a0000000000000000000000000000000000000000000000000000000008152600401611207906157e7565b60405180910390fd5b6112198b6115a1565b611258576040517f08c379a000000000000000000000000000000000000000000000000000000000815260040161124f90615767565b60405180910390fd5b896005600060045481526020019081526020016000206000019080519060200190611284929190614468565b508860056000600454815260200190815260200160002060010190805190602001906112b1929190614468565b5087600560006004548152602001908152602001600020600201819055508660056000600454815260200190815260200160002060030190805190602001906112fb929190614468565b50856005600060045481526020019081526020016000206004019080519060200190611328929190614468565b5084600560006004548152602001908152602001600020600501819055508360056000600454815260200190815260200160002060060160006101000a81548160ff0219169083600981111561137a57fe5b021790555042600560006004548152602001908152602001600020600701819055506000600560006004548152602001908152602001600020600801819055506005600060045481526020019081526020016000206009018b90806001815401808255809150509060018203906000526020600020016000909192909190916101000a81548173ffffffffffffffffffffffffffffffffffffffff021916908373ffffffffffffffffffffffffffffffffffffffff16021790555050600560006004548152602001908152602001600020600a01839080600181540180825580915050906001820390600052602060002001600090919290919091505550600660008c73ffffffffffffffffffffffffffffffffffffffff1673ffffffffffffffffffffffffffffffffffffffff16815260200190815260200160002060045490806001815401808255809150509060018203906000526020600020016000909192909190915055506000600260008d73ffffffffffffffffffffffffffffffffffffffff1673ffffffffffffffffffffffffffffffffffffffff16815260200190815260200160002060080160016101000a81548160ff0219169083151502179055507f976a94ebaf95003722c58f5107879a458281d47ac85d44d6afd4dd4e31eef5da89600454604051611571929190615737565b60405180910390a16004600081548092919060010191905055506001600454039150509998505050505050505050565b60008060038054905014156115b95760009050611664565b8173ffffffffffffffffffffffffffffffffffffffff166003600260008573ffffffffffffffffffffffffffffffffffffffff1673ffffffffffffffffffffffffffffffffffffffff168152602001908152602001600020600701548154811061161f57fe5b9060005260206000200160009054906101000a900473ffffffffffffffffffffffffffffffffffffffff1673ffffffffffffffffffffffffffffffffffffffff161490505b919050565b60006116748b6115a1565b6116b3576040517f08c379a00000000000000000000000000000000000000000000000000000000081526004016116aa90615767565b60405180910390fd5b6002808111156116bf57fe5b8260028111156116cb57fe5b141561170c576040517f08c379a000000000000000000000000000000000000000000000000000000000815260040161170390615867565b60405180910390fd5b89600260008d73ffffffffffffffffffffffffffffffffffffffff1673ffffffffffffffffffffffffffffffffffffffff168152602001908152602001600020600001819055508888600260008e73ffffffffffffffffffffffffffffffffffffffff1673ffffffffffffffffffffffffffffffffffffffff16815260200190815260200160002060020191906117a49291906144e8565b508686600260008e73ffffffffffffffffffffffffffffffffffffffff1673ffffffffffffffffffffffffffffffffffffffff16815260200190815260200160002060030191906117f69291906144e8565b5084600260008d73ffffffffffffffffffffffffffffffffffffffff1673ffffffffffffffffffffffffffffffffffffffff168152602001908152602001600020600401819055508383600260008e73ffffffffffffffffffffffffffffffffffffffff1673ffffffffffffffffffffffffffffffffffffffff168152602001908152602001600020600501919061188f9291906144e8565b5081600260008d73ffffffffffffffffffffffffffffffffffffffff1673ffffffffffffffffffffffffffffffffffffffff16815260200190815260200160002060080160006101000a81548160ff021916908360028111156118ee57fe5b02179055508a73ffffffffffffffffffffffffffffffffffffffff167f220bb7a17b01078be2b0499869f8a0656e04dff102602b44d0b552fe52ad33ef600260008e73ffffffffffffffffffffffffffffffffffffffff1673ffffffffffffffffffffffffffffffffffffffff16815260200190815260200160002060070154600260008f73ffffffffffffffffffffffffffffffffffffffff1673ffffffffffffffffffffffffffffffffffffffff168152602001908152602001600020600001546040516119bf929190615906565b60405180910390a2600190509a9950505050505050505050565b60006040516020016119ea9061565c565b604051602081830303815290604052805190602001206001600082815260200190815260200160002060003373ffffffffffffffffffffffffffffffffffffffff1673ffffffffffffffffffffffffffffffffffffffff16815260200190815260200160002060009054906101000a900460ff16611a9d576040517f08c379a0000000000000000000000000000000000000000000000000000000008152600401611a94906157e7565b60405180910390fd5b6004548410611ae1576040517f08c379a0000000000000000000000000000000000000000000000000000000008152600401611ad8906157a7565b60405180910390fd5b60008090505b8351811015611ba05760076000858381518110611b0057fe5b6020026020010151815260200190815260200160002085908060018154018082558091505090600182039060005260206000200160009091929091909150555060056000868152602001908152602001600020600b01848281518110611b6257fe5b602002602001015190806001815401808255809150509060018203906000526020600020016000909192909190915055508080600101915050611ae7565b50600191505092915050565b6000604051602001611bbd9061565c565b604051602081830303815290604052805190602001206001600082815260200190815260200160002060003373ffffffffffffffffffffffffffffffffffffffff1673ffffffffffffffffffffffffffffffffffffffff16815260200190815260200160002060009054906101000a900460ff16611c70576040517f08c379a0000000000000000000000000000000000000000000000000000000008152600401611c67906157e7565b60405180910390fd5b6004548710611cb4576040517f08c379a0000000000000000000000000000000000000000000000000000000008152600401611cab906157a7565b60405180910390fd5b85600560008981526020019081526020016000206000019080519060200190611cde929190614468565b5084600560008981526020019081526020016000206004019080519060200190611d09929190614468565b50836005600089815260200190815260200160002060050181905550826005600089815260200190815260200160002060060160006101000a81548160ff02191690836009811115611d5757fe5b02179055508691505095945050505050565b6000611d74876115a1565b15611db4576040517f08c379a0000000000000000000000000000000000000000000000000000000008152600401611dab90615827565b60405180910390fd5b85600260008973ffffffffffffffffffffffffffffffffffffffff1673ffffffffffffffffffffffffffffffffffffffff1681526020019081526020016000206000018190555084600260008973ffffffffffffffffffffffffffffffffffffffff1673ffffffffffffffffffffffffffffffffffffffff1681526020019081526020016000206002019080519060200190611e51929190614468565b5083600260008973ffffffffffffffffffffffffffffffffffffffff1673ffffffffffffffffffffffffffffffffffffffff1681526020019081526020016000206003019080519060200190611ea8929190614468565b5082600260008973ffffffffffffffffffffffffffffffffffffffff1673ffffffffffffffffffffffffffffffffffffffff1681526020019081526020016000206004018190555081600260008973ffffffffffffffffffffffffffffffffffffffff1673ffffffffffffffffffffffffffffffffffffffff1681526020019081526020016000206005019080519060200190611f46929190614468565b5042600260008973ffffffffffffffffffffffffffffffffffffffff1673ffffffffffffffffffffffffffffffffffffffff168152602001908152602001600020600101819055506005600260008973ffffffffffffffffffffffffffffffffffffffff1673ffffffffffffffffffffffffffffffffffffffff16815260200190815260200160002060060181905550600380549050600260008973ffffffffffffffffffffffffffffffffffffffff1673ffffffffffffffffffffffffffffffffffffffff168152602001908152602001600020600701819055506000600260008973ffffffffffffffffffffffffffffffffffffffff1673ffffffffffffffffffffffffffffffffffffffff16815260200190815260200160002060080160006101000a81548160ff0219169083600281111561208157fe5b02179055506000600260008973ffffffffffffffffffffffffffffffffffffffff1673ffffffffffffffffffffffffffffffffffffffff16815260200190815260200160002060080160016101000a81548160ff02191690831515021790555060038790806001815401808255809150509060018203906000526020600020016000909192909190916101000a81548173ffffffffffffffffffffffffffffffffffffffff021916908373ffffffffffffffffffffffffffffffffffffffff160217905550506121756040516020016121599061565c565b6040516020818303038152906040528051906020012088614029565b8673ffffffffffffffffffffffffffffffffffffffff167f4d95910c45b55946e307e5a82f0af42c16742413c0bd4a716e7e3a78e91837ac600260008a73ffffffffffffffffffffffffffffffffffffffff1673ffffffffffffffffffffffffffffffffffffffff16815260200190815260200160002060070154886040516121ff929190615906565b60405180910390a260016003805490500390509695505050505050565b612224614568565b61222d826115a1565b61226c576040517f08c379a000000000000000000000000000000000000000000000000000000000815260040161226390615767565b60405180910390fd5b600260008373ffffffffffffffffffffffffffffffffffffffff1673ffffffffffffffffffffffffffffffffffffffff168152602001908152602001600020604051806101400160405290816000820154815260200160018201548152602001600282018054600181600116156101000203166002900480601f0160208091040260200160405190810160405280929190818152602001828054600181600116156101000203166002900480156123645780601f1061233957610100808354040283529160200191612364565b820191906000526020600020905b81548152906001019060200180831161234757829003601f168201915b50505050508152602001600382018054600181600116156101000203166002900480601f0160208091040260200160405190810160405280929190818152602001828054600181600116156101000203166002900480156124065780601f106123db57610100808354040283529160200191612406565b820191906000526020600020905b8154815290600101906020018083116123e957829003601f168201915b5050505050815260200160048201548152602001600582018054600181600116156101000203166002900480601f0160208091040260200160405190810160405280929190818152602001828054600181600116156101000203166002900480156124b25780601f10612487576101008083540402835291602001916124b2565b820191906000526020600020905b81548152906001019060200180831161249557829003601f168201915b5050505050815260200160068201548152602001600782015481526020016008820160009054906101000a900460ff1660028111156124ed57fe5b60028111156124f857fe5b81526020016008820160019054906101000a900460ff1615151515815250509050919050565b6060600880548060200260200160405190810160405280929190818152602001828054801561256c57602002820191906000526020600020905b815481526020019060010190808311612558575b5050505050905090565b6000809054906101000a900473ffffffffffffffffffffffffffffffffffffffff1681565b60006040516020016125ac9061565c565b604051602081830303815290604052805190602001206001600082815260200190815260200160002060003373ffffffffffffffffffffffffffffffffffffffff1673ffffffffffffffffffffffffffffffffffffffff16815260200190815260200160002060009054906101000a900460ff1661265f576040517f08c379a0000000000000000000000000000000000000000000000000000000008152600401612656906157e7565b60405180910390fd5b60045483106126a3576040517f08c379a000000000000000000000000000000000000000000000000000000000815260040161269a906157a7565b60405180910390fd5b8373ffffffffffffffffffffffffffffffffffffffff163160056000858152602001908152602001600020600a01600160056000878152602001908152602001600020600a018054905003815481106126f857fe5b90600052602060002001541061270d57600080fd5b60008090505b600660003373ffffffffffffffffffffffffffffffffffffffff1673ffffffffffffffffffffffffffffffffffffffff1681526020019081526020016000208054905081101561291b5783600660003373ffffffffffffffffffffffffffffffffffffffff1673ffffffffffffffffffffffffffffffffffffffff16815260200190815260200160002082815481106127a857fe5b9060005260206000200154141561290e57600660003373ffffffffffffffffffffffffffffffffffffffff1673ffffffffffffffffffffffffffffffffffffffff1681526020019081526020016000206001600660003373ffffffffffffffffffffffffffffffffffffffff1673ffffffffffffffffffffffffffffffffffffffff16815260200190815260200160002080549050038154811061284857fe5b9060005260206000200154600660003373ffffffffffffffffffffffffffffffffffffffff1673ffffffffffffffffffffffffffffffffffffffff168152602001908152602001600020828154811061289d57fe5b9060005260206000200181905550600660003373ffffffffffffffffffffffffffffffffffffffff1673ffffffffffffffffffffffffffffffffffffffff1681526020019081526020016000208054806128f357fe5b6001900381819060005260206000200160009055905561291b565b8080600101915050612713565b50600560008481526020019081526020016000206009018490806001815401808255809150509060018203906000526020600020016000909192909190916101000a81548173ffffffffffffffffffffffffffffffffffffffff021916908373ffffffffffffffffffffffffffffffffffffffff16021790555050600660008573ffffffffffffffffffffffffffffffffffffffff1673ffffffffffffffffffffffffffffffffffffffff1681526020019081526020016000208390806001815401808255809150509060018203906000526020600020016000909192909190915055507f9a0bb8b75d36ae23bb26068d749bb1180c244c13c75990b0dd08d096f5d18b18338585604051612a32939291906156a1565b60405180910390a18291505092915050565b606060076000838152602001908152602001600020805480602002602001604051908101604052809291908181526020018280548015612aa357602002820191906000526020600020905b815481526020019060010190808311612a8f575b50505050509050919050565b6000600380549050905090565b604051602001612acb90615671565b604051602081830303815290604052805190602001206001600082815260200190815260200160002060003373ffffffffffffffffffffffffffffffffffffffff1673ffffffffffffffffffffffffffffffffffffffff16815260200190815260200160002060009054906101000a900460ff16612b7e576040517f08c379a0000000000000000000000000000000000000000000000000000000008152600401612b75906157e7565b60405180910390fd5b600073ffffffffffffffffffffffffffffffffffffffff168273ffffffffffffffffffffffffffffffffffffffff161415612bee576040517f08c379a0000000000000000000000000000000000000000000000000000000008152600401612be590615847565b60405180910390fd5b60016000604051602001612c0190615647565b60405160208183030381529060405280519060200120815260200190815260200160002060008373ffffffffffffffffffffffffffffffffffffffff1673ffffffffffffffffffffffffffffffffffffffff16815260200190815260200160002060009054906101000a900460ff1615612cb0576040517f08c379a0000000000000000000000000000000000000000000000000000000008152600401612ca790615807565b60405180910390fd5b612cde604051602001612cc290615647565b6040516020818303038152906040528051906020012083614029565b5050565b604051602001612cf190615671565b604051602081830303815290604052805190602001206001600082815260200190815260200160002060003373ffffffffffffffffffffffffffffffffffffffff1673ffffffffffffffffffffffffffffffffffffffff16815260200190815260200160002060009054906101000a900460ff16612da4576040517f08c379a0000000000000000000000000000000000000000000000000000000008152600401612d9b906157e7565b60405180910390fd5b600073ffffffffffffffffffffffffffffffffffffffff168273ffffffffffffffffffffffffffffffffffffffff161415612e14576040517f08c379a0000000000000000000000000000000000000000000000000000000008152600401612e0b90615847565b60405180910390fd5b60016000604051602001612e2790615671565b60405160208183030381529060405280519060200120815260200190815260200160002060008373ffffffffffffffffffffffffffffffffffffffff1673ffffffffffffffffffffffffffffffffffffffff16815260200190815260200160002060009054906101000a900460ff1615612ed6576040517f08c379a0000000000000000000000000000000000000000000000000000000008152600401612ecd90615807565b60405180910390fd5b6000809054906101000a900473ffffffffffffffffffffffffffffffffffffffff1673ffffffffffffffffffffffffffffffffffffffff163373ffffffffffffffffffffffffffffffffffffffff161415612f5e57612f59604051602001612f3d90615671565b6040516020818303038152906040528051906020012083614029565b612f99565b6040517f08c379a0000000000000000000000000000000000000000000000000000000008152600401612f9090615887565b60405180910390fd5b5050565b6000604051602001612fae90615671565b604051602081830303815290604052805190602001206001600082815260200190815260200160002060003373ffffffffffffffffffffffffffffffffffffffff1673ffffffffffffffffffffffffffffffffffffffff16815260200190815260200160002060009054906101000a900460ff16613061576040517f08c379a0000000000000000000000000000000000000000000000000000000008152600401613058906157e7565b60405180910390fd5b61306a836115a1565b6130a9576040517f08c379a00000000000000000000000000000000000000000000000000000000081526004016130a090615767565b60405180910390fd5b60028060008573ffffffffffffffffffffffffffffffffffffffff1673ffffffffffffffffffffffffffffffffffffffff16815260200190815260200160002060080160006101000a81548160ff0219169083600281111561310757fe5b02179055506001915050919050565b60006040516020016131279061565c565b604051602081830303815290604052805190602001206001600082815260200190815260200160002060003373ffffffffffffffffffffffffffffffffffffffff1673ffffffffffffffffffffffffffffffffffffffff16815260200190815260200160002060009054906101000a900460ff166131da576040517f08c379a00000000000000000000000000000000000000000000000000000000081526004016131d1906157e7565b60405180910390fd5b600454841061321e576040517f08c379a0000000000000000000000000000000000000000000000000000000008152600401613215906157a7565b60405180910390fd5b60056000858152602001908152602001600020600a018390806001815401808255809150509060018203906000526020600020016000909192909190915055508391505092915050565b60006040516020016132799061565c565b604051602081830303815290604052805190602001206001600082815260200190815260200160002060003373ffffffffffffffffffffffffffffffffffffffff1673ffffffffffffffffffffffffffffffffffffffff16815260200190815260200160002060009054906101000a900460ff1661332c576040517f08c379a0000000000000000000000000000000000000000000000000000000008152600401613323906157e7565b60405180910390fd5b6004548410613370576040517f08c379a0000000000000000000000000000000000000000000000000000000008152600401613367906157a7565b60405180910390fd5b8260056000868152602001908152602001600020600801540160056000868152602001908152602001600020600801819055508391505092915050565b6000600160006040516020016133c290615671565b60405160208183030381529060405280519060200120815260200190815260200160002060008373ffffffffffffffffffffffffffffffffffffffff1673ffffffffffffffffffffffffffffffffffffffff16815260200190815260200160002060009054906101000a900460ff161561343f5760039050613564565b600160006040516020016134529061565c565b60405160208183030381529060405280519060200120815260200190815260200160002060008373ffffffffffffffffffffffffffffffffffffffff1673ffffffffffffffffffffffffffffffffffffffff16815260200190815260200160002060009054906101000a900460ff16156134cf5760029050613564565b600160006040516020016134e290615647565b60405160208183030381529060405280519060200120815260200190815260200160002060008373ffffffffffffffffffffffffffffffffffffffff1673ffffffffffffffffffffffffffffffffffffffff16815260200190815260200160002060009054906101000a900460ff161561355f5760019050613564565b600090505b919050565b60405160200161357890615671565b604051602081830303815290604052805190602001206001600082815260200190815260200160002060003373ffffffffffffffffffffffffffffffffffffffff1673ffffffffffffffffffffffffffffffffffffffff16815260200190815260200160002060009054906101000a900460ff1661362b576040517f08c379a0000000000000000000000000000000000000000000000000000000008152600401613622906157e7565b60405180910390fd5b6001600060405160200161363e9061565c565b60405160208183030381529060405280519060200120815260200190815260200160002060008373ffffffffffffffffffffffffffffffffffffffff1673ffffffffffffffffffffffffffffffffffffffff16815260200190815260200160002060009054906101000a900460ff166136ec576040517f08c379a00000000000000000000000000000000000000000000000000000000081526004016136e390615787565b60405180910390fd5b61371a6040516020016136fe9061565c565b6040516020818303038152906040528051906020012083613c53565b5050565b60405160200161372d90615671565b604051602081830303815290604052805190602001206001600082815260200190815260200160002060003373ffffffffffffffffffffffffffffffffffffffff1673ffffffffffffffffffffffffffffffffffffffff16815260200190815260200160002060009054906101000a900460ff166137e0576040517f08c379a00000000000000000000000000000000000000000000000000000000081526004016137d7906157e7565b60405180910390fd5b600073ffffffffffffffffffffffffffffffffffffffff168273ffffffffffffffffffffffffffffffffffffffff161415613850576040517f08c379a000000000000000000000000000000000000000000000000000000000815260040161384790615847565b60405180910390fd5b600160006040516020016138639061565c565b60405160208183030381529060405280519060200120815260200190815260200160002060008373ffffffffffffffffffffffffffffffffffffffff1673ffffffffffffffffffffffffffffffffffffffff16815260200190815260200160002060009054906101000a900460ff1615613912576040517f08c379a000000000000000000000000000000000000000000000000000000000815260040161390990615807565b60405180910390fd5b6139406040516020016139249061565c565b6040516020818303038152906040528051906020012083614029565b5050565b60016020528160005260406000206020528060005260406000206000915091509054906101000a900460ff1681565b600060405160200161398490615671565b604051602081830303815290604052805190602001206001600082815260200190815260200160002060003373ffffffffffffffffffffffffffffffffffffffff1673ffffffffffffffffffffffffffffffffffffffff16815260200190815260200160002060009054906101000a900460ff16613a37576040517f08c379a0000000000000000000000000000000000000000000000000000000008152600401613a2e906157e7565b60405180910390fd5b83600260008773ffffffffffffffffffffffffffffffffffffffff1673ffffffffffffffffffffffffffffffffffffffff1681526020019081526020016000206006018190555082600260008773ffffffffffffffffffffffffffffffffffffffff1673ffffffffffffffffffffffffffffffffffffffff16815260200190815260200160002060080160006101000a81548160ff02191690836002811115613adc57fe5b02179055508473ffffffffffffffffffffffffffffffffffffffff167f1c0430843928b357f7d24810221fa7272098d6a01bb685a3a762ce31ed16fa8b600260008873ffffffffffffffffffffffffffffffffffffffff1673ffffffffffffffffffffffffffffffffffffffff16815260200190815260200160002060070154600260008973ffffffffffffffffffffffffffffffffffffffff1673ffffffffffffffffffffffffffffffffffffffff16815260200190815260200160002060060154600260008a73ffffffffffffffffffffffffffffffffffffffff1673ffffffffffffffffffffffffffffffffffffffff16815260200190815260200160002060080160009054906101000a900460ff16604051613bfe9392919061592f565b60405180910390a260019150509392505050565b600060038281548110613c2157fe5b9060005260206000200160009054906101000a900473ffffffffffffffffffffffffffffffffffffffff169050919050565b604051602001613c6290615671565b60405160208183030381529060405280519060200120821415613e2b57600060016000604051602001613c9490615671565b60405160208183030381529060405280519060200120815260200190815260200160002060008373ffffffffffffffffffffffffffffffffffffffff1673ffffffffffffffffffffffffffffffffffffffff16815260200190815260200160002060006101000a81548160ff021916908315150217905550600060016000604051602001613d2190615647565b60405160208183030381529060405280519060200120815260200190815260200160002060008373ffffffffffffffffffffffffffffffffffffffff1673ffffffffffffffffffffffffffffffffffffffff16815260200190815260200160002060006101000a81548160ff021916908315150217905550600060016000604051602001613dae9061565c565b60405160208183030381529060405280519060200120815260200190815260200160002060008373ffffffffffffffffffffffffffffffffffffffff1673ffffffffffffffffffffffffffffffffffffffff16815260200190815260200160002060006101000a81548160ff021916908315150217905550613fe1565b604051602001613e3a9061565c565b60405160208183030381529060405280519060200120821415613f7657600060016000604051602001613e6c90615647565b60405160208183030381529060405280519060200120815260200190815260200160002060008373ffffffffffffffffffffffffffffffffffffffff1673ffffffffffffffffffffffffffffffffffffffff16815260200190815260200160002060006101000a81548160ff021916908315150217905550600060016000604051602001613ef99061565c565b60405160208183030381529060405280519060200120815260200190815260200160002060008373ffffffffffffffffffffffffffffffffffffffff1673ffffffffffffffffffffffffffffffffffffffff16815260200190815260200160002060006101000a81548160ff021916908315150217905550613fe0565b60006001600084815260200190815260200160002060008373ffffffffffffffffffffffffffffffffffffffff1673ffffffffffffffffffffffffffffffffffffffff16815260200190815260200160002060006101000a81548160ff0219169083151502179055505b5b8073ffffffffffffffffffffffffffffffffffffffff16827f361ed204aa01d4d75ba515bde961d40c21f3791b474bb581df5d00e38b2be7bb60405160405180910390a35050565b60405160200161403890615671565b604051602081830303815290604052805190602001208214156141fe57600180600060405160200161406990615671565b60405160208183030381529060405280519060200120815260200190815260200160002060008373ffffffffffffffffffffffffffffffffffffffff1673ffffffffffffffffffffffffffffffffffffffff16815260200190815260200160002060006101000a81548160ff02191690831515021790555060018060006040516020016140f590615647565b60405160208183030381529060405280519060200120815260200190815260200160002060008373ffffffffffffffffffffffffffffffffffffffff1673ffffffffffffffffffffffffffffffffffffffff16815260200190815260200160002060006101000a81548160ff02191690831515021790555060018060006040516020016141819061565c565b60405160208183030381529060405280519060200120815260200190815260200160002060008373ffffffffffffffffffffffffffffffffffffffff1673ffffffffffffffffffffffffffffffffffffffff16815260200190815260200160002060006101000a81548160ff0219169083151502179055506143b1565b60405160200161420d9061565c565b6040516020818303038152906040528051906020012082141561434757600180600060405160200161423e90615647565b60405160208183030381529060405280519060200120815260200190815260200160002060008373ffffffffffffffffffffffffffffffffffffffff1673ffffffffffffffffffffffffffffffffffffffff16815260200190815260200160002060006101000a81548160ff02191690831515021790555060018060006040516020016142ca9061565c565b60405160208183030381529060405280519060200120815260200190815260200160002060008373ffffffffffffffffffffffffffffffffffffffff1673ffffffffffffffffffffffffffffffffffffffff16815260200190815260200160002060006101000a81548160ff0219169083151502179055506143b0565b600180600084815260200190815260200160002060008373ffffffffffffffffffffffffffffffffffffffff1673ffffffffffffffffffffffffffffffffffffffff16815260200190815260200160002060006101000a81548160ff0219169083151502179055505b5b8073ffffffffffffffffffffffffffffffffffffffff16827f5a06360d65acf95e98445dc834f205063424c636e65418d928cdfabc33a9539960405160405180910390a35050565b6040518061018001604052806060815260200160608152602001600081526020016060815260200160608152602001600080191681526020016000600981111561443f57fe5b815260200160008152602001600081526020016060815260200160608152602001606081525090565b828054600181600116156101000203166002900490600052602060002090601f016020900481019282601f106144a957805160ff19168380011785556144d7565b828001600101855582156144d7579182015b828111156144d65782518255916020019190600101906144bb565b5b5090506144e491906145ce565b5090565b828054600181600116156101000203166002900490600052602060002090601f016020900481019282601f1061452957803560ff1916838001178555614557565b82800160010185558215614557579182015b8281111561455657823582559160200191906001019061453b565b5b50905061456491906145ce565b5090565b6040518061014001604052806000801916815260200160008152602001606081526020016060815260200160008019168152602001606081526020016000815260200160008152602001600060028111156145bf57fe5b81526020016000151581525090565b6145f091905b808211156145ec5760008160009055506001016145d4565b5090565b90565b60008135905061460281615cae565b92915050565b600082601f83011261461957600080fd5b813561462c614627826159ae565b615981565b9150818183526020840193506020810190508385602084028201111561465157600080fd5b60005b838110156146815781614667888261468b565b845260208401935060208301925050600181019050614654565b5050505092915050565b60008135905061469a81615cc5565b92915050565b6000813590506146af81615cdc565b92915050565b6000813590506146c481615cec565b92915050565b60008083601f8401126146dc57600080fd5b8235905067ffffffffffffffff8111156146f557600080fd5b60208301915083600182028301111561470d57600080fd5b9250929050565b600082601f83011261472557600080fd5b8135614738614733826159d6565b615981565b9150808252602083016020830185838301111561475457600080fd5b61475f838284615c41565b50505092915050565b60008135905061477781615cfc565b92915050565b60006020828403121561478f57600080fd5b600061479d848285016145f3565b91505092915050565b60008060008060008060008060008060e08b8d0312156147c557600080fd5b60006147d38d828e016145f3565b9a505060206147e48d828e0161468b565b99505060408b013567ffffffffffffffff81111561480157600080fd5b61480d8d828e016146ca565b985098505060608b013567ffffffffffffffff81111561482c57600080fd5b6148388d828e016146ca565b9650965050608061484b8d828e0161468b565b94505060a08b013567ffffffffffffffff81111561486857600080fd5b6148748d828e016146ca565b935093505060c06148878d828e016146b5565b9150509295989b9194979a5092959850565b60008060008060008060c087890312156148b257600080fd5b60006148c089828a016145f3565b96505060206148d189828a0161468b565b955050604087013567ffffffffffffffff8111156148ee57600080fd5b6148fa89828a01614714565b945050606087013567ffffffffffffffff81111561491757600080fd5b61492389828a01614714565b935050608061493489828a0161468b565b92505060a087013567ffffffffffffffff81111561495157600080fd5b61495d89828a01614714565b9150509295509295509295565b60008060008060008060008060006101208a8c03121561498957600080fd5b60006149978c828d016145f3565b99505060208a013567ffffffffffffffff8111156149b457600080fd5b6149c08c828d01614714565b98505060408a013567ffffffffffffffff8111156149dd57600080fd5b6149e98c828d01614714565b97505060606149fa8c828d01614768565b96505060808a013567ffffffffffffffff811115614a1757600080fd5b614a238c828d01614714565b95505060a08a013567ffffffffffffffff811115614a4057600080fd5b614a4c8c828d01614714565b94505060c0614a5d8c828d0161468b565b93505060e0614a6e8c828d016146a0565b925050610100614a808c828d01614768565b9150509295985092959850929598565b60008060408385031215614aa357600080fd5b6000614ab1858286016145f3565b9250506020614ac285828601614768565b9150509250929050565b600080600060608486031215614ae157600080fd5b6000614aef868287016145f3565b9350506020614b0086828701614768565b9250506040614b11868287016146b5565b9150509250925092565b600060208284031215614b2d57600080fd5b6000614b3b8482850161468b565b91505092915050565b60008060408385031215614b5757600080fd5b6000614b658582860161468b565b9250506020614b76858286016145f3565b9150509250929050565b600060208284031215614b9257600080fd5b6000614ba084828501614768565b91505092915050565b60008060408385031215614bbc57600080fd5b6000614bca85828601614768565b925050602083013567ffffffffffffffff811115614be757600080fd5b614bf385828601614608565b9150509250929050565b600080600080600060a08688031215614c1557600080fd5b6000614c2388828901614768565b955050602086013567ffffffffffffffff811115614c4057600080fd5b614c4c88828901614714565b945050604086013567ffffffffffffffff811115614c6957600080fd5b614c7588828901614714565b9350506060614c868882890161468b565b9250506080614c97888289016146a0565b9150509295509295909350565b60008060408385031215614cb757600080fd5b6000614cc585828601614768565b9250506020614cd685828601614768565b9150509250929050565b6000614cec8383614d37565b60208301905092915050565b6000614d048383614f49565b60208301905092915050565b6000614d1c838361561a565b60208301905092915050565b614d3181615be7565b82525050565b614d4081615b62565b82525050565b614d4f81615b62565b82525050565b6000614d6082615a52565b614d6a8185615ae0565b9350614d7583615a02565b8060005b83811015614da6578151614d8d8882614ce0565b9750614d9883615a9f565b925050600181019050614d79565b5085935050505092915050565b6000614dbe82615a68565b614dc88185615b02565b9350614dd383615a22565b8060005b83811015614e04578151614deb8882614cf8565b9750614df683615ab9565b925050600181019050614dd7565b5085935050505092915050565b6000614e1c82615a5d565b614e268185615af1565b9350614e3183615a12565b8060005b83811015614e62578151614e498882614cf8565b9750614e5483615aac565b925050600181019050614e35565b5085935050505092915050565b6000614e7a82615a7e565b614e848185615b24565b9350614e8f83615a42565b8060005b83811015614ec0578151614ea78882614d10565b9750614eb283615ad3565b925050600181019050614e93565b5085935050505092915050565b6000614ed882615a73565b614ee28185615b13565b9350614eed83615a32565b8060005b83811015614f1e578151614f058882614d10565b9750614f1083615ac6565b925050600181019050614ef1565b5085935050505092915050565b614f3481615b74565b82525050565b614f4381615b74565b82525050565b614f5281615b80565b82525050565b614f6181615b80565b82525050565b614f7081615bf9565b82525050565b614f7f81615c0b565b82525050565b614f8e81615c0b565b82525050565b6000614f9f82615a94565b614fa98185615b46565b9350614fb9818560208601615c50565b614fc281615c83565b840191505092915050565b6000614fd882615a89565b614fe28185615b35565b9350614ff2818560208601615c50565b614ffb81615c83565b840191505092915050565b6000615013601f83615b46565b91507f557365722061646472657373206973206e6f7420696e697469616c697a6564006000830152602082019050919050565b6000615053603283615b46565b91507f54686973206164647265737320646f6573206e6f74206861766520746865207260008301527f6f6c6520746f206265207265766f6b65642e00000000000000000000000000006020830152604082019050919050565b60006150b9600483615b57565b91507f52656164000000000000000000000000000000000000000000000000000000006000830152600482019050919050565b60006150f9601383615b46565b91507f4e6f2066696c65206861732074686973206964000000000000000000000000006000830152602082019050919050565b6000615139600583615b57565b91507f57726974650000000000000000000000000000000000000000000000000000006000830152600582019050919050565b6000615179600583615b57565b91507f41646d696e0000000000000000000000000000000000000000000000000000006000830152600582019050919050565b60006151b9602583615b46565b91507f41646d696e206e6f7420617574686f72697a656420746f2064656c657465206f60008301527f776e3265720000000000000000000000000000000000000000000000000000006020830152604082019050919050565b600061521f600f83615b46565b91507f4e6f7420617574686f72697a65642100000000000000000000000000000000006000830152602082019050919050565b600061525f602383615b46565b91507f54686973206164647265737320616c726561647920686173207468697320726f60008301527f6c652100000000000000000000000000000000000000000000000000000000006020830152604082019050919050565b60006152c5601c83615b46565b91507f55736572206164647265737320697320616c72656164792075736564000000006000830152602082019050919050565b6000615305602383615b46565b91507f526f6c65733a206163636f756e7420697320746865207a65726f20616464726560008301527f73732100000000000000000000000000000000000000000000000000000000006020830152604082019050919050565b600061536b601e83615b46565b91507f4e6f7420616c6c6f77656420746f2073657420746869732073746174757300006000830152602082019050919050565b60006153ab602683615b46565b91507f41646d696e20636f756c64206e6f742073657420616e6f746865722061646d6960008301527f6e20726f6c6500000000000000000000000000000000000000000000000000006020830152604082019050919050565b60006101808301600083015184820360008601526154228282614fcd565b9150506020830151848203602086015261543c8282614fcd565b9150506040830151615451604086018261561a565b50606083015184820360608601526154698282614fcd565b915050608083015184820360808601526154838282614fcd565b91505060a083015161549860a0860182614f49565b5060c08301516154ab60c0860182614f67565b5060e08301516154be60e086018261561a565b506101008301516154d361010086018261561a565b506101208301518482036101208601526154ed8282614d55565b9150506101408301518482036101408601526155098282614ecd565b9150506101608301518482036101608601526155258282614e11565b9150508091505092915050565b60006101408301600083015161554b6000860182614f49565b50602083015161555e602086018261561a565b50604083015184820360408601526155768282614fcd565b915050606083015184820360608601526155908282614fcd565b91505060808301516155a56080860182614f49565b5060a083015184820360a08601526155bd8282614fcd565b91505060c08301516155d260c086018261561a565b5060e08301516155e560e086018261561a565b506101008301516155fa610100860182614f76565b5061012083015161560f610120860182614f2b565b508091505092915050565b61562381615bd0565b82525050565b61563281615bd0565b82525050565b61564181615bda565b82525050565b6000615652826150ac565b9150819050919050565b60006156678261512c565b9150819050919050565b600061567c8261516c565b9150819050919050565b600060208201905061569b6000830184614d46565b92915050565b60006060820190506156b66000830186614d28565b6156c36020830185614d46565b6156d06040830184615629565b949350505050565b600060208201905081810360008301526156f28184614db3565b905092915050565b600060208201905081810360008301526157148184614e6f565b905092915050565b60006020820190506157316000830184614f3a565b92915050565b600060408201905081810360008301526157518185614f94565b90506157606020830184615629565b9392505050565b6000602082019050818103600083015261578081615006565b9050919050565b600060208201905081810360008301526157a081615046565b9050919050565b600060208201905081810360008301526157c0816150ec565b9050919050565b600060208201905081810360008301526157e0816151ac565b9050919050565b6000602082019050818103600083015261580081615212565b9050919050565b6000602082019050818103600083015261582081615252565b9050919050565b60006020820190508181036000830152615840816152b8565b9050919050565b60006020820190508181036000830152615860816152f8565b9050919050565b600060208201905081810360008301526158808161535e565b9050919050565b600060208201905081810360008301526158a08161539e565b9050919050565b600060208201905081810360008301526158c18184615404565b905092915050565b600060208201905081810360008301526158e38184615532565b905092915050565b60006020820190506159006000830184615629565b92915050565b600060408201905061591b6000830185615629565b6159286020830184614f58565b9392505050565b60006060820190506159446000830186615629565b6159516020830185615629565b61595e6040830184614f85565b949350505050565b600060208201905061597b6000830184615638565b92915050565b6000604051905081810181811067ffffffffffffffff821117156159a457600080fd5b8060405250919050565b600067ffffffffffffffff8211156159c557600080fd5b602082029050602081019050919050565b600067ffffffffffffffff8211156159ed57600080fd5b601f19601f8301169050602081019050919050565b6000819050602082019050919050565b6000819050602082019050919050565b6000819050602082019050919050565b6000819050602082019050919050565b6000819050602082019050919050565b600081519050919050565b600081519050919050565b600081519050919050565b600081519050919050565b600081519050919050565b600081519050919050565b600081519050919050565b6000602082019050919050565b6000602082019050919050565b6000602082019050919050565b6000602082019050919050565b6000602082019050919050565b600082825260208201905092915050565b600082825260208201905092915050565b600082825260208201905092915050565b600082825260208201905092915050565b600082825260208201905092915050565b600082825260208201905092915050565b600082825260208201905092915050565b600081905092915050565b6000615b6d82615bb0565b9050919050565b60008115159050919050565b6000819050919050565b6000819050615b9882615c94565b919050565b6000819050615bab82615ca1565b919050565b600073ffffffffffffffffffffffffffffffffffffffff82169050919050565b6000819050919050565b600060ff82169050919050565b6000615bf282615c1d565b9050919050565b6000615c0482615b8a565b9050919050565b6000615c1682615b9d565b9050919050565b6000615c2882615c2f565b9050919050565b6000615c3a82615bb0565b9050919050565b82818337600083830152505050565b60005b83811015615c6e578082015181840152602081019050615c53565b83811115615c7d576000848401525b50505050565b6000601f19601f8301169050919050565b600a8110615c9e57fe5b50565b60038110615cab57fe5b50565b615cb781615b62565b8114615cc257600080fd5b50565b615cce81615b80565b8114615cd957600080fd5b50565b600a8110615ce957600080fd5b50565b60038110615cf957600080fd5b50565b615d0581615bd0565b8114615d1057600080fd5b5056fea365627a7a72315820f73b2315d6ad2939ddf91f4a67ec9c45ade39f364aca63e06e7c13c534db11e96c6578706572696d656e74616cf564736f6c63430005110040",
  "source": "// SPDX-License-Identifier: MIT\r\npragma solidity >=0.4.21 <0.9.0;\r\npragma experimental ABIEncoderV2;\r\n\r\ncontract Users {\r\n    // Data used for roles and security\r\n  address public owner;\r\n  bytes32 private constant Admin = keccak256(abi.encodePacked(\"Admin\"));\r\n  bytes32 private constant Read = keccak256(abi.encodePacked(\"Read\"));\r\n  bytes32 private constant Write = keccak256(abi.encodePacked(\"Write\"));\r\n  mapping(bytes32 => mapping(address => bool)) public roles;\r\n  event GrantRole(bytes32 indexed role, address indexed account);\r\n  event RemoveRole(bytes32 indexed role, address indexed account);\r\n\r\n    // Data used to store information about users and their assets\r\n  enum RightsCategory {\r\n    PersonalUseOnly,\r\n    CommercialUse,\r\n    Attribution,\r\n    DerivativeWorks,\r\n    NonTransferable,\r\n    LimitedEdition,\r\n    EducationalUse,\r\n    ResaleRights,\r\n    Expiration,\r\n    RegionSpecific\r\n  }\r\n  enum VerificationStatus {\r\n    NotVerified,\r\n    InProgress,\r\n    Verified\r\n  }\r\n  struct UploadedFile {\r\n    string fileTitle;\r\n    string fileReference;\r\n    uint fileSize;\r\n    string fileType;\r\n    string description;\r\n    bytes32 country;\r\n    RightsCategory ownershipRights;\r\n    uint uploadDate;\r\n    uint likes;\r\n    address[] pastOwners;\r\n    uint[] priceForTransfer;\r\n    bytes32[] conenctedTags;\r\n  }\r\n  struct UserModelStruct {\r\n    bytes32 userEmail;\r\n    uint dateOfRegistration;\r\n    string firstName;\r\n    string lastName;\r\n    bytes32 country;\r\n    string description;\r\n    uint allowedUploads;\r\n    uint index;\r\n    VerificationStatus verifyStatus;\r\n    bool uploadingInProgess;\r\n  }\r\n  mapping(address => UserModelStruct) private userModels;\r\n  address[] private userPointer;\r\n  event CreatedUser(address indexed userAddress, uint index, bytes32 userEmail);\r\n  event UpdatedUser(address indexed userAddress, uint index, bytes32 userEmail);\r\n  event DeletedUser(address userAddress, uint index);\r\n  event LogUpdateUserByAdmin(address indexed userAddress, uint index, uint allowedUploads, VerificationStatus verifyStatus);\r\n\r\n  uint fileCounter;\r\n  mapping(uint => UploadedFile) files;\r\n  mapping(address => uint[]) personalUserfiles;\r\n  mapping(bytes32 => uint[]) tagFiles;\r\n  bytes32[] tags;\r\n\r\n  event AddedFile(string fileReference, uint index);\r\n  event TransferredFile(address oldOwner, address newOwner, uint fileId);\r\n\r\n  constructor() public {\r\n    owner = msg.sender;\r\n    _grantRole(Admin, msg.sender);\r\n  }\r\n///----------------------------------------------------- ROLES LOGIC -----------------------------------------\r\n  modifier onlyRole (bytes32 _role) {\r\n    require(roles[_role][msg.sender], \"Not authorized!\");\r\n    _;\r\n  }\r\n  function _grantRole(bytes32 _role, address _account) internal {\r\n    if (_role==Admin){\r\n        roles[Admin][_account]=true;\r\n        roles[Read][_account]=true;\r\n        roles[Write][_account]=true;\r\n    } else if (_role==Write){\r\n        roles[Read][_account]=true;\r\n        roles[Write][_account]=true;\r\n    } else {\r\n        roles[_role][_account]=true;\r\n    }\r\n\r\n    emit GrantRole(_role, _account);\r\n  }\r\n\r\n  function grantAdminRole(address _account) external onlyRole(Admin) {\r\n    require(_account != address(0), \"Roles: account is the zero address!\");\r\n    require(!roles[Admin][_account], \"This address already has this role!\");\r\n    if (msg.sender == owner) {\r\n        _grantRole(Admin, _account);\r\n    }\r\n    else {\r\n        revert(\"Admin could not set another admin role\");\r\n    }\r\n  }\r\n\r\n  function grantWriteRole(address _account) external onlyRole(Admin) {\r\n    require(_account != address(0), \"Roles: account is the zero address!\");\r\n    require(!roles[Write][_account], \"This address already has this role!\");\r\n    _grantRole(Write, _account);\r\n  }\r\n\r\n  function grantReadRole(address _account) external onlyRole(Admin) {\r\n    require(_account != address(0), \"Roles: account is the zero address!\");\r\n    require(!roles[Read][_account], \"This address already has this role!\");\r\n    _grantRole(Read, _account);\r\n  }\r\n\r\n  function _deleteRole(bytes32 _role, address _account) internal {\r\n    if (_role==Admin){\r\n        roles[Admin][_account]=false;\r\n        roles[Read][_account]=false;\r\n        roles[Write][_account]=false;\r\n    } else if (_role==Write){\r\n        roles[Read][_account]=false;\r\n        roles[Write][_account]=false;\r\n    } else {\r\n        roles[_role][_account]=false;\r\n    }\r\n\r\n    emit RemoveRole(_role, _account);\r\n  }\r\n\r\n  function deleteAdminRole(address _account) external onlyRole(Admin) {\r\n    require(roles[Admin][_account], \"This address does not have the role to be revoked.\");\r\n    if (msg.sender == owner) {\r\n        _deleteRole(Admin, _account);\r\n    }\r\n    else {\r\n        revert(\"Admin not authorized to delete own2er\");\r\n    }\r\n  }\r\n  function deleteWriteRole(address _account) external onlyRole(Admin) {\r\n    require(roles[Write][_account], \"This address does not have the role to be revoked.\");\r\n    _deleteRole(Write, _account);\r\n  }\r\n\r\n  function deleteReadRole(address _account) external onlyRole(Admin) {\r\n    require(roles[Read][_account], \"This address does not have the role to be revoked.\");\r\n    _deleteRole(Read, _account);\r\n  }\r\n\r\n  function getRoleForUser(address userAccount) external view returns(uint8 role){\r\n    if (roles[Admin][userAccount]){\r\n      return 3;\r\n    } else if (roles[Write][userAccount]){\r\n      return 2;\r\n    } else if (roles[Read][userAccount]){\r\n      return 1;\r\n    }\r\n    return 0;\r\n  }\r\n\r\n///----------------------------------------------------- ROLES LOGIC END--------------------------------------\r\n////***************************************************** USER LOGIC  ******************************************\r\n  function isUser(address userAddress) public view returns(bool isRegistered) { //view: do not alter the state of the contract or the blockchain in any way.\r\n    if(userPointer.length == 0) return false;\r\n    return (userPointer[userModels[userAddress].index] == userAddress);\r\n  }\r\n\r\n  function getUserCount() public view returns(uint count)\r\n  {\r\n    return userPointer.length;\r\n  }\r\n\r\n  function getUserAtIndex(uint index) public view returns(address userAddress)\r\n  {\r\n    return userPointer[index];\r\n  }\r\n\r\n  function insertUser(address userAddress, \r\n    bytes32 userEmail,\r\n    string memory firstName,\r\n    string memory lastName,\r\n    bytes32 country,\r\n    string memory description) public returns(uint index) {\r\n    require(!isUser(userAddress), \"User address is already used\");\r\n    userModels[userAddress].userEmail = userEmail;\r\n    userModels[userAddress].firstName = firstName;\r\n    userModels[userAddress].lastName = lastName;\r\n    userModels[userAddress].country = country;\r\n    userModels[userAddress].description = description;\r\n\r\n    userModels[userAddress].dateOfRegistration = block.timestamp;\r\n    userModels[userAddress].allowedUploads = 5;\r\n    userModels[userAddress].index = userPointer.length;\r\n    userModels[userAddress].verifyStatus = VerificationStatus.NotVerified;\r\n    userModels[userAddress].uploadingInProgess = false;\r\n\r\n    userPointer.push(userAddress);\r\n    _grantRole(Write, userAddress);\r\n    emit CreatedUser(userAddress, userModels[userAddress].index, userEmail);\r\n    return userPointer.length-1;\r\n  }\r\n\r\n  function getUser(address userAddress) public view\r\n    returns(UserModelStruct memory)\r\n  {\r\n    require(isUser(userAddress), \"User address is not initialized\");\r\n    return userModels[userAddress];\r\n  }\r\n\r\n  function updateUserByAdmin(address userAddress, uint allowedUploads, VerificationStatus verifyStatus) external onlyRole(Admin) returns(bool success) \r\n  {\r\n    userModels[userAddress].allowedUploads = allowedUploads;\r\n    userModels[userAddress].verifyStatus = verifyStatus;\r\n    emit LogUpdateUserByAdmin(\r\n      userAddress, \r\n      userModels[userAddress].index,\r\n      userModels[userAddress].allowedUploads,\r\n      userModels[userAddress].verifyStatus);\r\n    return true;\r\n  }\r\n\r\n  function updateUser(address userAddress, \r\n    bytes32 userEmail,\r\n    string calldata firstName,\r\n    string calldata lastName,\r\n    bytes32 country,\r\n    string calldata description,\r\n    VerificationStatus verifyStatus) external returns(bool success) \r\n  {\r\n    require(isUser(userAddress), \"User address is not initialized\");\r\n    require(verifyStatus != VerificationStatus.Verified, \"Not allowed to set this status\");\r\n    userModels[userAddress].userEmail = userEmail;\r\n    userModels[userAddress].firstName = firstName;\r\n    userModels[userAddress].lastName = lastName;\r\n    userModels[userAddress].country = country;\r\n    userModels[userAddress].description = description;\r\n    userModels[userAddress].verifyStatus = verifyStatus;\r\n    emit UpdatedUser(\r\n      userAddress, \r\n      userModels[userAddress].index,\r\n      userModels[userAddress].userEmail);\r\n    return true;\r\n  }\r\n\r\n  function setVerified(address userAddress) external onlyRole(Admin) returns(bool isRegistered) { \r\n    require(isUser(userAddress), \"User address is not initialized\");\r\n    userModels[userAddress].verifyStatus = VerificationStatus.Verified;\r\n    return true;\r\n  }\r\n\r\n////***************************************************** USER LOGIC END ***************************************\r\n\r\n  function getFilesForAddress(address userAddress) public view returns(uint[] memory filesForAddress){\r\n    return personalUserfiles[userAddress];\r\n  }\r\n\r\n  function getFilesForTag(bytes32 tag) public view returns(uint[] memory filesForTag){\r\n    return tagFiles[tag];\r\n  }\r\n  function getFile(uint fileId) public view returns (UploadedFile memory) {\r\n    return files[fileId];\r\n  }\r\n\r\n  function getAllTags() public view returns (bytes32[] memory) {\r\n    return tags;\r\n  }\r\n\r\n  function addNewTagsToFile(uint fileId, bytes32[] memory newTags) public onlyRole(Write) returns(bool areTagsAdded) {\r\n    require(fileId < fileCounter, \"No file has this id\");\r\n    for (uint i = 0; i < newTags.length; i++) {\r\n      tags.push(newTags[i]);\r\n      tagFiles[newTags[i]].push(fileId);\r\n      files[fileId].conenctedTags.push(newTags[i]);\r\n    }\r\n    return true;\r\n  }\r\n\r\n  function addTagsToFile(uint fileId, bytes32[] memory existingTags) public onlyRole(Write) returns(bool areTagsAdded) {\r\n    require(fileId < fileCounter, \"No file has this id\");\r\n    for (uint i = 0; i < existingTags.length; i++) {\r\n      tagFiles[existingTags[i]].push(fileId);\r\n      files[fileId].conenctedTags.push(existingTags[i]);\r\n    }\r\n    return true;\r\n  }\r\n\r\n  function addFile(address userAddress, \r\n    string memory fileTitle,\r\n    string memory fileReference,\r\n    uint fileSize,\r\n    string memory fileType,\r\n    string memory description,\r\n    bytes32 country,\r\n    RightsCategory ownershipRights,\r\n    uint priceForTransfer) public onlyRole(Write) returns(uint index) {\r\n\r\n    require(isUser(userAddress), \"User address is not initialized\");\r\n    files[fileCounter].fileTitle = fileTitle;\r\n    files[fileCounter].fileReference = fileReference;\r\n    files[fileCounter].fileSize = fileSize;\r\n    files[fileCounter].fileType = fileType;\r\n    files[fileCounter].description = description;\r\n    files[fileCounter].country = country;\r\n    files[fileCounter].ownershipRights = ownershipRights;\r\n    files[fileCounter].uploadDate = block.timestamp;\r\n    files[fileCounter].likes = 0;\r\n    files[fileCounter].pastOwners.push(userAddress);\r\n    files[fileCounter].priceForTransfer.push(priceForTransfer);\r\n\r\n    personalUserfiles[userAddress].push(fileCounter);\r\n    userModels[userAddress].uploadingInProgess = false;\r\n\r\n    emit AddedFile(fileReference, fileCounter);\r\n    fileCounter++;\r\n    return fileCounter-1;\r\n  }\r\n  \r\n  function editFilePresentation( uint fileId,\r\n    string memory fileTitle,\r\n    string memory description,\r\n    bytes32 country,\r\n    RightsCategory ownershipRights) public onlyRole(Write) returns(uint index) {\r\n    require(fileId < fileCounter, \"No file has this id\");\r\n\r\n    files[fileId].fileTitle = fileTitle;\r\n    files[fileId].description = description;\r\n    files[fileId].country = country;\r\n    files[fileId].ownershipRights = ownershipRights;\r\n\r\n    return fileId;\r\n  }\r\n\r\n  // function editFileTehnical( uint fileId,\r\n  //   string memory fileReference,\r\n  //   uint fileSize,\r\n  //   string memory fileType) public onlyRole(Write) returns(uint index) {\r\n  //   require(fileId < fileCounter, \"No file has this id\");\r\n\r\n  //   files[fileId].fileReference = fileReference;\r\n  //   files[fileId].fileSize = fileSize;\r\n  //   files[fileId].fileType = fileType;\r\n\r\n  //   return fileId;\r\n  // }\r\n  //edit price for transfer\r\n  function editPrice( uint fileId, uint newPrice) external onlyRole(Write) returns(uint index) {\r\n    require(fileId < fileCounter, \"No file has this id\");\r\n    files[fileId].priceForTransfer.push(newPrice);\r\n    return fileId;\r\n  }\r\n  //add like\r\n    function changeLike ( uint fileId, uint increaseByAmount) external onlyRole(Write) returns(uint index) {\r\n    require(fileId < fileCounter, \"No file has this id\");\r\n    files[fileId].likes = files[fileId].likes + increaseByAmount;\r\n    return fileId;\r\n  }\r\n\r\n  //called by owner ; should this be modified to be called by the buyer?\r\n  function changeOwnerFile(address newUserAddress, uint fileId) public onlyRole(Write) returns(uint index){\r\n    require(fileId < fileCounter, \"No file has this id\");\r\n    //money\r\n    require(files[fileId].priceForTransfer[files[fileId].priceForTransfer.length-1] < newUserAddress.balance);\r\n    //old owner\r\n    for (uint i = 0; i < personalUserfiles[msg.sender].length; i++) {\r\n      if (personalUserfiles[msg.sender][i] == fileId) {\r\n        personalUserfiles[msg.sender][i] = personalUserfiles[msg.sender][personalUserfiles[msg.sender].length - 1];\r\n\r\n        personalUserfiles[msg.sender].pop();\r\n        break;\r\n      }\r\n    }\r\n    //history\r\n    files[fileId].pastOwners.push(newUserAddress);\r\n    //new owner\r\n    personalUserfiles[newUserAddress].push(fileId);\r\n    emit TransferredFile(msg.sender, newUserAddress, fileId);\r\n    return fileId;\r\n  }\r\n\r\n}",
  "sourcePath": "C:\\Users\\andre\\Desktop\\Licenta2\\Licenta2\\App\\src\\contracts\\Users.sol",
  "compiler": {
    "name": "solc",
    "version": "0.5.17+commit.d19bba13.Emscripten.clang"
  },
  "schemaVersion": "3.4.13",
  "updatedAt": "2023-08-21T07:26:43.887Z",
  "networkType": "ethereum",
  "devdoc": {
    "methods": {}
  },
  "userdoc": {
    "methods": {
      "getFilesForAddress(address)": {
        "notice": "/***************************************************** USER LOGIC END ***************************************"
      },
      "isUser(address)": {
        "notice": "----------------------------------------------------- ROLES LOGIC END-------------------------------------- /***************************************************** USER LOGIC  ******************************************"
      }
    }
  }
}